{
	"contracts/CSAMM.sol": {
		"CSAMM": {
			"abi": [
				{
					"inputs": [
						{
							"internalType": "address",
							"name": "_token0",
							"type": "address"
						},
						{
							"internalType": "address",
							"name": "_token1",
							"type": "address"
						}
					],
					"stateMutability": "nonpayable",
					"type": "constructor"
				},
				{
					"inputs": [
						{
							"internalType": "uint256",
							"name": "_amount0",
							"type": "uint256"
						},
						{
							"internalType": "uint256",
							"name": "_amount1",
							"type": "uint256"
						}
					],
					"name": "addLiquidity",
					"outputs": [
						{
							"internalType": "uint256",
							"name": "shares",
							"type": "uint256"
						}
					],
					"stateMutability": "nonpayable",
					"type": "function"
				},
				{
					"inputs": [
						{
							"internalType": "address",
							"name": "",
							"type": "address"
						}
					],
					"name": "balanceOf",
					"outputs": [
						{
							"internalType": "uint256",
							"name": "",
							"type": "uint256"
						}
					],
					"stateMutability": "view",
					"type": "function"
				},
				{
					"inputs": [
						{
							"internalType": "uint256",
							"name": "_shares",
							"type": "uint256"
						}
					],
					"name": "removeLiquidity",
					"outputs": [
						{
							"internalType": "uint256",
							"name": "d0",
							"type": "uint256"
						},
						{
							"internalType": "uint256",
							"name": "d1",
							"type": "uint256"
						}
					],
					"stateMutability": "nonpayable",
					"type": "function"
				},
				{
					"inputs": [],
					"name": "reserve0",
					"outputs": [
						{
							"internalType": "uint256",
							"name": "",
							"type": "uint256"
						}
					],
					"stateMutability": "view",
					"type": "function"
				},
				{
					"inputs": [],
					"name": "reserve1",
					"outputs": [
						{
							"internalType": "uint256",
							"name": "",
							"type": "uint256"
						}
					],
					"stateMutability": "view",
					"type": "function"
				},
				{
					"inputs": [
						{
							"internalType": "address",
							"name": "_tokenIn",
							"type": "address"
						},
						{
							"internalType": "uint256",
							"name": "_amountIn",
							"type": "uint256"
						}
					],
					"name": "swap",
					"outputs": [
						{
							"internalType": "uint256",
							"name": "amountOut",
							"type": "uint256"
						}
					],
					"stateMutability": "nonpayable",
					"type": "function"
				},
				{
					"inputs": [],
					"name": "token0",
					"outputs": [
						{
							"internalType": "contract IERC20",
							"name": "",
							"type": "address"
						}
					],
					"stateMutability": "view",
					"type": "function"
				},
				{
					"inputs": [],
					"name": "token1",
					"outputs": [
						{
							"internalType": "contract IERC20",
							"name": "",
							"type": "address"
						}
					],
					"stateMutability": "view",
					"type": "function"
				},
				{
					"inputs": [],
					"name": "totalSupply",
					"outputs": [
						{
							"internalType": "uint256",
							"name": "",
							"type": "uint256"
						}
					],
					"stateMutability": "view",
					"type": "function"
				}
			],
			"devdoc": {
				"kind": "dev",
				"methods": {},
				"version": 1
			},
			"evm": {
				"assembly": "    /* \"contracts/CSAMM.sol\":90:3029  contract CSAMM {... */\n  mstore(0x40, 0xc0)\n    /* \"contracts/CSAMM.sol\":300:411  constructor(address _token0, address _token1) {... */\n  callvalue\n  dup1\n  iszero\n  tag_1\n  jumpi\n  0x00\n  dup1\n  revert\ntag_1:\n  pop\n  mload(0x40)\n  sub(codesize, bytecodeSize)\n  dup1\n  bytecodeSize\n  dup4\n  codecopy\n  dup2\n  dup2\n  add\n  0x40\n  mstore\n  dup2\n  add\n  swap1\n  tag_2\n  swap2\n  swap1\n  tag_3\n  jump\t// in\ntag_2:\n    /* \"contracts/CSAMM.sol\":368:375  _token0 */\n  dup2\n    /* \"contracts/CSAMM.sol\":352:376  token0 = IERC20(_token0) */\n  0xffffffffffffffffffffffffffffffffffffffff\n  and\n  0x80\n  dup2\n  0xffffffffffffffffffffffffffffffffffffffff\n  and\n  dup2\n  mstore\n  pop\n  pop\n    /* \"contracts/CSAMM.sol\":398:405  _token1 */\n  dup1\n    /* \"contracts/CSAMM.sol\":382:406  token1 = IERC20(_token1) */\n  0xffffffffffffffffffffffffffffffffffffffff\n  and\n  0xa0\n  dup2\n  0xffffffffffffffffffffffffffffffffffffffff\n  and\n  dup2\n  mstore\n  pop\n  pop\n    /* \"contracts/CSAMM.sol\":300:411  constructor(address _token0, address _token1) {... */\n  pop\n  pop\n    /* \"contracts/CSAMM.sol\":90:3029  contract CSAMM {... */\n  jump(tag_6)\n    /* \"#utility.yul\":88:205   */\ntag_8:\n    /* \"#utility.yul\":197:198   */\n  0x00\n    /* \"#utility.yul\":194:195   */\n  dup1\n    /* \"#utility.yul\":187:199   */\n  revert\n    /* \"#utility.yul\":334:460   */\ntag_10:\n    /* \"#utility.yul\":371:378   */\n  0x00\n    /* \"#utility.yul\":411:453   */\n  0xffffffffffffffffffffffffffffffffffffffff\n    /* \"#utility.yul\":404:409   */\n  dup3\n    /* \"#utility.yul\":400:454   */\n  and\n    /* \"#utility.yul\":389:454   */\n  swap1\n  pop\n    /* \"#utility.yul\":334:460   */\n  swap2\n  swap1\n  pop\n  jump\t// out\n    /* \"#utility.yul\":466:562   */\ntag_11:\n    /* \"#utility.yul\":503:510   */\n  0x00\n    /* \"#utility.yul\":532:556   */\n  tag_20\n    /* \"#utility.yul\":550:555   */\n  dup3\n    /* \"#utility.yul\":532:556   */\n  tag_10\n  jump\t// in\ntag_20:\n    /* \"#utility.yul\":521:556   */\n  swap1\n  pop\n    /* \"#utility.yul\":466:562   */\n  swap2\n  swap1\n  pop\n  jump\t// out\n    /* \"#utility.yul\":568:690   */\ntag_12:\n    /* \"#utility.yul\":641:665   */\n  tag_22\n    /* \"#utility.yul\":659:664   */\n  dup2\n    /* \"#utility.yul\":641:665   */\n  tag_11\n  jump\t// in\ntag_22:\n    /* \"#utility.yul\":634:639   */\n  dup2\n    /* \"#utility.yul\":631:666   */\n  eq\n    /* \"#utility.yul\":621:684   */\n  tag_23\n  jumpi\n    /* \"#utility.yul\":680:681   */\n  0x00\n    /* \"#utility.yul\":677:678   */\n  dup1\n    /* \"#utility.yul\":670:682   */\n  revert\n    /* \"#utility.yul\":621:684   */\ntag_23:\n    /* \"#utility.yul\":568:690   */\n  pop\n  jump\t// out\n    /* \"#utility.yul\":696:839   */\ntag_13:\n    /* \"#utility.yul\":753:758   */\n  0x00\n    /* \"#utility.yul\":784:790   */\n  dup2\n    /* \"#utility.yul\":778:791   */\n  mload\n    /* \"#utility.yul\":769:791   */\n  swap1\n  pop\n    /* \"#utility.yul\":800:833   */\n  tag_25\n    /* \"#utility.yul\":827:832   */\n  dup2\n    /* \"#utility.yul\":800:833   */\n  tag_12\n  jump\t// in\ntag_25:\n    /* \"#utility.yul\":696:839   */\n  swap3\n  swap2\n  pop\n  pop\n  jump\t// out\n    /* \"#utility.yul\":845:1352   */\ntag_3:\n    /* \"#utility.yul\":924:930   */\n  0x00\n    /* \"#utility.yul\":932:938   */\n  dup1\n    /* \"#utility.yul\":981:983   */\n  0x40\n    /* \"#utility.yul\":969:978   */\n  dup4\n    /* \"#utility.yul\":960:967   */\n  dup6\n    /* \"#utility.yul\":956:979   */\n  sub\n    /* \"#utility.yul\":952:984   */\n  slt\n    /* \"#utility.yul\":949:1068   */\n  iszero\n  tag_27\n  jumpi\n    /* \"#utility.yul\":987:1066   */\n  tag_28\n  tag_8\n  jump\t// in\ntag_28:\n    /* \"#utility.yul\":949:1068   */\ntag_27:\n    /* \"#utility.yul\":1107:1108   */\n  0x00\n    /* \"#utility.yul\":1132:1196   */\n  tag_29\n    /* \"#utility.yul\":1188:1195   */\n  dup6\n    /* \"#utility.yul\":1179:1185   */\n  dup3\n    /* \"#utility.yul\":1168:1177   */\n  dup7\n    /* \"#utility.yul\":1164:1186   */\n  add\n    /* \"#utility.yul\":1132:1196   */\n  tag_13\n  jump\t// in\ntag_29:\n    /* \"#utility.yul\":1122:1196   */\n  swap3\n  pop\n    /* \"#utility.yul\":1078:1206   */\n  pop\n    /* \"#utility.yul\":1245:1247   */\n  0x20\n    /* \"#utility.yul\":1271:1335   */\n  tag_30\n    /* \"#utility.yul\":1327:1334   */\n  dup6\n    /* \"#utility.yul\":1318:1324   */\n  dup3\n    /* \"#utility.yul\":1307:1316   */\n  dup7\n    /* \"#utility.yul\":1303:1325   */\n  add\n    /* \"#utility.yul\":1271:1335   */\n  tag_13\n  jump\t// in\ntag_30:\n    /* \"#utility.yul\":1261:1335   */\n  swap2\n  pop\n    /* \"#utility.yul\":1216:1345   */\n  pop\n    /* \"#utility.yul\":845:1352   */\n  swap3\n  pop\n  swap3\n  swap1\n  pop\n  jump\t// out\n    /* \"contracts/CSAMM.sol\":90:3029  contract CSAMM {... */\ntag_6:\n  mload(0x80)\n  mload(0xa0)\n  codecopy(0x00, dataOffset(sub_0), dataSize(sub_0))\n  0x00\n  assignImmutable(\"0xe4b1702d9298fee62dfeccc57d322a463ad55ca201256d01f62b45b2e1c21c10\")\n  0x00\n  assignImmutable(\"0xceebf77a833b30520287ddd9478ff51abbdffa30aa90a8d655dba0e8a79ce0c1\")\n  return(0x00, dataSize(sub_0))\nstop\n\nsub_0: assembly {\n        /* \"contracts/CSAMM.sol\":90:3029  contract CSAMM {... */\n      mstore(0x40, 0x80)\n      callvalue\n      dup1\n      iszero\n      tag_1\n      jumpi\n      0x00\n      dup1\n      revert\n    tag_1:\n      pop\n      jumpi(tag_2, lt(calldatasize, 0x04))\n      shr(0xe0, calldataload(0x00))\n      dup1\n      0x70a08231\n      gt\n      tag_12\n      jumpi\n      dup1\n      0x70a08231\n      eq\n      tag_7\n      jumpi\n      dup1\n      0x9c8f9f23\n      eq\n      tag_8\n      jumpi\n      dup1\n      0x9cd441da\n      eq\n      tag_9\n      jumpi\n      dup1\n      0xd004f0f7\n      eq\n      tag_10\n      jumpi\n      dup1\n      0xd21220a7\n      eq\n      tag_11\n      jumpi\n      jump(tag_2)\n    tag_12:\n      dup1\n      0x0dfe1681\n      eq\n      tag_3\n      jumpi\n      dup1\n      0x18160ddd\n      eq\n      tag_4\n      jumpi\n      dup1\n      0x443cb4bc\n      eq\n      tag_5\n      jumpi\n      dup1\n      0x5a76f25e\n      eq\n      tag_6\n      jumpi\n    tag_2:\n      0x00\n      dup1\n      revert\n        /* \"contracts/CSAMM.sol\":109:139  IERC20 public immutable token0 */\n    tag_3:\n      tag_13\n      tag_14\n      jump\t// in\n    tag_13:\n      mload(0x40)\n      tag_15\n      swap2\n      swap1\n      tag_16\n      jump\t// in\n    tag_15:\n      mload(0x40)\n      dup1\n      swap2\n      sub\n      swap1\n      return\n        /* \"contracts/CSAMM.sol\":227:250  uint public totalSupply */\n    tag_4:\n      tag_17\n      tag_18\n      jump\t// in\n    tag_17:\n      mload(0x40)\n      tag_19\n      swap2\n      swap1\n      tag_20\n      jump\t// in\n    tag_19:\n      mload(0x40)\n      dup1\n      swap2\n      sub\n      swap1\n      return\n        /* \"contracts/CSAMM.sol\":178:198  uint public reserve0 */\n    tag_5:\n      tag_21\n      tag_22\n      jump\t// in\n    tag_21:\n      mload(0x40)\n      tag_23\n      swap2\n      swap1\n      tag_20\n      jump\t// in\n    tag_23:\n      mload(0x40)\n      dup1\n      swap2\n      sub\n      swap1\n      return\n        /* \"contracts/CSAMM.sol\":202:222  uint public reserve1 */\n    tag_6:\n      tag_24\n      tag_25\n      jump\t// in\n    tag_24:\n      mload(0x40)\n      tag_26\n      swap2\n      swap1\n      tag_20\n      jump\t// in\n    tag_26:\n      mload(0x40)\n      dup1\n      swap2\n      sub\n      swap1\n      return\n        /* \"contracts/CSAMM.sol\":254:295  mapping(address => uint) public balanceOf */\n    tag_7:\n      tag_27\n      0x04\n      dup1\n      calldatasize\n      sub\n      dup2\n      add\n      swap1\n      tag_28\n      swap2\n      swap1\n      tag_29\n      jump\t// in\n    tag_28:\n      tag_30\n      jump\t// in\n    tag_27:\n      mload(0x40)\n      tag_31\n      swap2\n      swap1\n      tag_20\n      jump\t// in\n    tag_31:\n      mload(0x40)\n      dup1\n      swap2\n      sub\n      swap1\n      return\n        /* \"contracts/CSAMM.sol\":2483:3026  function removeLiquidity(uint _shares) external returns (uint d0, uint d1) {... */\n    tag_8:\n      tag_32\n      0x04\n      dup1\n      calldatasize\n      sub\n      dup2\n      add\n      swap1\n      tag_33\n      swap2\n      swap1\n      tag_34\n      jump\t// in\n    tag_33:\n      tag_35\n      jump\t// in\n    tag_32:\n      mload(0x40)\n      tag_36\n      swap3\n      swap2\n      swap1\n      tag_37\n      jump\t// in\n    tag_36:\n      mload(0x40)\n      dup1\n      swap2\n      sub\n      swap1\n      return\n        /* \"contracts/CSAMM.sol\":1710:2479  function addLiquidity(uint _amount0, uint _amount1) external returns (uint shares) {... */\n    tag_9:\n      tag_38\n      0x04\n      dup1\n      calldatasize\n      sub\n      dup2\n      add\n      swap1\n      tag_39\n      swap2\n      swap1\n      tag_40\n      jump\t// in\n    tag_39:\n      tag_41\n      jump\t// in\n    tag_38:\n      mload(0x40)\n      tag_42\n      swap2\n      swap1\n      tag_20\n      jump\t// in\n    tag_42:\n      mload(0x40)\n      dup1\n      swap2\n      sub\n      swap1\n      return\n        /* \"contracts/CSAMM.sol\":760:1706  function swap(address _tokenIn, uint _amountIn) external returns (uint amountOut){... */\n    tag_10:\n      tag_43\n      0x04\n      dup1\n      calldatasize\n      sub\n      dup2\n      add\n      swap1\n      tag_44\n      swap2\n      swap1\n      tag_45\n      jump\t// in\n    tag_44:\n      tag_46\n      jump\t// in\n    tag_43:\n      mload(0x40)\n      tag_47\n      swap2\n      swap1\n      tag_20\n      jump\t// in\n    tag_47:\n      mload(0x40)\n      dup1\n      swap2\n      sub\n      swap1\n      return\n        /* \"contracts/CSAMM.sol\":143:173  IERC20 public immutable token1 */\n    tag_11:\n      tag_48\n      tag_49\n      jump\t// in\n    tag_48:\n      mload(0x40)\n      tag_50\n      swap2\n      swap1\n      tag_16\n      jump\t// in\n    tag_50:\n      mload(0x40)\n      dup1\n      swap2\n      sub\n      swap1\n      return\n        /* \"contracts/CSAMM.sol\":109:139  IERC20 public immutable token0 */\n    tag_14:\n      immutable(\"0xceebf77a833b30520287ddd9478ff51abbdffa30aa90a8d655dba0e8a79ce0c1\")\n      dup2\n      jump\t// out\n        /* \"contracts/CSAMM.sol\":227:250  uint public totalSupply */\n    tag_18:\n      sload(0x02)\n      dup2\n      jump\t// out\n        /* \"contracts/CSAMM.sol\":178:198  uint public reserve0 */\n    tag_22:\n      sload(0x00)\n      dup2\n      jump\t// out\n        /* \"contracts/CSAMM.sol\":202:222  uint public reserve1 */\n    tag_25:\n      sload(0x01)\n      dup2\n      jump\t// out\n        /* \"contracts/CSAMM.sol\":254:295  mapping(address => uint) public balanceOf */\n    tag_30:\n      mstore(0x20, 0x03)\n      dup1\n      0x00\n      mstore\n      keccak256(0x00, 0x40)\n      0x00\n      swap2\n      pop\n      swap1\n      pop\n      sload\n      dup2\n      jump\t// out\n        /* \"contracts/CSAMM.sol\":2483:3026  function removeLiquidity(uint _shares) external returns (uint d0, uint d1) {... */\n    tag_35:\n        /* \"contracts/CSAMM.sol\":2540:2547  uint d0 */\n      0x00\n        /* \"contracts/CSAMM.sol\":2549:2556  uint d1 */\n      dup1\n        /* \"contracts/CSAMM.sol\":2761:2772  totalSupply */\n      sload(0x02)\n        /* \"contracts/CSAMM.sol\":2750:2757  _shares */\n      dup4\n        /* \"contracts/CSAMM.sol\":2739:2747  reserve0 */\n      sload(0x00)\n        /* \"contracts/CSAMM.sol\":2739:2757  reserve0 * _shares */\n      tag_52\n      swap2\n      swap1\n      tag_53\n      jump\t// in\n    tag_52:\n        /* \"contracts/CSAMM.sol\":2738:2772  (reserve0 * _shares) / totalSupply */\n      tag_54\n      swap2\n      swap1\n      tag_55\n      jump\t// in\n    tag_54:\n        /* \"contracts/CSAMM.sol\":2733:2772  d0 = (reserve0 * _shares) / totalSupply */\n      swap2\n      pop\n        /* \"contracts/CSAMM.sol\":2806:2817  totalSupply */\n      sload(0x02)\n        /* \"contracts/CSAMM.sol\":2795:2802  _shares */\n      dup4\n        /* \"contracts/CSAMM.sol\":2784:2792  reserve1 */\n      sload(0x01)\n        /* \"contracts/CSAMM.sol\":2784:2802  reserve1 * _shares */\n      tag_56\n      swap2\n      swap1\n      tag_53\n      jump\t// in\n    tag_56:\n        /* \"contracts/CSAMM.sol\":2783:2817  (reserve1 * _shares) / totalSupply */\n      tag_57\n      swap2\n      swap1\n      tag_55\n      jump\t// in\n    tag_57:\n        /* \"contracts/CSAMM.sol\":2778:2817  d1 = (reserve1 * _shares) / totalSupply */\n      swap1\n      pop\n        /* \"contracts/CSAMM.sol\":2824:2850  _burn(msg.sender, _shares) */\n      tag_58\n        /* \"contracts/CSAMM.sol\":2830:2840  msg.sender */\n      caller\n        /* \"contracts/CSAMM.sol\":2842:2849  _shares */\n      dup5\n        /* \"contracts/CSAMM.sol\":2824:2829  _burn */\n      tag_59\n        /* \"contracts/CSAMM.sol\":2824:2850  _burn(msg.sender, _shares) */\n      jump\t// in\n    tag_58:\n        /* \"contracts/CSAMM.sol\":2856:2893  _update(reserve0 - d0, reserve1 - d1) */\n      tag_60\n        /* \"contracts/CSAMM.sol\":2875:2877  d0 */\n      dup3\n        /* \"contracts/CSAMM.sol\":2864:2872  reserve0 */\n      sload(0x00)\n        /* \"contracts/CSAMM.sol\":2864:2877  reserve0 - d0 */\n      tag_61\n      swap2\n      swap1\n      tag_62\n      jump\t// in\n    tag_61:\n        /* \"contracts/CSAMM.sol\":2890:2892  d1 */\n      dup3\n        /* \"contracts/CSAMM.sol\":2879:2887  reserve1 */\n      sload(0x01)\n        /* \"contracts/CSAMM.sol\":2879:2892  reserve1 - d1 */\n      tag_63\n      swap2\n      swap1\n      tag_62\n      jump\t// in\n    tag_63:\n        /* \"contracts/CSAMM.sol\":2856:2863  _update */\n      tag_64\n        /* \"contracts/CSAMM.sol\":2856:2893  _update(reserve0 - d0, reserve1 - d1) */\n      jump\t// in\n    tag_60:\n        /* \"contracts/CSAMM.sol\":2909:2910  0 */\n      0x00\n        /* \"contracts/CSAMM.sol\":2904:2906  d0 */\n      dup3\n        /* \"contracts/CSAMM.sol\":2904:2910  d0 > 0 */\n      gt\n        /* \"contracts/CSAMM.sol\":2900:2958  if (d0 > 0) {... */\n      iszero\n      tag_65\n      jumpi\n        /* \"contracts/CSAMM.sol\":2920:2926  token0 */\n      immutable(\"0xceebf77a833b30520287ddd9478ff51abbdffa30aa90a8d655dba0e8a79ce0c1\")\n        /* \"contracts/CSAMM.sol\":2920:2935  token0.transfer */\n      0xffffffffffffffffffffffffffffffffffffffff\n      and\n      0xa9059cbb\n        /* \"contracts/CSAMM.sol\":2936:2946  msg.sender */\n      caller\n        /* \"contracts/CSAMM.sol\":2948:2950  d0 */\n      dup5\n        /* \"contracts/CSAMM.sol\":2920:2951  token0.transfer(msg.sender, d0) */\n      mload(0x40)\n      dup4\n      0xffffffff\n      and\n      0xe0\n      shl\n      dup2\n      mstore\n      0x04\n      add\n      tag_66\n      swap3\n      swap2\n      swap1\n      tag_67\n      jump\t// in\n    tag_66:\n      0x20\n      mload(0x40)\n      dup1\n      dup4\n      sub\n      dup2\n      0x00\n      dup8\n      gas\n      call\n      iszero\n      dup1\n      iszero\n      tag_69\n      jumpi\n      returndatasize\n      0x00\n      dup1\n      returndatacopy\n      revert(0x00, returndatasize)\n    tag_69:\n      pop\n      pop\n      pop\n      pop\n      mload(0x40)\n      returndatasize\n      not(0x1f)\n      0x1f\n      dup3\n      add\n      and\n      dup3\n      add\n      dup1\n      0x40\n      mstore\n      pop\n      dup2\n      add\n      swap1\n      tag_70\n      swap2\n      swap1\n      tag_71\n      jump\t// in\n    tag_70:\n      pop\n        /* \"contracts/CSAMM.sol\":2900:2958  if (d0 > 0) {... */\n    tag_65:\n        /* \"contracts/CSAMM.sol\":2973:2974  0 */\n      0x00\n        /* \"contracts/CSAMM.sol\":2968:2970  d1 */\n      dup2\n        /* \"contracts/CSAMM.sol\":2968:2974  d1 > 0 */\n      gt\n        /* \"contracts/CSAMM.sol\":2964:3022  if (d1 > 0) {... */\n      iszero\n      tag_72\n      jumpi\n        /* \"contracts/CSAMM.sol\":2984:2990  token1 */\n      immutable(\"0xe4b1702d9298fee62dfeccc57d322a463ad55ca201256d01f62b45b2e1c21c10\")\n        /* \"contracts/CSAMM.sol\":2984:2999  token1.transfer */\n      0xffffffffffffffffffffffffffffffffffffffff\n      and\n      0xa9059cbb\n        /* \"contracts/CSAMM.sol\":3000:3010  msg.sender */\n      caller\n        /* \"contracts/CSAMM.sol\":3012:3014  d1 */\n      dup4\n        /* \"contracts/CSAMM.sol\":2984:3015  token1.transfer(msg.sender, d1) */\n      mload(0x40)\n      dup4\n      0xffffffff\n      and\n      0xe0\n      shl\n      dup2\n      mstore\n      0x04\n      add\n      tag_73\n      swap3\n      swap2\n      swap1\n      tag_67\n      jump\t// in\n    tag_73:\n      0x20\n      mload(0x40)\n      dup1\n      dup4\n      sub\n      dup2\n      0x00\n      dup8\n      gas\n      call\n      iszero\n      dup1\n      iszero\n      tag_75\n      jumpi\n      returndatasize\n      0x00\n      dup1\n      returndatacopy\n      revert(0x00, returndatasize)\n    tag_75:\n      pop\n      pop\n      pop\n      pop\n      mload(0x40)\n      returndatasize\n      not(0x1f)\n      0x1f\n      dup3\n      add\n      and\n      dup3\n      add\n      dup1\n      0x40\n      mstore\n      pop\n      dup2\n      add\n      swap1\n      tag_76\n      swap2\n      swap1\n      tag_71\n      jump\t// in\n    tag_76:\n      pop\n        /* \"contracts/CSAMM.sol\":2964:3022  if (d1 > 0) {... */\n    tag_72:\n        /* \"contracts/CSAMM.sol\":2483:3026  function removeLiquidity(uint _shares) external returns (uint d0, uint d1) {... */\n      swap2\n      pop\n      swap2\n      jump\t// out\n        /* \"contracts/CSAMM.sol\":1710:2479  function addLiquidity(uint _amount0, uint _amount1) external returns (uint shares) {... */\n    tag_41:\n        /* \"contracts/CSAMM.sol\":1780:1791  uint shares */\n      0x00\n        /* \"contracts/CSAMM.sol\":1799:1805  token0 */\n      immutable(\"0xceebf77a833b30520287ddd9478ff51abbdffa30aa90a8d655dba0e8a79ce0c1\")\n        /* \"contracts/CSAMM.sol\":1799:1818  token0.transferFrom */\n      0xffffffffffffffffffffffffffffffffffffffff\n      and\n      0x23b872dd\n        /* \"contracts/CSAMM.sol\":1819:1829  msg.sender */\n      caller\n        /* \"contracts/CSAMM.sol\":1839:1843  this */\n      address\n        /* \"contracts/CSAMM.sol\":1846:1854  _amount0 */\n      dup7\n        /* \"contracts/CSAMM.sol\":1799:1855  token0.transferFrom(msg.sender, address(this), _amount0) */\n      mload(0x40)\n      dup5\n      0xffffffff\n      and\n      0xe0\n      shl\n      dup2\n      mstore\n      0x04\n      add\n      tag_78\n      swap4\n      swap3\n      swap2\n      swap1\n      tag_79\n      jump\t// in\n    tag_78:\n      0x20\n      mload(0x40)\n      dup1\n      dup4\n      sub\n      dup2\n      0x00\n      dup8\n      gas\n      call\n      iszero\n      dup1\n      iszero\n      tag_81\n      jumpi\n      returndatasize\n      0x00\n      dup1\n      returndatacopy\n      revert(0x00, returndatasize)\n    tag_81:\n      pop\n      pop\n      pop\n      pop\n      mload(0x40)\n      returndatasize\n      not(0x1f)\n      0x1f\n      dup3\n      add\n      and\n      dup3\n      add\n      dup1\n      0x40\n      mstore\n      pop\n      dup2\n      add\n      swap1\n      tag_82\n      swap2\n      swap1\n      tag_71\n      jump\t// in\n    tag_82:\n      pop\n        /* \"contracts/CSAMM.sol\":1861:1867  token1 */\n      immutable(\"0xe4b1702d9298fee62dfeccc57d322a463ad55ca201256d01f62b45b2e1c21c10\")\n        /* \"contracts/CSAMM.sol\":1861:1880  token1.transferFrom */\n      0xffffffffffffffffffffffffffffffffffffffff\n      and\n      0x23b872dd\n        /* \"contracts/CSAMM.sol\":1881:1891  msg.sender */\n      caller\n        /* \"contracts/CSAMM.sol\":1901:1905  this */\n      address\n        /* \"contracts/CSAMM.sol\":1908:1916  _amount1 */\n      dup6\n        /* \"contracts/CSAMM.sol\":1861:1917  token1.transferFrom(msg.sender, address(this), _amount1) */\n      mload(0x40)\n      dup5\n      0xffffffff\n      and\n      0xe0\n      shl\n      dup2\n      mstore\n      0x04\n      add\n      tag_83\n      swap4\n      swap3\n      swap2\n      swap1\n      tag_79\n      jump\t// in\n    tag_83:\n      0x20\n      mload(0x40)\n      dup1\n      dup4\n      sub\n      dup2\n      0x00\n      dup8\n      gas\n      call\n      iszero\n      dup1\n      iszero\n      tag_85\n      jumpi\n      returndatasize\n      0x00\n      dup1\n      returndatacopy\n      revert(0x00, returndatasize)\n    tag_85:\n      pop\n      pop\n      pop\n      pop\n      mload(0x40)\n      returndatasize\n      not(0x1f)\n      0x1f\n      dup3\n      add\n      and\n      dup3\n      add\n      dup1\n      0x40\n      mstore\n      pop\n      dup2\n      add\n      swap1\n      tag_86\n      swap2\n      swap1\n      tag_71\n      jump\t// in\n    tag_86:\n      pop\n        /* \"contracts/CSAMM.sol\":1924:1933  uint bal0 */\n      0x00\n        /* \"contracts/CSAMM.sol\":1936:1942  token0 */\n      immutable(\"0xceebf77a833b30520287ddd9478ff51abbdffa30aa90a8d655dba0e8a79ce0c1\")\n        /* \"contracts/CSAMM.sol\":1936:1952  token0.balanceOf */\n      0xffffffffffffffffffffffffffffffffffffffff\n      and\n      0x70a08231\n        /* \"contracts/CSAMM.sol\":1961:1965  this */\n      address\n        /* \"contracts/CSAMM.sol\":1936:1967  token0.balanceOf(address(this)) */\n      mload(0x40)\n      dup3\n      0xffffffff\n      and\n      0xe0\n      shl\n      dup2\n      mstore\n      0x04\n      add\n      tag_87\n      swap2\n      swap1\n      tag_88\n      jump\t// in\n    tag_87:\n      0x20\n      mload(0x40)\n      dup1\n      dup4\n      sub\n      dup2\n      dup7\n      gas\n      staticcall\n      iszero\n      dup1\n      iszero\n      tag_90\n      jumpi\n      returndatasize\n      0x00\n      dup1\n      returndatacopy\n      revert(0x00, returndatasize)\n    tag_90:\n      pop\n      pop\n      pop\n      pop\n      mload(0x40)\n      returndatasize\n      not(0x1f)\n      0x1f\n      dup3\n      add\n      and\n      dup3\n      add\n      dup1\n      0x40\n      mstore\n      pop\n      dup2\n      add\n      swap1\n      tag_91\n      swap2\n      swap1\n      tag_92\n      jump\t// in\n    tag_91:\n        /* \"contracts/CSAMM.sol\":1924:1967  uint bal0 = token0.balanceOf(address(this)) */\n      swap1\n      pop\n        /* \"contracts/CSAMM.sol\":1973:1982  uint bal1 */\n      0x00\n        /* \"contracts/CSAMM.sol\":1985:1991  token1 */\n      immutable(\"0xe4b1702d9298fee62dfeccc57d322a463ad55ca201256d01f62b45b2e1c21c10\")\n        /* \"contracts/CSAMM.sol\":1985:2001  token1.balanceOf */\n      0xffffffffffffffffffffffffffffffffffffffff\n      and\n      0x70a08231\n        /* \"contracts/CSAMM.sol\":2010:2014  this */\n      address\n        /* \"contracts/CSAMM.sol\":1985:2016  token1.balanceOf(address(this)) */\n      mload(0x40)\n      dup3\n      0xffffffff\n      and\n      0xe0\n      shl\n      dup2\n      mstore\n      0x04\n      add\n      tag_93\n      swap2\n      swap1\n      tag_88\n      jump\t// in\n    tag_93:\n      0x20\n      mload(0x40)\n      dup1\n      dup4\n      sub\n      dup2\n      dup7\n      gas\n      staticcall\n      iszero\n      dup1\n      iszero\n      tag_95\n      jumpi\n      returndatasize\n      0x00\n      dup1\n      returndatacopy\n      revert(0x00, returndatasize)\n    tag_95:\n      pop\n      pop\n      pop\n      pop\n      mload(0x40)\n      returndatasize\n      not(0x1f)\n      0x1f\n      dup3\n      add\n      and\n      dup3\n      add\n      dup1\n      0x40\n      mstore\n      pop\n      dup2\n      add\n      swap1\n      tag_96\n      swap2\n      swap1\n      tag_92\n      jump\t// in\n    tag_96:\n        /* \"contracts/CSAMM.sol\":1973:2016  uint bal1 = token1.balanceOf(address(this)) */\n      swap1\n      pop\n        /* \"contracts/CSAMM.sol\":2023:2030  uint d0 */\n      0x00\n        /* \"contracts/CSAMM.sol\":2040:2048  reserve0 */\n      dup1\n      sload\n        /* \"contracts/CSAMM.sol\":2033:2037  bal0 */\n      dup4\n        /* \"contracts/CSAMM.sol\":2033:2048  bal0 - reserve0 */\n      tag_97\n      swap2\n      swap1\n      tag_62\n      jump\t// in\n    tag_97:\n        /* \"contracts/CSAMM.sol\":2023:2048  uint d0 = bal0 - reserve0 */\n      swap1\n      pop\n        /* \"contracts/CSAMM.sol\":2054:2061  uint d1 */\n      0x00\n        /* \"contracts/CSAMM.sol\":2071:2079  reserve1 */\n      sload(0x01)\n        /* \"contracts/CSAMM.sol\":2064:2068  bal1 */\n      dup4\n        /* \"contracts/CSAMM.sol\":2064:2079  bal1 - reserve1 */\n      tag_98\n      swap2\n      swap1\n      tag_62\n      jump\t// in\n    tag_98:\n        /* \"contracts/CSAMM.sol\":2054:2079  uint d1 = bal1 - reserve1 */\n      swap1\n      pop\n        /* \"contracts/CSAMM.sol\":2265:2266  0 */\n      0x00\n        /* \"contracts/CSAMM.sol\":2250:2261  totalSupply */\n      sload(0x02)\n        /* \"contracts/CSAMM.sol\":2250:2266  totalSupply == 0 */\n      sub\n        /* \"contracts/CSAMM.sol\":2246:2378  if (totalSupply == 0) {... */\n      tag_99\n      jumpi\n        /* \"contracts/CSAMM.sol\":2290:2292  d1 */\n      dup1\n        /* \"contracts/CSAMM.sol\":2285:2287  d0 */\n      dup3\n        /* \"contracts/CSAMM.sol\":2285:2292  d0 + d1 */\n      tag_100\n      swap2\n      swap1\n      tag_101\n      jump\t// in\n    tag_100:\n        /* \"contracts/CSAMM.sol\":2276:2292  shares = d0 + d1 */\n      swap5\n      pop\n        /* \"contracts/CSAMM.sol\":2246:2378  if (totalSupply == 0) {... */\n      jump(tag_102)\n    tag_99:\n        /* \"contracts/CSAMM.sol\":2362:2370  reserve1 */\n      sload(0x01)\n        /* \"contracts/CSAMM.sol\":2351:2359  reserve0 */\n      sload(0x00)\n        /* \"contracts/CSAMM.sol\":2351:2370  reserve0 + reserve1 */\n      tag_103\n      swap2\n      swap1\n      tag_101\n      jump\t// in\n    tag_103:\n        /* \"contracts/CSAMM.sol\":2335:2346  totalSupply */\n      sload(0x02)\n        /* \"contracts/CSAMM.sol\":2329:2331  d1 */\n      dup3\n        /* \"contracts/CSAMM.sol\":2324:2326  d0 */\n      dup5\n        /* \"contracts/CSAMM.sol\":2324:2331  d0 + d1 */\n      tag_104\n      swap2\n      swap1\n      tag_101\n      jump\t// in\n    tag_104:\n        /* \"contracts/CSAMM.sol\":2323:2346  (d0 + d1) * totalSupply */\n      tag_105\n      swap2\n      swap1\n      tag_53\n      jump\t// in\n    tag_105:\n        /* \"contracts/CSAMM.sol\":2322:2371  ((d0 + d1) * totalSupply) / (reserve0 + reserve1) */\n      tag_106\n      swap2\n      swap1\n      tag_55\n      jump\t// in\n    tag_106:\n        /* \"contracts/CSAMM.sol\":2313:2371  shares = ((d0 + d1) * totalSupply) / (reserve0 + reserve1) */\n      swap5\n      pop\n        /* \"contracts/CSAMM.sol\":2246:2378  if (totalSupply == 0) {... */\n    tag_102:\n        /* \"contracts/CSAMM.sol\":2401:2402  0 */\n      0x00\n        /* \"contracts/CSAMM.sol\":2392:2398  shares */\n      dup6\n        /* \"contracts/CSAMM.sol\":2392:2402  shares > 0 */\n      gt\n        /* \"contracts/CSAMM.sol\":2384:2417  require(shares > 0, \"shares = 0\") */\n      tag_107\n      jumpi\n      mload(0x40)\n      0x08c379a000000000000000000000000000000000000000000000000000000000\n      dup2\n      mstore\n      0x04\n      add\n      tag_108\n      swap1\n      tag_109\n      jump\t// in\n    tag_108:\n      mload(0x40)\n      dup1\n      swap2\n      sub\n      swap1\n      revert\n    tag_107:\n        /* \"contracts/CSAMM.sol\":2424:2449  _mint(msg.sender, shares) */\n      tag_110\n        /* \"contracts/CSAMM.sol\":2430:2440  msg.sender */\n      caller\n        /* \"contracts/CSAMM.sol\":2442:2448  shares */\n      dup7\n        /* \"contracts/CSAMM.sol\":2424:2429  _mint */\n      tag_111\n        /* \"contracts/CSAMM.sol\":2424:2449  _mint(msg.sender, shares) */\n      jump\t// in\n    tag_110:\n        /* \"contracts/CSAMM.sol\":2455:2474  _update(bal0, bal1) */\n      tag_112\n        /* \"contracts/CSAMM.sol\":2463:2467  bal0 */\n      dup5\n        /* \"contracts/CSAMM.sol\":2469:2473  bal1 */\n      dup5\n        /* \"contracts/CSAMM.sol\":2455:2462  _update */\n      tag_64\n        /* \"contracts/CSAMM.sol\":2455:2474  _update(bal0, bal1) */\n      jump\t// in\n    tag_112:\n        /* \"contracts/CSAMM.sol\":1793:2479  {... */\n      pop\n      pop\n      pop\n      pop\n        /* \"contracts/CSAMM.sol\":1710:2479  function addLiquidity(uint _amount0, uint _amount1) external returns (uint shares) {... */\n      swap3\n      swap2\n      pop\n      pop\n      jump\t// out\n        /* \"contracts/CSAMM.sol\":760:1706  function swap(address _tokenIn, uint _amountIn) external returns (uint amountOut){... */\n    tag_46:\n        /* \"contracts/CSAMM.sol\":826:840  uint amountOut */\n      0x00\n        /* \"contracts/CSAMM.sol\":882:888  token0 */\n      immutable(\"0xceebf77a833b30520287ddd9478ff51abbdffa30aa90a8d655dba0e8a79ce0c1\")\n        /* \"contracts/CSAMM.sol\":862:889  _tokenIn == address(token0) */\n      0xffffffffffffffffffffffffffffffffffffffff\n      and\n        /* \"contracts/CSAMM.sol\":862:870  _tokenIn */\n      dup4\n        /* \"contracts/CSAMM.sol\":862:889  _tokenIn == address(token0) */\n      0xffffffffffffffffffffffffffffffffffffffff\n      and\n      eq\n        /* \"contracts/CSAMM.sol\":862:920  _tokenIn == address(token0) || _tokenIn == address(token1) */\n      dup1\n      tag_114\n      jumpi\n      pop\n        /* \"contracts/CSAMM.sol\":913:919  token1 */\n      immutable(\"0xe4b1702d9298fee62dfeccc57d322a463ad55ca201256d01f62b45b2e1c21c10\")\n        /* \"contracts/CSAMM.sol\":893:920  _tokenIn == address(token1) */\n      0xffffffffffffffffffffffffffffffffffffffff\n      and\n        /* \"contracts/CSAMM.sol\":893:901  _tokenIn */\n      dup4\n        /* \"contracts/CSAMM.sol\":893:920  _tokenIn == address(token1) */\n      0xffffffffffffffffffffffffffffffffffffffff\n      and\n      eq\n        /* \"contracts/CSAMM.sol\":862:920  _tokenIn == address(token0) || _tokenIn == address(token1) */\n    tag_114:\n        /* \"contracts/CSAMM.sol\":847:945  require(... */\n      tag_115\n      jumpi\n      mload(0x40)\n      0x08c379a000000000000000000000000000000000000000000000000000000000\n      dup2\n      mstore\n      0x04\n      add\n      tag_116\n      swap1\n      tag_117\n      jump\t// in\n    tag_116:\n      mload(0x40)\n      dup1\n      swap2\n      sub\n      swap1\n      revert\n    tag_115:\n        /* \"contracts/CSAMM.sol\":952:965  bool isToken0 */\n      0x00\n        /* \"contracts/CSAMM.sol\":988:994  token0 */\n      immutable(\"0xceebf77a833b30520287ddd9478ff51abbdffa30aa90a8d655dba0e8a79ce0c1\")\n        /* \"contracts/CSAMM.sol\":968:995  _tokenIn == address(token0) */\n      0xffffffffffffffffffffffffffffffffffffffff\n      and\n        /* \"contracts/CSAMM.sol\":968:976  _tokenIn */\n      dup5\n        /* \"contracts/CSAMM.sol\":968:995  _tokenIn == address(token0) */\n      0xffffffffffffffffffffffffffffffffffffffff\n      and\n      eq\n        /* \"contracts/CSAMM.sol\":952:995  bool isToken0 = _tokenIn == address(token0) */\n      swap1\n      pop\n        /* \"contracts/CSAMM.sol\":1002:1016  IERC20 tokenIn */\n      0x00\n        /* \"contracts/CSAMM.sol\":1018:1033  IERC20 tokenOut */\n      dup1\n        /* \"contracts/CSAMM.sol\":1035:1045  uint resIn */\n      0x00\n        /* \"contracts/CSAMM.sol\":1047:1058  uint resOut */\n      dup1\n        /* \"contracts/CSAMM.sol\":1062:1070  isToken0 */\n      dup5\n        /* \"contracts/CSAMM.sol\":1062:1158  isToken0 ? ... */\n      tag_118\n      jumpi\n        /* \"contracts/CSAMM.sol\":1123:1129  token1 */\n      immutable(\"0xe4b1702d9298fee62dfeccc57d322a463ad55ca201256d01f62b45b2e1c21c10\")\n        /* \"contracts/CSAMM.sol\":1131:1137  token0 */\n      immutable(\"0xceebf77a833b30520287ddd9478ff51abbdffa30aa90a8d655dba0e8a79ce0c1\")\n        /* \"contracts/CSAMM.sol\":1139:1147  reserve1 */\n      sload(0x01)\n        /* \"contracts/CSAMM.sol\":1149:1157  reserve0 */\n      sload(0x00)\n        /* \"contracts/CSAMM.sol\":1062:1158  isToken0 ? ... */\n      jump(tag_119)\n    tag_118:\n        /* \"contracts/CSAMM.sol\":1079:1085  token0 */\n      immutable(\"0xceebf77a833b30520287ddd9478ff51abbdffa30aa90a8d655dba0e8a79ce0c1\")\n        /* \"contracts/CSAMM.sol\":1087:1093  token1 */\n      immutable(\"0xe4b1702d9298fee62dfeccc57d322a463ad55ca201256d01f62b45b2e1c21c10\")\n        /* \"contracts/CSAMM.sol\":1095:1103  reserve0 */\n      sload(0x00)\n        /* \"contracts/CSAMM.sol\":1105:1113  reserve1 */\n      sload(0x01)\n        /* \"contracts/CSAMM.sol\":1062:1158  isToken0 ? ... */\n    tag_119:\n        /* \"contracts/CSAMM.sol\":1001:1158  (IERC20 tokenIn, IERC20 tokenOut, uint resIn, uint resOut) = isToken0 ? ... */\n      swap4\n      pop\n      swap4\n      pop\n      swap4\n      pop\n      swap4\n      pop\n        /* \"contracts/CSAMM.sol\":1190:1197  tokenIn */\n      dup4\n        /* \"contracts/CSAMM.sol\":1190:1210  tokenIn.transferFrom */\n      0xffffffffffffffffffffffffffffffffffffffff\n      and\n      0x23b872dd\n        /* \"contracts/CSAMM.sol\":1211:1221  msg.sender */\n      caller\n        /* \"contracts/CSAMM.sol\":1231:1235  this */\n      address\n        /* \"contracts/CSAMM.sol\":1238:1247  _amountIn */\n      dup11\n        /* \"contracts/CSAMM.sol\":1190:1248  tokenIn.transferFrom(msg.sender, address(this), _amountIn) */\n      mload(0x40)\n      dup5\n      0xffffffff\n      and\n      0xe0\n      shl\n      dup2\n      mstore\n      0x04\n      add\n      tag_120\n      swap4\n      swap3\n      swap2\n      swap1\n      tag_79\n      jump\t// in\n    tag_120:\n      0x20\n      mload(0x40)\n      dup1\n      dup4\n      sub\n      dup2\n      0x00\n      dup8\n      gas\n      call\n      iszero\n      dup1\n      iszero\n      tag_122\n      jumpi\n      returndatasize\n      0x00\n      dup1\n      returndatacopy\n      revert(0x00, returndatasize)\n    tag_122:\n      pop\n      pop\n      pop\n      pop\n      mload(0x40)\n      returndatasize\n      not(0x1f)\n      0x1f\n      dup3\n      add\n      and\n      dup3\n      add\n      dup1\n      0x40\n      mstore\n      pop\n      dup2\n      add\n      swap1\n      tag_123\n      swap2\n      swap1\n      tag_71\n      jump\t// in\n    tag_123:\n      pop\n        /* \"contracts/CSAMM.sol\":1255:1268  uint amountIn */\n      0x00\n        /* \"contracts/CSAMM.sol\":1306:1311  resIn */\n      dup3\n        /* \"contracts/CSAMM.sol\":1271:1278  tokenIn */\n      dup6\n        /* \"contracts/CSAMM.sol\":1271:1288  tokenIn.balanceOf */\n      0xffffffffffffffffffffffffffffffffffffffff\n      and\n      0x70a08231\n        /* \"contracts/CSAMM.sol\":1297:1301  this */\n      address\n        /* \"contracts/CSAMM.sol\":1271:1303  tokenIn.balanceOf(address(this)) */\n      mload(0x40)\n      dup3\n      0xffffffff\n      and\n      0xe0\n      shl\n      dup2\n      mstore\n      0x04\n      add\n      tag_124\n      swap2\n      swap1\n      tag_88\n      jump\t// in\n    tag_124:\n      0x20\n      mload(0x40)\n      dup1\n      dup4\n      sub\n      dup2\n      dup7\n      gas\n      staticcall\n      iszero\n      dup1\n      iszero\n      tag_126\n      jumpi\n      returndatasize\n      0x00\n      dup1\n      returndatacopy\n      revert(0x00, returndatasize)\n    tag_126:\n      pop\n      pop\n      pop\n      pop\n      mload(0x40)\n      returndatasize\n      not(0x1f)\n      0x1f\n      dup3\n      add\n      and\n      dup3\n      add\n      dup1\n      0x40\n      mstore\n      pop\n      dup2\n      add\n      swap1\n      tag_127\n      swap2\n      swap1\n      tag_92\n      jump\t// in\n    tag_127:\n        /* \"contracts/CSAMM.sol\":1271:1311  tokenIn.balanceOf(address(this)) - resIn */\n      tag_128\n      swap2\n      swap1\n      tag_62\n      jump\t// in\n    tag_128:\n        /* \"contracts/CSAMM.sol\":1255:1311  uint amountIn = tokenIn.balanceOf(address(this)) - resIn */\n      swap1\n      pop\n        /* \"contracts/CSAMM.sol\":1429:1432  100 */\n      0x64\n        /* \"contracts/CSAMM.sol\":1422:1425  997 */\n      0x03e5\n        /* \"contracts/CSAMM.sol\":1411:1419  amountIn */\n      dup3\n        /* \"contracts/CSAMM.sol\":1411:1425  amountIn * 997 */\n      tag_129\n      swap2\n      swap1\n      tag_53\n      jump\t// in\n    tag_129:\n        /* \"contracts/CSAMM.sol\":1410:1432  (amountIn * 997) / 100 */\n      tag_130\n      swap2\n      swap1\n      tag_55\n      jump\t// in\n    tag_130:\n        /* \"contracts/CSAMM.sol\":1398:1432  amountOut = (amountIn * 997) / 100 */\n      swap7\n      pop\n        /* \"contracts/CSAMM.sol\":1476:1485  uint res0 */\n      0x00\n        /* \"contracts/CSAMM.sol\":1487:1496  uint res1 */\n      dup1\n        /* \"contracts/CSAMM.sol\":1500:1508  isToken0 */\n      dup8\n        /* \"contracts/CSAMM.sol\":1500:1602  isToken0 ? ... */\n      tag_131\n      jumpi\n        /* \"contracts/CSAMM.sol\":1573:1582  amountOut */\n      dup9\n        /* \"contracts/CSAMM.sol\":1564:1570  resOut */\n      dup5\n        /* \"contracts/CSAMM.sol\":1564:1582  resOut - amountOut */\n      tag_132\n      swap2\n      swap1\n      tag_62\n      jump\t// in\n    tag_132:\n        /* \"contracts/CSAMM.sol\":1592:1601  _amountIn */\n      dup11\n        /* \"contracts/CSAMM.sol\":1584:1589  resIn */\n      dup7\n        /* \"contracts/CSAMM.sol\":1584:1601  resIn + _amountIn */\n      tag_133\n      swap2\n      swap1\n      tag_101\n      jump\t// in\n    tag_133:\n        /* \"contracts/CSAMM.sol\":1500:1602  isToken0 ? ... */\n      jump(tag_134)\n    tag_131:\n        /* \"contracts/CSAMM.sol\":1525:1534  _amountIn */\n      dup10\n        /* \"contracts/CSAMM.sol\":1517:1522  resIn */\n      dup6\n        /* \"contracts/CSAMM.sol\":1517:1534  resIn + _amountIn */\n      tag_135\n      swap2\n      swap1\n      tag_101\n      jump\t// in\n    tag_135:\n        /* \"contracts/CSAMM.sol\":1545:1554  amountOut */\n      dup10\n        /* \"contracts/CSAMM.sol\":1536:1542  resOut */\n      dup6\n        /* \"contracts/CSAMM.sol\":1536:1554  resOut - amountOut */\n      tag_136\n      swap2\n      swap1\n      tag_62\n      jump\t// in\n    tag_136:\n        /* \"contracts/CSAMM.sol\":1500:1602  isToken0 ? ... */\n    tag_134:\n        /* \"contracts/CSAMM.sol\":1475:1602  (uint res0, uint res1) = isToken0 ? ... */\n      swap2\n      pop\n      swap2\n      pop\n        /* \"contracts/CSAMM.sol\":1609:1628  _update(res0, res1) */\n      tag_137\n        /* \"contracts/CSAMM.sol\":1617:1621  res0 */\n      dup3\n        /* \"contracts/CSAMM.sol\":1623:1627  res1 */\n      dup3\n        /* \"contracts/CSAMM.sol\":1609:1616  _update */\n      tag_64\n        /* \"contracts/CSAMM.sol\":1609:1628  _update(res0, res1) */\n      jump\t// in\n    tag_137:\n        /* \"contracts/CSAMM.sol\":1661:1669  tokenOut */\n      dup6\n        /* \"contracts/CSAMM.sol\":1661:1678  tokenOut.transfer */\n      0xffffffffffffffffffffffffffffffffffffffff\n      and\n      0xa9059cbb\n        /* \"contracts/CSAMM.sol\":1679:1689  msg.sender */\n      caller\n        /* \"contracts/CSAMM.sol\":1691:1700  amountOut */\n      dup12\n        /* \"contracts/CSAMM.sol\":1661:1701  tokenOut.transfer(msg.sender, amountOut) */\n      mload(0x40)\n      dup4\n      0xffffffff\n      and\n      0xe0\n      shl\n      dup2\n      mstore\n      0x04\n      add\n      tag_138\n      swap3\n      swap2\n      swap1\n      tag_67\n      jump\t// in\n    tag_138:\n      0x20\n      mload(0x40)\n      dup1\n      dup4\n      sub\n      dup2\n      0x00\n      dup8\n      gas\n      call\n      iszero\n      dup1\n      iszero\n      tag_140\n      jumpi\n      returndatasize\n      0x00\n      dup1\n      returndatacopy\n      revert(0x00, returndatasize)\n    tag_140:\n      pop\n      pop\n      pop\n      pop\n      mload(0x40)\n      returndatasize\n      not(0x1f)\n      0x1f\n      dup3\n      add\n      and\n      dup3\n      add\n      dup1\n      0x40\n      mstore\n      pop\n      dup2\n      add\n      swap1\n      tag_141\n      swap2\n      swap1\n      tag_71\n      jump\t// in\n    tag_141:\n      pop\n        /* \"contracts/CSAMM.sol\":841:1706  {... */\n      pop\n      pop\n      pop\n      pop\n      pop\n      pop\n      pop\n      pop\n        /* \"contracts/CSAMM.sol\":760:1706  function swap(address _tokenIn, uint _amountIn) external returns (uint amountOut){... */\n      swap3\n      swap2\n      pop\n      pop\n      jump\t// out\n        /* \"contracts/CSAMM.sol\":143:173  IERC20 public immutable token1 */\n    tag_49:\n      immutable(\"0xe4b1702d9298fee62dfeccc57d322a463ad55ca201256d01f62b45b2e1c21c10\")\n      dup2\n      jump\t// out\n        /* \"contracts/CSAMM.sol\":534:652  function _burn(address _from, uint _amount) private {... */\n    tag_59:\n        /* \"contracts/CSAMM.sol\":612:619  _amount */\n      dup1\n        /* \"contracts/CSAMM.sol\":592:601  balanceOf */\n      0x03\n        /* \"contracts/CSAMM.sol\":592:608  balanceOf[_from] */\n      0x00\n        /* \"contracts/CSAMM.sol\":602:607  _from */\n      dup5\n        /* \"contracts/CSAMM.sol\":592:608  balanceOf[_from] */\n      0xffffffffffffffffffffffffffffffffffffffff\n      and\n      0xffffffffffffffffffffffffffffffffffffffff\n      and\n      dup2\n      mstore\n      0x20\n      add\n      swap1\n      dup2\n      mstore\n      0x20\n      add\n      0x00\n      keccak256\n      0x00\n        /* \"contracts/CSAMM.sol\":592:619  balanceOf[_from] -= _amount */\n      dup3\n      dup3\n      sload\n      tag_143\n      swap2\n      swap1\n      tag_62\n      jump\t// in\n    tag_143:\n      swap3\n      pop\n      pop\n      dup2\n      swap1\n      sstore\n      pop\n        /* \"contracts/CSAMM.sol\":640:647  _amount */\n      dup1\n        /* \"contracts/CSAMM.sol\":625:636  totalSupply */\n      0x02\n      0x00\n        /* \"contracts/CSAMM.sol\":625:647  totalSupply -= _amount */\n      dup3\n      dup3\n      sload\n      tag_144\n      swap2\n      swap1\n      tag_62\n      jump\t// in\n    tag_144:\n      swap3\n      pop\n      pop\n      dup2\n      swap1\n      sstore\n      pop\n        /* \"contracts/CSAMM.sol\":534:652  function _burn(address _from, uint _amount) private {... */\n      pop\n      pop\n      jump\t// out\n        /* \"contracts/CSAMM.sol\":657:755  function _update(uint _res0, uint _res1) private {... */\n    tag_64:\n        /* \"contracts/CSAMM.sol\":723:728  _res0 */\n      dup2\n        /* \"contracts/CSAMM.sol\":712:720  reserve0 */\n      0x00\n        /* \"contracts/CSAMM.sol\":712:728  reserve0 = _res0 */\n      dup2\n      swap1\n      sstore\n      pop\n        /* \"contracts/CSAMM.sol\":745:750  _res1 */\n      dup1\n        /* \"contracts/CSAMM.sol\":734:742  reserve1 */\n      0x01\n        /* \"contracts/CSAMM.sol\":734:750  reserve1 = _res1 */\n      dup2\n      swap1\n      sstore\n      pop\n        /* \"contracts/CSAMM.sol\":657:755  function _update(uint _res0, uint _res1) private {... */\n      pop\n      pop\n      jump\t// out\n        /* \"contracts/CSAMM.sol\":415:529  function _mint(address _to, uint _amount) private {... */\n    tag_111:\n        /* \"contracts/CSAMM.sol\":489:496  _amount */\n      dup1\n        /* \"contracts/CSAMM.sol\":471:480  balanceOf */\n      0x03\n        /* \"contracts/CSAMM.sol\":471:485  balanceOf[_to] */\n      0x00\n        /* \"contracts/CSAMM.sol\":481:484  _to */\n      dup5\n        /* \"contracts/CSAMM.sol\":471:485  balanceOf[_to] */\n      0xffffffffffffffffffffffffffffffffffffffff\n      and\n      0xffffffffffffffffffffffffffffffffffffffff\n      and\n      dup2\n      mstore\n      0x20\n      add\n      swap1\n      dup2\n      mstore\n      0x20\n      add\n      0x00\n      keccak256\n      0x00\n        /* \"contracts/CSAMM.sol\":471:496  balanceOf[_to] += _amount */\n      dup3\n      dup3\n      sload\n      tag_147\n      swap2\n      swap1\n      tag_101\n      jump\t// in\n    tag_147:\n      swap3\n      pop\n      pop\n      dup2\n      swap1\n      sstore\n      pop\n        /* \"contracts/CSAMM.sol\":517:524  _amount */\n      dup1\n        /* \"contracts/CSAMM.sol\":502:513  totalSupply */\n      0x02\n      0x00\n        /* \"contracts/CSAMM.sol\":502:524  totalSupply += _amount */\n      dup3\n      dup3\n      sload\n      tag_148\n      swap2\n      swap1\n      tag_101\n      jump\t// in\n    tag_148:\n      swap3\n      pop\n      pop\n      dup2\n      swap1\n      sstore\n      pop\n        /* \"contracts/CSAMM.sol\":415:529  function _mint(address _to, uint _amount) private {... */\n      pop\n      pop\n      jump\t// out\n        /* \"#utility.yul\":7:133   */\n    tag_149:\n        /* \"#utility.yul\":44:51   */\n      0x00\n        /* \"#utility.yul\":84:126   */\n      0xffffffffffffffffffffffffffffffffffffffff\n        /* \"#utility.yul\":77:82   */\n      dup3\n        /* \"#utility.yul\":73:127   */\n      and\n        /* \"#utility.yul\":62:127   */\n      swap1\n      pop\n        /* \"#utility.yul\":7:133   */\n      swap2\n      swap1\n      pop\n      jump\t// out\n        /* \"#utility.yul\":139:199   */\n    tag_150:\n        /* \"#utility.yul\":167:170   */\n      0x00\n        /* \"#utility.yul\":188:193   */\n      dup2\n        /* \"#utility.yul\":181:193   */\n      swap1\n      pop\n        /* \"#utility.yul\":139:199   */\n      swap2\n      swap1\n      pop\n      jump\t// out\n        /* \"#utility.yul\":205:347   */\n    tag_151:\n        /* \"#utility.yul\":255:264   */\n      0x00\n        /* \"#utility.yul\":288:341   */\n      tag_181\n        /* \"#utility.yul\":306:340   */\n      tag_182\n        /* \"#utility.yul\":315:339   */\n      tag_183\n        /* \"#utility.yul\":333:338   */\n      dup5\n        /* \"#utility.yul\":315:339   */\n      tag_149\n      jump\t// in\n    tag_183:\n        /* \"#utility.yul\":306:340   */\n      tag_150\n      jump\t// in\n    tag_182:\n        /* \"#utility.yul\":288:341   */\n      tag_149\n      jump\t// in\n    tag_181:\n        /* \"#utility.yul\":275:341   */\n      swap1\n      pop\n        /* \"#utility.yul\":205:347   */\n      swap2\n      swap1\n      pop\n      jump\t// out\n        /* \"#utility.yul\":353:479   */\n    tag_152:\n        /* \"#utility.yul\":403:412   */\n      0x00\n        /* \"#utility.yul\":436:473   */\n      tag_185\n        /* \"#utility.yul\":467:472   */\n      dup3\n        /* \"#utility.yul\":436:473   */\n      tag_151\n      jump\t// in\n    tag_185:\n        /* \"#utility.yul\":423:473   */\n      swap1\n      pop\n        /* \"#utility.yul\":353:479   */\n      swap2\n      swap1\n      pop\n      jump\t// out\n        /* \"#utility.yul\":485:625   */\n    tag_153:\n        /* \"#utility.yul\":549:558   */\n      0x00\n        /* \"#utility.yul\":582:619   */\n      tag_187\n        /* \"#utility.yul\":613:618   */\n      dup3\n        /* \"#utility.yul\":582:619   */\n      tag_152\n      jump\t// in\n    tag_187:\n        /* \"#utility.yul\":569:619   */\n      swap1\n      pop\n        /* \"#utility.yul\":485:625   */\n      swap2\n      swap1\n      pop\n      jump\t// out\n        /* \"#utility.yul\":631:790   */\n    tag_154:\n        /* \"#utility.yul\":732:783   */\n      tag_189\n        /* \"#utility.yul\":777:782   */\n      dup2\n        /* \"#utility.yul\":732:783   */\n      tag_153\n      jump\t// in\n    tag_189:\n        /* \"#utility.yul\":727:730   */\n      dup3\n        /* \"#utility.yul\":720:784   */\n      mstore\n        /* \"#utility.yul\":631:790   */\n      pop\n      pop\n      jump\t// out\n        /* \"#utility.yul\":796:1046   */\n    tag_16:\n        /* \"#utility.yul\":903:907   */\n      0x00\n        /* \"#utility.yul\":941:943   */\n      0x20\n        /* \"#utility.yul\":930:939   */\n      dup3\n        /* \"#utility.yul\":926:944   */\n      add\n        /* \"#utility.yul\":918:944   */\n      swap1\n      pop\n        /* \"#utility.yul\":954:1039   */\n      tag_191\n        /* \"#utility.yul\":1036:1037   */\n      0x00\n        /* \"#utility.yul\":1025:1034   */\n      dup4\n        /* \"#utility.yul\":1021:1038   */\n      add\n        /* \"#utility.yul\":1012:1018   */\n      dup5\n        /* \"#utility.yul\":954:1039   */\n      tag_154\n      jump\t// in\n    tag_191:\n        /* \"#utility.yul\":796:1046   */\n      swap3\n      swap2\n      pop\n      pop\n      jump\t// out\n        /* \"#utility.yul\":1052:1129   */\n    tag_155:\n        /* \"#utility.yul\":1089:1096   */\n      0x00\n        /* \"#utility.yul\":1118:1123   */\n      dup2\n        /* \"#utility.yul\":1107:1123   */\n      swap1\n      pop\n        /* \"#utility.yul\":1052:1129   */\n      swap2\n      swap1\n      pop\n      jump\t// out\n        /* \"#utility.yul\":1135:1253   */\n    tag_156:\n        /* \"#utility.yul\":1222:1246   */\n      tag_194\n        /* \"#utility.yul\":1240:1245   */\n      dup2\n        /* \"#utility.yul\":1222:1246   */\n      tag_155\n      jump\t// in\n    tag_194:\n        /* \"#utility.yul\":1217:1220   */\n      dup3\n        /* \"#utility.yul\":1210:1247   */\n      mstore\n        /* \"#utility.yul\":1135:1253   */\n      pop\n      pop\n      jump\t// out\n        /* \"#utility.yul\":1259:1481   */\n    tag_20:\n        /* \"#utility.yul\":1352:1356   */\n      0x00\n        /* \"#utility.yul\":1390:1392   */\n      0x20\n        /* \"#utility.yul\":1379:1388   */\n      dup3\n        /* \"#utility.yul\":1375:1393   */\n      add\n        /* \"#utility.yul\":1367:1393   */\n      swap1\n      pop\n        /* \"#utility.yul\":1403:1474   */\n      tag_196\n        /* \"#utility.yul\":1471:1472   */\n      0x00\n        /* \"#utility.yul\":1460:1469   */\n      dup4\n        /* \"#utility.yul\":1456:1473   */\n      add\n        /* \"#utility.yul\":1447:1453   */\n      dup5\n        /* \"#utility.yul\":1403:1474   */\n      tag_156\n      jump\t// in\n    tag_196:\n        /* \"#utility.yul\":1259:1481   */\n      swap3\n      swap2\n      pop\n      pop\n      jump\t// out\n        /* \"#utility.yul\":1568:1685   */\n    tag_158:\n        /* \"#utility.yul\":1677:1678   */\n      0x00\n        /* \"#utility.yul\":1674:1675   */\n      dup1\n        /* \"#utility.yul\":1667:1679   */\n      revert\n        /* \"#utility.yul\":1814:1910   */\n    tag_160:\n        /* \"#utility.yul\":1851:1858   */\n      0x00\n        /* \"#utility.yul\":1880:1904   */\n      tag_201\n        /* \"#utility.yul\":1898:1903   */\n      dup3\n        /* \"#utility.yul\":1880:1904   */\n      tag_149\n      jump\t// in\n    tag_201:\n        /* \"#utility.yul\":1869:1904   */\n      swap1\n      pop\n        /* \"#utility.yul\":1814:1910   */\n      swap2\n      swap1\n      pop\n      jump\t// out\n        /* \"#utility.yul\":1916:2038   */\n    tag_161:\n        /* \"#utility.yul\":1989:2013   */\n      tag_203\n        /* \"#utility.yul\":2007:2012   */\n      dup2\n        /* \"#utility.yul\":1989:2013   */\n      tag_160\n      jump\t// in\n    tag_203:\n        /* \"#utility.yul\":1982:1987   */\n      dup2\n        /* \"#utility.yul\":1979:2014   */\n      eq\n        /* \"#utility.yul\":1969:2032   */\n      tag_204\n      jumpi\n        /* \"#utility.yul\":2028:2029   */\n      0x00\n        /* \"#utility.yul\":2025:2026   */\n      dup1\n        /* \"#utility.yul\":2018:2030   */\n      revert\n        /* \"#utility.yul\":1969:2032   */\n    tag_204:\n        /* \"#utility.yul\":1916:2038   */\n      pop\n      jump\t// out\n        /* \"#utility.yul\":2044:2183   */\n    tag_162:\n        /* \"#utility.yul\":2090:2095   */\n      0x00\n        /* \"#utility.yul\":2128:2134   */\n      dup2\n        /* \"#utility.yul\":2115:2135   */\n      calldataload\n        /* \"#utility.yul\":2106:2135   */\n      swap1\n      pop\n        /* \"#utility.yul\":2144:2177   */\n      tag_206\n        /* \"#utility.yul\":2171:2176   */\n      dup2\n        /* \"#utility.yul\":2144:2177   */\n      tag_161\n      jump\t// in\n    tag_206:\n        /* \"#utility.yul\":2044:2183   */\n      swap3\n      swap2\n      pop\n      pop\n      jump\t// out\n        /* \"#utility.yul\":2189:2518   */\n    tag_29:\n        /* \"#utility.yul\":2248:2254   */\n      0x00\n        /* \"#utility.yul\":2297:2299   */\n      0x20\n        /* \"#utility.yul\":2285:2294   */\n      dup3\n        /* \"#utility.yul\":2276:2283   */\n      dup5\n        /* \"#utility.yul\":2272:2295   */\n      sub\n        /* \"#utility.yul\":2268:2300   */\n      slt\n        /* \"#utility.yul\":2265:2384   */\n      iszero\n      tag_208\n      jumpi\n        /* \"#utility.yul\":2303:2382   */\n      tag_209\n      tag_158\n      jump\t// in\n    tag_209:\n        /* \"#utility.yul\":2265:2384   */\n    tag_208:\n        /* \"#utility.yul\":2423:2424   */\n      0x00\n        /* \"#utility.yul\":2448:2501   */\n      tag_210\n        /* \"#utility.yul\":2493:2500   */\n      dup5\n        /* \"#utility.yul\":2484:2490   */\n      dup3\n        /* \"#utility.yul\":2473:2482   */\n      dup6\n        /* \"#utility.yul\":2469:2491   */\n      add\n        /* \"#utility.yul\":2448:2501   */\n      tag_162\n      jump\t// in\n    tag_210:\n        /* \"#utility.yul\":2438:2501   */\n      swap2\n      pop\n        /* \"#utility.yul\":2394:2511   */\n      pop\n        /* \"#utility.yul\":2189:2518   */\n      swap3\n      swap2\n      pop\n      pop\n      jump\t// out\n        /* \"#utility.yul\":2524:2646   */\n    tag_163:\n        /* \"#utility.yul\":2597:2621   */\n      tag_212\n        /* \"#utility.yul\":2615:2620   */\n      dup2\n        /* \"#utility.yul\":2597:2621   */\n      tag_155\n      jump\t// in\n    tag_212:\n        /* \"#utility.yul\":2590:2595   */\n      dup2\n        /* \"#utility.yul\":2587:2622   */\n      eq\n        /* \"#utility.yul\":2577:2640   */\n      tag_213\n      jumpi\n        /* \"#utility.yul\":2636:2637   */\n      0x00\n        /* \"#utility.yul\":2633:2634   */\n      dup1\n        /* \"#utility.yul\":2626:2638   */\n      revert\n        /* \"#utility.yul\":2577:2640   */\n    tag_213:\n        /* \"#utility.yul\":2524:2646   */\n      pop\n      jump\t// out\n        /* \"#utility.yul\":2652:2791   */\n    tag_164:\n        /* \"#utility.yul\":2698:2703   */\n      0x00\n        /* \"#utility.yul\":2736:2742   */\n      dup2\n        /* \"#utility.yul\":2723:2743   */\n      calldataload\n        /* \"#utility.yul\":2714:2743   */\n      swap1\n      pop\n        /* \"#utility.yul\":2752:2785   */\n      tag_215\n        /* \"#utility.yul\":2779:2784   */\n      dup2\n        /* \"#utility.yul\":2752:2785   */\n      tag_163\n      jump\t// in\n    tag_215:\n        /* \"#utility.yul\":2652:2791   */\n      swap3\n      swap2\n      pop\n      pop\n      jump\t// out\n        /* \"#utility.yul\":2797:3126   */\n    tag_34:\n        /* \"#utility.yul\":2856:2862   */\n      0x00\n        /* \"#utility.yul\":2905:2907   */\n      0x20\n        /* \"#utility.yul\":2893:2902   */\n      dup3\n        /* \"#utility.yul\":2884:2891   */\n      dup5\n        /* \"#utility.yul\":2880:2903   */\n      sub\n        /* \"#utility.yul\":2876:2908   */\n      slt\n        /* \"#utility.yul\":2873:2992   */\n      iszero\n      tag_217\n      jumpi\n        /* \"#utility.yul\":2911:2990   */\n      tag_218\n      tag_158\n      jump\t// in\n    tag_218:\n        /* \"#utility.yul\":2873:2992   */\n    tag_217:\n        /* \"#utility.yul\":3031:3032   */\n      0x00\n        /* \"#utility.yul\":3056:3109   */\n      tag_219\n        /* \"#utility.yul\":3101:3108   */\n      dup5\n        /* \"#utility.yul\":3092:3098   */\n      dup3\n        /* \"#utility.yul\":3081:3090   */\n      dup6\n        /* \"#utility.yul\":3077:3099   */\n      add\n        /* \"#utility.yul\":3056:3109   */\n      tag_164\n      jump\t// in\n    tag_219:\n        /* \"#utility.yul\":3046:3109   */\n      swap2\n      pop\n        /* \"#utility.yul\":3002:3119   */\n      pop\n        /* \"#utility.yul\":2797:3126   */\n      swap3\n      swap2\n      pop\n      pop\n      jump\t// out\n        /* \"#utility.yul\":3132:3464   */\n    tag_37:\n        /* \"#utility.yul\":3253:3257   */\n      0x00\n        /* \"#utility.yul\":3291:3293   */\n      0x40\n        /* \"#utility.yul\":3280:3289   */\n      dup3\n        /* \"#utility.yul\":3276:3294   */\n      add\n        /* \"#utility.yul\":3268:3294   */\n      swap1\n      pop\n        /* \"#utility.yul\":3304:3375   */\n      tag_221\n        /* \"#utility.yul\":3372:3373   */\n      0x00\n        /* \"#utility.yul\":3361:3370   */\n      dup4\n        /* \"#utility.yul\":3357:3374   */\n      add\n        /* \"#utility.yul\":3348:3354   */\n      dup6\n        /* \"#utility.yul\":3304:3375   */\n      tag_156\n      jump\t// in\n    tag_221:\n        /* \"#utility.yul\":3385:3457   */\n      tag_222\n        /* \"#utility.yul\":3453:3455   */\n      0x20\n        /* \"#utility.yul\":3442:3451   */\n      dup4\n        /* \"#utility.yul\":3438:3456   */\n      add\n        /* \"#utility.yul\":3429:3435   */\n      dup5\n        /* \"#utility.yul\":3385:3457   */\n      tag_156\n      jump\t// in\n    tag_222:\n        /* \"#utility.yul\":3132:3464   */\n      swap4\n      swap3\n      pop\n      pop\n      pop\n      jump\t// out\n        /* \"#utility.yul\":3470:3944   */\n    tag_40:\n        /* \"#utility.yul\":3538:3544   */\n      0x00\n        /* \"#utility.yul\":3546:3552   */\n      dup1\n        /* \"#utility.yul\":3595:3597   */\n      0x40\n        /* \"#utility.yul\":3583:3592   */\n      dup4\n        /* \"#utility.yul\":3574:3581   */\n      dup6\n        /* \"#utility.yul\":3570:3593   */\n      sub\n        /* \"#utility.yul\":3566:3598   */\n      slt\n        /* \"#utility.yul\":3563:3682   */\n      iszero\n      tag_224\n      jumpi\n        /* \"#utility.yul\":3601:3680   */\n      tag_225\n      tag_158\n      jump\t// in\n    tag_225:\n        /* \"#utility.yul\":3563:3682   */\n    tag_224:\n        /* \"#utility.yul\":3721:3722   */\n      0x00\n        /* \"#utility.yul\":3746:3799   */\n      tag_226\n        /* \"#utility.yul\":3791:3798   */\n      dup6\n        /* \"#utility.yul\":3782:3788   */\n      dup3\n        /* \"#utility.yul\":3771:3780   */\n      dup7\n        /* \"#utility.yul\":3767:3789   */\n      add\n        /* \"#utility.yul\":3746:3799   */\n      tag_164\n      jump\t// in\n    tag_226:\n        /* \"#utility.yul\":3736:3799   */\n      swap3\n      pop\n        /* \"#utility.yul\":3692:3809   */\n      pop\n        /* \"#utility.yul\":3848:3850   */\n      0x20\n        /* \"#utility.yul\":3874:3927   */\n      tag_227\n        /* \"#utility.yul\":3919:3926   */\n      dup6\n        /* \"#utility.yul\":3910:3916   */\n      dup3\n        /* \"#utility.yul\":3899:3908   */\n      dup7\n        /* \"#utility.yul\":3895:3917   */\n      add\n        /* \"#utility.yul\":3874:3927   */\n      tag_164\n      jump\t// in\n    tag_227:\n        /* \"#utility.yul\":3864:3927   */\n      swap2\n      pop\n        /* \"#utility.yul\":3819:3937   */\n      pop\n        /* \"#utility.yul\":3470:3944   */\n      swap3\n      pop\n      swap3\n      swap1\n      pop\n      jump\t// out\n        /* \"#utility.yul\":3950:4424   */\n    tag_45:\n        /* \"#utility.yul\":4018:4024   */\n      0x00\n        /* \"#utility.yul\":4026:4032   */\n      dup1\n        /* \"#utility.yul\":4075:4077   */\n      0x40\n        /* \"#utility.yul\":4063:4072   */\n      dup4\n        /* \"#utility.yul\":4054:4061   */\n      dup6\n        /* \"#utility.yul\":4050:4073   */\n      sub\n        /* \"#utility.yul\":4046:4078   */\n      slt\n        /* \"#utility.yul\":4043:4162   */\n      iszero\n      tag_229\n      jumpi\n        /* \"#utility.yul\":4081:4160   */\n      tag_230\n      tag_158\n      jump\t// in\n    tag_230:\n        /* \"#utility.yul\":4043:4162   */\n    tag_229:\n        /* \"#utility.yul\":4201:4202   */\n      0x00\n        /* \"#utility.yul\":4226:4279   */\n      tag_231\n        /* \"#utility.yul\":4271:4278   */\n      dup6\n        /* \"#utility.yul\":4262:4268   */\n      dup3\n        /* \"#utility.yul\":4251:4260   */\n      dup7\n        /* \"#utility.yul\":4247:4269   */\n      add\n        /* \"#utility.yul\":4226:4279   */\n      tag_162\n      jump\t// in\n    tag_231:\n        /* \"#utility.yul\":4216:4279   */\n      swap3\n      pop\n        /* \"#utility.yul\":4172:4289   */\n      pop\n        /* \"#utility.yul\":4328:4330   */\n      0x20\n        /* \"#utility.yul\":4354:4407   */\n      tag_232\n        /* \"#utility.yul\":4399:4406   */\n      dup6\n        /* \"#utility.yul\":4390:4396   */\n      dup3\n        /* \"#utility.yul\":4379:4388   */\n      dup7\n        /* \"#utility.yul\":4375:4397   */\n      add\n        /* \"#utility.yul\":4354:4407   */\n      tag_164\n      jump\t// in\n    tag_232:\n        /* \"#utility.yul\":4344:4407   */\n      swap2\n      pop\n        /* \"#utility.yul\":4299:4417   */\n      pop\n        /* \"#utility.yul\":3950:4424   */\n      swap3\n      pop\n      swap3\n      swap1\n      pop\n      jump\t// out\n        /* \"#utility.yul\":4430:4610   */\n    tag_165:\n        /* \"#utility.yul\":4478:4555   */\n      0x4e487b7100000000000000000000000000000000000000000000000000000000\n        /* \"#utility.yul\":4475:4476   */\n      0x00\n        /* \"#utility.yul\":4468:4556   */\n      mstore\n        /* \"#utility.yul\":4575:4579   */\n      0x11\n        /* \"#utility.yul\":4572:4573   */\n      0x04\n        /* \"#utility.yul\":4565:4580   */\n      mstore\n        /* \"#utility.yul\":4599:4603   */\n      0x24\n        /* \"#utility.yul\":4596:4597   */\n      0x00\n        /* \"#utility.yul\":4589:4604   */\n      revert\n        /* \"#utility.yul\":4616:5026   */\n    tag_53:\n        /* \"#utility.yul\":4656:4663   */\n      0x00\n        /* \"#utility.yul\":4679:4699   */\n      tag_235\n        /* \"#utility.yul\":4697:4698   */\n      dup3\n        /* \"#utility.yul\":4679:4699   */\n      tag_155\n      jump\t// in\n    tag_235:\n        /* \"#utility.yul\":4674:4699   */\n      swap2\n      pop\n        /* \"#utility.yul\":4713:4733   */\n      tag_236\n        /* \"#utility.yul\":4731:4732   */\n      dup4\n        /* \"#utility.yul\":4713:4733   */\n      tag_155\n      jump\t// in\n    tag_236:\n        /* \"#utility.yul\":4708:4733   */\n      swap3\n      pop\n        /* \"#utility.yul\":4768:4769   */\n      dup3\n        /* \"#utility.yul\":4765:4766   */\n      dup3\n        /* \"#utility.yul\":4761:4770   */\n      mul\n        /* \"#utility.yul\":4790:4820   */\n      tag_237\n        /* \"#utility.yul\":4808:4819   */\n      dup2\n        /* \"#utility.yul\":4790:4820   */\n      tag_155\n      jump\t// in\n    tag_237:\n        /* \"#utility.yul\":4779:4820   */\n      swap2\n      pop\n        /* \"#utility.yul\":4969:4970   */\n      dup3\n        /* \"#utility.yul\":4960:4967   */\n      dup3\n        /* \"#utility.yul\":4956:4971   */\n      div\n        /* \"#utility.yul\":4953:4954   */\n      dup5\n        /* \"#utility.yul\":4950:4972   */\n      eq\n        /* \"#utility.yul\":4930:4931   */\n      dup4\n        /* \"#utility.yul\":4923:4932   */\n      iszero\n        /* \"#utility.yul\":4903:4986   */\n      or\n        /* \"#utility.yul\":4880:5019   */\n      tag_238\n      jumpi\n        /* \"#utility.yul\":4999:5017   */\n      tag_239\n      tag_165\n      jump\t// in\n    tag_239:\n        /* \"#utility.yul\":4880:5019   */\n    tag_238:\n        /* \"#utility.yul\":4664:5026   */\n      pop\n        /* \"#utility.yul\":4616:5026   */\n      swap3\n      swap2\n      pop\n      pop\n      jump\t// out\n        /* \"#utility.yul\":5032:5212   */\n    tag_166:\n        /* \"#utility.yul\":5080:5157   */\n      0x4e487b7100000000000000000000000000000000000000000000000000000000\n        /* \"#utility.yul\":5077:5078   */\n      0x00\n        /* \"#utility.yul\":5070:5158   */\n      mstore\n        /* \"#utility.yul\":5177:5181   */\n      0x12\n        /* \"#utility.yul\":5174:5175   */\n      0x04\n        /* \"#utility.yul\":5167:5182   */\n      mstore\n        /* \"#utility.yul\":5201:5205   */\n      0x24\n        /* \"#utility.yul\":5198:5199   */\n      0x00\n        /* \"#utility.yul\":5191:5206   */\n      revert\n        /* \"#utility.yul\":5218:5403   */\n    tag_55:\n        /* \"#utility.yul\":5258:5259   */\n      0x00\n        /* \"#utility.yul\":5275:5295   */\n      tag_242\n        /* \"#utility.yul\":5293:5294   */\n      dup3\n        /* \"#utility.yul\":5275:5295   */\n      tag_155\n      jump\t// in\n    tag_242:\n        /* \"#utility.yul\":5270:5295   */\n      swap2\n      pop\n        /* \"#utility.yul\":5309:5329   */\n      tag_243\n        /* \"#utility.yul\":5327:5328   */\n      dup4\n        /* \"#utility.yul\":5309:5329   */\n      tag_155\n      jump\t// in\n    tag_243:\n        /* \"#utility.yul\":5304:5329   */\n      swap3\n      pop\n        /* \"#utility.yul\":5348:5349   */\n      dup3\n        /* \"#utility.yul\":5338:5373   */\n      tag_244\n      jumpi\n        /* \"#utility.yul\":5353:5371   */\n      tag_245\n      tag_166\n      jump\t// in\n    tag_245:\n        /* \"#utility.yul\":5338:5373   */\n    tag_244:\n        /* \"#utility.yul\":5395:5396   */\n      dup3\n        /* \"#utility.yul\":5392:5393   */\n      dup3\n        /* \"#utility.yul\":5388:5397   */\n      div\n        /* \"#utility.yul\":5383:5397   */\n      swap1\n      pop\n        /* \"#utility.yul\":5218:5403   */\n      swap3\n      swap2\n      pop\n      pop\n      jump\t// out\n        /* \"#utility.yul\":5409:5603   */\n    tag_62:\n        /* \"#utility.yul\":5449:5453   */\n      0x00\n        /* \"#utility.yul\":5469:5489   */\n      tag_247\n        /* \"#utility.yul\":5487:5488   */\n      dup3\n        /* \"#utility.yul\":5469:5489   */\n      tag_155\n      jump\t// in\n    tag_247:\n        /* \"#utility.yul\":5464:5489   */\n      swap2\n      pop\n        /* \"#utility.yul\":5503:5523   */\n      tag_248\n        /* \"#utility.yul\":5521:5522   */\n      dup4\n        /* \"#utility.yul\":5503:5523   */\n      tag_155\n      jump\t// in\n    tag_248:\n        /* \"#utility.yul\":5498:5523   */\n      swap3\n      pop\n        /* \"#utility.yul\":5547:5548   */\n      dup3\n        /* \"#utility.yul\":5544:5545   */\n      dup3\n        /* \"#utility.yul\":5540:5549   */\n      sub\n        /* \"#utility.yul\":5532:5549   */\n      swap1\n      pop\n        /* \"#utility.yul\":5571:5572   */\n      dup2\n        /* \"#utility.yul\":5565:5569   */\n      dup2\n        /* \"#utility.yul\":5562:5573   */\n      gt\n        /* \"#utility.yul\":5559:5596   */\n      iszero\n      tag_249\n      jumpi\n        /* \"#utility.yul\":5576:5594   */\n      tag_250\n      tag_165\n      jump\t// in\n    tag_250:\n        /* \"#utility.yul\":5559:5596   */\n    tag_249:\n        /* \"#utility.yul\":5409:5603   */\n      swap3\n      swap2\n      pop\n      pop\n      jump\t// out\n        /* \"#utility.yul\":5609:5727   */\n    tag_167:\n        /* \"#utility.yul\":5696:5720   */\n      tag_252\n        /* \"#utility.yul\":5714:5719   */\n      dup2\n        /* \"#utility.yul\":5696:5720   */\n      tag_160\n      jump\t// in\n    tag_252:\n        /* \"#utility.yul\":5691:5694   */\n      dup3\n        /* \"#utility.yul\":5684:5721   */\n      mstore\n        /* \"#utility.yul\":5609:5727   */\n      pop\n      pop\n      jump\t// out\n        /* \"#utility.yul\":5733:6065   */\n    tag_67:\n        /* \"#utility.yul\":5854:5858   */\n      0x00\n        /* \"#utility.yul\":5892:5894   */\n      0x40\n        /* \"#utility.yul\":5881:5890   */\n      dup3\n        /* \"#utility.yul\":5877:5895   */\n      add\n        /* \"#utility.yul\":5869:5895   */\n      swap1\n      pop\n        /* \"#utility.yul\":5905:5976   */\n      tag_254\n        /* \"#utility.yul\":5973:5974   */\n      0x00\n        /* \"#utility.yul\":5962:5971   */\n      dup4\n        /* \"#utility.yul\":5958:5975   */\n      add\n        /* \"#utility.yul\":5949:5955   */\n      dup6\n        /* \"#utility.yul\":5905:5976   */\n      tag_167\n      jump\t// in\n    tag_254:\n        /* \"#utility.yul\":5986:6058   */\n      tag_255\n        /* \"#utility.yul\":6054:6056   */\n      0x20\n        /* \"#utility.yul\":6043:6052   */\n      dup4\n        /* \"#utility.yul\":6039:6057   */\n      add\n        /* \"#utility.yul\":6030:6036   */\n      dup5\n        /* \"#utility.yul\":5986:6058   */\n      tag_156\n      jump\t// in\n    tag_255:\n        /* \"#utility.yul\":5733:6065   */\n      swap4\n      swap3\n      pop\n      pop\n      pop\n      jump\t// out\n        /* \"#utility.yul\":6071:6161   */\n    tag_168:\n        /* \"#utility.yul\":6105:6112   */\n      0x00\n        /* \"#utility.yul\":6148:6153   */\n      dup2\n        /* \"#utility.yul\":6141:6154   */\n      iszero\n        /* \"#utility.yul\":6134:6155   */\n      iszero\n        /* \"#utility.yul\":6123:6155   */\n      swap1\n      pop\n        /* \"#utility.yul\":6071:6161   */\n      swap2\n      swap1\n      pop\n      jump\t// out\n        /* \"#utility.yul\":6167:6283   */\n    tag_169:\n        /* \"#utility.yul\":6237:6258   */\n      tag_258\n        /* \"#utility.yul\":6252:6257   */\n      dup2\n        /* \"#utility.yul\":6237:6258   */\n      tag_168\n      jump\t// in\n    tag_258:\n        /* \"#utility.yul\":6230:6235   */\n      dup2\n        /* \"#utility.yul\":6227:6259   */\n      eq\n        /* \"#utility.yul\":6217:6277   */\n      tag_259\n      jumpi\n        /* \"#utility.yul\":6273:6274   */\n      0x00\n        /* \"#utility.yul\":6270:6271   */\n      dup1\n        /* \"#utility.yul\":6263:6275   */\n      revert\n        /* \"#utility.yul\":6217:6277   */\n    tag_259:\n        /* \"#utility.yul\":6167:6283   */\n      pop\n      jump\t// out\n        /* \"#utility.yul\":6289:6426   */\n    tag_170:\n        /* \"#utility.yul\":6343:6348   */\n      0x00\n        /* \"#utility.yul\":6374:6380   */\n      dup2\n        /* \"#utility.yul\":6368:6381   */\n      mload\n        /* \"#utility.yul\":6359:6381   */\n      swap1\n      pop\n        /* \"#utility.yul\":6390:6420   */\n      tag_261\n        /* \"#utility.yul\":6414:6419   */\n      dup2\n        /* \"#utility.yul\":6390:6420   */\n      tag_169\n      jump\t// in\n    tag_261:\n        /* \"#utility.yul\":6289:6426   */\n      swap3\n      swap2\n      pop\n      pop\n      jump\t// out\n        /* \"#utility.yul\":6432:6777   */\n    tag_71:\n        /* \"#utility.yul\":6499:6505   */\n      0x00\n        /* \"#utility.yul\":6548:6550   */\n      0x20\n        /* \"#utility.yul\":6536:6545   */\n      dup3\n        /* \"#utility.yul\":6527:6534   */\n      dup5\n        /* \"#utility.yul\":6523:6546   */\n      sub\n        /* \"#utility.yul\":6519:6551   */\n      slt\n        /* \"#utility.yul\":6516:6635   */\n      iszero\n      tag_263\n      jumpi\n        /* \"#utility.yul\":6554:6633   */\n      tag_264\n      tag_158\n      jump\t// in\n    tag_264:\n        /* \"#utility.yul\":6516:6635   */\n    tag_263:\n        /* \"#utility.yul\":6674:6675   */\n      0x00\n        /* \"#utility.yul\":6699:6760   */\n      tag_265\n        /* \"#utility.yul\":6752:6759   */\n      dup5\n        /* \"#utility.yul\":6743:6749   */\n      dup3\n        /* \"#utility.yul\":6732:6741   */\n      dup6\n        /* \"#utility.yul\":6728:6750   */\n      add\n        /* \"#utility.yul\":6699:6760   */\n      tag_170\n      jump\t// in\n    tag_265:\n        /* \"#utility.yul\":6689:6760   */\n      swap2\n      pop\n        /* \"#utility.yul\":6645:6770   */\n      pop\n        /* \"#utility.yul\":6432:6777   */\n      swap3\n      swap2\n      pop\n      pop\n      jump\t// out\n        /* \"#utility.yul\":6783:7225   */\n    tag_79:\n        /* \"#utility.yul\":6932:6936   */\n      0x00\n        /* \"#utility.yul\":6970:6972   */\n      0x60\n        /* \"#utility.yul\":6959:6968   */\n      dup3\n        /* \"#utility.yul\":6955:6973   */\n      add\n        /* \"#utility.yul\":6947:6973   */\n      swap1\n      pop\n        /* \"#utility.yul\":6983:7054   */\n      tag_267\n        /* \"#utility.yul\":7051:7052   */\n      0x00\n        /* \"#utility.yul\":7040:7049   */\n      dup4\n        /* \"#utility.yul\":7036:7053   */\n      add\n        /* \"#utility.yul\":7027:7033   */\n      dup7\n        /* \"#utility.yul\":6983:7054   */\n      tag_167\n      jump\t// in\n    tag_267:\n        /* \"#utility.yul\":7064:7136   */\n      tag_268\n        /* \"#utility.yul\":7132:7134   */\n      0x20\n        /* \"#utility.yul\":7121:7130   */\n      dup4\n        /* \"#utility.yul\":7117:7135   */\n      add\n        /* \"#utility.yul\":7108:7114   */\n      dup6\n        /* \"#utility.yul\":7064:7136   */\n      tag_167\n      jump\t// in\n    tag_268:\n        /* \"#utility.yul\":7146:7218   */\n      tag_269\n        /* \"#utility.yul\":7214:7216   */\n      0x40\n        /* \"#utility.yul\":7203:7212   */\n      dup4\n        /* \"#utility.yul\":7199:7217   */\n      add\n        /* \"#utility.yul\":7190:7196   */\n      dup5\n        /* \"#utility.yul\":7146:7218   */\n      tag_156\n      jump\t// in\n    tag_269:\n        /* \"#utility.yul\":6783:7225   */\n      swap5\n      swap4\n      pop\n      pop\n      pop\n      pop\n      jump\t// out\n        /* \"#utility.yul\":7231:7453   */\n    tag_88:\n        /* \"#utility.yul\":7324:7328   */\n      0x00\n        /* \"#utility.yul\":7362:7364   */\n      0x20\n        /* \"#utility.yul\":7351:7360   */\n      dup3\n        /* \"#utility.yul\":7347:7365   */\n      add\n        /* \"#utility.yul\":7339:7365   */\n      swap1\n      pop\n        /* \"#utility.yul\":7375:7446   */\n      tag_271\n        /* \"#utility.yul\":7443:7444   */\n      0x00\n        /* \"#utility.yul\":7432:7441   */\n      dup4\n        /* \"#utility.yul\":7428:7445   */\n      add\n        /* \"#utility.yul\":7419:7425   */\n      dup5\n        /* \"#utility.yul\":7375:7446   */\n      tag_167\n      jump\t// in\n    tag_271:\n        /* \"#utility.yul\":7231:7453   */\n      swap3\n      swap2\n      pop\n      pop\n      jump\t// out\n        /* \"#utility.yul\":7459:7602   */\n    tag_171:\n        /* \"#utility.yul\":7516:7521   */\n      0x00\n        /* \"#utility.yul\":7547:7553   */\n      dup2\n        /* \"#utility.yul\":7541:7554   */\n      mload\n        /* \"#utility.yul\":7532:7554   */\n      swap1\n      pop\n        /* \"#utility.yul\":7563:7596   */\n      tag_273\n        /* \"#utility.yul\":7590:7595   */\n      dup2\n        /* \"#utility.yul\":7563:7596   */\n      tag_163\n      jump\t// in\n    tag_273:\n        /* \"#utility.yul\":7459:7602   */\n      swap3\n      swap2\n      pop\n      pop\n      jump\t// out\n        /* \"#utility.yul\":7608:7959   */\n    tag_92:\n        /* \"#utility.yul\":7678:7684   */\n      0x00\n        /* \"#utility.yul\":7727:7729   */\n      0x20\n        /* \"#utility.yul\":7715:7724   */\n      dup3\n        /* \"#utility.yul\":7706:7713   */\n      dup5\n        /* \"#utility.yul\":7702:7725   */\n      sub\n        /* \"#utility.yul\":7698:7730   */\n      slt\n        /* \"#utility.yul\":7695:7814   */\n      iszero\n      tag_275\n      jumpi\n        /* \"#utility.yul\":7733:7812   */\n      tag_276\n      tag_158\n      jump\t// in\n    tag_276:\n        /* \"#utility.yul\":7695:7814   */\n    tag_275:\n        /* \"#utility.yul\":7853:7854   */\n      0x00\n        /* \"#utility.yul\":7878:7942   */\n      tag_277\n        /* \"#utility.yul\":7934:7941   */\n      dup5\n        /* \"#utility.yul\":7925:7931   */\n      dup3\n        /* \"#utility.yul\":7914:7923   */\n      dup6\n        /* \"#utility.yul\":7910:7932   */\n      add\n        /* \"#utility.yul\":7878:7942   */\n      tag_171\n      jump\t// in\n    tag_277:\n        /* \"#utility.yul\":7868:7942   */\n      swap2\n      pop\n        /* \"#utility.yul\":7824:7952   */\n      pop\n        /* \"#utility.yul\":7608:7959   */\n      swap3\n      swap2\n      pop\n      pop\n      jump\t// out\n        /* \"#utility.yul\":7965:8156   */\n    tag_101:\n        /* \"#utility.yul\":8005:8008   */\n      0x00\n        /* \"#utility.yul\":8024:8044   */\n      tag_279\n        /* \"#utility.yul\":8042:8043   */\n      dup3\n        /* \"#utility.yul\":8024:8044   */\n      tag_155\n      jump\t// in\n    tag_279:\n        /* \"#utility.yul\":8019:8044   */\n      swap2\n      pop\n        /* \"#utility.yul\":8058:8078   */\n      tag_280\n        /* \"#utility.yul\":8076:8077   */\n      dup4\n        /* \"#utility.yul\":8058:8078   */\n      tag_155\n      jump\t// in\n    tag_280:\n        /* \"#utility.yul\":8053:8078   */\n      swap3\n      pop\n        /* \"#utility.yul\":8101:8102   */\n      dup3\n        /* \"#utility.yul\":8098:8099   */\n      dup3\n        /* \"#utility.yul\":8094:8103   */\n      add\n        /* \"#utility.yul\":8087:8103   */\n      swap1\n      pop\n        /* \"#utility.yul\":8122:8125   */\n      dup1\n        /* \"#utility.yul\":8119:8120   */\n      dup3\n        /* \"#utility.yul\":8116:8126   */\n      gt\n        /* \"#utility.yul\":8113:8149   */\n      iszero\n      tag_281\n      jumpi\n        /* \"#utility.yul\":8129:8147   */\n      tag_282\n      tag_165\n      jump\t// in\n    tag_282:\n        /* \"#utility.yul\":8113:8149   */\n    tag_281:\n        /* \"#utility.yul\":7965:8156   */\n      swap3\n      swap2\n      pop\n      pop\n      jump\t// out\n        /* \"#utility.yul\":8162:8331   */\n    tag_172:\n        /* \"#utility.yul\":8246:8257   */\n      0x00\n        /* \"#utility.yul\":8280:8286   */\n      dup3\n        /* \"#utility.yul\":8275:8278   */\n      dup3\n        /* \"#utility.yul\":8268:8287   */\n      mstore\n        /* \"#utility.yul\":8320:8324   */\n      0x20\n        /* \"#utility.yul\":8315:8318   */\n      dup3\n        /* \"#utility.yul\":8311:8325   */\n      add\n        /* \"#utility.yul\":8296:8325   */\n      swap1\n      pop\n        /* \"#utility.yul\":8162:8331   */\n      swap3\n      swap2\n      pop\n      pop\n      jump\t// out\n        /* \"#utility.yul\":8337:8497   */\n    tag_173:\n        /* \"#utility.yul\":8477:8489   */\n      0x736861726573203d203000000000000000000000000000000000000000000000\n        /* \"#utility.yul\":8473:8474   */\n      0x00\n        /* \"#utility.yul\":8465:8471   */\n      dup3\n        /* \"#utility.yul\":8461:8475   */\n      add\n        /* \"#utility.yul\":8454:8490   */\n      mstore\n        /* \"#utility.yul\":8337:8497   */\n      pop\n      jump\t// out\n        /* \"#utility.yul\":8503:8869   */\n    tag_174:\n        /* \"#utility.yul\":8645:8648   */\n      0x00\n        /* \"#utility.yul\":8666:8733   */\n      tag_286\n        /* \"#utility.yul\":8730:8732   */\n      0x0a\n        /* \"#utility.yul\":8725:8728   */\n      dup4\n        /* \"#utility.yul\":8666:8733   */\n      tag_172\n      jump\t// in\n    tag_286:\n        /* \"#utility.yul\":8659:8733   */\n      swap2\n      pop\n        /* \"#utility.yul\":8742:8835   */\n      tag_287\n        /* \"#utility.yul\":8831:8834   */\n      dup3\n        /* \"#utility.yul\":8742:8835   */\n      tag_173\n      jump\t// in\n    tag_287:\n        /* \"#utility.yul\":8860:8862   */\n      0x20\n        /* \"#utility.yul\":8855:8858   */\n      dup3\n        /* \"#utility.yul\":8851:8863   */\n      add\n        /* \"#utility.yul\":8844:8863   */\n      swap1\n      pop\n        /* \"#utility.yul\":8503:8869   */\n      swap2\n      swap1\n      pop\n      jump\t// out\n        /* \"#utility.yul\":8875:9294   */\n    tag_109:\n        /* \"#utility.yul\":9041:9045   */\n      0x00\n        /* \"#utility.yul\":9079:9081   */\n      0x20\n        /* \"#utility.yul\":9068:9077   */\n      dup3\n        /* \"#utility.yul\":9064:9082   */\n      add\n        /* \"#utility.yul\":9056:9082   */\n      swap1\n      pop\n        /* \"#utility.yul\":9128:9137   */\n      dup2\n        /* \"#utility.yul\":9122:9126   */\n      dup2\n        /* \"#utility.yul\":9118:9138   */\n      sub\n        /* \"#utility.yul\":9114:9115   */\n      0x00\n        /* \"#utility.yul\":9103:9112   */\n      dup4\n        /* \"#utility.yul\":9099:9116   */\n      add\n        /* \"#utility.yul\":9092:9139   */\n      mstore\n        /* \"#utility.yul\":9156:9287   */\n      tag_289\n        /* \"#utility.yul\":9282:9286   */\n      dup2\n        /* \"#utility.yul\":9156:9287   */\n      tag_174\n      jump\t// in\n    tag_289:\n        /* \"#utility.yul\":9148:9287   */\n      swap1\n      pop\n        /* \"#utility.yul\":8875:9294   */\n      swap2\n      swap1\n      pop\n      jump\t// out\n        /* \"#utility.yul\":9300:9463   */\n    tag_175:\n        /* \"#utility.yul\":9440:9455   */\n      0x696e76616c696420746f6b656e00000000000000000000000000000000000000\n        /* \"#utility.yul\":9436:9437   */\n      0x00\n        /* \"#utility.yul\":9428:9434   */\n      dup3\n        /* \"#utility.yul\":9424:9438   */\n      add\n        /* \"#utility.yul\":9417:9456   */\n      mstore\n        /* \"#utility.yul\":9300:9463   */\n      pop\n      jump\t// out\n        /* \"#utility.yul\":9469:9835   */\n    tag_176:\n        /* \"#utility.yul\":9611:9614   */\n      0x00\n        /* \"#utility.yul\":9632:9699   */\n      tag_292\n        /* \"#utility.yul\":9696:9698   */\n      0x0d\n        /* \"#utility.yul\":9691:9694   */\n      dup4\n        /* \"#utility.yul\":9632:9699   */\n      tag_172\n      jump\t// in\n    tag_292:\n        /* \"#utility.yul\":9625:9699   */\n      swap2\n      pop\n        /* \"#utility.yul\":9708:9801   */\n      tag_293\n        /* \"#utility.yul\":9797:9800   */\n      dup3\n        /* \"#utility.yul\":9708:9801   */\n      tag_175\n      jump\t// in\n    tag_293:\n        /* \"#utility.yul\":9826:9828   */\n      0x20\n        /* \"#utility.yul\":9821:9824   */\n      dup3\n        /* \"#utility.yul\":9817:9829   */\n      add\n        /* \"#utility.yul\":9810:9829   */\n      swap1\n      pop\n        /* \"#utility.yul\":9469:9835   */\n      swap2\n      swap1\n      pop\n      jump\t// out\n        /* \"#utility.yul\":9841:10260   */\n    tag_117:\n        /* \"#utility.yul\":10007:10011   */\n      0x00\n        /* \"#utility.yul\":10045:10047   */\n      0x20\n        /* \"#utility.yul\":10034:10043   */\n      dup3\n        /* \"#utility.yul\":10030:10048   */\n      add\n        /* \"#utility.yul\":10022:10048   */\n      swap1\n      pop\n        /* \"#utility.yul\":10094:10103   */\n      dup2\n        /* \"#utility.yul\":10088:10092   */\n      dup2\n        /* \"#utility.yul\":10084:10104   */\n      sub\n        /* \"#utility.yul\":10080:10081   */\n      0x00\n        /* \"#utility.yul\":10069:10078   */\n      dup4\n        /* \"#utility.yul\":10065:10082   */\n      add\n        /* \"#utility.yul\":10058:10105   */\n      mstore\n        /* \"#utility.yul\":10122:10253   */\n      tag_295\n        /* \"#utility.yul\":10248:10252   */\n      dup2\n        /* \"#utility.yul\":10122:10253   */\n      tag_176\n      jump\t// in\n    tag_295:\n        /* \"#utility.yul\":10114:10253   */\n      swap1\n      pop\n        /* \"#utility.yul\":9841:10260   */\n      swap2\n      swap1\n      pop\n      jump\t// out\n\n    auxdata: 0xa264697066735822122003a4a6c638df4d0acfc54aefd0bc839a18cbb34f1d7c9902c95d4377543f825164736f6c63430008190033\n}\n",
				"bytecode": {
					"linkReferences": {},
					"object": "60c060405234801561000f575f80fd5b5060405161135e38038061135e833981810160405281019061003191906100fe565b8173ffffffffffffffffffffffffffffffffffffffff1660808173ffffffffffffffffffffffffffffffffffffffff16815250508073ffffffffffffffffffffffffffffffffffffffff1660a08173ffffffffffffffffffffffffffffffffffffffff1681525050505061013c565b5f80fd5b5f73ffffffffffffffffffffffffffffffffffffffff82169050919050565b5f6100cd826100a4565b9050919050565b6100dd816100c3565b81146100e7575f80fd5b50565b5f815190506100f8816100d4565b92915050565b5f8060408385031215610114576101136100a0565b5b5f610121858286016100ea565b9250506020610132858286016100ea565b9150509250929050565b60805160a0516111a66101b85f395f818161034d0152818161048e015281816105c80152818161078a01528181610874015281816108e10152610b0501525f81816101ee015281816102a8015281816103f00152818161052d015281816107350152818161081a0152818161089501526108c001526111a65ff3fe608060405234801561000f575f80fd5b5060043610610091575f3560e01c806370a082311161006457806370a082311461010d5780639c8f9f231461013d5780639cd441da1461016e578063d004f0f71461019e578063d21220a7146101ce57610091565b80630dfe16811461009557806318160ddd146100b3578063443cb4bc146100d15780635a76f25e146100ef575b5f80fd5b61009d6101ec565b6040516100aa9190610c90565b60405180910390f35b6100bb610210565b6040516100c89190610cc1565b60405180910390f35b6100d9610216565b6040516100e69190610cc1565b60405180910390f35b6100f761021b565b6040516101049190610cc1565b60405180910390f35b61012760048036038101906101229190610d19565b610221565b6040516101349190610cc1565b60405180910390f35b61015760048036038101906101529190610d6e565b610236565b604051610165929190610d99565b60405180910390f35b61018860048036038101906101839190610dc0565b6103ed565b6040516101959190610cc1565b60405180910390f35b6101b860048036038101906101b39190610dfe565b610732565b6040516101c59190610cc1565b60405180910390f35b6101d6610b03565b6040516101e39190610c90565b60405180910390f35b7f000000000000000000000000000000000000000000000000000000000000000081565b60025481565b5f5481565b60015481565b6003602052805f5260405f205f915090505481565b5f80600254835f546102489190610e69565b6102529190610ed7565b9150600254836001546102659190610e69565b61026f9190610ed7565b905061027b3384610b27565b61029e825f5461028b9190610f07565b826001546102999190610f07565b610b96565b5f821115610343577f000000000000000000000000000000000000000000000000000000000000000073ffffffffffffffffffffffffffffffffffffffff1663a9059cbb33846040518363ffffffff1660e01b8152600401610301929190610f49565b6020604051808303815f875af115801561031d573d5f803e3d5ffd5b505050506040513d601f19601f820116820180604052508101906103419190610fa5565b505b5f8111156103e8577f000000000000000000000000000000000000000000000000000000000000000073ffffffffffffffffffffffffffffffffffffffff1663a9059cbb33836040518363ffffffff1660e01b81526004016103a6929190610f49565b6020604051808303815f875af11580156103c2573d5f803e3d5ffd5b505050506040513d601f19601f820116820180604052508101906103e69190610fa5565b505b915091565b5f7f000000000000000000000000000000000000000000000000000000000000000073ffffffffffffffffffffffffffffffffffffffff166323b872dd3330866040518463ffffffff1660e01b815260040161044b93929190610fd0565b6020604051808303815f875af1158015610467573d5f803e3d5ffd5b505050506040513d601f19601f8201168201806040525081019061048b9190610fa5565b507f000000000000000000000000000000000000000000000000000000000000000073ffffffffffffffffffffffffffffffffffffffff166323b872dd3330856040518463ffffffff1660e01b81526004016104e993929190610fd0565b6020604051808303815f875af1158015610505573d5f803e3d5ffd5b505050506040513d601f19601f820116820180604052508101906105299190610fa5565b505f7f000000000000000000000000000000000000000000000000000000000000000073ffffffffffffffffffffffffffffffffffffffff166370a08231306040518263ffffffff1660e01b81526004016105849190611005565b602060405180830381865afa15801561059f573d5f803e3d5ffd5b505050506040513d601f19601f820116820180604052508101906105c39190611032565b90505f7f000000000000000000000000000000000000000000000000000000000000000073ffffffffffffffffffffffffffffffffffffffff166370a08231306040518263ffffffff1660e01b815260040161061f9190611005565b602060405180830381865afa15801561063a573d5f803e3d5ffd5b505050506040513d601f19601f8201168201806040525081019061065e9190611032565b90505f80548361066e9190610f07565b90505f6001548361067f9190610f07565b90505f6002540361069d578082610696919061105d565b94506106d2565b6001545f546106ac919061105d565b60025482846106bb919061105d565b6106c59190610e69565b6106cf9190610ed7565b94505b5f8511610714576040517f08c379a000000000000000000000000000000000000000000000000000000000815260040161070b906110ea565b60405180910390fd5b61071e3386610ba7565b6107288484610b96565b5050505092915050565b5f7f000000000000000000000000000000000000000000000000000000000000000073ffffffffffffffffffffffffffffffffffffffff168373ffffffffffffffffffffffffffffffffffffffff1614806107d857507f000000000000000000000000000000000000000000000000000000000000000073ffffffffffffffffffffffffffffffffffffffff168373ffffffffffffffffffffffffffffffffffffffff16145b610817576040517f08c379a000000000000000000000000000000000000000000000000000000000815260040161080e90611152565b60405180910390fd5b5f7f000000000000000000000000000000000000000000000000000000000000000073ffffffffffffffffffffffffffffffffffffffff168473ffffffffffffffffffffffffffffffffffffffff161490505f805f80846108be577f00000000000000000000000000000000000000000000000000000000000000007f00000000000000000000000000000000000000000000000000000000000000006001545f54610906565b7f00000000000000000000000000000000000000000000000000000000000000007f00000000000000000000000000000000000000000000000000000000000000005f546001545b93509350935093508373ffffffffffffffffffffffffffffffffffffffff166323b872dd33308a6040518463ffffffff1660e01b815260040161094b93929190610fd0565b6020604051808303815f875af1158015610967573d5f803e3d5ffd5b505050506040513d601f19601f8201168201806040525081019061098b9190610fa5565b505f828573ffffffffffffffffffffffffffffffffffffffff166370a08231306040518263ffffffff1660e01b81526004016109c79190611005565b602060405180830381865afa1580156109e2573d5f803e3d5ffd5b505050506040513d601f19601f82011682018060405250810190610a069190611032565b610a109190610f07565b905060646103e582610a229190610e69565b610a2c9190610ed7565b96505f8087610a52578884610a419190610f07565b8a86610a4d919061105d565b610a6b565b8985610a5e919061105d565b8985610a6a9190610f07565b5b91509150610a798282610b96565b8573ffffffffffffffffffffffffffffffffffffffff1663a9059cbb338b6040518363ffffffff1660e01b8152600401610ab4929190610f49565b6020604051808303815f875af1158015610ad0573d5f803e3d5ffd5b505050506040513d601f19601f82011682018060405250810190610af49190610fa5565b50505050505050505092915050565b7f000000000000000000000000000000000000000000000000000000000000000081565b8060035f8473ffffffffffffffffffffffffffffffffffffffff1673ffffffffffffffffffffffffffffffffffffffff1681526020019081526020015f205f828254610b739190610f07565b925050819055508060025f828254610b8b9190610f07565b925050819055505050565b815f81905550806001819055505050565b8060035f8473ffffffffffffffffffffffffffffffffffffffff1673ffffffffffffffffffffffffffffffffffffffff1681526020019081526020015f205f828254610bf3919061105d565b925050819055508060025f828254610c0b919061105d565b925050819055505050565b5f73ffffffffffffffffffffffffffffffffffffffff82169050919050565b5f819050919050565b5f610c58610c53610c4e84610c16565b610c35565b610c16565b9050919050565b5f610c6982610c3e565b9050919050565b5f610c7a82610c5f565b9050919050565b610c8a81610c70565b82525050565b5f602082019050610ca35f830184610c81565b92915050565b5f819050919050565b610cbb81610ca9565b82525050565b5f602082019050610cd45f830184610cb2565b92915050565b5f80fd5b5f610ce882610c16565b9050919050565b610cf881610cde565b8114610d02575f80fd5b50565b5f81359050610d1381610cef565b92915050565b5f60208284031215610d2e57610d2d610cda565b5b5f610d3b84828501610d05565b91505092915050565b610d4d81610ca9565b8114610d57575f80fd5b50565b5f81359050610d6881610d44565b92915050565b5f60208284031215610d8357610d82610cda565b5b5f610d9084828501610d5a565b91505092915050565b5f604082019050610dac5f830185610cb2565b610db96020830184610cb2565b9392505050565b5f8060408385031215610dd657610dd5610cda565b5b5f610de385828601610d5a565b9250506020610df485828601610d5a565b9150509250929050565b5f8060408385031215610e1457610e13610cda565b5b5f610e2185828601610d05565b9250506020610e3285828601610d5a565b9150509250929050565b7f4e487b71000000000000000000000000000000000000000000000000000000005f52601160045260245ffd5b5f610e7382610ca9565b9150610e7e83610ca9565b9250828202610e8c81610ca9565b91508282048414831517610ea357610ea2610e3c565b5b5092915050565b7f4e487b71000000000000000000000000000000000000000000000000000000005f52601260045260245ffd5b5f610ee182610ca9565b9150610eec83610ca9565b925082610efc57610efb610eaa565b5b828204905092915050565b5f610f1182610ca9565b9150610f1c83610ca9565b9250828203905081811115610f3457610f33610e3c565b5b92915050565b610f4381610cde565b82525050565b5f604082019050610f5c5f830185610f3a565b610f696020830184610cb2565b9392505050565b5f8115159050919050565b610f8481610f70565b8114610f8e575f80fd5b50565b5f81519050610f9f81610f7b565b92915050565b5f60208284031215610fba57610fb9610cda565b5b5f610fc784828501610f91565b91505092915050565b5f606082019050610fe35f830186610f3a565b610ff06020830185610f3a565b610ffd6040830184610cb2565b949350505050565b5f6020820190506110185f830184610f3a565b92915050565b5f8151905061102c81610d44565b92915050565b5f6020828403121561104757611046610cda565b5b5f6110548482850161101e565b91505092915050565b5f61106782610ca9565b915061107283610ca9565b925082820190508082111561108a57611089610e3c565b5b92915050565b5f82825260208201905092915050565b7f736861726573203d2030000000000000000000000000000000000000000000005f82015250565b5f6110d4600a83611090565b91506110df826110a0565b602082019050919050565b5f6020820190508181035f830152611101816110c8565b9050919050565b7f696e76616c696420746f6b656e000000000000000000000000000000000000005f82015250565b5f61113c600d83611090565b915061114782611108565b602082019050919050565b5f6020820190508181035f83015261116981611130565b905091905056fea264697066735822122003a4a6c638df4d0acfc54aefd0bc839a18cbb34f1d7c9902c95d4377543f825164736f6c63430008190033",
					"opcodes": "PUSH1 0xC0 PUSH1 0x40 MSTORE CALLVALUE DUP1 ISZERO PUSH2 0xF JUMPI PUSH0 DUP1 REVERT JUMPDEST POP PUSH1 0x40 MLOAD PUSH2 0x135E CODESIZE SUB DUP1 PUSH2 0x135E DUP4 CODECOPY DUP2 DUP2 ADD PUSH1 0x40 MSTORE DUP2 ADD SWAP1 PUSH2 0x31 SWAP2 SWAP1 PUSH2 0xFE JUMP JUMPDEST DUP2 PUSH20 0xFFFFFFFFFFFFFFFFFFFFFFFFFFFFFFFFFFFFFFFF AND PUSH1 0x80 DUP2 PUSH20 0xFFFFFFFFFFFFFFFFFFFFFFFFFFFFFFFFFFFFFFFF AND DUP2 MSTORE POP POP DUP1 PUSH20 0xFFFFFFFFFFFFFFFFFFFFFFFFFFFFFFFFFFFFFFFF AND PUSH1 0xA0 DUP2 PUSH20 0xFFFFFFFFFFFFFFFFFFFFFFFFFFFFFFFFFFFFFFFF AND DUP2 MSTORE POP POP POP POP PUSH2 0x13C JUMP JUMPDEST PUSH0 DUP1 REVERT JUMPDEST PUSH0 PUSH20 0xFFFFFFFFFFFFFFFFFFFFFFFFFFFFFFFFFFFFFFFF DUP3 AND SWAP1 POP SWAP2 SWAP1 POP JUMP JUMPDEST PUSH0 PUSH2 0xCD DUP3 PUSH2 0xA4 JUMP JUMPDEST SWAP1 POP SWAP2 SWAP1 POP JUMP JUMPDEST PUSH2 0xDD DUP2 PUSH2 0xC3 JUMP JUMPDEST DUP2 EQ PUSH2 0xE7 JUMPI PUSH0 DUP1 REVERT JUMPDEST POP JUMP JUMPDEST PUSH0 DUP2 MLOAD SWAP1 POP PUSH2 0xF8 DUP2 PUSH2 0xD4 JUMP JUMPDEST SWAP3 SWAP2 POP POP JUMP JUMPDEST PUSH0 DUP1 PUSH1 0x40 DUP4 DUP6 SUB SLT ISZERO PUSH2 0x114 JUMPI PUSH2 0x113 PUSH2 0xA0 JUMP JUMPDEST JUMPDEST PUSH0 PUSH2 0x121 DUP6 DUP3 DUP7 ADD PUSH2 0xEA JUMP JUMPDEST SWAP3 POP POP PUSH1 0x20 PUSH2 0x132 DUP6 DUP3 DUP7 ADD PUSH2 0xEA JUMP JUMPDEST SWAP2 POP POP SWAP3 POP SWAP3 SWAP1 POP JUMP JUMPDEST PUSH1 0x80 MLOAD PUSH1 0xA0 MLOAD PUSH2 0x11A6 PUSH2 0x1B8 PUSH0 CODECOPY PUSH0 DUP2 DUP2 PUSH2 0x34D ADD MSTORE DUP2 DUP2 PUSH2 0x48E ADD MSTORE DUP2 DUP2 PUSH2 0x5C8 ADD MSTORE DUP2 DUP2 PUSH2 0x78A ADD MSTORE DUP2 DUP2 PUSH2 0x874 ADD MSTORE DUP2 DUP2 PUSH2 0x8E1 ADD MSTORE PUSH2 0xB05 ADD MSTORE PUSH0 DUP2 DUP2 PUSH2 0x1EE ADD MSTORE DUP2 DUP2 PUSH2 0x2A8 ADD MSTORE DUP2 DUP2 PUSH2 0x3F0 ADD MSTORE DUP2 DUP2 PUSH2 0x52D ADD MSTORE DUP2 DUP2 PUSH2 0x735 ADD MSTORE DUP2 DUP2 PUSH2 0x81A ADD MSTORE DUP2 DUP2 PUSH2 0x895 ADD MSTORE PUSH2 0x8C0 ADD MSTORE PUSH2 0x11A6 PUSH0 RETURN INVALID PUSH1 0x80 PUSH1 0x40 MSTORE CALLVALUE DUP1 ISZERO PUSH2 0xF JUMPI PUSH0 DUP1 REVERT JUMPDEST POP PUSH1 0x4 CALLDATASIZE LT PUSH2 0x91 JUMPI PUSH0 CALLDATALOAD PUSH1 0xE0 SHR DUP1 PUSH4 0x70A08231 GT PUSH2 0x64 JUMPI DUP1 PUSH4 0x70A08231 EQ PUSH2 0x10D JUMPI DUP1 PUSH4 0x9C8F9F23 EQ PUSH2 0x13D JUMPI DUP1 PUSH4 0x9CD441DA EQ PUSH2 0x16E JUMPI DUP1 PUSH4 0xD004F0F7 EQ PUSH2 0x19E JUMPI DUP1 PUSH4 0xD21220A7 EQ PUSH2 0x1CE JUMPI PUSH2 0x91 JUMP JUMPDEST DUP1 PUSH4 0xDFE1681 EQ PUSH2 0x95 JUMPI DUP1 PUSH4 0x18160DDD EQ PUSH2 0xB3 JUMPI DUP1 PUSH4 0x443CB4BC EQ PUSH2 0xD1 JUMPI DUP1 PUSH4 0x5A76F25E EQ PUSH2 0xEF JUMPI JUMPDEST PUSH0 DUP1 REVERT JUMPDEST PUSH2 0x9D PUSH2 0x1EC JUMP JUMPDEST PUSH1 0x40 MLOAD PUSH2 0xAA SWAP2 SWAP1 PUSH2 0xC90 JUMP JUMPDEST PUSH1 0x40 MLOAD DUP1 SWAP2 SUB SWAP1 RETURN JUMPDEST PUSH2 0xBB PUSH2 0x210 JUMP JUMPDEST PUSH1 0x40 MLOAD PUSH2 0xC8 SWAP2 SWAP1 PUSH2 0xCC1 JUMP JUMPDEST PUSH1 0x40 MLOAD DUP1 SWAP2 SUB SWAP1 RETURN JUMPDEST PUSH2 0xD9 PUSH2 0x216 JUMP JUMPDEST PUSH1 0x40 MLOAD PUSH2 0xE6 SWAP2 SWAP1 PUSH2 0xCC1 JUMP JUMPDEST PUSH1 0x40 MLOAD DUP1 SWAP2 SUB SWAP1 RETURN JUMPDEST PUSH2 0xF7 PUSH2 0x21B JUMP JUMPDEST PUSH1 0x40 MLOAD PUSH2 0x104 SWAP2 SWAP1 PUSH2 0xCC1 JUMP JUMPDEST PUSH1 0x40 MLOAD DUP1 SWAP2 SUB SWAP1 RETURN JUMPDEST PUSH2 0x127 PUSH1 0x4 DUP1 CALLDATASIZE SUB DUP2 ADD SWAP1 PUSH2 0x122 SWAP2 SWAP1 PUSH2 0xD19 JUMP JUMPDEST PUSH2 0x221 JUMP JUMPDEST PUSH1 0x40 MLOAD PUSH2 0x134 SWAP2 SWAP1 PUSH2 0xCC1 JUMP JUMPDEST PUSH1 0x40 MLOAD DUP1 SWAP2 SUB SWAP1 RETURN JUMPDEST PUSH2 0x157 PUSH1 0x4 DUP1 CALLDATASIZE SUB DUP2 ADD SWAP1 PUSH2 0x152 SWAP2 SWAP1 PUSH2 0xD6E JUMP JUMPDEST PUSH2 0x236 JUMP JUMPDEST PUSH1 0x40 MLOAD PUSH2 0x165 SWAP3 SWAP2 SWAP1 PUSH2 0xD99 JUMP JUMPDEST PUSH1 0x40 MLOAD DUP1 SWAP2 SUB SWAP1 RETURN JUMPDEST PUSH2 0x188 PUSH1 0x4 DUP1 CALLDATASIZE SUB DUP2 ADD SWAP1 PUSH2 0x183 SWAP2 SWAP1 PUSH2 0xDC0 JUMP JUMPDEST PUSH2 0x3ED JUMP JUMPDEST PUSH1 0x40 MLOAD PUSH2 0x195 SWAP2 SWAP1 PUSH2 0xCC1 JUMP JUMPDEST PUSH1 0x40 MLOAD DUP1 SWAP2 SUB SWAP1 RETURN JUMPDEST PUSH2 0x1B8 PUSH1 0x4 DUP1 CALLDATASIZE SUB DUP2 ADD SWAP1 PUSH2 0x1B3 SWAP2 SWAP1 PUSH2 0xDFE JUMP JUMPDEST PUSH2 0x732 JUMP JUMPDEST PUSH1 0x40 MLOAD PUSH2 0x1C5 SWAP2 SWAP1 PUSH2 0xCC1 JUMP JUMPDEST PUSH1 0x40 MLOAD DUP1 SWAP2 SUB SWAP1 RETURN JUMPDEST PUSH2 0x1D6 PUSH2 0xB03 JUMP JUMPDEST PUSH1 0x40 MLOAD PUSH2 0x1E3 SWAP2 SWAP1 PUSH2 0xC90 JUMP JUMPDEST PUSH1 0x40 MLOAD DUP1 SWAP2 SUB SWAP1 RETURN JUMPDEST PUSH32 0x0 DUP2 JUMP JUMPDEST PUSH1 0x2 SLOAD DUP2 JUMP JUMPDEST PUSH0 SLOAD DUP2 JUMP JUMPDEST PUSH1 0x1 SLOAD DUP2 JUMP JUMPDEST PUSH1 0x3 PUSH1 0x20 MSTORE DUP1 PUSH0 MSTORE PUSH1 0x40 PUSH0 KECCAK256 PUSH0 SWAP2 POP SWAP1 POP SLOAD DUP2 JUMP JUMPDEST PUSH0 DUP1 PUSH1 0x2 SLOAD DUP4 PUSH0 SLOAD PUSH2 0x248 SWAP2 SWAP1 PUSH2 0xE69 JUMP JUMPDEST PUSH2 0x252 SWAP2 SWAP1 PUSH2 0xED7 JUMP JUMPDEST SWAP2 POP PUSH1 0x2 SLOAD DUP4 PUSH1 0x1 SLOAD PUSH2 0x265 SWAP2 SWAP1 PUSH2 0xE69 JUMP JUMPDEST PUSH2 0x26F SWAP2 SWAP1 PUSH2 0xED7 JUMP JUMPDEST SWAP1 POP PUSH2 0x27B CALLER DUP5 PUSH2 0xB27 JUMP JUMPDEST PUSH2 0x29E DUP3 PUSH0 SLOAD PUSH2 0x28B SWAP2 SWAP1 PUSH2 0xF07 JUMP JUMPDEST DUP3 PUSH1 0x1 SLOAD PUSH2 0x299 SWAP2 SWAP1 PUSH2 0xF07 JUMP JUMPDEST PUSH2 0xB96 JUMP JUMPDEST PUSH0 DUP3 GT ISZERO PUSH2 0x343 JUMPI PUSH32 0x0 PUSH20 0xFFFFFFFFFFFFFFFFFFFFFFFFFFFFFFFFFFFFFFFF AND PUSH4 0xA9059CBB CALLER DUP5 PUSH1 0x40 MLOAD DUP4 PUSH4 0xFFFFFFFF AND PUSH1 0xE0 SHL DUP2 MSTORE PUSH1 0x4 ADD PUSH2 0x301 SWAP3 SWAP2 SWAP1 PUSH2 0xF49 JUMP JUMPDEST PUSH1 0x20 PUSH1 0x40 MLOAD DUP1 DUP4 SUB DUP2 PUSH0 DUP8 GAS CALL ISZERO DUP1 ISZERO PUSH2 0x31D JUMPI RETURNDATASIZE PUSH0 DUP1 RETURNDATACOPY RETURNDATASIZE PUSH0 REVERT JUMPDEST POP POP POP POP PUSH1 0x40 MLOAD RETURNDATASIZE PUSH1 0x1F NOT PUSH1 0x1F DUP3 ADD AND DUP3 ADD DUP1 PUSH1 0x40 MSTORE POP DUP2 ADD SWAP1 PUSH2 0x341 SWAP2 SWAP1 PUSH2 0xFA5 JUMP JUMPDEST POP JUMPDEST PUSH0 DUP2 GT ISZERO PUSH2 0x3E8 JUMPI PUSH32 0x0 PUSH20 0xFFFFFFFFFFFFFFFFFFFFFFFFFFFFFFFFFFFFFFFF AND PUSH4 0xA9059CBB CALLER DUP4 PUSH1 0x40 MLOAD DUP4 PUSH4 0xFFFFFFFF AND PUSH1 0xE0 SHL DUP2 MSTORE PUSH1 0x4 ADD PUSH2 0x3A6 SWAP3 SWAP2 SWAP1 PUSH2 0xF49 JUMP JUMPDEST PUSH1 0x20 PUSH1 0x40 MLOAD DUP1 DUP4 SUB DUP2 PUSH0 DUP8 GAS CALL ISZERO DUP1 ISZERO PUSH2 0x3C2 JUMPI RETURNDATASIZE PUSH0 DUP1 RETURNDATACOPY RETURNDATASIZE PUSH0 REVERT JUMPDEST POP POP POP POP PUSH1 0x40 MLOAD RETURNDATASIZE PUSH1 0x1F NOT PUSH1 0x1F DUP3 ADD AND DUP3 ADD DUP1 PUSH1 0x40 MSTORE POP DUP2 ADD SWAP1 PUSH2 0x3E6 SWAP2 SWAP1 PUSH2 0xFA5 JUMP JUMPDEST POP JUMPDEST SWAP2 POP SWAP2 JUMP JUMPDEST PUSH0 PUSH32 0x0 PUSH20 0xFFFFFFFFFFFFFFFFFFFFFFFFFFFFFFFFFFFFFFFF AND PUSH4 0x23B872DD CALLER ADDRESS DUP7 PUSH1 0x40 MLOAD DUP5 PUSH4 0xFFFFFFFF AND PUSH1 0xE0 SHL DUP2 MSTORE PUSH1 0x4 ADD PUSH2 0x44B SWAP4 SWAP3 SWAP2 SWAP1 PUSH2 0xFD0 JUMP JUMPDEST PUSH1 0x20 PUSH1 0x40 MLOAD DUP1 DUP4 SUB DUP2 PUSH0 DUP8 GAS CALL ISZERO DUP1 ISZERO PUSH2 0x467 JUMPI RETURNDATASIZE PUSH0 DUP1 RETURNDATACOPY RETURNDATASIZE PUSH0 REVERT JUMPDEST POP POP POP POP PUSH1 0x40 MLOAD RETURNDATASIZE PUSH1 0x1F NOT PUSH1 0x1F DUP3 ADD AND DUP3 ADD DUP1 PUSH1 0x40 MSTORE POP DUP2 ADD SWAP1 PUSH2 0x48B SWAP2 SWAP1 PUSH2 0xFA5 JUMP JUMPDEST POP PUSH32 0x0 PUSH20 0xFFFFFFFFFFFFFFFFFFFFFFFFFFFFFFFFFFFFFFFF AND PUSH4 0x23B872DD CALLER ADDRESS DUP6 PUSH1 0x40 MLOAD DUP5 PUSH4 0xFFFFFFFF AND PUSH1 0xE0 SHL DUP2 MSTORE PUSH1 0x4 ADD PUSH2 0x4E9 SWAP4 SWAP3 SWAP2 SWAP1 PUSH2 0xFD0 JUMP JUMPDEST PUSH1 0x20 PUSH1 0x40 MLOAD DUP1 DUP4 SUB DUP2 PUSH0 DUP8 GAS CALL ISZERO DUP1 ISZERO PUSH2 0x505 JUMPI RETURNDATASIZE PUSH0 DUP1 RETURNDATACOPY RETURNDATASIZE PUSH0 REVERT JUMPDEST POP POP POP POP PUSH1 0x40 MLOAD RETURNDATASIZE PUSH1 0x1F NOT PUSH1 0x1F DUP3 ADD AND DUP3 ADD DUP1 PUSH1 0x40 MSTORE POP DUP2 ADD SWAP1 PUSH2 0x529 SWAP2 SWAP1 PUSH2 0xFA5 JUMP JUMPDEST POP PUSH0 PUSH32 0x0 PUSH20 0xFFFFFFFFFFFFFFFFFFFFFFFFFFFFFFFFFFFFFFFF AND PUSH4 0x70A08231 ADDRESS PUSH1 0x40 MLOAD DUP3 PUSH4 0xFFFFFFFF AND PUSH1 0xE0 SHL DUP2 MSTORE PUSH1 0x4 ADD PUSH2 0x584 SWAP2 SWAP1 PUSH2 0x1005 JUMP JUMPDEST PUSH1 0x20 PUSH1 0x40 MLOAD DUP1 DUP4 SUB DUP2 DUP7 GAS STATICCALL ISZERO DUP1 ISZERO PUSH2 0x59F JUMPI RETURNDATASIZE PUSH0 DUP1 RETURNDATACOPY RETURNDATASIZE PUSH0 REVERT JUMPDEST POP POP POP POP PUSH1 0x40 MLOAD RETURNDATASIZE PUSH1 0x1F NOT PUSH1 0x1F DUP3 ADD AND DUP3 ADD DUP1 PUSH1 0x40 MSTORE POP DUP2 ADD SWAP1 PUSH2 0x5C3 SWAP2 SWAP1 PUSH2 0x1032 JUMP JUMPDEST SWAP1 POP PUSH0 PUSH32 0x0 PUSH20 0xFFFFFFFFFFFFFFFFFFFFFFFFFFFFFFFFFFFFFFFF AND PUSH4 0x70A08231 ADDRESS PUSH1 0x40 MLOAD DUP3 PUSH4 0xFFFFFFFF AND PUSH1 0xE0 SHL DUP2 MSTORE PUSH1 0x4 ADD PUSH2 0x61F SWAP2 SWAP1 PUSH2 0x1005 JUMP JUMPDEST PUSH1 0x20 PUSH1 0x40 MLOAD DUP1 DUP4 SUB DUP2 DUP7 GAS STATICCALL ISZERO DUP1 ISZERO PUSH2 0x63A JUMPI RETURNDATASIZE PUSH0 DUP1 RETURNDATACOPY RETURNDATASIZE PUSH0 REVERT JUMPDEST POP POP POP POP PUSH1 0x40 MLOAD RETURNDATASIZE PUSH1 0x1F NOT PUSH1 0x1F DUP3 ADD AND DUP3 ADD DUP1 PUSH1 0x40 MSTORE POP DUP2 ADD SWAP1 PUSH2 0x65E SWAP2 SWAP1 PUSH2 0x1032 JUMP JUMPDEST SWAP1 POP PUSH0 DUP1 SLOAD DUP4 PUSH2 0x66E SWAP2 SWAP1 PUSH2 0xF07 JUMP JUMPDEST SWAP1 POP PUSH0 PUSH1 0x1 SLOAD DUP4 PUSH2 0x67F SWAP2 SWAP1 PUSH2 0xF07 JUMP JUMPDEST SWAP1 POP PUSH0 PUSH1 0x2 SLOAD SUB PUSH2 0x69D JUMPI DUP1 DUP3 PUSH2 0x696 SWAP2 SWAP1 PUSH2 0x105D JUMP JUMPDEST SWAP5 POP PUSH2 0x6D2 JUMP JUMPDEST PUSH1 0x1 SLOAD PUSH0 SLOAD PUSH2 0x6AC SWAP2 SWAP1 PUSH2 0x105D JUMP JUMPDEST PUSH1 0x2 SLOAD DUP3 DUP5 PUSH2 0x6BB SWAP2 SWAP1 PUSH2 0x105D JUMP JUMPDEST PUSH2 0x6C5 SWAP2 SWAP1 PUSH2 0xE69 JUMP JUMPDEST PUSH2 0x6CF SWAP2 SWAP1 PUSH2 0xED7 JUMP JUMPDEST SWAP5 POP JUMPDEST PUSH0 DUP6 GT PUSH2 0x714 JUMPI PUSH1 0x40 MLOAD PUSH32 0x8C379A000000000000000000000000000000000000000000000000000000000 DUP2 MSTORE PUSH1 0x4 ADD PUSH2 0x70B SWAP1 PUSH2 0x10EA JUMP JUMPDEST PUSH1 0x40 MLOAD DUP1 SWAP2 SUB SWAP1 REVERT JUMPDEST PUSH2 0x71E CALLER DUP7 PUSH2 0xBA7 JUMP JUMPDEST PUSH2 0x728 DUP5 DUP5 PUSH2 0xB96 JUMP JUMPDEST POP POP POP POP SWAP3 SWAP2 POP POP JUMP JUMPDEST PUSH0 PUSH32 0x0 PUSH20 0xFFFFFFFFFFFFFFFFFFFFFFFFFFFFFFFFFFFFFFFF AND DUP4 PUSH20 0xFFFFFFFFFFFFFFFFFFFFFFFFFFFFFFFFFFFFFFFF AND EQ DUP1 PUSH2 0x7D8 JUMPI POP PUSH32 0x0 PUSH20 0xFFFFFFFFFFFFFFFFFFFFFFFFFFFFFFFFFFFFFFFF AND DUP4 PUSH20 0xFFFFFFFFFFFFFFFFFFFFFFFFFFFFFFFFFFFFFFFF AND EQ JUMPDEST PUSH2 0x817 JUMPI PUSH1 0x40 MLOAD PUSH32 0x8C379A000000000000000000000000000000000000000000000000000000000 DUP2 MSTORE PUSH1 0x4 ADD PUSH2 0x80E SWAP1 PUSH2 0x1152 JUMP JUMPDEST PUSH1 0x40 MLOAD DUP1 SWAP2 SUB SWAP1 REVERT JUMPDEST PUSH0 PUSH32 0x0 PUSH20 0xFFFFFFFFFFFFFFFFFFFFFFFFFFFFFFFFFFFFFFFF AND DUP5 PUSH20 0xFFFFFFFFFFFFFFFFFFFFFFFFFFFFFFFFFFFFFFFF AND EQ SWAP1 POP PUSH0 DUP1 PUSH0 DUP1 DUP5 PUSH2 0x8BE JUMPI PUSH32 0x0 PUSH32 0x0 PUSH1 0x1 SLOAD PUSH0 SLOAD PUSH2 0x906 JUMP JUMPDEST PUSH32 0x0 PUSH32 0x0 PUSH0 SLOAD PUSH1 0x1 SLOAD JUMPDEST SWAP4 POP SWAP4 POP SWAP4 POP SWAP4 POP DUP4 PUSH20 0xFFFFFFFFFFFFFFFFFFFFFFFFFFFFFFFFFFFFFFFF AND PUSH4 0x23B872DD CALLER ADDRESS DUP11 PUSH1 0x40 MLOAD DUP5 PUSH4 0xFFFFFFFF AND PUSH1 0xE0 SHL DUP2 MSTORE PUSH1 0x4 ADD PUSH2 0x94B SWAP4 SWAP3 SWAP2 SWAP1 PUSH2 0xFD0 JUMP JUMPDEST PUSH1 0x20 PUSH1 0x40 MLOAD DUP1 DUP4 SUB DUP2 PUSH0 DUP8 GAS CALL ISZERO DUP1 ISZERO PUSH2 0x967 JUMPI RETURNDATASIZE PUSH0 DUP1 RETURNDATACOPY RETURNDATASIZE PUSH0 REVERT JUMPDEST POP POP POP POP PUSH1 0x40 MLOAD RETURNDATASIZE PUSH1 0x1F NOT PUSH1 0x1F DUP3 ADD AND DUP3 ADD DUP1 PUSH1 0x40 MSTORE POP DUP2 ADD SWAP1 PUSH2 0x98B SWAP2 SWAP1 PUSH2 0xFA5 JUMP JUMPDEST POP PUSH0 DUP3 DUP6 PUSH20 0xFFFFFFFFFFFFFFFFFFFFFFFFFFFFFFFFFFFFFFFF AND PUSH4 0x70A08231 ADDRESS PUSH1 0x40 MLOAD DUP3 PUSH4 0xFFFFFFFF AND PUSH1 0xE0 SHL DUP2 MSTORE PUSH1 0x4 ADD PUSH2 0x9C7 SWAP2 SWAP1 PUSH2 0x1005 JUMP JUMPDEST PUSH1 0x20 PUSH1 0x40 MLOAD DUP1 DUP4 SUB DUP2 DUP7 GAS STATICCALL ISZERO DUP1 ISZERO PUSH2 0x9E2 JUMPI RETURNDATASIZE PUSH0 DUP1 RETURNDATACOPY RETURNDATASIZE PUSH0 REVERT JUMPDEST POP POP POP POP PUSH1 0x40 MLOAD RETURNDATASIZE PUSH1 0x1F NOT PUSH1 0x1F DUP3 ADD AND DUP3 ADD DUP1 PUSH1 0x40 MSTORE POP DUP2 ADD SWAP1 PUSH2 0xA06 SWAP2 SWAP1 PUSH2 0x1032 JUMP JUMPDEST PUSH2 0xA10 SWAP2 SWAP1 PUSH2 0xF07 JUMP JUMPDEST SWAP1 POP PUSH1 0x64 PUSH2 0x3E5 DUP3 PUSH2 0xA22 SWAP2 SWAP1 PUSH2 0xE69 JUMP JUMPDEST PUSH2 0xA2C SWAP2 SWAP1 PUSH2 0xED7 JUMP JUMPDEST SWAP7 POP PUSH0 DUP1 DUP8 PUSH2 0xA52 JUMPI DUP9 DUP5 PUSH2 0xA41 SWAP2 SWAP1 PUSH2 0xF07 JUMP JUMPDEST DUP11 DUP7 PUSH2 0xA4D SWAP2 SWAP1 PUSH2 0x105D JUMP JUMPDEST PUSH2 0xA6B JUMP JUMPDEST DUP10 DUP6 PUSH2 0xA5E SWAP2 SWAP1 PUSH2 0x105D JUMP JUMPDEST DUP10 DUP6 PUSH2 0xA6A SWAP2 SWAP1 PUSH2 0xF07 JUMP JUMPDEST JUMPDEST SWAP2 POP SWAP2 POP PUSH2 0xA79 DUP3 DUP3 PUSH2 0xB96 JUMP JUMPDEST DUP6 PUSH20 0xFFFFFFFFFFFFFFFFFFFFFFFFFFFFFFFFFFFFFFFF AND PUSH4 0xA9059CBB CALLER DUP12 PUSH1 0x40 MLOAD DUP4 PUSH4 0xFFFFFFFF AND PUSH1 0xE0 SHL DUP2 MSTORE PUSH1 0x4 ADD PUSH2 0xAB4 SWAP3 SWAP2 SWAP1 PUSH2 0xF49 JUMP JUMPDEST PUSH1 0x20 PUSH1 0x40 MLOAD DUP1 DUP4 SUB DUP2 PUSH0 DUP8 GAS CALL ISZERO DUP1 ISZERO PUSH2 0xAD0 JUMPI RETURNDATASIZE PUSH0 DUP1 RETURNDATACOPY RETURNDATASIZE PUSH0 REVERT JUMPDEST POP POP POP POP PUSH1 0x40 MLOAD RETURNDATASIZE PUSH1 0x1F NOT PUSH1 0x1F DUP3 ADD AND DUP3 ADD DUP1 PUSH1 0x40 MSTORE POP DUP2 ADD SWAP1 PUSH2 0xAF4 SWAP2 SWAP1 PUSH2 0xFA5 JUMP JUMPDEST POP POP POP POP POP POP POP POP POP SWAP3 SWAP2 POP POP JUMP JUMPDEST PUSH32 0x0 DUP2 JUMP JUMPDEST DUP1 PUSH1 0x3 PUSH0 DUP5 PUSH20 0xFFFFFFFFFFFFFFFFFFFFFFFFFFFFFFFFFFFFFFFF AND PUSH20 0xFFFFFFFFFFFFFFFFFFFFFFFFFFFFFFFFFFFFFFFF AND DUP2 MSTORE PUSH1 0x20 ADD SWAP1 DUP2 MSTORE PUSH1 0x20 ADD PUSH0 KECCAK256 PUSH0 DUP3 DUP3 SLOAD PUSH2 0xB73 SWAP2 SWAP1 PUSH2 0xF07 JUMP JUMPDEST SWAP3 POP POP DUP2 SWAP1 SSTORE POP DUP1 PUSH1 0x2 PUSH0 DUP3 DUP3 SLOAD PUSH2 0xB8B SWAP2 SWAP1 PUSH2 0xF07 JUMP JUMPDEST SWAP3 POP POP DUP2 SWAP1 SSTORE POP POP POP JUMP JUMPDEST DUP2 PUSH0 DUP2 SWAP1 SSTORE POP DUP1 PUSH1 0x1 DUP2 SWAP1 SSTORE POP POP POP JUMP JUMPDEST DUP1 PUSH1 0x3 PUSH0 DUP5 PUSH20 0xFFFFFFFFFFFFFFFFFFFFFFFFFFFFFFFFFFFFFFFF AND PUSH20 0xFFFFFFFFFFFFFFFFFFFFFFFFFFFFFFFFFFFFFFFF AND DUP2 MSTORE PUSH1 0x20 ADD SWAP1 DUP2 MSTORE PUSH1 0x20 ADD PUSH0 KECCAK256 PUSH0 DUP3 DUP3 SLOAD PUSH2 0xBF3 SWAP2 SWAP1 PUSH2 0x105D JUMP JUMPDEST SWAP3 POP POP DUP2 SWAP1 SSTORE POP DUP1 PUSH1 0x2 PUSH0 DUP3 DUP3 SLOAD PUSH2 0xC0B SWAP2 SWAP1 PUSH2 0x105D JUMP JUMPDEST SWAP3 POP POP DUP2 SWAP1 SSTORE POP POP POP JUMP JUMPDEST PUSH0 PUSH20 0xFFFFFFFFFFFFFFFFFFFFFFFFFFFFFFFFFFFFFFFF DUP3 AND SWAP1 POP SWAP2 SWAP1 POP JUMP JUMPDEST PUSH0 DUP2 SWAP1 POP SWAP2 SWAP1 POP JUMP JUMPDEST PUSH0 PUSH2 0xC58 PUSH2 0xC53 PUSH2 0xC4E DUP5 PUSH2 0xC16 JUMP JUMPDEST PUSH2 0xC35 JUMP JUMPDEST PUSH2 0xC16 JUMP JUMPDEST SWAP1 POP SWAP2 SWAP1 POP JUMP JUMPDEST PUSH0 PUSH2 0xC69 DUP3 PUSH2 0xC3E JUMP JUMPDEST SWAP1 POP SWAP2 SWAP1 POP JUMP JUMPDEST PUSH0 PUSH2 0xC7A DUP3 PUSH2 0xC5F JUMP JUMPDEST SWAP1 POP SWAP2 SWAP1 POP JUMP JUMPDEST PUSH2 0xC8A DUP2 PUSH2 0xC70 JUMP JUMPDEST DUP3 MSTORE POP POP JUMP JUMPDEST PUSH0 PUSH1 0x20 DUP3 ADD SWAP1 POP PUSH2 0xCA3 PUSH0 DUP4 ADD DUP5 PUSH2 0xC81 JUMP JUMPDEST SWAP3 SWAP2 POP POP JUMP JUMPDEST PUSH0 DUP2 SWAP1 POP SWAP2 SWAP1 POP JUMP JUMPDEST PUSH2 0xCBB DUP2 PUSH2 0xCA9 JUMP JUMPDEST DUP3 MSTORE POP POP JUMP JUMPDEST PUSH0 PUSH1 0x20 DUP3 ADD SWAP1 POP PUSH2 0xCD4 PUSH0 DUP4 ADD DUP5 PUSH2 0xCB2 JUMP JUMPDEST SWAP3 SWAP2 POP POP JUMP JUMPDEST PUSH0 DUP1 REVERT JUMPDEST PUSH0 PUSH2 0xCE8 DUP3 PUSH2 0xC16 JUMP JUMPDEST SWAP1 POP SWAP2 SWAP1 POP JUMP JUMPDEST PUSH2 0xCF8 DUP2 PUSH2 0xCDE JUMP JUMPDEST DUP2 EQ PUSH2 0xD02 JUMPI PUSH0 DUP1 REVERT JUMPDEST POP JUMP JUMPDEST PUSH0 DUP2 CALLDATALOAD SWAP1 POP PUSH2 0xD13 DUP2 PUSH2 0xCEF JUMP JUMPDEST SWAP3 SWAP2 POP POP JUMP JUMPDEST PUSH0 PUSH1 0x20 DUP3 DUP5 SUB SLT ISZERO PUSH2 0xD2E JUMPI PUSH2 0xD2D PUSH2 0xCDA JUMP JUMPDEST JUMPDEST PUSH0 PUSH2 0xD3B DUP5 DUP3 DUP6 ADD PUSH2 0xD05 JUMP JUMPDEST SWAP2 POP POP SWAP3 SWAP2 POP POP JUMP JUMPDEST PUSH2 0xD4D DUP2 PUSH2 0xCA9 JUMP JUMPDEST DUP2 EQ PUSH2 0xD57 JUMPI PUSH0 DUP1 REVERT JUMPDEST POP JUMP JUMPDEST PUSH0 DUP2 CALLDATALOAD SWAP1 POP PUSH2 0xD68 DUP2 PUSH2 0xD44 JUMP JUMPDEST SWAP3 SWAP2 POP POP JUMP JUMPDEST PUSH0 PUSH1 0x20 DUP3 DUP5 SUB SLT ISZERO PUSH2 0xD83 JUMPI PUSH2 0xD82 PUSH2 0xCDA JUMP JUMPDEST JUMPDEST PUSH0 PUSH2 0xD90 DUP5 DUP3 DUP6 ADD PUSH2 0xD5A JUMP JUMPDEST SWAP2 POP POP SWAP3 SWAP2 POP POP JUMP JUMPDEST PUSH0 PUSH1 0x40 DUP3 ADD SWAP1 POP PUSH2 0xDAC PUSH0 DUP4 ADD DUP6 PUSH2 0xCB2 JUMP JUMPDEST PUSH2 0xDB9 PUSH1 0x20 DUP4 ADD DUP5 PUSH2 0xCB2 JUMP JUMPDEST SWAP4 SWAP3 POP POP POP JUMP JUMPDEST PUSH0 DUP1 PUSH1 0x40 DUP4 DUP6 SUB SLT ISZERO PUSH2 0xDD6 JUMPI PUSH2 0xDD5 PUSH2 0xCDA JUMP JUMPDEST JUMPDEST PUSH0 PUSH2 0xDE3 DUP6 DUP3 DUP7 ADD PUSH2 0xD5A JUMP JUMPDEST SWAP3 POP POP PUSH1 0x20 PUSH2 0xDF4 DUP6 DUP3 DUP7 ADD PUSH2 0xD5A JUMP JUMPDEST SWAP2 POP POP SWAP3 POP SWAP3 SWAP1 POP JUMP JUMPDEST PUSH0 DUP1 PUSH1 0x40 DUP4 DUP6 SUB SLT ISZERO PUSH2 0xE14 JUMPI PUSH2 0xE13 PUSH2 0xCDA JUMP JUMPDEST JUMPDEST PUSH0 PUSH2 0xE21 DUP6 DUP3 DUP7 ADD PUSH2 0xD05 JUMP JUMPDEST SWAP3 POP POP PUSH1 0x20 PUSH2 0xE32 DUP6 DUP3 DUP7 ADD PUSH2 0xD5A JUMP JUMPDEST SWAP2 POP POP SWAP3 POP SWAP3 SWAP1 POP JUMP JUMPDEST PUSH32 0x4E487B7100000000000000000000000000000000000000000000000000000000 PUSH0 MSTORE PUSH1 0x11 PUSH1 0x4 MSTORE PUSH1 0x24 PUSH0 REVERT JUMPDEST PUSH0 PUSH2 0xE73 DUP3 PUSH2 0xCA9 JUMP JUMPDEST SWAP2 POP PUSH2 0xE7E DUP4 PUSH2 0xCA9 JUMP JUMPDEST SWAP3 POP DUP3 DUP3 MUL PUSH2 0xE8C DUP2 PUSH2 0xCA9 JUMP JUMPDEST SWAP2 POP DUP3 DUP3 DIV DUP5 EQ DUP4 ISZERO OR PUSH2 0xEA3 JUMPI PUSH2 0xEA2 PUSH2 0xE3C JUMP JUMPDEST JUMPDEST POP SWAP3 SWAP2 POP POP JUMP JUMPDEST PUSH32 0x4E487B7100000000000000000000000000000000000000000000000000000000 PUSH0 MSTORE PUSH1 0x12 PUSH1 0x4 MSTORE PUSH1 0x24 PUSH0 REVERT JUMPDEST PUSH0 PUSH2 0xEE1 DUP3 PUSH2 0xCA9 JUMP JUMPDEST SWAP2 POP PUSH2 0xEEC DUP4 PUSH2 0xCA9 JUMP JUMPDEST SWAP3 POP DUP3 PUSH2 0xEFC JUMPI PUSH2 0xEFB PUSH2 0xEAA JUMP JUMPDEST JUMPDEST DUP3 DUP3 DIV SWAP1 POP SWAP3 SWAP2 POP POP JUMP JUMPDEST PUSH0 PUSH2 0xF11 DUP3 PUSH2 0xCA9 JUMP JUMPDEST SWAP2 POP PUSH2 0xF1C DUP4 PUSH2 0xCA9 JUMP JUMPDEST SWAP3 POP DUP3 DUP3 SUB SWAP1 POP DUP2 DUP2 GT ISZERO PUSH2 0xF34 JUMPI PUSH2 0xF33 PUSH2 0xE3C JUMP JUMPDEST JUMPDEST SWAP3 SWAP2 POP POP JUMP JUMPDEST PUSH2 0xF43 DUP2 PUSH2 0xCDE JUMP JUMPDEST DUP3 MSTORE POP POP JUMP JUMPDEST PUSH0 PUSH1 0x40 DUP3 ADD SWAP1 POP PUSH2 0xF5C PUSH0 DUP4 ADD DUP6 PUSH2 0xF3A JUMP JUMPDEST PUSH2 0xF69 PUSH1 0x20 DUP4 ADD DUP5 PUSH2 0xCB2 JUMP JUMPDEST SWAP4 SWAP3 POP POP POP JUMP JUMPDEST PUSH0 DUP2 ISZERO ISZERO SWAP1 POP SWAP2 SWAP1 POP JUMP JUMPDEST PUSH2 0xF84 DUP2 PUSH2 0xF70 JUMP JUMPDEST DUP2 EQ PUSH2 0xF8E JUMPI PUSH0 DUP1 REVERT JUMPDEST POP JUMP JUMPDEST PUSH0 DUP2 MLOAD SWAP1 POP PUSH2 0xF9F DUP2 PUSH2 0xF7B JUMP JUMPDEST SWAP3 SWAP2 POP POP JUMP JUMPDEST PUSH0 PUSH1 0x20 DUP3 DUP5 SUB SLT ISZERO PUSH2 0xFBA JUMPI PUSH2 0xFB9 PUSH2 0xCDA JUMP JUMPDEST JUMPDEST PUSH0 PUSH2 0xFC7 DUP5 DUP3 DUP6 ADD PUSH2 0xF91 JUMP JUMPDEST SWAP2 POP POP SWAP3 SWAP2 POP POP JUMP JUMPDEST PUSH0 PUSH1 0x60 DUP3 ADD SWAP1 POP PUSH2 0xFE3 PUSH0 DUP4 ADD DUP7 PUSH2 0xF3A JUMP JUMPDEST PUSH2 0xFF0 PUSH1 0x20 DUP4 ADD DUP6 PUSH2 0xF3A JUMP JUMPDEST PUSH2 0xFFD PUSH1 0x40 DUP4 ADD DUP5 PUSH2 0xCB2 JUMP JUMPDEST SWAP5 SWAP4 POP POP POP POP JUMP JUMPDEST PUSH0 PUSH1 0x20 DUP3 ADD SWAP1 POP PUSH2 0x1018 PUSH0 DUP4 ADD DUP5 PUSH2 0xF3A JUMP JUMPDEST SWAP3 SWAP2 POP POP JUMP JUMPDEST PUSH0 DUP2 MLOAD SWAP1 POP PUSH2 0x102C DUP2 PUSH2 0xD44 JUMP JUMPDEST SWAP3 SWAP2 POP POP JUMP JUMPDEST PUSH0 PUSH1 0x20 DUP3 DUP5 SUB SLT ISZERO PUSH2 0x1047 JUMPI PUSH2 0x1046 PUSH2 0xCDA JUMP JUMPDEST JUMPDEST PUSH0 PUSH2 0x1054 DUP5 DUP3 DUP6 ADD PUSH2 0x101E JUMP JUMPDEST SWAP2 POP POP SWAP3 SWAP2 POP POP JUMP JUMPDEST PUSH0 PUSH2 0x1067 DUP3 PUSH2 0xCA9 JUMP JUMPDEST SWAP2 POP PUSH2 0x1072 DUP4 PUSH2 0xCA9 JUMP JUMPDEST SWAP3 POP DUP3 DUP3 ADD SWAP1 POP DUP1 DUP3 GT ISZERO PUSH2 0x108A JUMPI PUSH2 0x1089 PUSH2 0xE3C JUMP JUMPDEST JUMPDEST SWAP3 SWAP2 POP POP JUMP JUMPDEST PUSH0 DUP3 DUP3 MSTORE PUSH1 0x20 DUP3 ADD SWAP1 POP SWAP3 SWAP2 POP POP JUMP JUMPDEST PUSH32 0x736861726573203D203000000000000000000000000000000000000000000000 PUSH0 DUP3 ADD MSTORE POP JUMP JUMPDEST PUSH0 PUSH2 0x10D4 PUSH1 0xA DUP4 PUSH2 0x1090 JUMP JUMPDEST SWAP2 POP PUSH2 0x10DF DUP3 PUSH2 0x10A0 JUMP JUMPDEST PUSH1 0x20 DUP3 ADD SWAP1 POP SWAP2 SWAP1 POP JUMP JUMPDEST PUSH0 PUSH1 0x20 DUP3 ADD SWAP1 POP DUP2 DUP2 SUB PUSH0 DUP4 ADD MSTORE PUSH2 0x1101 DUP2 PUSH2 0x10C8 JUMP JUMPDEST SWAP1 POP SWAP2 SWAP1 POP JUMP JUMPDEST PUSH32 0x696E76616C696420746F6B656E00000000000000000000000000000000000000 PUSH0 DUP3 ADD MSTORE POP JUMP JUMPDEST PUSH0 PUSH2 0x113C PUSH1 0xD DUP4 PUSH2 0x1090 JUMP JUMPDEST SWAP2 POP PUSH2 0x1147 DUP3 PUSH2 0x1108 JUMP JUMPDEST PUSH1 0x20 DUP3 ADD SWAP1 POP SWAP2 SWAP1 POP JUMP JUMPDEST PUSH0 PUSH1 0x20 DUP3 ADD SWAP1 POP DUP2 DUP2 SUB PUSH0 DUP4 ADD MSTORE PUSH2 0x1169 DUP2 PUSH2 0x1130 JUMP JUMPDEST SWAP1 POP SWAP2 SWAP1 POP JUMP INVALID LOG2 PUSH5 0x6970667358 0x22 SLT KECCAK256 SUB LOG4 0xA6 0xC6 CODESIZE 0xDF 0x4D EXP 0xCF 0xC5 BLOBBASEFEE 0xEF 0xD0 0xBC DUP4 SWAP11 XOR 0xCB 0xB3 0x4F SAR PUSH29 0x9902C95D4377543F825164736F6C634300081900330000000000000000 "
				},
				"gasEstimates": {
					"creation": {
						"codeDepositCost": "903600",
						"executionCost": "infinite",
						"totalCost": "infinite"
					},
					"external": {
						"addLiquidity(uint256,uint256)": "infinite",
						"balanceOf(address)": "2802",
						"removeLiquidity(uint256)": "infinite",
						"reserve0()": "2469",
						"reserve1()": "2492",
						"swap(address,uint256)": "infinite",
						"token0()": "infinite",
						"token1()": "infinite",
						"totalSupply()": "2448"
					},
					"internal": {
						"_burn(address,uint256)": "infinite",
						"_mint(address,uint256)": "infinite",
						"_update(uint256,uint256)": "44240"
					}
				},
				"methodIdentifiers": {
					"addLiquidity(uint256,uint256)": "9cd441da",
					"balanceOf(address)": "70a08231",
					"removeLiquidity(uint256)": "9c8f9f23",
					"reserve0()": "443cb4bc",
					"reserve1()": "5a76f25e",
					"swap(address,uint256)": "d004f0f7",
					"token0()": "0dfe1681",
					"token1()": "d21220a7",
					"totalSupply()": "18160ddd"
				}
			},
			"storageLayout": {
				"storage": [
					{
						"astId": 10,
						"contract": "contracts/CSAMM.sol:CSAMM",
						"label": "reserve0",
						"offset": 0,
						"slot": "0",
						"type": "t_uint256"
					},
					{
						"astId": 12,
						"contract": "contracts/CSAMM.sol:CSAMM",
						"label": "reserve1",
						"offset": 0,
						"slot": "1",
						"type": "t_uint256"
					},
					{
						"astId": 14,
						"contract": "contracts/CSAMM.sol:CSAMM",
						"label": "totalSupply",
						"offset": 0,
						"slot": "2",
						"type": "t_uint256"
					},
					{
						"astId": 18,
						"contract": "contracts/CSAMM.sol:CSAMM",
						"label": "balanceOf",
						"offset": 0,
						"slot": "3",
						"type": "t_mapping(t_address,t_uint256)"
					}
				],
				"types": {
					"t_address": {
						"encoding": "inplace",
						"label": "address",
						"numberOfBytes": "20"
					},
					"t_mapping(t_address,t_uint256)": {
						"encoding": "mapping",
						"key": "t_address",
						"label": "mapping(address => uint256)",
						"numberOfBytes": "32",
						"value": "t_uint256"
					},
					"t_uint256": {
						"encoding": "inplace",
						"label": "uint256",
						"numberOfBytes": "32"
					}
				}
			},
			"userdoc": {
				"kind": "user",
				"methods": {},
				"version": 1
			}
		}
	}
}