{
	"contracts/CPAMM.sol": {
		"CPAMM": {
			"abi": [
				{
					"inputs": [
						{
							"internalType": "address",
							"name": "_token0",
							"type": "address"
						},
						{
							"internalType": "address",
							"name": "_token1",
							"type": "address"
						}
					],
					"stateMutability": "nonpayable",
					"type": "constructor"
				},
				{
					"inputs": [
						{
							"internalType": "uint256",
							"name": "_amount0",
							"type": "uint256"
						},
						{
							"internalType": "uint256",
							"name": "_amount1",
							"type": "uint256"
						}
					],
					"name": "addLiquidity",
					"outputs": [
						{
							"internalType": "uint256",
							"name": "shares",
							"type": "uint256"
						}
					],
					"stateMutability": "nonpayable",
					"type": "function"
				},
				{
					"inputs": [
						{
							"internalType": "address",
							"name": "",
							"type": "address"
						}
					],
					"name": "balanceOf",
					"outputs": [
						{
							"internalType": "uint256",
							"name": "",
							"type": "uint256"
						}
					],
					"stateMutability": "view",
					"type": "function"
				},
				{
					"inputs": [
						{
							"internalType": "uint256",
							"name": "_shares",
							"type": "uint256"
						}
					],
					"name": "removeLiquidity",
					"outputs": [
						{
							"internalType": "uint256",
							"name": "amount0",
							"type": "uint256"
						},
						{
							"internalType": "uint256",
							"name": "amount1",
							"type": "uint256"
						}
					],
					"stateMutability": "nonpayable",
					"type": "function"
				},
				{
					"inputs": [],
					"name": "reserve0",
					"outputs": [
						{
							"internalType": "uint256",
							"name": "",
							"type": "uint256"
						}
					],
					"stateMutability": "view",
					"type": "function"
				},
				{
					"inputs": [],
					"name": "reserve1",
					"outputs": [
						{
							"internalType": "uint256",
							"name": "",
							"type": "uint256"
						}
					],
					"stateMutability": "view",
					"type": "function"
				},
				{
					"inputs": [
						{
							"internalType": "address",
							"name": "_tokenIn",
							"type": "address"
						},
						{
							"internalType": "uint256",
							"name": "_amountIn",
							"type": "uint256"
						}
					],
					"name": "swap",
					"outputs": [
						{
							"internalType": "uint256",
							"name": "amountOut",
							"type": "uint256"
						}
					],
					"stateMutability": "nonpayable",
					"type": "function"
				},
				{
					"inputs": [],
					"name": "token0",
					"outputs": [
						{
							"internalType": "contract IERC20",
							"name": "",
							"type": "address"
						}
					],
					"stateMutability": "view",
					"type": "function"
				},
				{
					"inputs": [],
					"name": "token1",
					"outputs": [
						{
							"internalType": "contract IERC20",
							"name": "",
							"type": "address"
						}
					],
					"stateMutability": "view",
					"type": "function"
				},
				{
					"inputs": [],
					"name": "totalSupply",
					"outputs": [
						{
							"internalType": "uint256",
							"name": "",
							"type": "uint256"
						}
					],
					"stateMutability": "view",
					"type": "function"
				}
			],
			"devdoc": {
				"kind": "dev",
				"methods": {},
				"version": 1
			},
			"evm": {
				"assembly": "    /* \"contracts/CPAMM.sol\":90:3619  contract CPAMM {... */\n  mstore(0x40, 0xc0)\n    /* \"contracts/CPAMM.sol\":300:411  constructor(address _token0, address _token1) {... */\n  callvalue\n  dup1\n  iszero\n  tag_1\n  jumpi\n  0x00\n  dup1\n  revert\ntag_1:\n  pop\n  mload(0x40)\n  sub(codesize, bytecodeSize)\n  dup1\n  bytecodeSize\n  dup4\n  codecopy\n  dup2\n  dup2\n  add\n  0x40\n  mstore\n  dup2\n  add\n  swap1\n  tag_2\n  swap2\n  swap1\n  tag_3\n  jump\t// in\ntag_2:\n    /* \"contracts/CPAMM.sol\":368:375  _token0 */\n  dup2\n    /* \"contracts/CPAMM.sol\":352:376  token0 = IERC20(_token0) */\n  0xffffffffffffffffffffffffffffffffffffffff\n  and\n  0x80\n  dup2\n  0xffffffffffffffffffffffffffffffffffffffff\n  and\n  dup2\n  mstore\n  pop\n  pop\n    /* \"contracts/CPAMM.sol\":398:405  _token1 */\n  dup1\n    /* \"contracts/CPAMM.sol\":382:406  token1 = IERC20(_token1) */\n  0xffffffffffffffffffffffffffffffffffffffff\n  and\n  0xa0\n  dup2\n  0xffffffffffffffffffffffffffffffffffffffff\n  and\n  dup2\n  mstore\n  pop\n  pop\n    /* \"contracts/CPAMM.sol\":300:411  constructor(address _token0, address _token1) {... */\n  pop\n  pop\n    /* \"contracts/CPAMM.sol\":90:3619  contract CPAMM {... */\n  jump(tag_6)\n    /* \"#utility.yul\":88:205   */\ntag_8:\n    /* \"#utility.yul\":197:198   */\n  0x00\n    /* \"#utility.yul\":194:195   */\n  dup1\n    /* \"#utility.yul\":187:199   */\n  revert\n    /* \"#utility.yul\":334:460   */\ntag_10:\n    /* \"#utility.yul\":371:378   */\n  0x00\n    /* \"#utility.yul\":411:453   */\n  0xffffffffffffffffffffffffffffffffffffffff\n    /* \"#utility.yul\":404:409   */\n  dup3\n    /* \"#utility.yul\":400:454   */\n  and\n    /* \"#utility.yul\":389:454   */\n  swap1\n  pop\n    /* \"#utility.yul\":334:460   */\n  swap2\n  swap1\n  pop\n  jump\t// out\n    /* \"#utility.yul\":466:562   */\ntag_11:\n    /* \"#utility.yul\":503:510   */\n  0x00\n    /* \"#utility.yul\":532:556   */\n  tag_20\n    /* \"#utility.yul\":550:555   */\n  dup3\n    /* \"#utility.yul\":532:556   */\n  tag_10\n  jump\t// in\ntag_20:\n    /* \"#utility.yul\":521:556   */\n  swap1\n  pop\n    /* \"#utility.yul\":466:562   */\n  swap2\n  swap1\n  pop\n  jump\t// out\n    /* \"#utility.yul\":568:690   */\ntag_12:\n    /* \"#utility.yul\":641:665   */\n  tag_22\n    /* \"#utility.yul\":659:664   */\n  dup2\n    /* \"#utility.yul\":641:665   */\n  tag_11\n  jump\t// in\ntag_22:\n    /* \"#utility.yul\":634:639   */\n  dup2\n    /* \"#utility.yul\":631:666   */\n  eq\n    /* \"#utility.yul\":621:684   */\n  tag_23\n  jumpi\n    /* \"#utility.yul\":680:681   */\n  0x00\n    /* \"#utility.yul\":677:678   */\n  dup1\n    /* \"#utility.yul\":670:682   */\n  revert\n    /* \"#utility.yul\":621:684   */\ntag_23:\n    /* \"#utility.yul\":568:690   */\n  pop\n  jump\t// out\n    /* \"#utility.yul\":696:839   */\ntag_13:\n    /* \"#utility.yul\":753:758   */\n  0x00\n    /* \"#utility.yul\":784:790   */\n  dup2\n    /* \"#utility.yul\":778:791   */\n  mload\n    /* \"#utility.yul\":769:791   */\n  swap1\n  pop\n    /* \"#utility.yul\":800:833   */\n  tag_25\n    /* \"#utility.yul\":827:832   */\n  dup2\n    /* \"#utility.yul\":800:833   */\n  tag_12\n  jump\t// in\ntag_25:\n    /* \"#utility.yul\":696:839   */\n  swap3\n  swap2\n  pop\n  pop\n  jump\t// out\n    /* \"#utility.yul\":845:1352   */\ntag_3:\n    /* \"#utility.yul\":924:930   */\n  0x00\n    /* \"#utility.yul\":932:938   */\n  dup1\n    /* \"#utility.yul\":981:983   */\n  0x40\n    /* \"#utility.yul\":969:978   */\n  dup4\n    /* \"#utility.yul\":960:967   */\n  dup6\n    /* \"#utility.yul\":956:979   */\n  sub\n    /* \"#utility.yul\":952:984   */\n  slt\n    /* \"#utility.yul\":949:1068   */\n  iszero\n  tag_27\n  jumpi\n    /* \"#utility.yul\":987:1066   */\n  tag_28\n  tag_8\n  jump\t// in\ntag_28:\n    /* \"#utility.yul\":949:1068   */\ntag_27:\n    /* \"#utility.yul\":1107:1108   */\n  0x00\n    /* \"#utility.yul\":1132:1196   */\n  tag_29\n    /* \"#utility.yul\":1188:1195   */\n  dup6\n    /* \"#utility.yul\":1179:1185   */\n  dup3\n    /* \"#utility.yul\":1168:1177   */\n  dup7\n    /* \"#utility.yul\":1164:1186   */\n  add\n    /* \"#utility.yul\":1132:1196   */\n  tag_13\n  jump\t// in\ntag_29:\n    /* \"#utility.yul\":1122:1196   */\n  swap3\n  pop\n    /* \"#utility.yul\":1078:1206   */\n  pop\n    /* \"#utility.yul\":1245:1247   */\n  0x20\n    /* \"#utility.yul\":1271:1335   */\n  tag_30\n    /* \"#utility.yul\":1327:1334   */\n  dup6\n    /* \"#utility.yul\":1318:1324   */\n  dup3\n    /* \"#utility.yul\":1307:1316   */\n  dup7\n    /* \"#utility.yul\":1303:1325   */\n  add\n    /* \"#utility.yul\":1271:1335   */\n  tag_13\n  jump\t// in\ntag_30:\n    /* \"#utility.yul\":1261:1335   */\n  swap2\n  pop\n    /* \"#utility.yul\":1216:1345   */\n  pop\n    /* \"#utility.yul\":845:1352   */\n  swap3\n  pop\n  swap3\n  swap1\n  pop\n  jump\t// out\n    /* \"contracts/CPAMM.sol\":90:3619  contract CPAMM {... */\ntag_6:\n  mload(0x80)\n  mload(0xa0)\n  codecopy(0x00, dataOffset(sub_0), dataSize(sub_0))\n  0x00\n  assignImmutable(\"0xe4b1702d9298fee62dfeccc57d322a463ad55ca201256d01f62b45b2e1c21c10\")\n  0x00\n  assignImmutable(\"0xceebf77a833b30520287ddd9478ff51abbdffa30aa90a8d655dba0e8a79ce0c1\")\n  return(0x00, dataSize(sub_0))\nstop\n\nsub_0: assembly {\n        /* \"contracts/CPAMM.sol\":90:3619  contract CPAMM {... */\n      mstore(0x40, 0x80)\n      callvalue\n      dup1\n      iszero\n      tag_1\n      jumpi\n      0x00\n      dup1\n      revert\n    tag_1:\n      pop\n      jumpi(tag_2, lt(calldatasize, 0x04))\n      shr(0xe0, calldataload(0x00))\n      dup1\n      0x70a08231\n      gt\n      tag_12\n      jumpi\n      dup1\n      0x70a08231\n      eq\n      tag_7\n      jumpi\n      dup1\n      0x9c8f9f23\n      eq\n      tag_8\n      jumpi\n      dup1\n      0x9cd441da\n      eq\n      tag_9\n      jumpi\n      dup1\n      0xd004f0f7\n      eq\n      tag_10\n      jumpi\n      dup1\n      0xd21220a7\n      eq\n      tag_11\n      jumpi\n      jump(tag_2)\n    tag_12:\n      dup1\n      0x0dfe1681\n      eq\n      tag_3\n      jumpi\n      dup1\n      0x18160ddd\n      eq\n      tag_4\n      jumpi\n      dup1\n      0x443cb4bc\n      eq\n      tag_5\n      jumpi\n      dup1\n      0x5a76f25e\n      eq\n      tag_6\n      jumpi\n    tag_2:\n      0x00\n      dup1\n      revert\n        /* \"contracts/CPAMM.sol\":109:139  IERC20 public immutable token0 */\n    tag_3:\n      tag_13\n      tag_14\n      jump\t// in\n    tag_13:\n      mload(0x40)\n      tag_15\n      swap2\n      swap1\n      tag_16\n      jump\t// in\n    tag_15:\n      mload(0x40)\n      dup1\n      swap2\n      sub\n      swap1\n      return\n        /* \"contracts/CPAMM.sol\":227:250  uint public totalSupply */\n    tag_4:\n      tag_17\n      tag_18\n      jump\t// in\n    tag_17:\n      mload(0x40)\n      tag_19\n      swap2\n      swap1\n      tag_20\n      jump\t// in\n    tag_19:\n      mload(0x40)\n      dup1\n      swap2\n      sub\n      swap1\n      return\n        /* \"contracts/CPAMM.sol\":178:198  uint public reserve0 */\n    tag_5:\n      tag_21\n      tag_22\n      jump\t// in\n    tag_21:\n      mload(0x40)\n      tag_23\n      swap2\n      swap1\n      tag_20\n      jump\t// in\n    tag_23:\n      mload(0x40)\n      dup1\n      swap2\n      sub\n      swap1\n      return\n        /* \"contracts/CPAMM.sol\":202:222  uint public reserve1 */\n    tag_6:\n      tag_24\n      tag_25\n      jump\t// in\n    tag_24:\n      mload(0x40)\n      tag_26\n      swap2\n      swap1\n      tag_20\n      jump\t// in\n    tag_26:\n      mload(0x40)\n      dup1\n      swap2\n      sub\n      swap1\n      return\n        /* \"contracts/CPAMM.sol\":254:295  mapping(address => uint) public balanceOf */\n    tag_7:\n      tag_27\n      0x04\n      dup1\n      calldatasize\n      sub\n      dup2\n      add\n      swap1\n      tag_28\n      swap2\n      swap1\n      tag_29\n      jump\t// in\n    tag_28:\n      tag_30\n      jump\t// in\n    tag_27:\n      mload(0x40)\n      tag_31\n      swap2\n      swap1\n      tag_20\n      jump\t// in\n    tag_31:\n      mload(0x40)\n      dup1\n      swap2\n      sub\n      swap1\n      return\n        /* \"contracts/CPAMM.sol\":2915:3617  function removeLiquidity(uint _shares) external returns (uint amount0, uint amount1) {... */\n    tag_8:\n      tag_32\n      0x04\n      dup1\n      calldatasize\n      sub\n      dup2\n      add\n      swap1\n      tag_33\n      swap2\n      swap1\n      tag_34\n      jump\t// in\n    tag_33:\n      tag_35\n      jump\t// in\n    tag_32:\n      mload(0x40)\n      tag_36\n      swap3\n      swap2\n      swap1\n      tag_37\n      jump\t// in\n    tag_36:\n      mload(0x40)\n      dup1\n      swap2\n      sub\n      swap1\n      return\n        /* \"contracts/CPAMM.sol\":1698:2675  function addLiquidity(uint _amount0, uint _amount1) external returns (uint shares) {... */\n    tag_9:\n      tag_38\n      0x04\n      dup1\n      calldatasize\n      sub\n      dup2\n      add\n      swap1\n      tag_39\n      swap2\n      swap1\n      tag_40\n      jump\t// in\n    tag_39:\n      tag_41\n      jump\t// in\n    tag_38:\n      mload(0x40)\n      tag_42\n      swap2\n      swap1\n      tag_20\n      jump\t// in\n    tag_42:\n      mload(0x40)\n      dup1\n      swap2\n      sub\n      swap1\n      return\n        /* \"contracts/CPAMM.sol\":775:1694  function swap(address _tokenIn, uint _amountIn) external returns (uint amountOut) {... */\n    tag_10:\n      tag_43\n      0x04\n      dup1\n      calldatasize\n      sub\n      dup2\n      add\n      swap1\n      tag_44\n      swap2\n      swap1\n      tag_45\n      jump\t// in\n    tag_44:\n      tag_46\n      jump\t// in\n    tag_43:\n      mload(0x40)\n      tag_47\n      swap2\n      swap1\n      tag_20\n      jump\t// in\n    tag_47:\n      mload(0x40)\n      dup1\n      swap2\n      sub\n      swap1\n      return\n        /* \"contracts/CPAMM.sol\":143:173  IERC20 public immutable token1 */\n    tag_11:\n      tag_48\n      tag_49\n      jump\t// in\n    tag_48:\n      mload(0x40)\n      tag_50\n      swap2\n      swap1\n      tag_16\n      jump\t// in\n    tag_50:\n      mload(0x40)\n      dup1\n      swap2\n      sub\n      swap1\n      return\n        /* \"contracts/CPAMM.sol\":109:139  IERC20 public immutable token0 */\n    tag_14:\n      immutable(\"0xceebf77a833b30520287ddd9478ff51abbdffa30aa90a8d655dba0e8a79ce0c1\")\n      dup2\n      jump\t// out\n        /* \"contracts/CPAMM.sol\":227:250  uint public totalSupply */\n    tag_18:\n      sload(0x02)\n      dup2\n      jump\t// out\n        /* \"contracts/CPAMM.sol\":178:198  uint public reserve0 */\n    tag_22:\n      sload(0x00)\n      dup2\n      jump\t// out\n        /* \"contracts/CPAMM.sol\":202:222  uint public reserve1 */\n    tag_25:\n      sload(0x01)\n      dup2\n      jump\t// out\n        /* \"contracts/CPAMM.sol\":254:295  mapping(address => uint) public balanceOf */\n    tag_30:\n      mstore(0x20, 0x03)\n      dup1\n      0x00\n      mstore\n      keccak256(0x00, 0x40)\n      0x00\n      swap2\n      pop\n      swap1\n      pop\n      sload\n      dup2\n      jump\t// out\n        /* \"contracts/CPAMM.sol\":2915:3617  function removeLiquidity(uint _shares) external returns (uint amount0, uint amount1) {... */\n    tag_35:\n        /* \"contracts/CPAMM.sol\":2972:2984  uint amount0 */\n      0x00\n        /* \"contracts/CPAMM.sol\":2986:2998  uint amount1 */\n      dup1\n        /* \"contracts/CPAMM.sol\":3099:3108  uint bal0 */\n      0x00\n        /* \"contracts/CPAMM.sol\":3111:3117  token0 */\n      immutable(\"0xceebf77a833b30520287ddd9478ff51abbdffa30aa90a8d655dba0e8a79ce0c1\")\n        /* \"contracts/CPAMM.sol\":3111:3127  token0.balanceOf */\n      0xffffffffffffffffffffffffffffffffffffffff\n      and\n      0x70a08231\n        /* \"contracts/CPAMM.sol\":3136:3140  this */\n      address\n        /* \"contracts/CPAMM.sol\":3111:3142  token0.balanceOf(address(this)) */\n      mload(0x40)\n      dup3\n      0xffffffff\n      and\n      0xe0\n      shl\n      dup2\n      mstore\n      0x04\n      add\n      tag_52\n      swap2\n      swap1\n      tag_53\n      jump\t// in\n    tag_52:\n      0x20\n      mload(0x40)\n      dup1\n      dup4\n      sub\n      dup2\n      dup7\n      gas\n      staticcall\n      iszero\n      dup1\n      iszero\n      tag_55\n      jumpi\n      returndatasize\n      0x00\n      dup1\n      returndatacopy\n      revert(0x00, returndatasize)\n    tag_55:\n      pop\n      pop\n      pop\n      pop\n      mload(0x40)\n      returndatasize\n      not(0x1f)\n      0x1f\n      dup3\n      add\n      and\n      dup3\n      add\n      dup1\n      0x40\n      mstore\n      pop\n      dup2\n      add\n      swap1\n      tag_56\n      swap2\n      swap1\n      tag_57\n      jump\t// in\n    tag_56:\n        /* \"contracts/CPAMM.sol\":3099:3142  uint bal0 = token0.balanceOf(address(this)) */\n      swap1\n      pop\n        /* \"contracts/CPAMM.sol\":3148:3157  uint bal1 */\n      0x00\n        /* \"contracts/CPAMM.sol\":3160:3166  token1 */\n      immutable(\"0xe4b1702d9298fee62dfeccc57d322a463ad55ca201256d01f62b45b2e1c21c10\")\n        /* \"contracts/CPAMM.sol\":3160:3176  token1.balanceOf */\n      0xffffffffffffffffffffffffffffffffffffffff\n      and\n      0x70a08231\n        /* \"contracts/CPAMM.sol\":3185:3189  this */\n      address\n        /* \"contracts/CPAMM.sol\":3160:3191  token1.balanceOf(address(this)) */\n      mload(0x40)\n      dup3\n      0xffffffff\n      and\n      0xe0\n      shl\n      dup2\n      mstore\n      0x04\n      add\n      tag_58\n      swap2\n      swap1\n      tag_53\n      jump\t// in\n    tag_58:\n      0x20\n      mload(0x40)\n      dup1\n      dup4\n      sub\n      dup2\n      dup7\n      gas\n      staticcall\n      iszero\n      dup1\n      iszero\n      tag_60\n      jumpi\n      returndatasize\n      0x00\n      dup1\n      returndatacopy\n      revert(0x00, returndatasize)\n    tag_60:\n      pop\n      pop\n      pop\n      pop\n      mload(0x40)\n      returndatasize\n      not(0x1f)\n      0x1f\n      dup3\n      add\n      and\n      dup3\n      add\n      dup1\n      0x40\n      mstore\n      pop\n      dup2\n      add\n      swap1\n      tag_61\n      swap2\n      swap1\n      tag_57\n      jump\t// in\n    tag_61:\n        /* \"contracts/CPAMM.sol\":3148:3191  uint bal1 = token1.balanceOf(address(this)) */\n      swap1\n      pop\n        /* \"contracts/CPAMM.sol\":3227:3238  totalSupply */\n      sload(0x02)\n        /* \"contracts/CPAMM.sol\":3219:3223  bal0 */\n      dup3\n        /* \"contracts/CPAMM.sol\":3209:3216  _shares */\n      dup7\n        /* \"contracts/CPAMM.sol\":3209:3223  _shares * bal0 */\n      tag_62\n      swap2\n      swap1\n      tag_63\n      jump\t// in\n    tag_62:\n        /* \"contracts/CPAMM.sol\":3208:3238  (_shares * bal0) / totalSupply */\n      tag_64\n      swap2\n      swap1\n      tag_65\n      jump\t// in\n    tag_64:\n        /* \"contracts/CPAMM.sol\":3198:3238  amount0 = (_shares * bal0) / totalSupply */\n      swap4\n      pop\n        /* \"contracts/CPAMM.sol\":3273:3284  totalSupply */\n      sload(0x02)\n        /* \"contracts/CPAMM.sol\":3265:3269  bal1 */\n      dup2\n        /* \"contracts/CPAMM.sol\":3255:3262  _shares */\n      dup7\n        /* \"contracts/CPAMM.sol\":3255:3269  _shares * bal1 */\n      tag_66\n      swap2\n      swap1\n      tag_63\n      jump\t// in\n    tag_66:\n        /* \"contracts/CPAMM.sol\":3254:3284  (_shares * bal1) / totalSupply */\n      tag_67\n      swap2\n      swap1\n      tag_65\n      jump\t// in\n    tag_67:\n        /* \"contracts/CPAMM.sol\":3244:3284  amount1 = (_shares * bal1) / totalSupply */\n      swap3\n      pop\n        /* \"contracts/CPAMM.sol\":3308:3309  0 */\n      0x00\n        /* \"contracts/CPAMM.sol\":3298:3305  amount0 */\n      dup5\n        /* \"contracts/CPAMM.sol\":3298:3309  amount0 > 0 */\n      gt\n        /* \"contracts/CPAMM.sol\":3298:3324  amount0 > 0 && amount1 > 0 */\n      dup1\n      iszero\n      tag_68\n      jumpi\n      pop\n        /* \"contracts/CPAMM.sol\":3323:3324  0 */\n      0x00\n        /* \"contracts/CPAMM.sol\":3313:3320  amount1 */\n      dup4\n        /* \"contracts/CPAMM.sol\":3313:3324  amount1 > 0 */\n      gt\n        /* \"contracts/CPAMM.sol\":3298:3324  amount0 > 0 && amount1 > 0 */\n    tag_68:\n        /* \"contracts/CPAMM.sol\":3290:3351  require(amount0 > 0 && amount1 > 0, \"amount0 or amount1 = 0\") */\n      tag_69\n      jumpi\n      mload(0x40)\n      0x08c379a000000000000000000000000000000000000000000000000000000000\n      dup2\n      mstore\n      0x04\n      add\n      tag_70\n      swap1\n      tag_71\n      jump\t// in\n    tag_70:\n      mload(0x40)\n      dup1\n      swap2\n      sub\n      swap1\n      revert\n    tag_69:\n        /* \"contracts/CPAMM.sol\":3377:3403  _burn(msg.sender, _shares) */\n      tag_72\n        /* \"contracts/CPAMM.sol\":3383:3393  msg.sender */\n      caller\n        /* \"contracts/CPAMM.sol\":3395:3402  _shares */\n      dup7\n        /* \"contracts/CPAMM.sol\":3377:3382  _burn */\n      tag_73\n        /* \"contracts/CPAMM.sol\":3377:3403  _burn(msg.sender, _shares) */\n      jump\t// in\n    tag_72:\n        /* \"contracts/CPAMM.sol\":3433:3490  _update(... */\n      tag_74\n        /* \"contracts/CPAMM.sol\":3455:3462  amount0 */\n      dup5\n        /* \"contracts/CPAMM.sol\":3448:3452  bal0 */\n      dup4\n        /* \"contracts/CPAMM.sol\":3448:3462  bal0 - amount0 */\n      tag_75\n      swap2\n      swap1\n      tag_76\n      jump\t// in\n    tag_75:\n        /* \"contracts/CPAMM.sol\":3477:3484  amount1 */\n      dup5\n        /* \"contracts/CPAMM.sol\":3470:3474  bal1 */\n      dup4\n        /* \"contracts/CPAMM.sol\":3470:3484  bal1 - amount1 */\n      tag_77\n      swap2\n      swap1\n      tag_76\n      jump\t// in\n    tag_77:\n        /* \"contracts/CPAMM.sol\":3433:3440  _update */\n      tag_78\n        /* \"contracts/CPAMM.sol\":3433:3490  _update(... */\n      jump\t// in\n    tag_74:\n        /* \"contracts/CPAMM.sol\":3534:3540  token0 */\n      immutable(\"0xceebf77a833b30520287ddd9478ff51abbdffa30aa90a8d655dba0e8a79ce0c1\")\n        /* \"contracts/CPAMM.sol\":3534:3549  token0.transfer */\n      0xffffffffffffffffffffffffffffffffffffffff\n      and\n      0xa9059cbb\n        /* \"contracts/CPAMM.sol\":3550:3560  msg.sender */\n      caller\n        /* \"contracts/CPAMM.sol\":3562:3569  amount0 */\n      dup7\n        /* \"contracts/CPAMM.sol\":3534:3570  token0.transfer(msg.sender, amount0) */\n      mload(0x40)\n      dup4\n      0xffffffff\n      and\n      0xe0\n      shl\n      dup2\n      mstore\n      0x04\n      add\n      tag_79\n      swap3\n      swap2\n      swap1\n      tag_80\n      jump\t// in\n    tag_79:\n      0x20\n      mload(0x40)\n      dup1\n      dup4\n      sub\n      dup2\n      0x00\n      dup8\n      gas\n      call\n      iszero\n      dup1\n      iszero\n      tag_82\n      jumpi\n      returndatasize\n      0x00\n      dup1\n      returndatacopy\n      revert(0x00, returndatasize)\n    tag_82:\n      pop\n      pop\n      pop\n      pop\n      mload(0x40)\n      returndatasize\n      not(0x1f)\n      0x1f\n      dup3\n      add\n      and\n      dup3\n      add\n      dup1\n      0x40\n      mstore\n      pop\n      dup2\n      add\n      swap1\n      tag_83\n      swap2\n      swap1\n      tag_84\n      jump\t// in\n    tag_83:\n      pop\n        /* \"contracts/CPAMM.sol\":3576:3582  token1 */\n      immutable(\"0xe4b1702d9298fee62dfeccc57d322a463ad55ca201256d01f62b45b2e1c21c10\")\n        /* \"contracts/CPAMM.sol\":3576:3591  token1.transfer */\n      0xffffffffffffffffffffffffffffffffffffffff\n      and\n      0xa9059cbb\n        /* \"contracts/CPAMM.sol\":3592:3602  msg.sender */\n      caller\n        /* \"contracts/CPAMM.sol\":3604:3611  amount1 */\n      dup6\n        /* \"contracts/CPAMM.sol\":3576:3612  token1.transfer(msg.sender, amount1) */\n      mload(0x40)\n      dup4\n      0xffffffff\n      and\n      0xe0\n      shl\n      dup2\n      mstore\n      0x04\n      add\n      tag_85\n      swap3\n      swap2\n      swap1\n      tag_80\n      jump\t// in\n    tag_85:\n      0x20\n      mload(0x40)\n      dup1\n      dup4\n      sub\n      dup2\n      0x00\n      dup8\n      gas\n      call\n      iszero\n      dup1\n      iszero\n      tag_87\n      jumpi\n      returndatasize\n      0x00\n      dup1\n      returndatacopy\n      revert(0x00, returndatasize)\n    tag_87:\n      pop\n      pop\n      pop\n      pop\n      mload(0x40)\n      returndatasize\n      not(0x1f)\n      0x1f\n      dup3\n      add\n      and\n      dup3\n      add\n      dup1\n      0x40\n      mstore\n      pop\n      dup2\n      add\n      swap1\n      tag_88\n      swap2\n      swap1\n      tag_84\n      jump\t// in\n    tag_88:\n      pop\n        /* \"contracts/CPAMM.sol\":3000:3617  {... */\n      pop\n      pop\n        /* \"contracts/CPAMM.sol\":2915:3617  function removeLiquidity(uint _shares) external returns (uint amount0, uint amount1) {... */\n      swap2\n      pop\n      swap2\n      jump\t// out\n        /* \"contracts/CPAMM.sol\":1698:2675  function addLiquidity(uint _amount0, uint _amount1) external returns (uint shares) {... */\n    tag_41:\n        /* \"contracts/CPAMM.sol\":1768:1779  uint shares */\n      0x00\n        /* \"contracts/CPAMM.sol\":1820:1826  token0 */\n      immutable(\"0xceebf77a833b30520287ddd9478ff51abbdffa30aa90a8d655dba0e8a79ce0c1\")\n        /* \"contracts/CPAMM.sol\":1820:1839  token0.transferFrom */\n      0xffffffffffffffffffffffffffffffffffffffff\n      and\n      0x23b872dd\n        /* \"contracts/CPAMM.sol\":1840:1850  msg.sender */\n      caller\n        /* \"contracts/CPAMM.sol\":1860:1864  this */\n      address\n        /* \"contracts/CPAMM.sol\":1867:1875  _amount0 */\n      dup7\n        /* \"contracts/CPAMM.sol\":1820:1876  token0.transferFrom(msg.sender, address(this), _amount0) */\n      mload(0x40)\n      dup5\n      0xffffffff\n      and\n      0xe0\n      shl\n      dup2\n      mstore\n      0x04\n      add\n      tag_90\n      swap4\n      swap3\n      swap2\n      swap1\n      tag_91\n      jump\t// in\n    tag_90:\n      0x20\n      mload(0x40)\n      dup1\n      dup4\n      sub\n      dup2\n      0x00\n      dup8\n      gas\n      call\n      iszero\n      dup1\n      iszero\n      tag_93\n      jumpi\n      returndatasize\n      0x00\n      dup1\n      returndatacopy\n      revert(0x00, returndatasize)\n    tag_93:\n      pop\n      pop\n      pop\n      pop\n      mload(0x40)\n      returndatasize\n      not(0x1f)\n      0x1f\n      dup3\n      add\n      and\n      dup3\n      add\n      dup1\n      0x40\n      mstore\n      pop\n      dup2\n      add\n      swap1\n      tag_94\n      swap2\n      swap1\n      tag_84\n      jump\t// in\n    tag_94:\n      pop\n        /* \"contracts/CPAMM.sol\":1882:1888  token1 */\n      immutable(\"0xe4b1702d9298fee62dfeccc57d322a463ad55ca201256d01f62b45b2e1c21c10\")\n        /* \"contracts/CPAMM.sol\":1882:1901  token1.transferFrom */\n      0xffffffffffffffffffffffffffffffffffffffff\n      and\n      0x23b872dd\n        /* \"contracts/CPAMM.sol\":1902:1912  msg.sender */\n      caller\n        /* \"contracts/CPAMM.sol\":1922:1926  this */\n      address\n        /* \"contracts/CPAMM.sol\":1929:1937  _amount1 */\n      dup6\n        /* \"contracts/CPAMM.sol\":1882:1938  token1.transferFrom(msg.sender, address(this), _amount1) */\n      mload(0x40)\n      dup5\n      0xffffffff\n      and\n      0xe0\n      shl\n      dup2\n      mstore\n      0x04\n      add\n      tag_95\n      swap4\n      swap3\n      swap2\n      swap1\n      tag_91\n      jump\t// in\n    tag_95:\n      0x20\n      mload(0x40)\n      dup1\n      dup4\n      sub\n      dup2\n      0x00\n      dup8\n      gas\n      call\n      iszero\n      dup1\n      iszero\n      tag_97\n      jumpi\n      returndatasize\n      0x00\n      dup1\n      returndatacopy\n      revert(0x00, returndatasize)\n    tag_97:\n      pop\n      pop\n      pop\n      pop\n      mload(0x40)\n      returndatasize\n      not(0x1f)\n      0x1f\n      dup3\n      add\n      and\n      dup3\n      add\n      dup1\n      0x40\n      mstore\n      pop\n      dup2\n      add\n      swap1\n      tag_98\n      swap2\n      swap1\n      tag_84\n      jump\t// in\n    tag_98:\n      pop\n        /* \"contracts/CPAMM.sol\":1983:1984  0 */\n      0x00\n        /* \"contracts/CPAMM.sol\":1972:1980  reserve0 */\n      dup1\n      sload\n        /* \"contracts/CPAMM.sol\":1972:1984  reserve0 > 0 */\n      gt\n        /* \"contracts/CPAMM.sol\":1972:2000  reserve0 > 0 || reserve1 > 0 */\n      dup1\n      tag_99\n      jumpi\n      pop\n        /* \"contracts/CPAMM.sol\":1999:2000  0 */\n      0x00\n        /* \"contracts/CPAMM.sol\":1988:1996  reserve1 */\n      sload(0x01)\n        /* \"contracts/CPAMM.sol\":1988:2000  reserve1 > 0 */\n      gt\n        /* \"contracts/CPAMM.sol\":1972:2000  reserve0 > 0 || reserve1 > 0 */\n    tag_99:\n        /* \"contracts/CPAMM.sol\":1968:2088  if (reserve0 > 0 || reserve1 > 0) {... */\n      iszero\n      tag_100\n      jumpi\n        /* \"contracts/CPAMM.sol\":2052:2060  _amount0 */\n      dup3\n        /* \"contracts/CPAMM.sol\":2041:2049  reserve1 */\n      sload(0x01)\n        /* \"contracts/CPAMM.sol\":2041:2060  reserve1 * _amount0 */\n      tag_101\n      swap2\n      swap1\n      tag_63\n      jump\t// in\n    tag_101:\n        /* \"contracts/CPAMM.sol\":2029:2037  _amount1 */\n      dup3\n        /* \"contracts/CPAMM.sol\":2018:2026  reserve0 */\n      sload(0x00)\n        /* \"contracts/CPAMM.sol\":2018:2037  reserve0 * _amount1 */\n      tag_102\n      swap2\n      swap1\n      tag_63\n      jump\t// in\n    tag_102:\n        /* \"contracts/CPAMM.sol\":2018:2060  reserve0 * _amount1 == reserve1 * _amount0 */\n      eq\n        /* \"contracts/CPAMM.sol\":2010:2081  require(reserve0 * _amount1 == reserve1 * _amount0, \"dy / dx != y / x\") */\n      tag_103\n      jumpi\n      mload(0x40)\n      0x08c379a000000000000000000000000000000000000000000000000000000000\n      dup2\n      mstore\n      0x04\n      add\n      tag_104\n      swap1\n      tag_105\n      jump\t// in\n    tag_104:\n      mload(0x40)\n      dup1\n      swap2\n      sub\n      swap1\n      revert\n    tag_103:\n        /* \"contracts/CPAMM.sol\":1968:2088  if (reserve0 > 0 || reserve1 > 0) {... */\n    tag_100:\n        /* \"contracts/CPAMM.sol\":2214:2215  0 */\n      0x00\n        /* \"contracts/CPAMM.sol\":2199:2210  totalSupply */\n      sload(0x02)\n        /* \"contracts/CPAMM.sol\":2199:2215  totalSupply == 0 */\n      sub\n        /* \"contracts/CPAMM.sol\":2195:2480  if (totalSupply == 0) {... */\n      tag_106\n      jumpi\n        /* \"contracts/CPAMM.sol\":2234:2260  _sqrt(_amount0 * _amount1) */\n      tag_107\n        /* \"contracts/CPAMM.sol\":2251:2259  _amount1 */\n      dup3\n        /* \"contracts/CPAMM.sol\":2240:2248  _amount0 */\n      dup5\n        /* \"contracts/CPAMM.sol\":2240:2259  _amount0 * _amount1 */\n      tag_108\n      swap2\n      swap1\n      tag_63\n      jump\t// in\n    tag_108:\n        /* \"contracts/CPAMM.sol\":2234:2239  _sqrt */\n      tag_109\n        /* \"contracts/CPAMM.sol\":2234:2260  _sqrt(_amount0 * _amount1) */\n      jump\t// in\n    tag_107:\n        /* \"contracts/CPAMM.sol\":2225:2260  shares = _sqrt(_amount0 * _amount1) */\n      swap1\n      pop\n        /* \"contracts/CPAMM.sol\":2195:2480  if (totalSupply == 0) {... */\n      jump(tag_110)\n    tag_106:\n        /* \"contracts/CPAMM.sol\":2355:2363  reserve1 */\n      sload(0x01)\n        /* \"contracts/CPAMM.sol\":2340:2351  totalSupply */\n      sload(0x02)\n        /* \"contracts/CPAMM.sol\":2329:2337  _amount1 */\n      dup4\n        /* \"contracts/CPAMM.sol\":2329:2351  _amount1 * totalSupply */\n      tag_111\n      swap2\n      swap1\n      tag_63\n      jump\t// in\n    tag_111:\n        /* \"contracts/CPAMM.sol\":2328:2363  (_amount1 * totalSupply) / reserve1 */\n      tag_112\n      swap2\n      swap1\n      tag_65\n      jump\t// in\n    tag_112:\n        /* \"contracts/CPAMM.sol\":2317:2325  reserve0 */\n      sload(0x00)\n        /* \"contracts/CPAMM.sol\":2302:2313  totalSupply */\n      sload(0x02)\n        /* \"contracts/CPAMM.sol\":2291:2299  _amount0 */\n      dup6\n        /* \"contracts/CPAMM.sol\":2291:2313  _amount0 * totalSupply */\n      tag_113\n      swap2\n      swap1\n      tag_63\n      jump\t// in\n    tag_113:\n        /* \"contracts/CPAMM.sol\":2290:2325  (_amount0 * totalSupply) / reserve0 */\n      tag_114\n      swap2\n      swap1\n      tag_65\n      jump\t// in\n    tag_114:\n        /* \"contracts/CPAMM.sol\":2290:2363  (_amount0 * totalSupply) / reserve0 < (_amount1 * totalSupply) / reserve1 */\n      lt\n        /* \"contracts/CPAMM.sol\":2290:2473  (_amount0 * totalSupply) / reserve0 < (_amount1 * totalSupply) / reserve1 ... */\n      tag_115\n      jumpi\n        /* \"contracts/CPAMM.sol\":2465:2473  reserve1 */\n      sload(0x01)\n        /* \"contracts/CPAMM.sol\":2450:2461  totalSupply */\n      sload(0x02)\n        /* \"contracts/CPAMM.sol\":2439:2447  _amount1 */\n      dup4\n        /* \"contracts/CPAMM.sol\":2439:2461  _amount1 * totalSupply */\n      tag_116\n      swap2\n      swap1\n      tag_63\n      jump\t// in\n    tag_116:\n        /* \"contracts/CPAMM.sol\":2438:2473  (_amount1 * totalSupply) / reserve1 */\n      tag_117\n      swap2\n      swap1\n      tag_65\n      jump\t// in\n    tag_117:\n        /* \"contracts/CPAMM.sol\":2290:2473  (_amount0 * totalSupply) / reserve0 < (_amount1 * totalSupply) / reserve1 ... */\n      jump(tag_118)\n    tag_115:\n        /* \"contracts/CPAMM.sol\":2410:2418  reserve0 */\n      sload(0x00)\n        /* \"contracts/CPAMM.sol\":2395:2406  totalSupply */\n      sload(0x02)\n        /* \"contracts/CPAMM.sol\":2384:2392  _amount0 */\n      dup5\n        /* \"contracts/CPAMM.sol\":2384:2406  _amount0 * totalSupply */\n      tag_119\n      swap2\n      swap1\n      tag_63\n      jump\t// in\n    tag_119:\n        /* \"contracts/CPAMM.sol\":2383:2418  (_amount0 * totalSupply) / reserve0 */\n      tag_120\n      swap2\n      swap1\n      tag_65\n      jump\t// in\n    tag_120:\n        /* \"contracts/CPAMM.sol\":2290:2473  (_amount0 * totalSupply) / reserve0 < (_amount1 * totalSupply) / reserve1 ... */\n    tag_118:\n        /* \"contracts/CPAMM.sol\":2281:2473  shares = (_amount0 * totalSupply) / reserve0 < (_amount1 * totalSupply) / reserve1 ... */\n      swap1\n      pop\n        /* \"contracts/CPAMM.sol\":2195:2480  if (totalSupply == 0) {... */\n    tag_110:\n        /* \"contracts/CPAMM.sol\":2502:2503  0 */\n      0x00\n        /* \"contracts/CPAMM.sol\":2493:2499  shares */\n      dup2\n        /* \"contracts/CPAMM.sol\":2493:2503  shares > 0 */\n      gt\n        /* \"contracts/CPAMM.sol\":2485:2518  require(shares > 0, \"shares = 0\") */\n      tag_121\n      jumpi\n      mload(0x40)\n      0x08c379a000000000000000000000000000000000000000000000000000000000\n      dup2\n      mstore\n      0x04\n      add\n      tag_122\n      swap1\n      tag_123\n      jump\t// in\n    tag_122:\n      mload(0x40)\n      dup1\n      swap2\n      sub\n      swap1\n      revert\n    tag_121:\n        /* \"contracts/CPAMM.sol\":2524:2549  _mint(msg.sender, shares) */\n      tag_124\n        /* \"contracts/CPAMM.sol\":2530:2540  msg.sender */\n      caller\n        /* \"contracts/CPAMM.sol\":2542:2548  shares */\n      dup3\n        /* \"contracts/CPAMM.sol\":2524:2529  _mint */\n      tag_125\n        /* \"contracts/CPAMM.sol\":2524:2549  _mint(msg.sender, shares) */\n      jump\t// in\n    tag_124:\n        /* \"contracts/CPAMM.sol\":2579:2670  _update(... */\n      tag_126\n        /* \"contracts/CPAMM.sol\":2594:2600  token0 */\n      immutable(\"0xceebf77a833b30520287ddd9478ff51abbdffa30aa90a8d655dba0e8a79ce0c1\")\n        /* \"contracts/CPAMM.sol\":2594:2610  token0.balanceOf */\n      0xffffffffffffffffffffffffffffffffffffffff\n      and\n      0x70a08231\n        /* \"contracts/CPAMM.sol\":2619:2623  this */\n      address\n        /* \"contracts/CPAMM.sol\":2594:2625  token0.balanceOf(address(this)) */\n      mload(0x40)\n      dup3\n      0xffffffff\n      and\n      0xe0\n      shl\n      dup2\n      mstore\n      0x04\n      add\n      tag_127\n      swap2\n      swap1\n      tag_53\n      jump\t// in\n    tag_127:\n      0x20\n      mload(0x40)\n      dup1\n      dup4\n      sub\n      dup2\n      dup7\n      gas\n      staticcall\n      iszero\n      dup1\n      iszero\n      tag_129\n      jumpi\n      returndatasize\n      0x00\n      dup1\n      returndatacopy\n      revert(0x00, returndatasize)\n    tag_129:\n      pop\n      pop\n      pop\n      pop\n      mload(0x40)\n      returndatasize\n      not(0x1f)\n      0x1f\n      dup3\n      add\n      and\n      dup3\n      add\n      dup1\n      0x40\n      mstore\n      pop\n      dup2\n      add\n      swap1\n      tag_130\n      swap2\n      swap1\n      tag_57\n      jump\t// in\n    tag_130:\n        /* \"contracts/CPAMM.sol\":2633:2639  token1 */\n      immutable(\"0xe4b1702d9298fee62dfeccc57d322a463ad55ca201256d01f62b45b2e1c21c10\")\n        /* \"contracts/CPAMM.sol\":2633:2649  token1.balanceOf */\n      0xffffffffffffffffffffffffffffffffffffffff\n      and\n      0x70a08231\n        /* \"contracts/CPAMM.sol\":2658:2662  this */\n      address\n        /* \"contracts/CPAMM.sol\":2633:2664  token1.balanceOf(address(this)) */\n      mload(0x40)\n      dup3\n      0xffffffff\n      and\n      0xe0\n      shl\n      dup2\n      mstore\n      0x04\n      add\n      tag_131\n      swap2\n      swap1\n      tag_53\n      jump\t// in\n    tag_131:\n      0x20\n      mload(0x40)\n      dup1\n      dup4\n      sub\n      dup2\n      dup7\n      gas\n      staticcall\n      iszero\n      dup1\n      iszero\n      tag_133\n      jumpi\n      returndatasize\n      0x00\n      dup1\n      returndatacopy\n      revert(0x00, returndatasize)\n    tag_133:\n      pop\n      pop\n      pop\n      pop\n      mload(0x40)\n      returndatasize\n      not(0x1f)\n      0x1f\n      dup3\n      add\n      and\n      dup3\n      add\n      dup1\n      0x40\n      mstore\n      pop\n      dup2\n      add\n      swap1\n      tag_134\n      swap2\n      swap1\n      tag_57\n      jump\t// in\n    tag_134:\n        /* \"contracts/CPAMM.sol\":2579:2586  _update */\n      tag_78\n        /* \"contracts/CPAMM.sol\":2579:2670  _update(... */\n      jump\t// in\n    tag_126:\n        /* \"contracts/CPAMM.sol\":1698:2675  function addLiquidity(uint _amount0, uint _amount1) external returns (uint shares) {... */\n      swap3\n      swap2\n      pop\n      pop\n      jump\t// out\n        /* \"contracts/CPAMM.sol\":775:1694  function swap(address _tokenIn, uint _amountIn) external returns (uint amountOut) {... */\n    tag_46:\n        /* \"contracts/CPAMM.sol\":841:855  uint amountOut */\n      0x00\n        /* \"contracts/CPAMM.sol\":891:897  token0 */\n      immutable(\"0xceebf77a833b30520287ddd9478ff51abbdffa30aa90a8d655dba0e8a79ce0c1\")\n        /* \"contracts/CPAMM.sol\":871:898  _tokenIn == address(token0) */\n      0xffffffffffffffffffffffffffffffffffffffff\n      and\n        /* \"contracts/CPAMM.sol\":871:879  _tokenIn */\n      dup4\n        /* \"contracts/CPAMM.sol\":871:898  _tokenIn == address(token0) */\n      0xffffffffffffffffffffffffffffffffffffffff\n      and\n      eq\n        /* \"contracts/CPAMM.sol\":871:929  _tokenIn == address(token0) || _tokenIn == address(token1) */\n      dup1\n      tag_136\n      jumpi\n      pop\n        /* \"contracts/CPAMM.sol\":922:928  token1 */\n      immutable(\"0xe4b1702d9298fee62dfeccc57d322a463ad55ca201256d01f62b45b2e1c21c10\")\n        /* \"contracts/CPAMM.sol\":902:929  _tokenIn == address(token1) */\n      0xffffffffffffffffffffffffffffffffffffffff\n      and\n        /* \"contracts/CPAMM.sol\":902:910  _tokenIn */\n      dup4\n        /* \"contracts/CPAMM.sol\":902:929  _tokenIn == address(token1) */\n      0xffffffffffffffffffffffffffffffffffffffff\n      and\n      eq\n        /* \"contracts/CPAMM.sol\":871:929  _tokenIn == address(token0) || _tokenIn == address(token1) */\n    tag_136:\n        /* \"contracts/CPAMM.sol\":863:947  require(_tokenIn == address(token0) || _tokenIn == address(token1), \"Invalid token\") */\n      tag_137\n      jumpi\n      mload(0x40)\n      0x08c379a000000000000000000000000000000000000000000000000000000000\n      dup2\n      mstore\n      0x04\n      add\n      tag_138\n      swap1\n      tag_139\n      jump\t// in\n    tag_138:\n      mload(0x40)\n      dup1\n      swap2\n      sub\n      swap1\n      revert\n    tag_137:\n        /* \"contracts/CPAMM.sol\":973:974  0 */\n      0x00\n        /* \"contracts/CPAMM.sol\":961:970  _amountIn */\n      dup3\n        /* \"contracts/CPAMM.sol\":961:974  _amountIn > 0 */\n      gt\n        /* \"contracts/CPAMM.sol\":953:992  require(_amountIn > 0, \"Amount in = 0\") */\n      tag_140\n      jumpi\n      mload(0x40)\n      0x08c379a000000000000000000000000000000000000000000000000000000000\n      dup2\n      mstore\n      0x04\n      add\n      tag_141\n      swap1\n      tag_142\n      jump\t// in\n    tag_141:\n      mload(0x40)\n      dup1\n      swap2\n      sub\n      swap1\n      revert\n    tag_140:\n        /* \"contracts/CPAMM.sol\":1023:1036  bool isToken0 */\n      0x00\n        /* \"contracts/CPAMM.sol\":1059:1065  token0 */\n      immutable(\"0xceebf77a833b30520287ddd9478ff51abbdffa30aa90a8d655dba0e8a79ce0c1\")\n        /* \"contracts/CPAMM.sol\":1039:1066  _tokenIn == address(token0) */\n      0xffffffffffffffffffffffffffffffffffffffff\n      and\n        /* \"contracts/CPAMM.sol\":1039:1047  _tokenIn */\n      dup5\n        /* \"contracts/CPAMM.sol\":1039:1066  _tokenIn == address(token0) */\n      0xffffffffffffffffffffffffffffffffffffffff\n      and\n      eq\n        /* \"contracts/CPAMM.sol\":1023:1066  bool isToken0 = _tokenIn == address(token0) */\n      swap1\n      pop\n        /* \"contracts/CPAMM.sol\":1073:1087  IERC20 tokenIn */\n      0x00\n        /* \"contracts/CPAMM.sol\":1089:1104  IERC20 tokenOut */\n      dup1\n        /* \"contracts/CPAMM.sol\":1106:1120  uint reserveIn */\n      0x00\n        /* \"contracts/CPAMM.sol\":1122:1137  uint reserveOut */\n      dup1\n        /* \"contracts/CPAMM.sol\":1141:1149  isToken0 */\n      dup5\n        /* \"contracts/CPAMM.sol\":1141:1227  isToken0 ? (token0, token1, reserve0, reserve1) : (token1, token0, reserve1, reserve0) */\n      tag_143\n      jumpi\n        /* \"contracts/CPAMM.sol\":1192:1198  token1 */\n      immutable(\"0xe4b1702d9298fee62dfeccc57d322a463ad55ca201256d01f62b45b2e1c21c10\")\n        /* \"contracts/CPAMM.sol\":1200:1206  token0 */\n      immutable(\"0xceebf77a833b30520287ddd9478ff51abbdffa30aa90a8d655dba0e8a79ce0c1\")\n        /* \"contracts/CPAMM.sol\":1208:1216  reserve1 */\n      sload(0x01)\n        /* \"contracts/CPAMM.sol\":1218:1226  reserve0 */\n      sload(0x00)\n        /* \"contracts/CPAMM.sol\":1141:1227  isToken0 ? (token0, token1, reserve0, reserve1) : (token1, token0, reserve1, reserve0) */\n      jump(tag_144)\n    tag_143:\n        /* \"contracts/CPAMM.sol\":1153:1159  token0 */\n      immutable(\"0xceebf77a833b30520287ddd9478ff51abbdffa30aa90a8d655dba0e8a79ce0c1\")\n        /* \"contracts/CPAMM.sol\":1161:1167  token1 */\n      immutable(\"0xe4b1702d9298fee62dfeccc57d322a463ad55ca201256d01f62b45b2e1c21c10\")\n        /* \"contracts/CPAMM.sol\":1169:1177  reserve0 */\n      sload(0x00)\n        /* \"contracts/CPAMM.sol\":1179:1187  reserve1 */\n      sload(0x01)\n        /* \"contracts/CPAMM.sol\":1141:1227  isToken0 ? (token0, token1, reserve0, reserve1) : (token1, token0, reserve1, reserve0) */\n    tag_144:\n        /* \"contracts/CPAMM.sol\":1072:1227  (IERC20 tokenIn, IERC20 tokenOut, uint reserveIn, uint reserveOut) = isToken0 ? (token0, token1, reserve0, reserve1) : (token1, token0, reserve1, reserve0) */\n      swap4\n      pop\n      swap4\n      pop\n      swap4\n      pop\n      swap4\n      pop\n        /* \"contracts/CPAMM.sol\":1233:1240  tokenIn */\n      dup4\n        /* \"contracts/CPAMM.sol\":1233:1253  tokenIn.transferFrom */\n      0xffffffffffffffffffffffffffffffffffffffff\n      and\n      0x23b872dd\n        /* \"contracts/CPAMM.sol\":1254:1264  msg.sender */\n      caller\n        /* \"contracts/CPAMM.sol\":1274:1278  this */\n      address\n        /* \"contracts/CPAMM.sol\":1281:1290  _amountIn */\n      dup11\n        /* \"contracts/CPAMM.sol\":1233:1291  tokenIn.transferFrom(msg.sender, address(this), _amountIn) */\n      mload(0x40)\n      dup5\n      0xffffffff\n      and\n      0xe0\n      shl\n      dup2\n      mstore\n      0x04\n      add\n      tag_145\n      swap4\n      swap3\n      swap2\n      swap1\n      tag_91\n      jump\t// in\n    tag_145:\n      0x20\n      mload(0x40)\n      dup1\n      dup4\n      sub\n      dup2\n      0x00\n      dup8\n      gas\n      call\n      iszero\n      dup1\n      iszero\n      tag_147\n      jumpi\n      returndatasize\n      0x00\n      dup1\n      returndatacopy\n      revert(0x00, returndatasize)\n    tag_147:\n      pop\n      pop\n      pop\n      pop\n      mload(0x40)\n      returndatasize\n      not(0x1f)\n      0x1f\n      dup3\n      add\n      and\n      dup3\n      add\n      dup1\n      0x40\n      mstore\n      pop\n      dup2\n      add\n      swap1\n      tag_148\n      swap2\n      swap1\n      tag_84\n      jump\t// in\n    tag_148:\n      pop\n        /* \"contracts/CPAMM.sol\":1350:1370  uint amountInWithFee */\n      0x00\n        /* \"contracts/CPAMM.sol\":1393:1397  1000 */\n      0x03e8\n        /* \"contracts/CPAMM.sol\":1386:1389  997 */\n      0x03e5\n        /* \"contracts/CPAMM.sol\":1374:1383  _amountIn */\n      dup10\n        /* \"contracts/CPAMM.sol\":1374:1389  _amountIn * 997 */\n      tag_149\n      swap2\n      swap1\n      tag_63\n      jump\t// in\n    tag_149:\n        /* \"contracts/CPAMM.sol\":1373:1397  (_amountIn * 997) / 1000 */\n      tag_150\n      swap2\n      swap1\n      tag_65\n      jump\t// in\n    tag_150:\n        /* \"contracts/CPAMM.sol\":1350:1397  uint amountInWithFee = (_amountIn * 997) / 1000 */\n      swap1\n      pop\n        /* \"contracts/CPAMM.sol\":1461:1476  amountInWithFee */\n      dup1\n        /* \"contracts/CPAMM.sol\":1449:1458  reserveIn */\n      dup4\n        /* \"contracts/CPAMM.sol\":1449:1476  reserveIn + amountInWithFee */\n      tag_151\n      swap2\n      swap1\n      tag_152\n      jump\t// in\n    tag_151:\n        /* \"contracts/CPAMM.sol\":1429:1444  amountInWithFee */\n      dup2\n        /* \"contracts/CPAMM.sol\":1416:1426  reserveOut */\n      dup4\n        /* \"contracts/CPAMM.sol\":1416:1444  reserveOut * amountInWithFee */\n      tag_153\n      swap2\n      swap1\n      tag_63\n      jump\t// in\n    tag_153:\n        /* \"contracts/CPAMM.sol\":1415:1477  (reserveOut * amountInWithFee) / (reserveIn + amountInWithFee) */\n      tag_154\n      swap2\n      swap1\n      tag_65\n      jump\t// in\n    tag_154:\n        /* \"contracts/CPAMM.sol\":1403:1477  amountOut = (reserveOut * amountInWithFee) / (reserveIn + amountInWithFee) */\n      swap7\n      pop\n        /* \"contracts/CPAMM.sol\":1524:1532  tokenOut */\n      dup4\n        /* \"contracts/CPAMM.sol\":1524:1541  tokenOut.transfer */\n      0xffffffffffffffffffffffffffffffffffffffff\n      and\n      0xa9059cbb\n        /* \"contracts/CPAMM.sol\":1542:1552  msg.sender */\n      caller\n        /* \"contracts/CPAMM.sol\":1554:1563  amountOut */\n      dup10\n        /* \"contracts/CPAMM.sol\":1524:1564  tokenOut.transfer(msg.sender, amountOut) */\n      mload(0x40)\n      dup4\n      0xffffffff\n      and\n      0xe0\n      shl\n      dup2\n      mstore\n      0x04\n      add\n      tag_155\n      swap3\n      swap2\n      swap1\n      tag_80\n      jump\t// in\n    tag_155:\n      0x20\n      mload(0x40)\n      dup1\n      dup4\n      sub\n      dup2\n      0x00\n      dup8\n      gas\n      call\n      iszero\n      dup1\n      iszero\n      tag_157\n      jumpi\n      returndatasize\n      0x00\n      dup1\n      returndatacopy\n      revert(0x00, returndatasize)\n    tag_157:\n      pop\n      pop\n      pop\n      pop\n      mload(0x40)\n      returndatasize\n      not(0x1f)\n      0x1f\n      dup3\n      add\n      and\n      dup3\n      add\n      dup1\n      0x40\n      mstore\n      pop\n      dup2\n      add\n      swap1\n      tag_158\n      swap2\n      swap1\n      tag_84\n      jump\t// in\n    tag_158:\n      pop\n        /* \"contracts/CPAMM.sol\":1598:1689  _update(... */\n      tag_159\n        /* \"contracts/CPAMM.sol\":1613:1619  token0 */\n      immutable(\"0xceebf77a833b30520287ddd9478ff51abbdffa30aa90a8d655dba0e8a79ce0c1\")\n        /* \"contracts/CPAMM.sol\":1613:1629  token0.balanceOf */\n      0xffffffffffffffffffffffffffffffffffffffff\n      and\n      0x70a08231\n        /* \"contracts/CPAMM.sol\":1638:1642  this */\n      address\n        /* \"contracts/CPAMM.sol\":1613:1644  token0.balanceOf(address(this)) */\n      mload(0x40)\n      dup3\n      0xffffffff\n      and\n      0xe0\n      shl\n      dup2\n      mstore\n      0x04\n      add\n      tag_160\n      swap2\n      swap1\n      tag_53\n      jump\t// in\n    tag_160:\n      0x20\n      mload(0x40)\n      dup1\n      dup4\n      sub\n      dup2\n      dup7\n      gas\n      staticcall\n      iszero\n      dup1\n      iszero\n      tag_162\n      jumpi\n      returndatasize\n      0x00\n      dup1\n      returndatacopy\n      revert(0x00, returndatasize)\n    tag_162:\n      pop\n      pop\n      pop\n      pop\n      mload(0x40)\n      returndatasize\n      not(0x1f)\n      0x1f\n      dup3\n      add\n      and\n      dup3\n      add\n      dup1\n      0x40\n      mstore\n      pop\n      dup2\n      add\n      swap1\n      tag_163\n      swap2\n      swap1\n      tag_57\n      jump\t// in\n    tag_163:\n        /* \"contracts/CPAMM.sol\":1652:1658  token1 */\n      immutable(\"0xe4b1702d9298fee62dfeccc57d322a463ad55ca201256d01f62b45b2e1c21c10\")\n        /* \"contracts/CPAMM.sol\":1652:1668  token1.balanceOf */\n      0xffffffffffffffffffffffffffffffffffffffff\n      and\n      0x70a08231\n        /* \"contracts/CPAMM.sol\":1677:1681  this */\n      address\n        /* \"contracts/CPAMM.sol\":1652:1683  token1.balanceOf(address(this)) */\n      mload(0x40)\n      dup3\n      0xffffffff\n      and\n      0xe0\n      shl\n      dup2\n      mstore\n      0x04\n      add\n      tag_164\n      swap2\n      swap1\n      tag_53\n      jump\t// in\n    tag_164:\n      0x20\n      mload(0x40)\n      dup1\n      dup4\n      sub\n      dup2\n      dup7\n      gas\n      staticcall\n      iszero\n      dup1\n      iszero\n      tag_166\n      jumpi\n      returndatasize\n      0x00\n      dup1\n      returndatacopy\n      revert(0x00, returndatasize)\n    tag_166:\n      pop\n      pop\n      pop\n      pop\n      mload(0x40)\n      returndatasize\n      not(0x1f)\n      0x1f\n      dup3\n      add\n      and\n      dup3\n      add\n      dup1\n      0x40\n      mstore\n      pop\n      dup2\n      add\n      swap1\n      tag_167\n      swap2\n      swap1\n      tag_57\n      jump\t// in\n    tag_167:\n        /* \"contracts/CPAMM.sol\":1598:1605  _update */\n      tag_78\n        /* \"contracts/CPAMM.sol\":1598:1689  _update(... */\n      jump\t// in\n    tag_159:\n        /* \"contracts/CPAMM.sol\":857:1694  {... */\n      pop\n      pop\n      pop\n      pop\n      pop\n      pop\n        /* \"contracts/CPAMM.sol\":775:1694  function swap(address _tokenIn, uint _amountIn) external returns (uint amountOut) {... */\n      swap3\n      swap2\n      pop\n      pop\n      jump\t// out\n        /* \"contracts/CPAMM.sol\":143:173  IERC20 public immutable token1 */\n    tag_49:\n      immutable(\"0xe4b1702d9298fee62dfeccc57d322a463ad55ca201256d01f62b45b2e1c21c10\")\n      dup2\n      jump\t// out\n        /* \"contracts/CPAMM.sol\":533:651  function _burn(address _from, uint _amount) private {... */\n    tag_73:\n        /* \"contracts/CPAMM.sol\":611:618  _amount */\n      dup1\n        /* \"contracts/CPAMM.sol\":591:600  balanceOf */\n      0x03\n        /* \"contracts/CPAMM.sol\":591:607  balanceOf[_from] */\n      0x00\n        /* \"contracts/CPAMM.sol\":601:606  _from */\n      dup5\n        /* \"contracts/CPAMM.sol\":591:607  balanceOf[_from] */\n      0xffffffffffffffffffffffffffffffffffffffff\n      and\n      0xffffffffffffffffffffffffffffffffffffffff\n      and\n      dup2\n      mstore\n      0x20\n      add\n      swap1\n      dup2\n      mstore\n      0x20\n      add\n      0x00\n      keccak256\n      0x00\n        /* \"contracts/CPAMM.sol\":591:618  balanceOf[_from] -= _amount */\n      dup3\n      dup3\n      sload\n      tag_169\n      swap2\n      swap1\n      tag_76\n      jump\t// in\n    tag_169:\n      swap3\n      pop\n      pop\n      dup2\n      swap1\n      sstore\n      pop\n        /* \"contracts/CPAMM.sol\":639:646  _amount */\n      dup1\n        /* \"contracts/CPAMM.sol\":624:635  totalSupply */\n      0x02\n      0x00\n        /* \"contracts/CPAMM.sol\":624:646  totalSupply -= _amount */\n      dup3\n      dup3\n      sload\n      tag_170\n      swap2\n      swap1\n      tag_76\n      jump\t// in\n    tag_170:\n      swap3\n      pop\n      pop\n      dup2\n      swap1\n      sstore\n      pop\n        /* \"contracts/CPAMM.sol\":533:651  function _burn(address _from, uint _amount) private {... */\n      pop\n      pop\n      jump\t// out\n        /* \"contracts/CPAMM.sol\":656:770  function _update(uint _reserve0, uint _reserve1) private {... */\n    tag_78:\n        /* \"contracts/CPAMM.sol\":730:739  _reserve0 */\n      dup2\n        /* \"contracts/CPAMM.sol\":719:727  reserve0 */\n      0x00\n        /* \"contracts/CPAMM.sol\":719:739  reserve0 = _reserve0 */\n      dup2\n      swap1\n      sstore\n      pop\n        /* \"contracts/CPAMM.sol\":756:765  _reserve1 */\n      dup1\n        /* \"contracts/CPAMM.sol\":745:753  reserve1 */\n      0x01\n        /* \"contracts/CPAMM.sol\":745:765  reserve1 = _reserve1 */\n      dup2\n      swap1\n      sstore\n      pop\n        /* \"contracts/CPAMM.sol\":656:770  function _update(uint _reserve0, uint _reserve1) private {... */\n      pop\n      pop\n      jump\t// out\n        /* \"contracts/CPAMM.sol\":2679:2911  function _sqrt(uint y) private pure returns (uint z) {... */\n    tag_109:\n        /* \"contracts/CPAMM.sol\":2724:2730  uint z */\n      0x00\n        /* \"contracts/CPAMM.sol\":2746:2747  3 */\n      0x03\n        /* \"contracts/CPAMM.sol\":2742:2743  y */\n      dup3\n        /* \"contracts/CPAMM.sol\":2742:2747  y > 3 */\n      gt\n        /* \"contracts/CPAMM.sol\":2738:2907  if (y > 3) {... */\n      iszero\n      tag_173\n      jumpi\n        /* \"contracts/CPAMM.sol\":2761:2762  y */\n      dup2\n        /* \"contracts/CPAMM.sol\":2757:2762  z = y */\n      swap1\n      pop\n        /* \"contracts/CPAMM.sol\":2770:2776  uint x */\n      0x00\n        /* \"contracts/CPAMM.sol\":2787:2788  1 */\n      0x01\n        /* \"contracts/CPAMM.sol\":2783:2784  2 */\n      0x02\n        /* \"contracts/CPAMM.sol\":2779:2780  y */\n      dup5\n        /* \"contracts/CPAMM.sol\":2779:2784  y / 2 */\n      tag_174\n      swap2\n      swap1\n      tag_65\n      jump\t// in\n    tag_174:\n        /* \"contracts/CPAMM.sol\":2779:2788  y / 2 + 1 */\n      tag_175\n      swap2\n      swap1\n      tag_152\n      jump\t// in\n    tag_175:\n        /* \"contracts/CPAMM.sol\":2770:2788  uint x = y / 2 + 1 */\n      swap1\n      pop\n        /* \"contracts/CPAMM.sol\":2796:2863  while (x < z) {... */\n    tag_176:\n        /* \"contracts/CPAMM.sol\":2807:2808  z */\n      dup2\n        /* \"contracts/CPAMM.sol\":2803:2804  x */\n      dup2\n        /* \"contracts/CPAMM.sol\":2803:2808  x < z */\n      lt\n        /* \"contracts/CPAMM.sol\":2796:2863  while (x < z) {... */\n      iszero\n      tag_177\n      jumpi\n        /* \"contracts/CPAMM.sol\":2824:2825  x */\n      dup1\n        /* \"contracts/CPAMM.sol\":2820:2825  z = x */\n      swap2\n      pop\n        /* \"contracts/CPAMM.sol\":2853:2854  2 */\n      0x02\n        /* \"contracts/CPAMM.sol\":2848:2849  x */\n      dup2\n        /* \"contracts/CPAMM.sol\":2844:2845  x */\n      dup3\n        /* \"contracts/CPAMM.sol\":2840:2841  y */\n      dup6\n        /* \"contracts/CPAMM.sol\":2840:2845  y / x */\n      tag_178\n      swap2\n      swap1\n      tag_65\n      jump\t// in\n    tag_178:\n        /* \"contracts/CPAMM.sol\":2840:2849  y / x + x */\n      tag_179\n      swap2\n      swap1\n      tag_152\n      jump\t// in\n    tag_179:\n        /* \"contracts/CPAMM.sol\":2839:2854  (y / x + x) / 2 */\n      tag_180\n      swap2\n      swap1\n      tag_65\n      jump\t// in\n    tag_180:\n        /* \"contracts/CPAMM.sol\":2835:2854  x = (y / x + x) / 2 */\n      swap1\n      pop\n        /* \"contracts/CPAMM.sol\":2796:2863  while (x < z) {... */\n      jump(tag_176)\n    tag_177:\n        /* \"contracts/CPAMM.sol\":2749:2869  {... */\n      pop\n        /* \"contracts/CPAMM.sol\":2738:2907  if (y > 3) {... */\n      jump(tag_181)\n    tag_173:\n        /* \"contracts/CPAMM.sol\":2884:2885  0 */\n      0x00\n        /* \"contracts/CPAMM.sol\":2879:2880  y */\n      dup3\n        /* \"contracts/CPAMM.sol\":2879:2885  y != 0 */\n      eq\n        /* \"contracts/CPAMM.sol\":2875:2907  if (y != 0) {... */\n      tag_182\n      jumpi\n        /* \"contracts/CPAMM.sol\":2899:2900  1 */\n      0x01\n        /* \"contracts/CPAMM.sol\":2895:2900  z = 1 */\n      swap1\n      pop\n        /* \"contracts/CPAMM.sol\":2875:2907  if (y != 0) {... */\n    tag_182:\n        /* \"contracts/CPAMM.sol\":2738:2907  if (y > 3) {... */\n    tag_181:\n        /* \"contracts/CPAMM.sol\":2679:2911  function _sqrt(uint y) private pure returns (uint z) {... */\n      swap2\n      swap1\n      pop\n      jump\t// out\n        /* \"contracts/CPAMM.sol\":415:529  function _mint(address _to, uint _amount) private {... */\n    tag_125:\n        /* \"contracts/CPAMM.sol\":489:496  _amount */\n      dup1\n        /* \"contracts/CPAMM.sol\":471:480  balanceOf */\n      0x03\n        /* \"contracts/CPAMM.sol\":471:485  balanceOf[_to] */\n      0x00\n        /* \"contracts/CPAMM.sol\":481:484  _to */\n      dup5\n        /* \"contracts/CPAMM.sol\":471:485  balanceOf[_to] */\n      0xffffffffffffffffffffffffffffffffffffffff\n      and\n      0xffffffffffffffffffffffffffffffffffffffff\n      and\n      dup2\n      mstore\n      0x20\n      add\n      swap1\n      dup2\n      mstore\n      0x20\n      add\n      0x00\n      keccak256\n      0x00\n        /* \"contracts/CPAMM.sol\":471:496  balanceOf[_to] += _amount */\n      dup3\n      dup3\n      sload\n      tag_184\n      swap2\n      swap1\n      tag_152\n      jump\t// in\n    tag_184:\n      swap3\n      pop\n      pop\n      dup2\n      swap1\n      sstore\n      pop\n        /* \"contracts/CPAMM.sol\":517:524  _amount */\n      dup1\n        /* \"contracts/CPAMM.sol\":502:513  totalSupply */\n      0x02\n      0x00\n        /* \"contracts/CPAMM.sol\":502:524  totalSupply += _amount */\n      dup3\n      dup3\n      sload\n      tag_185\n      swap2\n      swap1\n      tag_152\n      jump\t// in\n    tag_185:\n      swap3\n      pop\n      pop\n      dup2\n      swap1\n      sstore\n      pop\n        /* \"contracts/CPAMM.sol\":415:529  function _mint(address _to, uint _amount) private {... */\n      pop\n      pop\n      jump\t// out\n        /* \"#utility.yul\":7:133   */\n    tag_186:\n        /* \"#utility.yul\":44:51   */\n      0x00\n        /* \"#utility.yul\":84:126   */\n      0xffffffffffffffffffffffffffffffffffffffff\n        /* \"#utility.yul\":77:82   */\n      dup3\n        /* \"#utility.yul\":73:127   */\n      and\n        /* \"#utility.yul\":62:127   */\n      swap1\n      pop\n        /* \"#utility.yul\":7:133   */\n      swap2\n      swap1\n      pop\n      jump\t// out\n        /* \"#utility.yul\":139:199   */\n    tag_187:\n        /* \"#utility.yul\":167:170   */\n      0x00\n        /* \"#utility.yul\":188:193   */\n      dup2\n        /* \"#utility.yul\":181:193   */\n      swap1\n      pop\n        /* \"#utility.yul\":139:199   */\n      swap2\n      swap1\n      pop\n      jump\t// out\n        /* \"#utility.yul\":205:347   */\n    tag_188:\n        /* \"#utility.yul\":255:264   */\n      0x00\n        /* \"#utility.yul\":288:341   */\n      tag_224\n        /* \"#utility.yul\":306:340   */\n      tag_225\n        /* \"#utility.yul\":315:339   */\n      tag_226\n        /* \"#utility.yul\":333:338   */\n      dup5\n        /* \"#utility.yul\":315:339   */\n      tag_186\n      jump\t// in\n    tag_226:\n        /* \"#utility.yul\":306:340   */\n      tag_187\n      jump\t// in\n    tag_225:\n        /* \"#utility.yul\":288:341   */\n      tag_186\n      jump\t// in\n    tag_224:\n        /* \"#utility.yul\":275:341   */\n      swap1\n      pop\n        /* \"#utility.yul\":205:347   */\n      swap2\n      swap1\n      pop\n      jump\t// out\n        /* \"#utility.yul\":353:479   */\n    tag_189:\n        /* \"#utility.yul\":403:412   */\n      0x00\n        /* \"#utility.yul\":436:473   */\n      tag_228\n        /* \"#utility.yul\":467:472   */\n      dup3\n        /* \"#utility.yul\":436:473   */\n      tag_188\n      jump\t// in\n    tag_228:\n        /* \"#utility.yul\":423:473   */\n      swap1\n      pop\n        /* \"#utility.yul\":353:479   */\n      swap2\n      swap1\n      pop\n      jump\t// out\n        /* \"#utility.yul\":485:625   */\n    tag_190:\n        /* \"#utility.yul\":549:558   */\n      0x00\n        /* \"#utility.yul\":582:619   */\n      tag_230\n        /* \"#utility.yul\":613:618   */\n      dup3\n        /* \"#utility.yul\":582:619   */\n      tag_189\n      jump\t// in\n    tag_230:\n        /* \"#utility.yul\":569:619   */\n      swap1\n      pop\n        /* \"#utility.yul\":485:625   */\n      swap2\n      swap1\n      pop\n      jump\t// out\n        /* \"#utility.yul\":631:790   */\n    tag_191:\n        /* \"#utility.yul\":732:783   */\n      tag_232\n        /* \"#utility.yul\":777:782   */\n      dup2\n        /* \"#utility.yul\":732:783   */\n      tag_190\n      jump\t// in\n    tag_232:\n        /* \"#utility.yul\":727:730   */\n      dup3\n        /* \"#utility.yul\":720:784   */\n      mstore\n        /* \"#utility.yul\":631:790   */\n      pop\n      pop\n      jump\t// out\n        /* \"#utility.yul\":796:1046   */\n    tag_16:\n        /* \"#utility.yul\":903:907   */\n      0x00\n        /* \"#utility.yul\":941:943   */\n      0x20\n        /* \"#utility.yul\":930:939   */\n      dup3\n        /* \"#utility.yul\":926:944   */\n      add\n        /* \"#utility.yul\":918:944   */\n      swap1\n      pop\n        /* \"#utility.yul\":954:1039   */\n      tag_234\n        /* \"#utility.yul\":1036:1037   */\n      0x00\n        /* \"#utility.yul\":1025:1034   */\n      dup4\n        /* \"#utility.yul\":1021:1038   */\n      add\n        /* \"#utility.yul\":1012:1018   */\n      dup5\n        /* \"#utility.yul\":954:1039   */\n      tag_191\n      jump\t// in\n    tag_234:\n        /* \"#utility.yul\":796:1046   */\n      swap3\n      swap2\n      pop\n      pop\n      jump\t// out\n        /* \"#utility.yul\":1052:1129   */\n    tag_192:\n        /* \"#utility.yul\":1089:1096   */\n      0x00\n        /* \"#utility.yul\":1118:1123   */\n      dup2\n        /* \"#utility.yul\":1107:1123   */\n      swap1\n      pop\n        /* \"#utility.yul\":1052:1129   */\n      swap2\n      swap1\n      pop\n      jump\t// out\n        /* \"#utility.yul\":1135:1253   */\n    tag_193:\n        /* \"#utility.yul\":1222:1246   */\n      tag_237\n        /* \"#utility.yul\":1240:1245   */\n      dup2\n        /* \"#utility.yul\":1222:1246   */\n      tag_192\n      jump\t// in\n    tag_237:\n        /* \"#utility.yul\":1217:1220   */\n      dup3\n        /* \"#utility.yul\":1210:1247   */\n      mstore\n        /* \"#utility.yul\":1135:1253   */\n      pop\n      pop\n      jump\t// out\n        /* \"#utility.yul\":1259:1481   */\n    tag_20:\n        /* \"#utility.yul\":1352:1356   */\n      0x00\n        /* \"#utility.yul\":1390:1392   */\n      0x20\n        /* \"#utility.yul\":1379:1388   */\n      dup3\n        /* \"#utility.yul\":1375:1393   */\n      add\n        /* \"#utility.yul\":1367:1393   */\n      swap1\n      pop\n        /* \"#utility.yul\":1403:1474   */\n      tag_239\n        /* \"#utility.yul\":1471:1472   */\n      0x00\n        /* \"#utility.yul\":1460:1469   */\n      dup4\n        /* \"#utility.yul\":1456:1473   */\n      add\n        /* \"#utility.yul\":1447:1453   */\n      dup5\n        /* \"#utility.yul\":1403:1474   */\n      tag_193\n      jump\t// in\n    tag_239:\n        /* \"#utility.yul\":1259:1481   */\n      swap3\n      swap2\n      pop\n      pop\n      jump\t// out\n        /* \"#utility.yul\":1568:1685   */\n    tag_195:\n        /* \"#utility.yul\":1677:1678   */\n      0x00\n        /* \"#utility.yul\":1674:1675   */\n      dup1\n        /* \"#utility.yul\":1667:1679   */\n      revert\n        /* \"#utility.yul\":1814:1910   */\n    tag_197:\n        /* \"#utility.yul\":1851:1858   */\n      0x00\n        /* \"#utility.yul\":1880:1904   */\n      tag_244\n        /* \"#utility.yul\":1898:1903   */\n      dup3\n        /* \"#utility.yul\":1880:1904   */\n      tag_186\n      jump\t// in\n    tag_244:\n        /* \"#utility.yul\":1869:1904   */\n      swap1\n      pop\n        /* \"#utility.yul\":1814:1910   */\n      swap2\n      swap1\n      pop\n      jump\t// out\n        /* \"#utility.yul\":1916:2038   */\n    tag_198:\n        /* \"#utility.yul\":1989:2013   */\n      tag_246\n        /* \"#utility.yul\":2007:2012   */\n      dup2\n        /* \"#utility.yul\":1989:2013   */\n      tag_197\n      jump\t// in\n    tag_246:\n        /* \"#utility.yul\":1982:1987   */\n      dup2\n        /* \"#utility.yul\":1979:2014   */\n      eq\n        /* \"#utility.yul\":1969:2032   */\n      tag_247\n      jumpi\n        /* \"#utility.yul\":2028:2029   */\n      0x00\n        /* \"#utility.yul\":2025:2026   */\n      dup1\n        /* \"#utility.yul\":2018:2030   */\n      revert\n        /* \"#utility.yul\":1969:2032   */\n    tag_247:\n        /* \"#utility.yul\":1916:2038   */\n      pop\n      jump\t// out\n        /* \"#utility.yul\":2044:2183   */\n    tag_199:\n        /* \"#utility.yul\":2090:2095   */\n      0x00\n        /* \"#utility.yul\":2128:2134   */\n      dup2\n        /* \"#utility.yul\":2115:2135   */\n      calldataload\n        /* \"#utility.yul\":2106:2135   */\n      swap1\n      pop\n        /* \"#utility.yul\":2144:2177   */\n      tag_249\n        /* \"#utility.yul\":2171:2176   */\n      dup2\n        /* \"#utility.yul\":2144:2177   */\n      tag_198\n      jump\t// in\n    tag_249:\n        /* \"#utility.yul\":2044:2183   */\n      swap3\n      swap2\n      pop\n      pop\n      jump\t// out\n        /* \"#utility.yul\":2189:2518   */\n    tag_29:\n        /* \"#utility.yul\":2248:2254   */\n      0x00\n        /* \"#utility.yul\":2297:2299   */\n      0x20\n        /* \"#utility.yul\":2285:2294   */\n      dup3\n        /* \"#utility.yul\":2276:2283   */\n      dup5\n        /* \"#utility.yul\":2272:2295   */\n      sub\n        /* \"#utility.yul\":2268:2300   */\n      slt\n        /* \"#utility.yul\":2265:2384   */\n      iszero\n      tag_251\n      jumpi\n        /* \"#utility.yul\":2303:2382   */\n      tag_252\n      tag_195\n      jump\t// in\n    tag_252:\n        /* \"#utility.yul\":2265:2384   */\n    tag_251:\n        /* \"#utility.yul\":2423:2424   */\n      0x00\n        /* \"#utility.yul\":2448:2501   */\n      tag_253\n        /* \"#utility.yul\":2493:2500   */\n      dup5\n        /* \"#utility.yul\":2484:2490   */\n      dup3\n        /* \"#utility.yul\":2473:2482   */\n      dup6\n        /* \"#utility.yul\":2469:2491   */\n      add\n        /* \"#utility.yul\":2448:2501   */\n      tag_199\n      jump\t// in\n    tag_253:\n        /* \"#utility.yul\":2438:2501   */\n      swap2\n      pop\n        /* \"#utility.yul\":2394:2511   */\n      pop\n        /* \"#utility.yul\":2189:2518   */\n      swap3\n      swap2\n      pop\n      pop\n      jump\t// out\n        /* \"#utility.yul\":2524:2646   */\n    tag_200:\n        /* \"#utility.yul\":2597:2621   */\n      tag_255\n        /* \"#utility.yul\":2615:2620   */\n      dup2\n        /* \"#utility.yul\":2597:2621   */\n      tag_192\n      jump\t// in\n    tag_255:\n        /* \"#utility.yul\":2590:2595   */\n      dup2\n        /* \"#utility.yul\":2587:2622   */\n      eq\n        /* \"#utility.yul\":2577:2640   */\n      tag_256\n      jumpi\n        /* \"#utility.yul\":2636:2637   */\n      0x00\n        /* \"#utility.yul\":2633:2634   */\n      dup1\n        /* \"#utility.yul\":2626:2638   */\n      revert\n        /* \"#utility.yul\":2577:2640   */\n    tag_256:\n        /* \"#utility.yul\":2524:2646   */\n      pop\n      jump\t// out\n        /* \"#utility.yul\":2652:2791   */\n    tag_201:\n        /* \"#utility.yul\":2698:2703   */\n      0x00\n        /* \"#utility.yul\":2736:2742   */\n      dup2\n        /* \"#utility.yul\":2723:2743   */\n      calldataload\n        /* \"#utility.yul\":2714:2743   */\n      swap1\n      pop\n        /* \"#utility.yul\":2752:2785   */\n      tag_258\n        /* \"#utility.yul\":2779:2784   */\n      dup2\n        /* \"#utility.yul\":2752:2785   */\n      tag_200\n      jump\t// in\n    tag_258:\n        /* \"#utility.yul\":2652:2791   */\n      swap3\n      swap2\n      pop\n      pop\n      jump\t// out\n        /* \"#utility.yul\":2797:3126   */\n    tag_34:\n        /* \"#utility.yul\":2856:2862   */\n      0x00\n        /* \"#utility.yul\":2905:2907   */\n      0x20\n        /* \"#utility.yul\":2893:2902   */\n      dup3\n        /* \"#utility.yul\":2884:2891   */\n      dup5\n        /* \"#utility.yul\":2880:2903   */\n      sub\n        /* \"#utility.yul\":2876:2908   */\n      slt\n        /* \"#utility.yul\":2873:2992   */\n      iszero\n      tag_260\n      jumpi\n        /* \"#utility.yul\":2911:2990   */\n      tag_261\n      tag_195\n      jump\t// in\n    tag_261:\n        /* \"#utility.yul\":2873:2992   */\n    tag_260:\n        /* \"#utility.yul\":3031:3032   */\n      0x00\n        /* \"#utility.yul\":3056:3109   */\n      tag_262\n        /* \"#utility.yul\":3101:3108   */\n      dup5\n        /* \"#utility.yul\":3092:3098   */\n      dup3\n        /* \"#utility.yul\":3081:3090   */\n      dup6\n        /* \"#utility.yul\":3077:3099   */\n      add\n        /* \"#utility.yul\":3056:3109   */\n      tag_201\n      jump\t// in\n    tag_262:\n        /* \"#utility.yul\":3046:3109   */\n      swap2\n      pop\n        /* \"#utility.yul\":3002:3119   */\n      pop\n        /* \"#utility.yul\":2797:3126   */\n      swap3\n      swap2\n      pop\n      pop\n      jump\t// out\n        /* \"#utility.yul\":3132:3464   */\n    tag_37:\n        /* \"#utility.yul\":3253:3257   */\n      0x00\n        /* \"#utility.yul\":3291:3293   */\n      0x40\n        /* \"#utility.yul\":3280:3289   */\n      dup3\n        /* \"#utility.yul\":3276:3294   */\n      add\n        /* \"#utility.yul\":3268:3294   */\n      swap1\n      pop\n        /* \"#utility.yul\":3304:3375   */\n      tag_264\n        /* \"#utility.yul\":3372:3373   */\n      0x00\n        /* \"#utility.yul\":3361:3370   */\n      dup4\n        /* \"#utility.yul\":3357:3374   */\n      add\n        /* \"#utility.yul\":3348:3354   */\n      dup6\n        /* \"#utility.yul\":3304:3375   */\n      tag_193\n      jump\t// in\n    tag_264:\n        /* \"#utility.yul\":3385:3457   */\n      tag_265\n        /* \"#utility.yul\":3453:3455   */\n      0x20\n        /* \"#utility.yul\":3442:3451   */\n      dup4\n        /* \"#utility.yul\":3438:3456   */\n      add\n        /* \"#utility.yul\":3429:3435   */\n      dup5\n        /* \"#utility.yul\":3385:3457   */\n      tag_193\n      jump\t// in\n    tag_265:\n        /* \"#utility.yul\":3132:3464   */\n      swap4\n      swap3\n      pop\n      pop\n      pop\n      jump\t// out\n        /* \"#utility.yul\":3470:3944   */\n    tag_40:\n        /* \"#utility.yul\":3538:3544   */\n      0x00\n        /* \"#utility.yul\":3546:3552   */\n      dup1\n        /* \"#utility.yul\":3595:3597   */\n      0x40\n        /* \"#utility.yul\":3583:3592   */\n      dup4\n        /* \"#utility.yul\":3574:3581   */\n      dup6\n        /* \"#utility.yul\":3570:3593   */\n      sub\n        /* \"#utility.yul\":3566:3598   */\n      slt\n        /* \"#utility.yul\":3563:3682   */\n      iszero\n      tag_267\n      jumpi\n        /* \"#utility.yul\":3601:3680   */\n      tag_268\n      tag_195\n      jump\t// in\n    tag_268:\n        /* \"#utility.yul\":3563:3682   */\n    tag_267:\n        /* \"#utility.yul\":3721:3722   */\n      0x00\n        /* \"#utility.yul\":3746:3799   */\n      tag_269\n        /* \"#utility.yul\":3791:3798   */\n      dup6\n        /* \"#utility.yul\":3782:3788   */\n      dup3\n        /* \"#utility.yul\":3771:3780   */\n      dup7\n        /* \"#utility.yul\":3767:3789   */\n      add\n        /* \"#utility.yul\":3746:3799   */\n      tag_201\n      jump\t// in\n    tag_269:\n        /* \"#utility.yul\":3736:3799   */\n      swap3\n      pop\n        /* \"#utility.yul\":3692:3809   */\n      pop\n        /* \"#utility.yul\":3848:3850   */\n      0x20\n        /* \"#utility.yul\":3874:3927   */\n      tag_270\n        /* \"#utility.yul\":3919:3926   */\n      dup6\n        /* \"#utility.yul\":3910:3916   */\n      dup3\n        /* \"#utility.yul\":3899:3908   */\n      dup7\n        /* \"#utility.yul\":3895:3917   */\n      add\n        /* \"#utility.yul\":3874:3927   */\n      tag_201\n      jump\t// in\n    tag_270:\n        /* \"#utility.yul\":3864:3927   */\n      swap2\n      pop\n        /* \"#utility.yul\":3819:3937   */\n      pop\n        /* \"#utility.yul\":3470:3944   */\n      swap3\n      pop\n      swap3\n      swap1\n      pop\n      jump\t// out\n        /* \"#utility.yul\":3950:4424   */\n    tag_45:\n        /* \"#utility.yul\":4018:4024   */\n      0x00\n        /* \"#utility.yul\":4026:4032   */\n      dup1\n        /* \"#utility.yul\":4075:4077   */\n      0x40\n        /* \"#utility.yul\":4063:4072   */\n      dup4\n        /* \"#utility.yul\":4054:4061   */\n      dup6\n        /* \"#utility.yul\":4050:4073   */\n      sub\n        /* \"#utility.yul\":4046:4078   */\n      slt\n        /* \"#utility.yul\":4043:4162   */\n      iszero\n      tag_272\n      jumpi\n        /* \"#utility.yul\":4081:4160   */\n      tag_273\n      tag_195\n      jump\t// in\n    tag_273:\n        /* \"#utility.yul\":4043:4162   */\n    tag_272:\n        /* \"#utility.yul\":4201:4202   */\n      0x00\n        /* \"#utility.yul\":4226:4279   */\n      tag_274\n        /* \"#utility.yul\":4271:4278   */\n      dup6\n        /* \"#utility.yul\":4262:4268   */\n      dup3\n        /* \"#utility.yul\":4251:4260   */\n      dup7\n        /* \"#utility.yul\":4247:4269   */\n      add\n        /* \"#utility.yul\":4226:4279   */\n      tag_199\n      jump\t// in\n    tag_274:\n        /* \"#utility.yul\":4216:4279   */\n      swap3\n      pop\n        /* \"#utility.yul\":4172:4289   */\n      pop\n        /* \"#utility.yul\":4328:4330   */\n      0x20\n        /* \"#utility.yul\":4354:4407   */\n      tag_275\n        /* \"#utility.yul\":4399:4406   */\n      dup6\n        /* \"#utility.yul\":4390:4396   */\n      dup3\n        /* \"#utility.yul\":4379:4388   */\n      dup7\n        /* \"#utility.yul\":4375:4397   */\n      add\n        /* \"#utility.yul\":4354:4407   */\n      tag_201\n      jump\t// in\n    tag_275:\n        /* \"#utility.yul\":4344:4407   */\n      swap2\n      pop\n        /* \"#utility.yul\":4299:4417   */\n      pop\n        /* \"#utility.yul\":3950:4424   */\n      swap3\n      pop\n      swap3\n      swap1\n      pop\n      jump\t// out\n        /* \"#utility.yul\":4430:4548   */\n    tag_202:\n        /* \"#utility.yul\":4517:4541   */\n      tag_277\n        /* \"#utility.yul\":4535:4540   */\n      dup2\n        /* \"#utility.yul\":4517:4541   */\n      tag_197\n      jump\t// in\n    tag_277:\n        /* \"#utility.yul\":4512:4515   */\n      dup3\n        /* \"#utility.yul\":4505:4542   */\n      mstore\n        /* \"#utility.yul\":4430:4548   */\n      pop\n      pop\n      jump\t// out\n        /* \"#utility.yul\":4554:4776   */\n    tag_53:\n        /* \"#utility.yul\":4647:4651   */\n      0x00\n        /* \"#utility.yul\":4685:4687   */\n      0x20\n        /* \"#utility.yul\":4674:4683   */\n      dup3\n        /* \"#utility.yul\":4670:4688   */\n      add\n        /* \"#utility.yul\":4662:4688   */\n      swap1\n      pop\n        /* \"#utility.yul\":4698:4769   */\n      tag_279\n        /* \"#utility.yul\":4766:4767   */\n      0x00\n        /* \"#utility.yul\":4755:4764   */\n      dup4\n        /* \"#utility.yul\":4751:4768   */\n      add\n        /* \"#utility.yul\":4742:4748   */\n      dup5\n        /* \"#utility.yul\":4698:4769   */\n      tag_202\n      jump\t// in\n    tag_279:\n        /* \"#utility.yul\":4554:4776   */\n      swap3\n      swap2\n      pop\n      pop\n      jump\t// out\n        /* \"#utility.yul\":4782:4925   */\n    tag_203:\n        /* \"#utility.yul\":4839:4844   */\n      0x00\n        /* \"#utility.yul\":4870:4876   */\n      dup2\n        /* \"#utility.yul\":4864:4877   */\n      mload\n        /* \"#utility.yul\":4855:4877   */\n      swap1\n      pop\n        /* \"#utility.yul\":4886:4919   */\n      tag_281\n        /* \"#utility.yul\":4913:4918   */\n      dup2\n        /* \"#utility.yul\":4886:4919   */\n      tag_200\n      jump\t// in\n    tag_281:\n        /* \"#utility.yul\":4782:4925   */\n      swap3\n      swap2\n      pop\n      pop\n      jump\t// out\n        /* \"#utility.yul\":4931:5282   */\n    tag_57:\n        /* \"#utility.yul\":5001:5007   */\n      0x00\n        /* \"#utility.yul\":5050:5052   */\n      0x20\n        /* \"#utility.yul\":5038:5047   */\n      dup3\n        /* \"#utility.yul\":5029:5036   */\n      dup5\n        /* \"#utility.yul\":5025:5048   */\n      sub\n        /* \"#utility.yul\":5021:5053   */\n      slt\n        /* \"#utility.yul\":5018:5137   */\n      iszero\n      tag_283\n      jumpi\n        /* \"#utility.yul\":5056:5135   */\n      tag_284\n      tag_195\n      jump\t// in\n    tag_284:\n        /* \"#utility.yul\":5018:5137   */\n    tag_283:\n        /* \"#utility.yul\":5176:5177   */\n      0x00\n        /* \"#utility.yul\":5201:5265   */\n      tag_285\n        /* \"#utility.yul\":5257:5264   */\n      dup5\n        /* \"#utility.yul\":5248:5254   */\n      dup3\n        /* \"#utility.yul\":5237:5246   */\n      dup6\n        /* \"#utility.yul\":5233:5255   */\n      add\n        /* \"#utility.yul\":5201:5265   */\n      tag_203\n      jump\t// in\n    tag_285:\n        /* \"#utility.yul\":5191:5265   */\n      swap2\n      pop\n        /* \"#utility.yul\":5147:5275   */\n      pop\n        /* \"#utility.yul\":4931:5282   */\n      swap3\n      swap2\n      pop\n      pop\n      jump\t// out\n        /* \"#utility.yul\":5288:5468   */\n    tag_204:\n        /* \"#utility.yul\":5336:5413   */\n      0x4e487b7100000000000000000000000000000000000000000000000000000000\n        /* \"#utility.yul\":5333:5334   */\n      0x00\n        /* \"#utility.yul\":5326:5414   */\n      mstore\n        /* \"#utility.yul\":5433:5437   */\n      0x11\n        /* \"#utility.yul\":5430:5431   */\n      0x04\n        /* \"#utility.yul\":5423:5438   */\n      mstore\n        /* \"#utility.yul\":5457:5461   */\n      0x24\n        /* \"#utility.yul\":5454:5455   */\n      0x00\n        /* \"#utility.yul\":5447:5462   */\n      revert\n        /* \"#utility.yul\":5474:5884   */\n    tag_63:\n        /* \"#utility.yul\":5514:5521   */\n      0x00\n        /* \"#utility.yul\":5537:5557   */\n      tag_288\n        /* \"#utility.yul\":5555:5556   */\n      dup3\n        /* \"#utility.yul\":5537:5557   */\n      tag_192\n      jump\t// in\n    tag_288:\n        /* \"#utility.yul\":5532:5557   */\n      swap2\n      pop\n        /* \"#utility.yul\":5571:5591   */\n      tag_289\n        /* \"#utility.yul\":5589:5590   */\n      dup4\n        /* \"#utility.yul\":5571:5591   */\n      tag_192\n      jump\t// in\n    tag_289:\n        /* \"#utility.yul\":5566:5591   */\n      swap3\n      pop\n        /* \"#utility.yul\":5626:5627   */\n      dup3\n        /* \"#utility.yul\":5623:5624   */\n      dup3\n        /* \"#utility.yul\":5619:5628   */\n      mul\n        /* \"#utility.yul\":5648:5678   */\n      tag_290\n        /* \"#utility.yul\":5666:5677   */\n      dup2\n        /* \"#utility.yul\":5648:5678   */\n      tag_192\n      jump\t// in\n    tag_290:\n        /* \"#utility.yul\":5637:5678   */\n      swap2\n      pop\n        /* \"#utility.yul\":5827:5828   */\n      dup3\n        /* \"#utility.yul\":5818:5825   */\n      dup3\n        /* \"#utility.yul\":5814:5829   */\n      div\n        /* \"#utility.yul\":5811:5812   */\n      dup5\n        /* \"#utility.yul\":5808:5830   */\n      eq\n        /* \"#utility.yul\":5788:5789   */\n      dup4\n        /* \"#utility.yul\":5781:5790   */\n      iszero\n        /* \"#utility.yul\":5761:5844   */\n      or\n        /* \"#utility.yul\":5738:5877   */\n      tag_291\n      jumpi\n        /* \"#utility.yul\":5857:5875   */\n      tag_292\n      tag_204\n      jump\t// in\n    tag_292:\n        /* \"#utility.yul\":5738:5877   */\n    tag_291:\n        /* \"#utility.yul\":5522:5884   */\n      pop\n        /* \"#utility.yul\":5474:5884   */\n      swap3\n      swap2\n      pop\n      pop\n      jump\t// out\n        /* \"#utility.yul\":5890:6070   */\n    tag_205:\n        /* \"#utility.yul\":5938:6015   */\n      0x4e487b7100000000000000000000000000000000000000000000000000000000\n        /* \"#utility.yul\":5935:5936   */\n      0x00\n        /* \"#utility.yul\":5928:6016   */\n      mstore\n        /* \"#utility.yul\":6035:6039   */\n      0x12\n        /* \"#utility.yul\":6032:6033   */\n      0x04\n        /* \"#utility.yul\":6025:6040   */\n      mstore\n        /* \"#utility.yul\":6059:6063   */\n      0x24\n        /* \"#utility.yul\":6056:6057   */\n      0x00\n        /* \"#utility.yul\":6049:6064   */\n      revert\n        /* \"#utility.yul\":6076:6261   */\n    tag_65:\n        /* \"#utility.yul\":6116:6117   */\n      0x00\n        /* \"#utility.yul\":6133:6153   */\n      tag_295\n        /* \"#utility.yul\":6151:6152   */\n      dup3\n        /* \"#utility.yul\":6133:6153   */\n      tag_192\n      jump\t// in\n    tag_295:\n        /* \"#utility.yul\":6128:6153   */\n      swap2\n      pop\n        /* \"#utility.yul\":6167:6187   */\n      tag_296\n        /* \"#utility.yul\":6185:6186   */\n      dup4\n        /* \"#utility.yul\":6167:6187   */\n      tag_192\n      jump\t// in\n    tag_296:\n        /* \"#utility.yul\":6162:6187   */\n      swap3\n      pop\n        /* \"#utility.yul\":6206:6207   */\n      dup3\n        /* \"#utility.yul\":6196:6231   */\n      tag_297\n      jumpi\n        /* \"#utility.yul\":6211:6229   */\n      tag_298\n      tag_205\n      jump\t// in\n    tag_298:\n        /* \"#utility.yul\":6196:6231   */\n    tag_297:\n        /* \"#utility.yul\":6253:6254   */\n      dup3\n        /* \"#utility.yul\":6250:6251   */\n      dup3\n        /* \"#utility.yul\":6246:6255   */\n      div\n        /* \"#utility.yul\":6241:6255   */\n      swap1\n      pop\n        /* \"#utility.yul\":6076:6261   */\n      swap3\n      swap2\n      pop\n      pop\n      jump\t// out\n        /* \"#utility.yul\":6267:6436   */\n    tag_206:\n        /* \"#utility.yul\":6351:6362   */\n      0x00\n        /* \"#utility.yul\":6385:6391   */\n      dup3\n        /* \"#utility.yul\":6380:6383   */\n      dup3\n        /* \"#utility.yul\":6373:6392   */\n      mstore\n        /* \"#utility.yul\":6425:6429   */\n      0x20\n        /* \"#utility.yul\":6420:6423   */\n      dup3\n        /* \"#utility.yul\":6416:6430   */\n      add\n        /* \"#utility.yul\":6401:6430   */\n      swap1\n      pop\n        /* \"#utility.yul\":6267:6436   */\n      swap3\n      swap2\n      pop\n      pop\n      jump\t// out\n        /* \"#utility.yul\":6442:6614   */\n    tag_207:\n        /* \"#utility.yul\":6582:6606   */\n      0x616d6f756e7430206f7220616d6f756e7431203d203000000000000000000000\n        /* \"#utility.yul\":6578:6579   */\n      0x00\n        /* \"#utility.yul\":6570:6576   */\n      dup3\n        /* \"#utility.yul\":6566:6580   */\n      add\n        /* \"#utility.yul\":6559:6607   */\n      mstore\n        /* \"#utility.yul\":6442:6614   */\n      pop\n      jump\t// out\n        /* \"#utility.yul\":6620:6986   */\n    tag_208:\n        /* \"#utility.yul\":6762:6765   */\n      0x00\n        /* \"#utility.yul\":6783:6850   */\n      tag_302\n        /* \"#utility.yul\":6847:6849   */\n      0x16\n        /* \"#utility.yul\":6842:6845   */\n      dup4\n        /* \"#utility.yul\":6783:6850   */\n      tag_206\n      jump\t// in\n    tag_302:\n        /* \"#utility.yul\":6776:6850   */\n      swap2\n      pop\n        /* \"#utility.yul\":6859:6952   */\n      tag_303\n        /* \"#utility.yul\":6948:6951   */\n      dup3\n        /* \"#utility.yul\":6859:6952   */\n      tag_207\n      jump\t// in\n    tag_303:\n        /* \"#utility.yul\":6977:6979   */\n      0x20\n        /* \"#utility.yul\":6972:6975   */\n      dup3\n        /* \"#utility.yul\":6968:6980   */\n      add\n        /* \"#utility.yul\":6961:6980   */\n      swap1\n      pop\n        /* \"#utility.yul\":6620:6986   */\n      swap2\n      swap1\n      pop\n      jump\t// out\n        /* \"#utility.yul\":6992:7411   */\n    tag_71:\n        /* \"#utility.yul\":7158:7162   */\n      0x00\n        /* \"#utility.yul\":7196:7198   */\n      0x20\n        /* \"#utility.yul\":7185:7194   */\n      dup3\n        /* \"#utility.yul\":7181:7199   */\n      add\n        /* \"#utility.yul\":7173:7199   */\n      swap1\n      pop\n        /* \"#utility.yul\":7245:7254   */\n      dup2\n        /* \"#utility.yul\":7239:7243   */\n      dup2\n        /* \"#utility.yul\":7235:7255   */\n      sub\n        /* \"#utility.yul\":7231:7232   */\n      0x00\n        /* \"#utility.yul\":7220:7229   */\n      dup4\n        /* \"#utility.yul\":7216:7233   */\n      add\n        /* \"#utility.yul\":7209:7256   */\n      mstore\n        /* \"#utility.yul\":7273:7404   */\n      tag_305\n        /* \"#utility.yul\":7399:7403   */\n      dup2\n        /* \"#utility.yul\":7273:7404   */\n      tag_208\n      jump\t// in\n    tag_305:\n        /* \"#utility.yul\":7265:7404   */\n      swap1\n      pop\n        /* \"#utility.yul\":6992:7411   */\n      swap2\n      swap1\n      pop\n      jump\t// out\n        /* \"#utility.yul\":7417:7611   */\n    tag_76:\n        /* \"#utility.yul\":7457:7461   */\n      0x00\n        /* \"#utility.yul\":7477:7497   */\n      tag_307\n        /* \"#utility.yul\":7495:7496   */\n      dup3\n        /* \"#utility.yul\":7477:7497   */\n      tag_192\n      jump\t// in\n    tag_307:\n        /* \"#utility.yul\":7472:7497   */\n      swap2\n      pop\n        /* \"#utility.yul\":7511:7531   */\n      tag_308\n        /* \"#utility.yul\":7529:7530   */\n      dup4\n        /* \"#utility.yul\":7511:7531   */\n      tag_192\n      jump\t// in\n    tag_308:\n        /* \"#utility.yul\":7506:7531   */\n      swap3\n      pop\n        /* \"#utility.yul\":7555:7556   */\n      dup3\n        /* \"#utility.yul\":7552:7553   */\n      dup3\n        /* \"#utility.yul\":7548:7557   */\n      sub\n        /* \"#utility.yul\":7540:7557   */\n      swap1\n      pop\n        /* \"#utility.yul\":7579:7580   */\n      dup2\n        /* \"#utility.yul\":7573:7577   */\n      dup2\n        /* \"#utility.yul\":7570:7581   */\n      gt\n        /* \"#utility.yul\":7567:7604   */\n      iszero\n      tag_309\n      jumpi\n        /* \"#utility.yul\":7584:7602   */\n      tag_310\n      tag_204\n      jump\t// in\n    tag_310:\n        /* \"#utility.yul\":7567:7604   */\n    tag_309:\n        /* \"#utility.yul\":7417:7611   */\n      swap3\n      swap2\n      pop\n      pop\n      jump\t// out\n        /* \"#utility.yul\":7617:7949   */\n    tag_80:\n        /* \"#utility.yul\":7738:7742   */\n      0x00\n        /* \"#utility.yul\":7776:7778   */\n      0x40\n        /* \"#utility.yul\":7765:7774   */\n      dup3\n        /* \"#utility.yul\":7761:7779   */\n      add\n        /* \"#utility.yul\":7753:7779   */\n      swap1\n      pop\n        /* \"#utility.yul\":7789:7860   */\n      tag_312\n        /* \"#utility.yul\":7857:7858   */\n      0x00\n        /* \"#utility.yul\":7846:7855   */\n      dup4\n        /* \"#utility.yul\":7842:7859   */\n      add\n        /* \"#utility.yul\":7833:7839   */\n      dup6\n        /* \"#utility.yul\":7789:7860   */\n      tag_202\n      jump\t// in\n    tag_312:\n        /* \"#utility.yul\":7870:7942   */\n      tag_313\n        /* \"#utility.yul\":7938:7940   */\n      0x20\n        /* \"#utility.yul\":7927:7936   */\n      dup4\n        /* \"#utility.yul\":7923:7941   */\n      add\n        /* \"#utility.yul\":7914:7920   */\n      dup5\n        /* \"#utility.yul\":7870:7942   */\n      tag_193\n      jump\t// in\n    tag_313:\n        /* \"#utility.yul\":7617:7949   */\n      swap4\n      swap3\n      pop\n      pop\n      pop\n      jump\t// out\n        /* \"#utility.yul\":7955:8045   */\n    tag_209:\n        /* \"#utility.yul\":7989:7996   */\n      0x00\n        /* \"#utility.yul\":8032:8037   */\n      dup2\n        /* \"#utility.yul\":8025:8038   */\n      iszero\n        /* \"#utility.yul\":8018:8039   */\n      iszero\n        /* \"#utility.yul\":8007:8039   */\n      swap1\n      pop\n        /* \"#utility.yul\":7955:8045   */\n      swap2\n      swap1\n      pop\n      jump\t// out\n        /* \"#utility.yul\":8051:8167   */\n    tag_210:\n        /* \"#utility.yul\":8121:8142   */\n      tag_316\n        /* \"#utility.yul\":8136:8141   */\n      dup2\n        /* \"#utility.yul\":8121:8142   */\n      tag_209\n      jump\t// in\n    tag_316:\n        /* \"#utility.yul\":8114:8119   */\n      dup2\n        /* \"#utility.yul\":8111:8143   */\n      eq\n        /* \"#utility.yul\":8101:8161   */\n      tag_317\n      jumpi\n        /* \"#utility.yul\":8157:8158   */\n      0x00\n        /* \"#utility.yul\":8154:8155   */\n      dup1\n        /* \"#utility.yul\":8147:8159   */\n      revert\n        /* \"#utility.yul\":8101:8161   */\n    tag_317:\n        /* \"#utility.yul\":8051:8167   */\n      pop\n      jump\t// out\n        /* \"#utility.yul\":8173:8310   */\n    tag_211:\n        /* \"#utility.yul\":8227:8232   */\n      0x00\n        /* \"#utility.yul\":8258:8264   */\n      dup2\n        /* \"#utility.yul\":8252:8265   */\n      mload\n        /* \"#utility.yul\":8243:8265   */\n      swap1\n      pop\n        /* \"#utility.yul\":8274:8304   */\n      tag_319\n        /* \"#utility.yul\":8298:8303   */\n      dup2\n        /* \"#utility.yul\":8274:8304   */\n      tag_210\n      jump\t// in\n    tag_319:\n        /* \"#utility.yul\":8173:8310   */\n      swap3\n      swap2\n      pop\n      pop\n      jump\t// out\n        /* \"#utility.yul\":8316:8661   */\n    tag_84:\n        /* \"#utility.yul\":8383:8389   */\n      0x00\n        /* \"#utility.yul\":8432:8434   */\n      0x20\n        /* \"#utility.yul\":8420:8429   */\n      dup3\n        /* \"#utility.yul\":8411:8418   */\n      dup5\n        /* \"#utility.yul\":8407:8430   */\n      sub\n        /* \"#utility.yul\":8403:8435   */\n      slt\n        /* \"#utility.yul\":8400:8519   */\n      iszero\n      tag_321\n      jumpi\n        /* \"#utility.yul\":8438:8517   */\n      tag_322\n      tag_195\n      jump\t// in\n    tag_322:\n        /* \"#utility.yul\":8400:8519   */\n    tag_321:\n        /* \"#utility.yul\":8558:8559   */\n      0x00\n        /* \"#utility.yul\":8583:8644   */\n      tag_323\n        /* \"#utility.yul\":8636:8643   */\n      dup5\n        /* \"#utility.yul\":8627:8633   */\n      dup3\n        /* \"#utility.yul\":8616:8625   */\n      dup6\n        /* \"#utility.yul\":8612:8634   */\n      add\n        /* \"#utility.yul\":8583:8644   */\n      tag_211\n      jump\t// in\n    tag_323:\n        /* \"#utility.yul\":8573:8644   */\n      swap2\n      pop\n        /* \"#utility.yul\":8529:8654   */\n      pop\n        /* \"#utility.yul\":8316:8661   */\n      swap3\n      swap2\n      pop\n      pop\n      jump\t// out\n        /* \"#utility.yul\":8667:9109   */\n    tag_91:\n        /* \"#utility.yul\":8816:8820   */\n      0x00\n        /* \"#utility.yul\":8854:8856   */\n      0x60\n        /* \"#utility.yul\":8843:8852   */\n      dup3\n        /* \"#utility.yul\":8839:8857   */\n      add\n        /* \"#utility.yul\":8831:8857   */\n      swap1\n      pop\n        /* \"#utility.yul\":8867:8938   */\n      tag_325\n        /* \"#utility.yul\":8935:8936   */\n      0x00\n        /* \"#utility.yul\":8924:8933   */\n      dup4\n        /* \"#utility.yul\":8920:8937   */\n      add\n        /* \"#utility.yul\":8911:8917   */\n      dup7\n        /* \"#utility.yul\":8867:8938   */\n      tag_202\n      jump\t// in\n    tag_325:\n        /* \"#utility.yul\":8948:9020   */\n      tag_326\n        /* \"#utility.yul\":9016:9018   */\n      0x20\n        /* \"#utility.yul\":9005:9014   */\n      dup4\n        /* \"#utility.yul\":9001:9019   */\n      add\n        /* \"#utility.yul\":8992:8998   */\n      dup6\n        /* \"#utility.yul\":8948:9020   */\n      tag_202\n      jump\t// in\n    tag_326:\n        /* \"#utility.yul\":9030:9102   */\n      tag_327\n        /* \"#utility.yul\":9098:9100   */\n      0x40\n        /* \"#utility.yul\":9087:9096   */\n      dup4\n        /* \"#utility.yul\":9083:9101   */\n      add\n        /* \"#utility.yul\":9074:9080   */\n      dup5\n        /* \"#utility.yul\":9030:9102   */\n      tag_193\n      jump\t// in\n    tag_327:\n        /* \"#utility.yul\":8667:9109   */\n      swap5\n      swap4\n      pop\n      pop\n      pop\n      pop\n      jump\t// out\n        /* \"#utility.yul\":9115:9281   */\n    tag_212:\n        /* \"#utility.yul\":9255:9273   */\n      0x6479202f20647820213d2079202f207800000000000000000000000000000000\n        /* \"#utility.yul\":9251:9252   */\n      0x00\n        /* \"#utility.yul\":9243:9249   */\n      dup3\n        /* \"#utility.yul\":9239:9253   */\n      add\n        /* \"#utility.yul\":9232:9274   */\n      mstore\n        /* \"#utility.yul\":9115:9281   */\n      pop\n      jump\t// out\n        /* \"#utility.yul\":9287:9653   */\n    tag_213:\n        /* \"#utility.yul\":9429:9432   */\n      0x00\n        /* \"#utility.yul\":9450:9517   */\n      tag_330\n        /* \"#utility.yul\":9514:9516   */\n      0x10\n        /* \"#utility.yul\":9509:9512   */\n      dup4\n        /* \"#utility.yul\":9450:9517   */\n      tag_206\n      jump\t// in\n    tag_330:\n        /* \"#utility.yul\":9443:9517   */\n      swap2\n      pop\n        /* \"#utility.yul\":9526:9619   */\n      tag_331\n        /* \"#utility.yul\":9615:9618   */\n      dup3\n        /* \"#utility.yul\":9526:9619   */\n      tag_212\n      jump\t// in\n    tag_331:\n        /* \"#utility.yul\":9644:9646   */\n      0x20\n        /* \"#utility.yul\":9639:9642   */\n      dup3\n        /* \"#utility.yul\":9635:9647   */\n      add\n        /* \"#utility.yul\":9628:9647   */\n      swap1\n      pop\n        /* \"#utility.yul\":9287:9653   */\n      swap2\n      swap1\n      pop\n      jump\t// out\n        /* \"#utility.yul\":9659:10078   */\n    tag_105:\n        /* \"#utility.yul\":9825:9829   */\n      0x00\n        /* \"#utility.yul\":9863:9865   */\n      0x20\n        /* \"#utility.yul\":9852:9861   */\n      dup3\n        /* \"#utility.yul\":9848:9866   */\n      add\n        /* \"#utility.yul\":9840:9866   */\n      swap1\n      pop\n        /* \"#utility.yul\":9912:9921   */\n      dup2\n        /* \"#utility.yul\":9906:9910   */\n      dup2\n        /* \"#utility.yul\":9902:9922   */\n      sub\n        /* \"#utility.yul\":9898:9899   */\n      0x00\n        /* \"#utility.yul\":9887:9896   */\n      dup4\n        /* \"#utility.yul\":9883:9900   */\n      add\n        /* \"#utility.yul\":9876:9923   */\n      mstore\n        /* \"#utility.yul\":9940:10071   */\n      tag_333\n        /* \"#utility.yul\":10066:10070   */\n      dup2\n        /* \"#utility.yul\":9940:10071   */\n      tag_213\n      jump\t// in\n    tag_333:\n        /* \"#utility.yul\":9932:10071   */\n      swap1\n      pop\n        /* \"#utility.yul\":9659:10078   */\n      swap2\n      swap1\n      pop\n      jump\t// out\n        /* \"#utility.yul\":10084:10244   */\n    tag_214:\n        /* \"#utility.yul\":10224:10236   */\n      0x736861726573203d203000000000000000000000000000000000000000000000\n        /* \"#utility.yul\":10220:10221   */\n      0x00\n        /* \"#utility.yul\":10212:10218   */\n      dup3\n        /* \"#utility.yul\":10208:10222   */\n      add\n        /* \"#utility.yul\":10201:10237   */\n      mstore\n        /* \"#utility.yul\":10084:10244   */\n      pop\n      jump\t// out\n        /* \"#utility.yul\":10250:10616   */\n    tag_215:\n        /* \"#utility.yul\":10392:10395   */\n      0x00\n        /* \"#utility.yul\":10413:10480   */\n      tag_336\n        /* \"#utility.yul\":10477:10479   */\n      0x0a\n        /* \"#utility.yul\":10472:10475   */\n      dup4\n        /* \"#utility.yul\":10413:10480   */\n      tag_206\n      jump\t// in\n    tag_336:\n        /* \"#utility.yul\":10406:10480   */\n      swap2\n      pop\n        /* \"#utility.yul\":10489:10582   */\n      tag_337\n        /* \"#utility.yul\":10578:10581   */\n      dup3\n        /* \"#utility.yul\":10489:10582   */\n      tag_214\n      jump\t// in\n    tag_337:\n        /* \"#utility.yul\":10607:10609   */\n      0x20\n        /* \"#utility.yul\":10602:10605   */\n      dup3\n        /* \"#utility.yul\":10598:10610   */\n      add\n        /* \"#utility.yul\":10591:10610   */\n      swap1\n      pop\n        /* \"#utility.yul\":10250:10616   */\n      swap2\n      swap1\n      pop\n      jump\t// out\n        /* \"#utility.yul\":10622:11041   */\n    tag_123:\n        /* \"#utility.yul\":10788:10792   */\n      0x00\n        /* \"#utility.yul\":10826:10828   */\n      0x20\n        /* \"#utility.yul\":10815:10824   */\n      dup3\n        /* \"#utility.yul\":10811:10829   */\n      add\n        /* \"#utility.yul\":10803:10829   */\n      swap1\n      pop\n        /* \"#utility.yul\":10875:10884   */\n      dup2\n        /* \"#utility.yul\":10869:10873   */\n      dup2\n        /* \"#utility.yul\":10865:10885   */\n      sub\n        /* \"#utility.yul\":10861:10862   */\n      0x00\n        /* \"#utility.yul\":10850:10859   */\n      dup4\n        /* \"#utility.yul\":10846:10863   */\n      add\n        /* \"#utility.yul\":10839:10886   */\n      mstore\n        /* \"#utility.yul\":10903:11034   */\n      tag_339\n        /* \"#utility.yul\":11029:11033   */\n      dup2\n        /* \"#utility.yul\":10903:11034   */\n      tag_215\n      jump\t// in\n    tag_339:\n        /* \"#utility.yul\":10895:11034   */\n      swap1\n      pop\n        /* \"#utility.yul\":10622:11041   */\n      swap2\n      swap1\n      pop\n      jump\t// out\n        /* \"#utility.yul\":11047:11210   */\n    tag_216:\n        /* \"#utility.yul\":11187:11202   */\n      0x496e76616c696420746f6b656e00000000000000000000000000000000000000\n        /* \"#utility.yul\":11183:11184   */\n      0x00\n        /* \"#utility.yul\":11175:11181   */\n      dup3\n        /* \"#utility.yul\":11171:11185   */\n      add\n        /* \"#utility.yul\":11164:11203   */\n      mstore\n        /* \"#utility.yul\":11047:11210   */\n      pop\n      jump\t// out\n        /* \"#utility.yul\":11216:11582   */\n    tag_217:\n        /* \"#utility.yul\":11358:11361   */\n      0x00\n        /* \"#utility.yul\":11379:11446   */\n      tag_342\n        /* \"#utility.yul\":11443:11445   */\n      0x0d\n        /* \"#utility.yul\":11438:11441   */\n      dup4\n        /* \"#utility.yul\":11379:11446   */\n      tag_206\n      jump\t// in\n    tag_342:\n        /* \"#utility.yul\":11372:11446   */\n      swap2\n      pop\n        /* \"#utility.yul\":11455:11548   */\n      tag_343\n        /* \"#utility.yul\":11544:11547   */\n      dup3\n        /* \"#utility.yul\":11455:11548   */\n      tag_216\n      jump\t// in\n    tag_343:\n        /* \"#utility.yul\":11573:11575   */\n      0x20\n        /* \"#utility.yul\":11568:11571   */\n      dup3\n        /* \"#utility.yul\":11564:11576   */\n      add\n        /* \"#utility.yul\":11557:11576   */\n      swap1\n      pop\n        /* \"#utility.yul\":11216:11582   */\n      swap2\n      swap1\n      pop\n      jump\t// out\n        /* \"#utility.yul\":11588:12007   */\n    tag_139:\n        /* \"#utility.yul\":11754:11758   */\n      0x00\n        /* \"#utility.yul\":11792:11794   */\n      0x20\n        /* \"#utility.yul\":11781:11790   */\n      dup3\n        /* \"#utility.yul\":11777:11795   */\n      add\n        /* \"#utility.yul\":11769:11795   */\n      swap1\n      pop\n        /* \"#utility.yul\":11841:11850   */\n      dup2\n        /* \"#utility.yul\":11835:11839   */\n      dup2\n        /* \"#utility.yul\":11831:11851   */\n      sub\n        /* \"#utility.yul\":11827:11828   */\n      0x00\n        /* \"#utility.yul\":11816:11825   */\n      dup4\n        /* \"#utility.yul\":11812:11829   */\n      add\n        /* \"#utility.yul\":11805:11852   */\n      mstore\n        /* \"#utility.yul\":11869:12000   */\n      tag_345\n        /* \"#utility.yul\":11995:11999   */\n      dup2\n        /* \"#utility.yul\":11869:12000   */\n      tag_217\n      jump\t// in\n    tag_345:\n        /* \"#utility.yul\":11861:12000   */\n      swap1\n      pop\n        /* \"#utility.yul\":11588:12007   */\n      swap2\n      swap1\n      pop\n      jump\t// out\n        /* \"#utility.yul\":12013:12176   */\n    tag_218:\n        /* \"#utility.yul\":12153:12168   */\n      0x416d6f756e7420696e203d203000000000000000000000000000000000000000\n        /* \"#utility.yul\":12149:12150   */\n      0x00\n        /* \"#utility.yul\":12141:12147   */\n      dup3\n        /* \"#utility.yul\":12137:12151   */\n      add\n        /* \"#utility.yul\":12130:12169   */\n      mstore\n        /* \"#utility.yul\":12013:12176   */\n      pop\n      jump\t// out\n        /* \"#utility.yul\":12182:12548   */\n    tag_219:\n        /* \"#utility.yul\":12324:12327   */\n      0x00\n        /* \"#utility.yul\":12345:12412   */\n      tag_348\n        /* \"#utility.yul\":12409:12411   */\n      0x0d\n        /* \"#utility.yul\":12404:12407   */\n      dup4\n        /* \"#utility.yul\":12345:12412   */\n      tag_206\n      jump\t// in\n    tag_348:\n        /* \"#utility.yul\":12338:12412   */\n      swap2\n      pop\n        /* \"#utility.yul\":12421:12514   */\n      tag_349\n        /* \"#utility.yul\":12510:12513   */\n      dup3\n        /* \"#utility.yul\":12421:12514   */\n      tag_218\n      jump\t// in\n    tag_349:\n        /* \"#utility.yul\":12539:12541   */\n      0x20\n        /* \"#utility.yul\":12534:12537   */\n      dup3\n        /* \"#utility.yul\":12530:12542   */\n      add\n        /* \"#utility.yul\":12523:12542   */\n      swap1\n      pop\n        /* \"#utility.yul\":12182:12548   */\n      swap2\n      swap1\n      pop\n      jump\t// out\n        /* \"#utility.yul\":12554:12973   */\n    tag_142:\n        /* \"#utility.yul\":12720:12724   */\n      0x00\n        /* \"#utility.yul\":12758:12760   */\n      0x20\n        /* \"#utility.yul\":12747:12756   */\n      dup3\n        /* \"#utility.yul\":12743:12761   */\n      add\n        /* \"#utility.yul\":12735:12761   */\n      swap1\n      pop\n        /* \"#utility.yul\":12807:12816   */\n      dup2\n        /* \"#utility.yul\":12801:12805   */\n      dup2\n        /* \"#utility.yul\":12797:12817   */\n      sub\n        /* \"#utility.yul\":12793:12794   */\n      0x00\n        /* \"#utility.yul\":12782:12791   */\n      dup4\n        /* \"#utility.yul\":12778:12795   */\n      add\n        /* \"#utility.yul\":12771:12818   */\n      mstore\n        /* \"#utility.yul\":12835:12966   */\n      tag_351\n        /* \"#utility.yul\":12961:12965   */\n      dup2\n        /* \"#utility.yul\":12835:12966   */\n      tag_219\n      jump\t// in\n    tag_351:\n        /* \"#utility.yul\":12827:12966   */\n      swap1\n      pop\n        /* \"#utility.yul\":12554:12973   */\n      swap2\n      swap1\n      pop\n      jump\t// out\n        /* \"#utility.yul\":12979:13170   */\n    tag_152:\n        /* \"#utility.yul\":13019:13022   */\n      0x00\n        /* \"#utility.yul\":13038:13058   */\n      tag_353\n        /* \"#utility.yul\":13056:13057   */\n      dup3\n        /* \"#utility.yul\":13038:13058   */\n      tag_192\n      jump\t// in\n    tag_353:\n        /* \"#utility.yul\":13033:13058   */\n      swap2\n      pop\n        /* \"#utility.yul\":13072:13092   */\n      tag_354\n        /* \"#utility.yul\":13090:13091   */\n      dup4\n        /* \"#utility.yul\":13072:13092   */\n      tag_192\n      jump\t// in\n    tag_354:\n        /* \"#utility.yul\":13067:13092   */\n      swap3\n      pop\n        /* \"#utility.yul\":13115:13116   */\n      dup3\n        /* \"#utility.yul\":13112:13113   */\n      dup3\n        /* \"#utility.yul\":13108:13117   */\n      add\n        /* \"#utility.yul\":13101:13117   */\n      swap1\n      pop\n        /* \"#utility.yul\":13136:13139   */\n      dup1\n        /* \"#utility.yul\":13133:13134   */\n      dup3\n        /* \"#utility.yul\":13130:13140   */\n      gt\n        /* \"#utility.yul\":13127:13163   */\n      iszero\n      tag_355\n      jumpi\n        /* \"#utility.yul\":13143:13161   */\n      tag_356\n      tag_204\n      jump\t// in\n    tag_356:\n        /* \"#utility.yul\":13127:13163   */\n    tag_355:\n        /* \"#utility.yul\":12979:13170   */\n      swap3\n      swap2\n      pop\n      pop\n      jump\t// out\n\n    auxdata: 0xa2646970667358221220566218c5ad740e5dfc8027b62f7681dbe0000fe1db6fc763077b6a101706a95764736f6c63430008190033\n}\n",
				"bytecode": {
					"linkReferences": {},
					"object": "60c060405234801561000f575f80fd5b506040516117f23803806117f2833981810160405281019061003191906100fe565b8173ffffffffffffffffffffffffffffffffffffffff1660808173ffffffffffffffffffffffffffffffffffffffff16815250508073ffffffffffffffffffffffffffffffffffffffff1660a08173ffffffffffffffffffffffffffffffffffffffff1681525050505061013c565b5f80fd5b5f73ffffffffffffffffffffffffffffffffffffffff82169050919050565b5f6100cd826100a4565b9050919050565b6100dd816100c3565b81146100e7575f80fd5b50565b5f815190506100f8816100d4565b92915050565b5f8060408385031215610114576101136100a0565b5b5f610121858286016100ea565b9250506020610132858286016100ea565b9150509250929050565b60805160a05161161e6101d45f395f81816102d6015281816104b9015281816105fb0152818161088d0152818161098601528181610ab201528181610b1f01528181610d250152610dce01525f81816101ee0152818161023b0152818161041d0152818161055d015281816107f50152818161093101528181610a5801528181610ad301528181610afe0152610c8d015261161e5ff3fe608060405234801561000f575f80fd5b5060043610610091575f3560e01c806370a082311161006457806370a082311461010d5780639c8f9f231461013d5780639cd441da1461016e578063d004f0f71461019e578063d21220a7146101ce57610091565b80630dfe16811461009557806318160ddd146100b3578063443cb4bc146100d15780635a76f25e146100ef575b5f80fd5b61009d6101ec565b6040516100aa9190610fd0565b60405180910390f35b6100bb610210565b6040516100c89190611001565b60405180910390f35b6100d9610216565b6040516100e69190611001565b60405180910390f35b6100f761021b565b6040516101049190611001565b60405180910390f35b61012760048036038101906101229190611059565b610221565b6040516101349190611001565b60405180910390f35b610157600480360381019061015291906110ae565b610236565b6040516101659291906110d9565b60405180910390f35b61018860048036038101906101839190611100565b61055a565b6040516101959190611001565b60405180910390f35b6101b860048036038101906101b3919061113e565b61092e565b6040516101c59190611001565b60405180910390f35b6101d6610dcc565b6040516101e39190610fd0565b60405180910390f35b7f000000000000000000000000000000000000000000000000000000000000000081565b60025481565b5f5481565b60015481565b6003602052805f5260405f205f915090505481565b5f805f7f000000000000000000000000000000000000000000000000000000000000000073ffffffffffffffffffffffffffffffffffffffff166370a08231306040518263ffffffff1660e01b8152600401610292919061118b565b602060405180830381865afa1580156102ad573d5f803e3d5ffd5b505050506040513d601f19601f820116820180604052508101906102d191906111b8565b90505f7f000000000000000000000000000000000000000000000000000000000000000073ffffffffffffffffffffffffffffffffffffffff166370a08231306040518263ffffffff1660e01b815260040161032d919061118b565b602060405180830381865afa158015610348573d5f803e3d5ffd5b505050506040513d601f19601f8201168201806040525081019061036c91906111b8565b9050600254828661037d9190611210565b610387919061127e565b935060025481866103989190611210565b6103a2919061127e565b92505f841180156103b257505f83115b6103f1576040517f08c379a00000000000000000000000000000000000000000000000000000000081526004016103e890611308565b60405180910390fd5b6103fb3386610df0565b61041b848361040a9190611326565b84836104169190611326565b610e5f565b7f000000000000000000000000000000000000000000000000000000000000000073ffffffffffffffffffffffffffffffffffffffff1663a9059cbb33866040518363ffffffff1660e01b8152600401610476929190611359565b6020604051808303815f875af1158015610492573d5f803e3d5ffd5b505050506040513d601f19601f820116820180604052508101906104b691906113b5565b507f000000000000000000000000000000000000000000000000000000000000000073ffffffffffffffffffffffffffffffffffffffff1663a9059cbb33856040518363ffffffff1660e01b8152600401610512929190611359565b6020604051808303815f875af115801561052e573d5f803e3d5ffd5b505050506040513d601f19601f8201168201806040525081019061055291906113b5565b505050915091565b5f7f000000000000000000000000000000000000000000000000000000000000000073ffffffffffffffffffffffffffffffffffffffff166323b872dd3330866040518463ffffffff1660e01b81526004016105b8939291906113e0565b6020604051808303815f875af11580156105d4573d5f803e3d5ffd5b505050506040513d601f19601f820116820180604052508101906105f891906113b5565b507f000000000000000000000000000000000000000000000000000000000000000073ffffffffffffffffffffffffffffffffffffffff166323b872dd3330856040518463ffffffff1660e01b8152600401610656939291906113e0565b6020604051808303815f875af1158015610672573d5f803e3d5ffd5b505050506040513d601f19601f8201168201806040525081019061069691906113b5565b505f805411806106a757505f600154115b1561070857826001546106ba9190611210565b825f546106c79190611210565b14610707576040517f08c379a00000000000000000000000000000000000000000000000000000000081526004016106fe9061145f565b60405180910390fd5b5b5f6002540361072c5761072582846107209190611210565b610e70565b90506107a4565b6001546002548361073d9190611210565b610747919061127e565b5f54600254856107579190611210565b610761919061127e565b1061078657600154600254836107779190611210565b610781919061127e565b6107a1565b5f54600254846107969190611210565b6107a0919061127e565b5b90505b5f81116107e6576040517f08c379a00000000000000000000000000000000000000000000000000000000081526004016107dd906114c7565b60405180910390fd5b6107f03382610ee7565b6109287f000000000000000000000000000000000000000000000000000000000000000073ffffffffffffffffffffffffffffffffffffffff166370a08231306040518263ffffffff1660e01b815260040161084c919061118b565b602060405180830381865afa158015610867573d5f803e3d5ffd5b505050506040513d601f19601f8201168201806040525081019061088b91906111b8565b7f000000000000000000000000000000000000000000000000000000000000000073ffffffffffffffffffffffffffffffffffffffff166370a08231306040518263ffffffff1660e01b81526004016108e4919061118b565b602060405180830381865afa1580156108ff573d5f803e3d5ffd5b505050506040513d601f19601f8201168201806040525081019061092391906111b8565b610e5f565b92915050565b5f7f000000000000000000000000000000000000000000000000000000000000000073ffffffffffffffffffffffffffffffffffffffff168373ffffffffffffffffffffffffffffffffffffffff1614806109d457507f000000000000000000000000000000000000000000000000000000000000000073ffffffffffffffffffffffffffffffffffffffff168373ffffffffffffffffffffffffffffffffffffffff16145b610a13576040517f08c379a0000000000000000000000000000000000000000000000000000000008152600401610a0a9061152f565b60405180910390fd5b5f8211610a55576040517f08c379a0000000000000000000000000000000000000000000000000000000008152600401610a4c90611597565b60405180910390fd5b5f7f000000000000000000000000000000000000000000000000000000000000000073ffffffffffffffffffffffffffffffffffffffff168473ffffffffffffffffffffffffffffffffffffffff161490505f805f8084610afc577f00000000000000000000000000000000000000000000000000000000000000007f00000000000000000000000000000000000000000000000000000000000000006001545f54610b44565b7f00000000000000000000000000000000000000000000000000000000000000007f00000000000000000000000000000000000000000000000000000000000000005f546001545b93509350935093508373ffffffffffffffffffffffffffffffffffffffff166323b872dd33308a6040518463ffffffff1660e01b8152600401610b89939291906113e0565b6020604051808303815f875af1158015610ba5573d5f803e3d5ffd5b505050506040513d601f19601f82011682018060405250810190610bc991906113b5565b505f6103e86103e589610bdc9190611210565b610be6919061127e565b90508083610bf491906115b5565b8183610c009190611210565b610c0a919061127e565b96508373ffffffffffffffffffffffffffffffffffffffff1663a9059cbb33896040518363ffffffff1660e01b8152600401610c47929190611359565b6020604051808303815f875af1158015610c63573d5f803e3d5ffd5b505050506040513d601f19601f82011682018060405250810190610c8791906113b5565b50610dc07f000000000000000000000000000000000000000000000000000000000000000073ffffffffffffffffffffffffffffffffffffffff166370a08231306040518263ffffffff1660e01b8152600401610ce4919061118b565b602060405180830381865afa158015610cff573d5f803e3d5ffd5b505050506040513d601f19601f82011682018060405250810190610d2391906111b8565b7f000000000000000000000000000000000000000000000000000000000000000073ffffffffffffffffffffffffffffffffffffffff166370a08231306040518263ffffffff1660e01b8152600401610d7c919061118b565b602060405180830381865afa158015610d97573d5f803e3d5ffd5b505050506040513d601f19601f82011682018060405250810190610dbb91906111b8565b610e5f565b50505050505092915050565b7f000000000000000000000000000000000000000000000000000000000000000081565b8060035f8473ffffffffffffffffffffffffffffffffffffffff1673ffffffffffffffffffffffffffffffffffffffff1681526020019081526020015f205f828254610e3c9190611326565b925050819055508060025f828254610e549190611326565b925050819055505050565b815f81905550806001819055505050565b5f6003821115610ed5578190505f6001600284610e8d919061127e565b610e9791906115b5565b90505b81811015610ecf578091506002818285610eb4919061127e565b610ebe91906115b5565b610ec8919061127e565b9050610e9a565b50610ee2565b5f8214610ee157600190505b5b919050565b8060035f8473ffffffffffffffffffffffffffffffffffffffff1673ffffffffffffffffffffffffffffffffffffffff1681526020019081526020015f205f828254610f3391906115b5565b925050819055508060025f828254610f4b91906115b5565b925050819055505050565b5f73ffffffffffffffffffffffffffffffffffffffff82169050919050565b5f819050919050565b5f610f98610f93610f8e84610f56565b610f75565b610f56565b9050919050565b5f610fa982610f7e565b9050919050565b5f610fba82610f9f565b9050919050565b610fca81610fb0565b82525050565b5f602082019050610fe35f830184610fc1565b92915050565b5f819050919050565b610ffb81610fe9565b82525050565b5f6020820190506110145f830184610ff2565b92915050565b5f80fd5b5f61102882610f56565b9050919050565b6110388161101e565b8114611042575f80fd5b50565b5f813590506110538161102f565b92915050565b5f6020828403121561106e5761106d61101a565b5b5f61107b84828501611045565b91505092915050565b61108d81610fe9565b8114611097575f80fd5b50565b5f813590506110a881611084565b92915050565b5f602082840312156110c3576110c261101a565b5b5f6110d08482850161109a565b91505092915050565b5f6040820190506110ec5f830185610ff2565b6110f96020830184610ff2565b9392505050565b5f80604083850312156111165761111561101a565b5b5f6111238582860161109a565b92505060206111348582860161109a565b9150509250929050565b5f80604083850312156111545761115361101a565b5b5f61116185828601611045565b92505060206111728582860161109a565b9150509250929050565b6111858161101e565b82525050565b5f60208201905061119e5f83018461117c565b92915050565b5f815190506111b281611084565b92915050565b5f602082840312156111cd576111cc61101a565b5b5f6111da848285016111a4565b91505092915050565b7f4e487b71000000000000000000000000000000000000000000000000000000005f52601160045260245ffd5b5f61121a82610fe9565b915061122583610fe9565b925082820261123381610fe9565b9150828204841483151761124a576112496111e3565b5b5092915050565b7f4e487b71000000000000000000000000000000000000000000000000000000005f52601260045260245ffd5b5f61128882610fe9565b915061129383610fe9565b9250826112a3576112a2611251565b5b828204905092915050565b5f82825260208201905092915050565b7f616d6f756e7430206f7220616d6f756e7431203d2030000000000000000000005f82015250565b5f6112f26016836112ae565b91506112fd826112be565b602082019050919050565b5f6020820190508181035f83015261131f816112e6565b9050919050565b5f61133082610fe9565b915061133b83610fe9565b9250828203905081811115611353576113526111e3565b5b92915050565b5f60408201905061136c5f83018561117c565b6113796020830184610ff2565b9392505050565b5f8115159050919050565b61139481611380565b811461139e575f80fd5b50565b5f815190506113af8161138b565b92915050565b5f602082840312156113ca576113c961101a565b5b5f6113d7848285016113a1565b91505092915050565b5f6060820190506113f35f83018661117c565b611400602083018561117c565b61140d6040830184610ff2565b949350505050565b7f6479202f20647820213d2079202f2078000000000000000000000000000000005f82015250565b5f6114496010836112ae565b915061145482611415565b602082019050919050565b5f6020820190508181035f8301526114768161143d565b9050919050565b7f736861726573203d2030000000000000000000000000000000000000000000005f82015250565b5f6114b1600a836112ae565b91506114bc8261147d565b602082019050919050565b5f6020820190508181035f8301526114de816114a5565b9050919050565b7f496e76616c696420746f6b656e000000000000000000000000000000000000005f82015250565b5f611519600d836112ae565b9150611524826114e5565b602082019050919050565b5f6020820190508181035f8301526115468161150d565b9050919050565b7f416d6f756e7420696e203d2030000000000000000000000000000000000000005f82015250565b5f611581600d836112ae565b915061158c8261154d565b602082019050919050565b5f6020820190508181035f8301526115ae81611575565b9050919050565b5f6115bf82610fe9565b91506115ca83610fe9565b92508282019050808211156115e2576115e16111e3565b5b9291505056fea2646970667358221220566218c5ad740e5dfc8027b62f7681dbe0000fe1db6fc763077b6a101706a95764736f6c63430008190033",
					"opcodes": "PUSH1 0xC0 PUSH1 0x40 MSTORE CALLVALUE DUP1 ISZERO PUSH2 0xF JUMPI PUSH0 DUP1 REVERT JUMPDEST POP PUSH1 0x40 MLOAD PUSH2 0x17F2 CODESIZE SUB DUP1 PUSH2 0x17F2 DUP4 CODECOPY DUP2 DUP2 ADD PUSH1 0x40 MSTORE DUP2 ADD SWAP1 PUSH2 0x31 SWAP2 SWAP1 PUSH2 0xFE JUMP JUMPDEST DUP2 PUSH20 0xFFFFFFFFFFFFFFFFFFFFFFFFFFFFFFFFFFFFFFFF AND PUSH1 0x80 DUP2 PUSH20 0xFFFFFFFFFFFFFFFFFFFFFFFFFFFFFFFFFFFFFFFF AND DUP2 MSTORE POP POP DUP1 PUSH20 0xFFFFFFFFFFFFFFFFFFFFFFFFFFFFFFFFFFFFFFFF AND PUSH1 0xA0 DUP2 PUSH20 0xFFFFFFFFFFFFFFFFFFFFFFFFFFFFFFFFFFFFFFFF AND DUP2 MSTORE POP POP POP POP PUSH2 0x13C JUMP JUMPDEST PUSH0 DUP1 REVERT JUMPDEST PUSH0 PUSH20 0xFFFFFFFFFFFFFFFFFFFFFFFFFFFFFFFFFFFFFFFF DUP3 AND SWAP1 POP SWAP2 SWAP1 POP JUMP JUMPDEST PUSH0 PUSH2 0xCD DUP3 PUSH2 0xA4 JUMP JUMPDEST SWAP1 POP SWAP2 SWAP1 POP JUMP JUMPDEST PUSH2 0xDD DUP2 PUSH2 0xC3 JUMP JUMPDEST DUP2 EQ PUSH2 0xE7 JUMPI PUSH0 DUP1 REVERT JUMPDEST POP JUMP JUMPDEST PUSH0 DUP2 MLOAD SWAP1 POP PUSH2 0xF8 DUP2 PUSH2 0xD4 JUMP JUMPDEST SWAP3 SWAP2 POP POP JUMP JUMPDEST PUSH0 DUP1 PUSH1 0x40 DUP4 DUP6 SUB SLT ISZERO PUSH2 0x114 JUMPI PUSH2 0x113 PUSH2 0xA0 JUMP JUMPDEST JUMPDEST PUSH0 PUSH2 0x121 DUP6 DUP3 DUP7 ADD PUSH2 0xEA JUMP JUMPDEST SWAP3 POP POP PUSH1 0x20 PUSH2 0x132 DUP6 DUP3 DUP7 ADD PUSH2 0xEA JUMP JUMPDEST SWAP2 POP POP SWAP3 POP SWAP3 SWAP1 POP JUMP JUMPDEST PUSH1 0x80 MLOAD PUSH1 0xA0 MLOAD PUSH2 0x161E PUSH2 0x1D4 PUSH0 CODECOPY PUSH0 DUP2 DUP2 PUSH2 0x2D6 ADD MSTORE DUP2 DUP2 PUSH2 0x4B9 ADD MSTORE DUP2 DUP2 PUSH2 0x5FB ADD MSTORE DUP2 DUP2 PUSH2 0x88D ADD MSTORE DUP2 DUP2 PUSH2 0x986 ADD MSTORE DUP2 DUP2 PUSH2 0xAB2 ADD MSTORE DUP2 DUP2 PUSH2 0xB1F ADD MSTORE DUP2 DUP2 PUSH2 0xD25 ADD MSTORE PUSH2 0xDCE ADD MSTORE PUSH0 DUP2 DUP2 PUSH2 0x1EE ADD MSTORE DUP2 DUP2 PUSH2 0x23B ADD MSTORE DUP2 DUP2 PUSH2 0x41D ADD MSTORE DUP2 DUP2 PUSH2 0x55D ADD MSTORE DUP2 DUP2 PUSH2 0x7F5 ADD MSTORE DUP2 DUP2 PUSH2 0x931 ADD MSTORE DUP2 DUP2 PUSH2 0xA58 ADD MSTORE DUP2 DUP2 PUSH2 0xAD3 ADD MSTORE DUP2 DUP2 PUSH2 0xAFE ADD MSTORE PUSH2 0xC8D ADD MSTORE PUSH2 0x161E PUSH0 RETURN INVALID PUSH1 0x80 PUSH1 0x40 MSTORE CALLVALUE DUP1 ISZERO PUSH2 0xF JUMPI PUSH0 DUP1 REVERT JUMPDEST POP PUSH1 0x4 CALLDATASIZE LT PUSH2 0x91 JUMPI PUSH0 CALLDATALOAD PUSH1 0xE0 SHR DUP1 PUSH4 0x70A08231 GT PUSH2 0x64 JUMPI DUP1 PUSH4 0x70A08231 EQ PUSH2 0x10D JUMPI DUP1 PUSH4 0x9C8F9F23 EQ PUSH2 0x13D JUMPI DUP1 PUSH4 0x9CD441DA EQ PUSH2 0x16E JUMPI DUP1 PUSH4 0xD004F0F7 EQ PUSH2 0x19E JUMPI DUP1 PUSH4 0xD21220A7 EQ PUSH2 0x1CE JUMPI PUSH2 0x91 JUMP JUMPDEST DUP1 PUSH4 0xDFE1681 EQ PUSH2 0x95 JUMPI DUP1 PUSH4 0x18160DDD EQ PUSH2 0xB3 JUMPI DUP1 PUSH4 0x443CB4BC EQ PUSH2 0xD1 JUMPI DUP1 PUSH4 0x5A76F25E EQ PUSH2 0xEF JUMPI JUMPDEST PUSH0 DUP1 REVERT JUMPDEST PUSH2 0x9D PUSH2 0x1EC JUMP JUMPDEST PUSH1 0x40 MLOAD PUSH2 0xAA SWAP2 SWAP1 PUSH2 0xFD0 JUMP JUMPDEST PUSH1 0x40 MLOAD DUP1 SWAP2 SUB SWAP1 RETURN JUMPDEST PUSH2 0xBB PUSH2 0x210 JUMP JUMPDEST PUSH1 0x40 MLOAD PUSH2 0xC8 SWAP2 SWAP1 PUSH2 0x1001 JUMP JUMPDEST PUSH1 0x40 MLOAD DUP1 SWAP2 SUB SWAP1 RETURN JUMPDEST PUSH2 0xD9 PUSH2 0x216 JUMP JUMPDEST PUSH1 0x40 MLOAD PUSH2 0xE6 SWAP2 SWAP1 PUSH2 0x1001 JUMP JUMPDEST PUSH1 0x40 MLOAD DUP1 SWAP2 SUB SWAP1 RETURN JUMPDEST PUSH2 0xF7 PUSH2 0x21B JUMP JUMPDEST PUSH1 0x40 MLOAD PUSH2 0x104 SWAP2 SWAP1 PUSH2 0x1001 JUMP JUMPDEST PUSH1 0x40 MLOAD DUP1 SWAP2 SUB SWAP1 RETURN JUMPDEST PUSH2 0x127 PUSH1 0x4 DUP1 CALLDATASIZE SUB DUP2 ADD SWAP1 PUSH2 0x122 SWAP2 SWAP1 PUSH2 0x1059 JUMP JUMPDEST PUSH2 0x221 JUMP JUMPDEST PUSH1 0x40 MLOAD PUSH2 0x134 SWAP2 SWAP1 PUSH2 0x1001 JUMP JUMPDEST PUSH1 0x40 MLOAD DUP1 SWAP2 SUB SWAP1 RETURN JUMPDEST PUSH2 0x157 PUSH1 0x4 DUP1 CALLDATASIZE SUB DUP2 ADD SWAP1 PUSH2 0x152 SWAP2 SWAP1 PUSH2 0x10AE JUMP JUMPDEST PUSH2 0x236 JUMP JUMPDEST PUSH1 0x40 MLOAD PUSH2 0x165 SWAP3 SWAP2 SWAP1 PUSH2 0x10D9 JUMP JUMPDEST PUSH1 0x40 MLOAD DUP1 SWAP2 SUB SWAP1 RETURN JUMPDEST PUSH2 0x188 PUSH1 0x4 DUP1 CALLDATASIZE SUB DUP2 ADD SWAP1 PUSH2 0x183 SWAP2 SWAP1 PUSH2 0x1100 JUMP JUMPDEST PUSH2 0x55A JUMP JUMPDEST PUSH1 0x40 MLOAD PUSH2 0x195 SWAP2 SWAP1 PUSH2 0x1001 JUMP JUMPDEST PUSH1 0x40 MLOAD DUP1 SWAP2 SUB SWAP1 RETURN JUMPDEST PUSH2 0x1B8 PUSH1 0x4 DUP1 CALLDATASIZE SUB DUP2 ADD SWAP1 PUSH2 0x1B3 SWAP2 SWAP1 PUSH2 0x113E JUMP JUMPDEST PUSH2 0x92E JUMP JUMPDEST PUSH1 0x40 MLOAD PUSH2 0x1C5 SWAP2 SWAP1 PUSH2 0x1001 JUMP JUMPDEST PUSH1 0x40 MLOAD DUP1 SWAP2 SUB SWAP1 RETURN JUMPDEST PUSH2 0x1D6 PUSH2 0xDCC JUMP JUMPDEST PUSH1 0x40 MLOAD PUSH2 0x1E3 SWAP2 SWAP1 PUSH2 0xFD0 JUMP JUMPDEST PUSH1 0x40 MLOAD DUP1 SWAP2 SUB SWAP1 RETURN JUMPDEST PUSH32 0x0 DUP2 JUMP JUMPDEST PUSH1 0x2 SLOAD DUP2 JUMP JUMPDEST PUSH0 SLOAD DUP2 JUMP JUMPDEST PUSH1 0x1 SLOAD DUP2 JUMP JUMPDEST PUSH1 0x3 PUSH1 0x20 MSTORE DUP1 PUSH0 MSTORE PUSH1 0x40 PUSH0 KECCAK256 PUSH0 SWAP2 POP SWAP1 POP SLOAD DUP2 JUMP JUMPDEST PUSH0 DUP1 PUSH0 PUSH32 0x0 PUSH20 0xFFFFFFFFFFFFFFFFFFFFFFFFFFFFFFFFFFFFFFFF AND PUSH4 0x70A08231 ADDRESS PUSH1 0x40 MLOAD DUP3 PUSH4 0xFFFFFFFF AND PUSH1 0xE0 SHL DUP2 MSTORE PUSH1 0x4 ADD PUSH2 0x292 SWAP2 SWAP1 PUSH2 0x118B JUMP JUMPDEST PUSH1 0x20 PUSH1 0x40 MLOAD DUP1 DUP4 SUB DUP2 DUP7 GAS STATICCALL ISZERO DUP1 ISZERO PUSH2 0x2AD JUMPI RETURNDATASIZE PUSH0 DUP1 RETURNDATACOPY RETURNDATASIZE PUSH0 REVERT JUMPDEST POP POP POP POP PUSH1 0x40 MLOAD RETURNDATASIZE PUSH1 0x1F NOT PUSH1 0x1F DUP3 ADD AND DUP3 ADD DUP1 PUSH1 0x40 MSTORE POP DUP2 ADD SWAP1 PUSH2 0x2D1 SWAP2 SWAP1 PUSH2 0x11B8 JUMP JUMPDEST SWAP1 POP PUSH0 PUSH32 0x0 PUSH20 0xFFFFFFFFFFFFFFFFFFFFFFFFFFFFFFFFFFFFFFFF AND PUSH4 0x70A08231 ADDRESS PUSH1 0x40 MLOAD DUP3 PUSH4 0xFFFFFFFF AND PUSH1 0xE0 SHL DUP2 MSTORE PUSH1 0x4 ADD PUSH2 0x32D SWAP2 SWAP1 PUSH2 0x118B JUMP JUMPDEST PUSH1 0x20 PUSH1 0x40 MLOAD DUP1 DUP4 SUB DUP2 DUP7 GAS STATICCALL ISZERO DUP1 ISZERO PUSH2 0x348 JUMPI RETURNDATASIZE PUSH0 DUP1 RETURNDATACOPY RETURNDATASIZE PUSH0 REVERT JUMPDEST POP POP POP POP PUSH1 0x40 MLOAD RETURNDATASIZE PUSH1 0x1F NOT PUSH1 0x1F DUP3 ADD AND DUP3 ADD DUP1 PUSH1 0x40 MSTORE POP DUP2 ADD SWAP1 PUSH2 0x36C SWAP2 SWAP1 PUSH2 0x11B8 JUMP JUMPDEST SWAP1 POP PUSH1 0x2 SLOAD DUP3 DUP7 PUSH2 0x37D SWAP2 SWAP1 PUSH2 0x1210 JUMP JUMPDEST PUSH2 0x387 SWAP2 SWAP1 PUSH2 0x127E JUMP JUMPDEST SWAP4 POP PUSH1 0x2 SLOAD DUP2 DUP7 PUSH2 0x398 SWAP2 SWAP1 PUSH2 0x1210 JUMP JUMPDEST PUSH2 0x3A2 SWAP2 SWAP1 PUSH2 0x127E JUMP JUMPDEST SWAP3 POP PUSH0 DUP5 GT DUP1 ISZERO PUSH2 0x3B2 JUMPI POP PUSH0 DUP4 GT JUMPDEST PUSH2 0x3F1 JUMPI PUSH1 0x40 MLOAD PUSH32 0x8C379A000000000000000000000000000000000000000000000000000000000 DUP2 MSTORE PUSH1 0x4 ADD PUSH2 0x3E8 SWAP1 PUSH2 0x1308 JUMP JUMPDEST PUSH1 0x40 MLOAD DUP1 SWAP2 SUB SWAP1 REVERT JUMPDEST PUSH2 0x3FB CALLER DUP7 PUSH2 0xDF0 JUMP JUMPDEST PUSH2 0x41B DUP5 DUP4 PUSH2 0x40A SWAP2 SWAP1 PUSH2 0x1326 JUMP JUMPDEST DUP5 DUP4 PUSH2 0x416 SWAP2 SWAP1 PUSH2 0x1326 JUMP JUMPDEST PUSH2 0xE5F JUMP JUMPDEST PUSH32 0x0 PUSH20 0xFFFFFFFFFFFFFFFFFFFFFFFFFFFFFFFFFFFFFFFF AND PUSH4 0xA9059CBB CALLER DUP7 PUSH1 0x40 MLOAD DUP4 PUSH4 0xFFFFFFFF AND PUSH1 0xE0 SHL DUP2 MSTORE PUSH1 0x4 ADD PUSH2 0x476 SWAP3 SWAP2 SWAP1 PUSH2 0x1359 JUMP JUMPDEST PUSH1 0x20 PUSH1 0x40 MLOAD DUP1 DUP4 SUB DUP2 PUSH0 DUP8 GAS CALL ISZERO DUP1 ISZERO PUSH2 0x492 JUMPI RETURNDATASIZE PUSH0 DUP1 RETURNDATACOPY RETURNDATASIZE PUSH0 REVERT JUMPDEST POP POP POP POP PUSH1 0x40 MLOAD RETURNDATASIZE PUSH1 0x1F NOT PUSH1 0x1F DUP3 ADD AND DUP3 ADD DUP1 PUSH1 0x40 MSTORE POP DUP2 ADD SWAP1 PUSH2 0x4B6 SWAP2 SWAP1 PUSH2 0x13B5 JUMP JUMPDEST POP PUSH32 0x0 PUSH20 0xFFFFFFFFFFFFFFFFFFFFFFFFFFFFFFFFFFFFFFFF AND PUSH4 0xA9059CBB CALLER DUP6 PUSH1 0x40 MLOAD DUP4 PUSH4 0xFFFFFFFF AND PUSH1 0xE0 SHL DUP2 MSTORE PUSH1 0x4 ADD PUSH2 0x512 SWAP3 SWAP2 SWAP1 PUSH2 0x1359 JUMP JUMPDEST PUSH1 0x20 PUSH1 0x40 MLOAD DUP1 DUP4 SUB DUP2 PUSH0 DUP8 GAS CALL ISZERO DUP1 ISZERO PUSH2 0x52E JUMPI RETURNDATASIZE PUSH0 DUP1 RETURNDATACOPY RETURNDATASIZE PUSH0 REVERT JUMPDEST POP POP POP POP PUSH1 0x40 MLOAD RETURNDATASIZE PUSH1 0x1F NOT PUSH1 0x1F DUP3 ADD AND DUP3 ADD DUP1 PUSH1 0x40 MSTORE POP DUP2 ADD SWAP1 PUSH2 0x552 SWAP2 SWAP1 PUSH2 0x13B5 JUMP JUMPDEST POP POP POP SWAP2 POP SWAP2 JUMP JUMPDEST PUSH0 PUSH32 0x0 PUSH20 0xFFFFFFFFFFFFFFFFFFFFFFFFFFFFFFFFFFFFFFFF AND PUSH4 0x23B872DD CALLER ADDRESS DUP7 PUSH1 0x40 MLOAD DUP5 PUSH4 0xFFFFFFFF AND PUSH1 0xE0 SHL DUP2 MSTORE PUSH1 0x4 ADD PUSH2 0x5B8 SWAP4 SWAP3 SWAP2 SWAP1 PUSH2 0x13E0 JUMP JUMPDEST PUSH1 0x20 PUSH1 0x40 MLOAD DUP1 DUP4 SUB DUP2 PUSH0 DUP8 GAS CALL ISZERO DUP1 ISZERO PUSH2 0x5D4 JUMPI RETURNDATASIZE PUSH0 DUP1 RETURNDATACOPY RETURNDATASIZE PUSH0 REVERT JUMPDEST POP POP POP POP PUSH1 0x40 MLOAD RETURNDATASIZE PUSH1 0x1F NOT PUSH1 0x1F DUP3 ADD AND DUP3 ADD DUP1 PUSH1 0x40 MSTORE POP DUP2 ADD SWAP1 PUSH2 0x5F8 SWAP2 SWAP1 PUSH2 0x13B5 JUMP JUMPDEST POP PUSH32 0x0 PUSH20 0xFFFFFFFFFFFFFFFFFFFFFFFFFFFFFFFFFFFFFFFF AND PUSH4 0x23B872DD CALLER ADDRESS DUP6 PUSH1 0x40 MLOAD DUP5 PUSH4 0xFFFFFFFF AND PUSH1 0xE0 SHL DUP2 MSTORE PUSH1 0x4 ADD PUSH2 0x656 SWAP4 SWAP3 SWAP2 SWAP1 PUSH2 0x13E0 JUMP JUMPDEST PUSH1 0x20 PUSH1 0x40 MLOAD DUP1 DUP4 SUB DUP2 PUSH0 DUP8 GAS CALL ISZERO DUP1 ISZERO PUSH2 0x672 JUMPI RETURNDATASIZE PUSH0 DUP1 RETURNDATACOPY RETURNDATASIZE PUSH0 REVERT JUMPDEST POP POP POP POP PUSH1 0x40 MLOAD RETURNDATASIZE PUSH1 0x1F NOT PUSH1 0x1F DUP3 ADD AND DUP3 ADD DUP1 PUSH1 0x40 MSTORE POP DUP2 ADD SWAP1 PUSH2 0x696 SWAP2 SWAP1 PUSH2 0x13B5 JUMP JUMPDEST POP PUSH0 DUP1 SLOAD GT DUP1 PUSH2 0x6A7 JUMPI POP PUSH0 PUSH1 0x1 SLOAD GT JUMPDEST ISZERO PUSH2 0x708 JUMPI DUP3 PUSH1 0x1 SLOAD PUSH2 0x6BA SWAP2 SWAP1 PUSH2 0x1210 JUMP JUMPDEST DUP3 PUSH0 SLOAD PUSH2 0x6C7 SWAP2 SWAP1 PUSH2 0x1210 JUMP JUMPDEST EQ PUSH2 0x707 JUMPI PUSH1 0x40 MLOAD PUSH32 0x8C379A000000000000000000000000000000000000000000000000000000000 DUP2 MSTORE PUSH1 0x4 ADD PUSH2 0x6FE SWAP1 PUSH2 0x145F JUMP JUMPDEST PUSH1 0x40 MLOAD DUP1 SWAP2 SUB SWAP1 REVERT JUMPDEST JUMPDEST PUSH0 PUSH1 0x2 SLOAD SUB PUSH2 0x72C JUMPI PUSH2 0x725 DUP3 DUP5 PUSH2 0x720 SWAP2 SWAP1 PUSH2 0x1210 JUMP JUMPDEST PUSH2 0xE70 JUMP JUMPDEST SWAP1 POP PUSH2 0x7A4 JUMP JUMPDEST PUSH1 0x1 SLOAD PUSH1 0x2 SLOAD DUP4 PUSH2 0x73D SWAP2 SWAP1 PUSH2 0x1210 JUMP JUMPDEST PUSH2 0x747 SWAP2 SWAP1 PUSH2 0x127E JUMP JUMPDEST PUSH0 SLOAD PUSH1 0x2 SLOAD DUP6 PUSH2 0x757 SWAP2 SWAP1 PUSH2 0x1210 JUMP JUMPDEST PUSH2 0x761 SWAP2 SWAP1 PUSH2 0x127E JUMP JUMPDEST LT PUSH2 0x786 JUMPI PUSH1 0x1 SLOAD PUSH1 0x2 SLOAD DUP4 PUSH2 0x777 SWAP2 SWAP1 PUSH2 0x1210 JUMP JUMPDEST PUSH2 0x781 SWAP2 SWAP1 PUSH2 0x127E JUMP JUMPDEST PUSH2 0x7A1 JUMP JUMPDEST PUSH0 SLOAD PUSH1 0x2 SLOAD DUP5 PUSH2 0x796 SWAP2 SWAP1 PUSH2 0x1210 JUMP JUMPDEST PUSH2 0x7A0 SWAP2 SWAP1 PUSH2 0x127E JUMP JUMPDEST JUMPDEST SWAP1 POP JUMPDEST PUSH0 DUP2 GT PUSH2 0x7E6 JUMPI PUSH1 0x40 MLOAD PUSH32 0x8C379A000000000000000000000000000000000000000000000000000000000 DUP2 MSTORE PUSH1 0x4 ADD PUSH2 0x7DD SWAP1 PUSH2 0x14C7 JUMP JUMPDEST PUSH1 0x40 MLOAD DUP1 SWAP2 SUB SWAP1 REVERT JUMPDEST PUSH2 0x7F0 CALLER DUP3 PUSH2 0xEE7 JUMP JUMPDEST PUSH2 0x928 PUSH32 0x0 PUSH20 0xFFFFFFFFFFFFFFFFFFFFFFFFFFFFFFFFFFFFFFFF AND PUSH4 0x70A08231 ADDRESS PUSH1 0x40 MLOAD DUP3 PUSH4 0xFFFFFFFF AND PUSH1 0xE0 SHL DUP2 MSTORE PUSH1 0x4 ADD PUSH2 0x84C SWAP2 SWAP1 PUSH2 0x118B JUMP JUMPDEST PUSH1 0x20 PUSH1 0x40 MLOAD DUP1 DUP4 SUB DUP2 DUP7 GAS STATICCALL ISZERO DUP1 ISZERO PUSH2 0x867 JUMPI RETURNDATASIZE PUSH0 DUP1 RETURNDATACOPY RETURNDATASIZE PUSH0 REVERT JUMPDEST POP POP POP POP PUSH1 0x40 MLOAD RETURNDATASIZE PUSH1 0x1F NOT PUSH1 0x1F DUP3 ADD AND DUP3 ADD DUP1 PUSH1 0x40 MSTORE POP DUP2 ADD SWAP1 PUSH2 0x88B SWAP2 SWAP1 PUSH2 0x11B8 JUMP JUMPDEST PUSH32 0x0 PUSH20 0xFFFFFFFFFFFFFFFFFFFFFFFFFFFFFFFFFFFFFFFF AND PUSH4 0x70A08231 ADDRESS PUSH1 0x40 MLOAD DUP3 PUSH4 0xFFFFFFFF AND PUSH1 0xE0 SHL DUP2 MSTORE PUSH1 0x4 ADD PUSH2 0x8E4 SWAP2 SWAP1 PUSH2 0x118B JUMP JUMPDEST PUSH1 0x20 PUSH1 0x40 MLOAD DUP1 DUP4 SUB DUP2 DUP7 GAS STATICCALL ISZERO DUP1 ISZERO PUSH2 0x8FF JUMPI RETURNDATASIZE PUSH0 DUP1 RETURNDATACOPY RETURNDATASIZE PUSH0 REVERT JUMPDEST POP POP POP POP PUSH1 0x40 MLOAD RETURNDATASIZE PUSH1 0x1F NOT PUSH1 0x1F DUP3 ADD AND DUP3 ADD DUP1 PUSH1 0x40 MSTORE POP DUP2 ADD SWAP1 PUSH2 0x923 SWAP2 SWAP1 PUSH2 0x11B8 JUMP JUMPDEST PUSH2 0xE5F JUMP JUMPDEST SWAP3 SWAP2 POP POP JUMP JUMPDEST PUSH0 PUSH32 0x0 PUSH20 0xFFFFFFFFFFFFFFFFFFFFFFFFFFFFFFFFFFFFFFFF AND DUP4 PUSH20 0xFFFFFFFFFFFFFFFFFFFFFFFFFFFFFFFFFFFFFFFF AND EQ DUP1 PUSH2 0x9D4 JUMPI POP PUSH32 0x0 PUSH20 0xFFFFFFFFFFFFFFFFFFFFFFFFFFFFFFFFFFFFFFFF AND DUP4 PUSH20 0xFFFFFFFFFFFFFFFFFFFFFFFFFFFFFFFFFFFFFFFF AND EQ JUMPDEST PUSH2 0xA13 JUMPI PUSH1 0x40 MLOAD PUSH32 0x8C379A000000000000000000000000000000000000000000000000000000000 DUP2 MSTORE PUSH1 0x4 ADD PUSH2 0xA0A SWAP1 PUSH2 0x152F JUMP JUMPDEST PUSH1 0x40 MLOAD DUP1 SWAP2 SUB SWAP1 REVERT JUMPDEST PUSH0 DUP3 GT PUSH2 0xA55 JUMPI PUSH1 0x40 MLOAD PUSH32 0x8C379A000000000000000000000000000000000000000000000000000000000 DUP2 MSTORE PUSH1 0x4 ADD PUSH2 0xA4C SWAP1 PUSH2 0x1597 JUMP JUMPDEST PUSH1 0x40 MLOAD DUP1 SWAP2 SUB SWAP1 REVERT JUMPDEST PUSH0 PUSH32 0x0 PUSH20 0xFFFFFFFFFFFFFFFFFFFFFFFFFFFFFFFFFFFFFFFF AND DUP5 PUSH20 0xFFFFFFFFFFFFFFFFFFFFFFFFFFFFFFFFFFFFFFFF AND EQ SWAP1 POP PUSH0 DUP1 PUSH0 DUP1 DUP5 PUSH2 0xAFC JUMPI PUSH32 0x0 PUSH32 0x0 PUSH1 0x1 SLOAD PUSH0 SLOAD PUSH2 0xB44 JUMP JUMPDEST PUSH32 0x0 PUSH32 0x0 PUSH0 SLOAD PUSH1 0x1 SLOAD JUMPDEST SWAP4 POP SWAP4 POP SWAP4 POP SWAP4 POP DUP4 PUSH20 0xFFFFFFFFFFFFFFFFFFFFFFFFFFFFFFFFFFFFFFFF AND PUSH4 0x23B872DD CALLER ADDRESS DUP11 PUSH1 0x40 MLOAD DUP5 PUSH4 0xFFFFFFFF AND PUSH1 0xE0 SHL DUP2 MSTORE PUSH1 0x4 ADD PUSH2 0xB89 SWAP4 SWAP3 SWAP2 SWAP1 PUSH2 0x13E0 JUMP JUMPDEST PUSH1 0x20 PUSH1 0x40 MLOAD DUP1 DUP4 SUB DUP2 PUSH0 DUP8 GAS CALL ISZERO DUP1 ISZERO PUSH2 0xBA5 JUMPI RETURNDATASIZE PUSH0 DUP1 RETURNDATACOPY RETURNDATASIZE PUSH0 REVERT JUMPDEST POP POP POP POP PUSH1 0x40 MLOAD RETURNDATASIZE PUSH1 0x1F NOT PUSH1 0x1F DUP3 ADD AND DUP3 ADD DUP1 PUSH1 0x40 MSTORE POP DUP2 ADD SWAP1 PUSH2 0xBC9 SWAP2 SWAP1 PUSH2 0x13B5 JUMP JUMPDEST POP PUSH0 PUSH2 0x3E8 PUSH2 0x3E5 DUP10 PUSH2 0xBDC SWAP2 SWAP1 PUSH2 0x1210 JUMP JUMPDEST PUSH2 0xBE6 SWAP2 SWAP1 PUSH2 0x127E JUMP JUMPDEST SWAP1 POP DUP1 DUP4 PUSH2 0xBF4 SWAP2 SWAP1 PUSH2 0x15B5 JUMP JUMPDEST DUP2 DUP4 PUSH2 0xC00 SWAP2 SWAP1 PUSH2 0x1210 JUMP JUMPDEST PUSH2 0xC0A SWAP2 SWAP1 PUSH2 0x127E JUMP JUMPDEST SWAP7 POP DUP4 PUSH20 0xFFFFFFFFFFFFFFFFFFFFFFFFFFFFFFFFFFFFFFFF AND PUSH4 0xA9059CBB CALLER DUP10 PUSH1 0x40 MLOAD DUP4 PUSH4 0xFFFFFFFF AND PUSH1 0xE0 SHL DUP2 MSTORE PUSH1 0x4 ADD PUSH2 0xC47 SWAP3 SWAP2 SWAP1 PUSH2 0x1359 JUMP JUMPDEST PUSH1 0x20 PUSH1 0x40 MLOAD DUP1 DUP4 SUB DUP2 PUSH0 DUP8 GAS CALL ISZERO DUP1 ISZERO PUSH2 0xC63 JUMPI RETURNDATASIZE PUSH0 DUP1 RETURNDATACOPY RETURNDATASIZE PUSH0 REVERT JUMPDEST POP POP POP POP PUSH1 0x40 MLOAD RETURNDATASIZE PUSH1 0x1F NOT PUSH1 0x1F DUP3 ADD AND DUP3 ADD DUP1 PUSH1 0x40 MSTORE POP DUP2 ADD SWAP1 PUSH2 0xC87 SWAP2 SWAP1 PUSH2 0x13B5 JUMP JUMPDEST POP PUSH2 0xDC0 PUSH32 0x0 PUSH20 0xFFFFFFFFFFFFFFFFFFFFFFFFFFFFFFFFFFFFFFFF AND PUSH4 0x70A08231 ADDRESS PUSH1 0x40 MLOAD DUP3 PUSH4 0xFFFFFFFF AND PUSH1 0xE0 SHL DUP2 MSTORE PUSH1 0x4 ADD PUSH2 0xCE4 SWAP2 SWAP1 PUSH2 0x118B JUMP JUMPDEST PUSH1 0x20 PUSH1 0x40 MLOAD DUP1 DUP4 SUB DUP2 DUP7 GAS STATICCALL ISZERO DUP1 ISZERO PUSH2 0xCFF JUMPI RETURNDATASIZE PUSH0 DUP1 RETURNDATACOPY RETURNDATASIZE PUSH0 REVERT JUMPDEST POP POP POP POP PUSH1 0x40 MLOAD RETURNDATASIZE PUSH1 0x1F NOT PUSH1 0x1F DUP3 ADD AND DUP3 ADD DUP1 PUSH1 0x40 MSTORE POP DUP2 ADD SWAP1 PUSH2 0xD23 SWAP2 SWAP1 PUSH2 0x11B8 JUMP JUMPDEST PUSH32 0x0 PUSH20 0xFFFFFFFFFFFFFFFFFFFFFFFFFFFFFFFFFFFFFFFF AND PUSH4 0x70A08231 ADDRESS PUSH1 0x40 MLOAD DUP3 PUSH4 0xFFFFFFFF AND PUSH1 0xE0 SHL DUP2 MSTORE PUSH1 0x4 ADD PUSH2 0xD7C SWAP2 SWAP1 PUSH2 0x118B JUMP JUMPDEST PUSH1 0x20 PUSH1 0x40 MLOAD DUP1 DUP4 SUB DUP2 DUP7 GAS STATICCALL ISZERO DUP1 ISZERO PUSH2 0xD97 JUMPI RETURNDATASIZE PUSH0 DUP1 RETURNDATACOPY RETURNDATASIZE PUSH0 REVERT JUMPDEST POP POP POP POP PUSH1 0x40 MLOAD RETURNDATASIZE PUSH1 0x1F NOT PUSH1 0x1F DUP3 ADD AND DUP3 ADD DUP1 PUSH1 0x40 MSTORE POP DUP2 ADD SWAP1 PUSH2 0xDBB SWAP2 SWAP1 PUSH2 0x11B8 JUMP JUMPDEST PUSH2 0xE5F JUMP JUMPDEST POP POP POP POP POP POP SWAP3 SWAP2 POP POP JUMP JUMPDEST PUSH32 0x0 DUP2 JUMP JUMPDEST DUP1 PUSH1 0x3 PUSH0 DUP5 PUSH20 0xFFFFFFFFFFFFFFFFFFFFFFFFFFFFFFFFFFFFFFFF AND PUSH20 0xFFFFFFFFFFFFFFFFFFFFFFFFFFFFFFFFFFFFFFFF AND DUP2 MSTORE PUSH1 0x20 ADD SWAP1 DUP2 MSTORE PUSH1 0x20 ADD PUSH0 KECCAK256 PUSH0 DUP3 DUP3 SLOAD PUSH2 0xE3C SWAP2 SWAP1 PUSH2 0x1326 JUMP JUMPDEST SWAP3 POP POP DUP2 SWAP1 SSTORE POP DUP1 PUSH1 0x2 PUSH0 DUP3 DUP3 SLOAD PUSH2 0xE54 SWAP2 SWAP1 PUSH2 0x1326 JUMP JUMPDEST SWAP3 POP POP DUP2 SWAP1 SSTORE POP POP POP JUMP JUMPDEST DUP2 PUSH0 DUP2 SWAP1 SSTORE POP DUP1 PUSH1 0x1 DUP2 SWAP1 SSTORE POP POP POP JUMP JUMPDEST PUSH0 PUSH1 0x3 DUP3 GT ISZERO PUSH2 0xED5 JUMPI DUP2 SWAP1 POP PUSH0 PUSH1 0x1 PUSH1 0x2 DUP5 PUSH2 0xE8D SWAP2 SWAP1 PUSH2 0x127E JUMP JUMPDEST PUSH2 0xE97 SWAP2 SWAP1 PUSH2 0x15B5 JUMP JUMPDEST SWAP1 POP JUMPDEST DUP2 DUP2 LT ISZERO PUSH2 0xECF JUMPI DUP1 SWAP2 POP PUSH1 0x2 DUP2 DUP3 DUP6 PUSH2 0xEB4 SWAP2 SWAP1 PUSH2 0x127E JUMP JUMPDEST PUSH2 0xEBE SWAP2 SWAP1 PUSH2 0x15B5 JUMP JUMPDEST PUSH2 0xEC8 SWAP2 SWAP1 PUSH2 0x127E JUMP JUMPDEST SWAP1 POP PUSH2 0xE9A JUMP JUMPDEST POP PUSH2 0xEE2 JUMP JUMPDEST PUSH0 DUP3 EQ PUSH2 0xEE1 JUMPI PUSH1 0x1 SWAP1 POP JUMPDEST JUMPDEST SWAP2 SWAP1 POP JUMP JUMPDEST DUP1 PUSH1 0x3 PUSH0 DUP5 PUSH20 0xFFFFFFFFFFFFFFFFFFFFFFFFFFFFFFFFFFFFFFFF AND PUSH20 0xFFFFFFFFFFFFFFFFFFFFFFFFFFFFFFFFFFFFFFFF AND DUP2 MSTORE PUSH1 0x20 ADD SWAP1 DUP2 MSTORE PUSH1 0x20 ADD PUSH0 KECCAK256 PUSH0 DUP3 DUP3 SLOAD PUSH2 0xF33 SWAP2 SWAP1 PUSH2 0x15B5 JUMP JUMPDEST SWAP3 POP POP DUP2 SWAP1 SSTORE POP DUP1 PUSH1 0x2 PUSH0 DUP3 DUP3 SLOAD PUSH2 0xF4B SWAP2 SWAP1 PUSH2 0x15B5 JUMP JUMPDEST SWAP3 POP POP DUP2 SWAP1 SSTORE POP POP POP JUMP JUMPDEST PUSH0 PUSH20 0xFFFFFFFFFFFFFFFFFFFFFFFFFFFFFFFFFFFFFFFF DUP3 AND SWAP1 POP SWAP2 SWAP1 POP JUMP JUMPDEST PUSH0 DUP2 SWAP1 POP SWAP2 SWAP1 POP JUMP JUMPDEST PUSH0 PUSH2 0xF98 PUSH2 0xF93 PUSH2 0xF8E DUP5 PUSH2 0xF56 JUMP JUMPDEST PUSH2 0xF75 JUMP JUMPDEST PUSH2 0xF56 JUMP JUMPDEST SWAP1 POP SWAP2 SWAP1 POP JUMP JUMPDEST PUSH0 PUSH2 0xFA9 DUP3 PUSH2 0xF7E JUMP JUMPDEST SWAP1 POP SWAP2 SWAP1 POP JUMP JUMPDEST PUSH0 PUSH2 0xFBA DUP3 PUSH2 0xF9F JUMP JUMPDEST SWAP1 POP SWAP2 SWAP1 POP JUMP JUMPDEST PUSH2 0xFCA DUP2 PUSH2 0xFB0 JUMP JUMPDEST DUP3 MSTORE POP POP JUMP JUMPDEST PUSH0 PUSH1 0x20 DUP3 ADD SWAP1 POP PUSH2 0xFE3 PUSH0 DUP4 ADD DUP5 PUSH2 0xFC1 JUMP JUMPDEST SWAP3 SWAP2 POP POP JUMP JUMPDEST PUSH0 DUP2 SWAP1 POP SWAP2 SWAP1 POP JUMP JUMPDEST PUSH2 0xFFB DUP2 PUSH2 0xFE9 JUMP JUMPDEST DUP3 MSTORE POP POP JUMP JUMPDEST PUSH0 PUSH1 0x20 DUP3 ADD SWAP1 POP PUSH2 0x1014 PUSH0 DUP4 ADD DUP5 PUSH2 0xFF2 JUMP JUMPDEST SWAP3 SWAP2 POP POP JUMP JUMPDEST PUSH0 DUP1 REVERT JUMPDEST PUSH0 PUSH2 0x1028 DUP3 PUSH2 0xF56 JUMP JUMPDEST SWAP1 POP SWAP2 SWAP1 POP JUMP JUMPDEST PUSH2 0x1038 DUP2 PUSH2 0x101E JUMP JUMPDEST DUP2 EQ PUSH2 0x1042 JUMPI PUSH0 DUP1 REVERT JUMPDEST POP JUMP JUMPDEST PUSH0 DUP2 CALLDATALOAD SWAP1 POP PUSH2 0x1053 DUP2 PUSH2 0x102F JUMP JUMPDEST SWAP3 SWAP2 POP POP JUMP JUMPDEST PUSH0 PUSH1 0x20 DUP3 DUP5 SUB SLT ISZERO PUSH2 0x106E JUMPI PUSH2 0x106D PUSH2 0x101A JUMP JUMPDEST JUMPDEST PUSH0 PUSH2 0x107B DUP5 DUP3 DUP6 ADD PUSH2 0x1045 JUMP JUMPDEST SWAP2 POP POP SWAP3 SWAP2 POP POP JUMP JUMPDEST PUSH2 0x108D DUP2 PUSH2 0xFE9 JUMP JUMPDEST DUP2 EQ PUSH2 0x1097 JUMPI PUSH0 DUP1 REVERT JUMPDEST POP JUMP JUMPDEST PUSH0 DUP2 CALLDATALOAD SWAP1 POP PUSH2 0x10A8 DUP2 PUSH2 0x1084 JUMP JUMPDEST SWAP3 SWAP2 POP POP JUMP JUMPDEST PUSH0 PUSH1 0x20 DUP3 DUP5 SUB SLT ISZERO PUSH2 0x10C3 JUMPI PUSH2 0x10C2 PUSH2 0x101A JUMP JUMPDEST JUMPDEST PUSH0 PUSH2 0x10D0 DUP5 DUP3 DUP6 ADD PUSH2 0x109A JUMP JUMPDEST SWAP2 POP POP SWAP3 SWAP2 POP POP JUMP JUMPDEST PUSH0 PUSH1 0x40 DUP3 ADD SWAP1 POP PUSH2 0x10EC PUSH0 DUP4 ADD DUP6 PUSH2 0xFF2 JUMP JUMPDEST PUSH2 0x10F9 PUSH1 0x20 DUP4 ADD DUP5 PUSH2 0xFF2 JUMP JUMPDEST SWAP4 SWAP3 POP POP POP JUMP JUMPDEST PUSH0 DUP1 PUSH1 0x40 DUP4 DUP6 SUB SLT ISZERO PUSH2 0x1116 JUMPI PUSH2 0x1115 PUSH2 0x101A JUMP JUMPDEST JUMPDEST PUSH0 PUSH2 0x1123 DUP6 DUP3 DUP7 ADD PUSH2 0x109A JUMP JUMPDEST SWAP3 POP POP PUSH1 0x20 PUSH2 0x1134 DUP6 DUP3 DUP7 ADD PUSH2 0x109A JUMP JUMPDEST SWAP2 POP POP SWAP3 POP SWAP3 SWAP1 POP JUMP JUMPDEST PUSH0 DUP1 PUSH1 0x40 DUP4 DUP6 SUB SLT ISZERO PUSH2 0x1154 JUMPI PUSH2 0x1153 PUSH2 0x101A JUMP JUMPDEST JUMPDEST PUSH0 PUSH2 0x1161 DUP6 DUP3 DUP7 ADD PUSH2 0x1045 JUMP JUMPDEST SWAP3 POP POP PUSH1 0x20 PUSH2 0x1172 DUP6 DUP3 DUP7 ADD PUSH2 0x109A JUMP JUMPDEST SWAP2 POP POP SWAP3 POP SWAP3 SWAP1 POP JUMP JUMPDEST PUSH2 0x1185 DUP2 PUSH2 0x101E JUMP JUMPDEST DUP3 MSTORE POP POP JUMP JUMPDEST PUSH0 PUSH1 0x20 DUP3 ADD SWAP1 POP PUSH2 0x119E PUSH0 DUP4 ADD DUP5 PUSH2 0x117C JUMP JUMPDEST SWAP3 SWAP2 POP POP JUMP JUMPDEST PUSH0 DUP2 MLOAD SWAP1 POP PUSH2 0x11B2 DUP2 PUSH2 0x1084 JUMP JUMPDEST SWAP3 SWAP2 POP POP JUMP JUMPDEST PUSH0 PUSH1 0x20 DUP3 DUP5 SUB SLT ISZERO PUSH2 0x11CD JUMPI PUSH2 0x11CC PUSH2 0x101A JUMP JUMPDEST JUMPDEST PUSH0 PUSH2 0x11DA DUP5 DUP3 DUP6 ADD PUSH2 0x11A4 JUMP JUMPDEST SWAP2 POP POP SWAP3 SWAP2 POP POP JUMP JUMPDEST PUSH32 0x4E487B7100000000000000000000000000000000000000000000000000000000 PUSH0 MSTORE PUSH1 0x11 PUSH1 0x4 MSTORE PUSH1 0x24 PUSH0 REVERT JUMPDEST PUSH0 PUSH2 0x121A DUP3 PUSH2 0xFE9 JUMP JUMPDEST SWAP2 POP PUSH2 0x1225 DUP4 PUSH2 0xFE9 JUMP JUMPDEST SWAP3 POP DUP3 DUP3 MUL PUSH2 0x1233 DUP2 PUSH2 0xFE9 JUMP JUMPDEST SWAP2 POP DUP3 DUP3 DIV DUP5 EQ DUP4 ISZERO OR PUSH2 0x124A JUMPI PUSH2 0x1249 PUSH2 0x11E3 JUMP JUMPDEST JUMPDEST POP SWAP3 SWAP2 POP POP JUMP JUMPDEST PUSH32 0x4E487B7100000000000000000000000000000000000000000000000000000000 PUSH0 MSTORE PUSH1 0x12 PUSH1 0x4 MSTORE PUSH1 0x24 PUSH0 REVERT JUMPDEST PUSH0 PUSH2 0x1288 DUP3 PUSH2 0xFE9 JUMP JUMPDEST SWAP2 POP PUSH2 0x1293 DUP4 PUSH2 0xFE9 JUMP JUMPDEST SWAP3 POP DUP3 PUSH2 0x12A3 JUMPI PUSH2 0x12A2 PUSH2 0x1251 JUMP JUMPDEST JUMPDEST DUP3 DUP3 DIV SWAP1 POP SWAP3 SWAP2 POP POP JUMP JUMPDEST PUSH0 DUP3 DUP3 MSTORE PUSH1 0x20 DUP3 ADD SWAP1 POP SWAP3 SWAP2 POP POP JUMP JUMPDEST PUSH32 0x616D6F756E7430206F7220616D6F756E7431203D203000000000000000000000 PUSH0 DUP3 ADD MSTORE POP JUMP JUMPDEST PUSH0 PUSH2 0x12F2 PUSH1 0x16 DUP4 PUSH2 0x12AE JUMP JUMPDEST SWAP2 POP PUSH2 0x12FD DUP3 PUSH2 0x12BE JUMP JUMPDEST PUSH1 0x20 DUP3 ADD SWAP1 POP SWAP2 SWAP1 POP JUMP JUMPDEST PUSH0 PUSH1 0x20 DUP3 ADD SWAP1 POP DUP2 DUP2 SUB PUSH0 DUP4 ADD MSTORE PUSH2 0x131F DUP2 PUSH2 0x12E6 JUMP JUMPDEST SWAP1 POP SWAP2 SWAP1 POP JUMP JUMPDEST PUSH0 PUSH2 0x1330 DUP3 PUSH2 0xFE9 JUMP JUMPDEST SWAP2 POP PUSH2 0x133B DUP4 PUSH2 0xFE9 JUMP JUMPDEST SWAP3 POP DUP3 DUP3 SUB SWAP1 POP DUP2 DUP2 GT ISZERO PUSH2 0x1353 JUMPI PUSH2 0x1352 PUSH2 0x11E3 JUMP JUMPDEST JUMPDEST SWAP3 SWAP2 POP POP JUMP JUMPDEST PUSH0 PUSH1 0x40 DUP3 ADD SWAP1 POP PUSH2 0x136C PUSH0 DUP4 ADD DUP6 PUSH2 0x117C JUMP JUMPDEST PUSH2 0x1379 PUSH1 0x20 DUP4 ADD DUP5 PUSH2 0xFF2 JUMP JUMPDEST SWAP4 SWAP3 POP POP POP JUMP JUMPDEST PUSH0 DUP2 ISZERO ISZERO SWAP1 POP SWAP2 SWAP1 POP JUMP JUMPDEST PUSH2 0x1394 DUP2 PUSH2 0x1380 JUMP JUMPDEST DUP2 EQ PUSH2 0x139E JUMPI PUSH0 DUP1 REVERT JUMPDEST POP JUMP JUMPDEST PUSH0 DUP2 MLOAD SWAP1 POP PUSH2 0x13AF DUP2 PUSH2 0x138B JUMP JUMPDEST SWAP3 SWAP2 POP POP JUMP JUMPDEST PUSH0 PUSH1 0x20 DUP3 DUP5 SUB SLT ISZERO PUSH2 0x13CA JUMPI PUSH2 0x13C9 PUSH2 0x101A JUMP JUMPDEST JUMPDEST PUSH0 PUSH2 0x13D7 DUP5 DUP3 DUP6 ADD PUSH2 0x13A1 JUMP JUMPDEST SWAP2 POP POP SWAP3 SWAP2 POP POP JUMP JUMPDEST PUSH0 PUSH1 0x60 DUP3 ADD SWAP1 POP PUSH2 0x13F3 PUSH0 DUP4 ADD DUP7 PUSH2 0x117C JUMP JUMPDEST PUSH2 0x1400 PUSH1 0x20 DUP4 ADD DUP6 PUSH2 0x117C JUMP JUMPDEST PUSH2 0x140D PUSH1 0x40 DUP4 ADD DUP5 PUSH2 0xFF2 JUMP JUMPDEST SWAP5 SWAP4 POP POP POP POP JUMP JUMPDEST PUSH32 0x6479202F20647820213D2079202F207800000000000000000000000000000000 PUSH0 DUP3 ADD MSTORE POP JUMP JUMPDEST PUSH0 PUSH2 0x1449 PUSH1 0x10 DUP4 PUSH2 0x12AE JUMP JUMPDEST SWAP2 POP PUSH2 0x1454 DUP3 PUSH2 0x1415 JUMP JUMPDEST PUSH1 0x20 DUP3 ADD SWAP1 POP SWAP2 SWAP1 POP JUMP JUMPDEST PUSH0 PUSH1 0x20 DUP3 ADD SWAP1 POP DUP2 DUP2 SUB PUSH0 DUP4 ADD MSTORE PUSH2 0x1476 DUP2 PUSH2 0x143D JUMP JUMPDEST SWAP1 POP SWAP2 SWAP1 POP JUMP JUMPDEST PUSH32 0x736861726573203D203000000000000000000000000000000000000000000000 PUSH0 DUP3 ADD MSTORE POP JUMP JUMPDEST PUSH0 PUSH2 0x14B1 PUSH1 0xA DUP4 PUSH2 0x12AE JUMP JUMPDEST SWAP2 POP PUSH2 0x14BC DUP3 PUSH2 0x147D JUMP JUMPDEST PUSH1 0x20 DUP3 ADD SWAP1 POP SWAP2 SWAP1 POP JUMP JUMPDEST PUSH0 PUSH1 0x20 DUP3 ADD SWAP1 POP DUP2 DUP2 SUB PUSH0 DUP4 ADD MSTORE PUSH2 0x14DE DUP2 PUSH2 0x14A5 JUMP JUMPDEST SWAP1 POP SWAP2 SWAP1 POP JUMP JUMPDEST PUSH32 0x496E76616C696420746F6B656E00000000000000000000000000000000000000 PUSH0 DUP3 ADD MSTORE POP JUMP JUMPDEST PUSH0 PUSH2 0x1519 PUSH1 0xD DUP4 PUSH2 0x12AE JUMP JUMPDEST SWAP2 POP PUSH2 0x1524 DUP3 PUSH2 0x14E5 JUMP JUMPDEST PUSH1 0x20 DUP3 ADD SWAP1 POP SWAP2 SWAP1 POP JUMP JUMPDEST PUSH0 PUSH1 0x20 DUP3 ADD SWAP1 POP DUP2 DUP2 SUB PUSH0 DUP4 ADD MSTORE PUSH2 0x1546 DUP2 PUSH2 0x150D JUMP JUMPDEST SWAP1 POP SWAP2 SWAP1 POP JUMP JUMPDEST PUSH32 0x416D6F756E7420696E203D203000000000000000000000000000000000000000 PUSH0 DUP3 ADD MSTORE POP JUMP JUMPDEST PUSH0 PUSH2 0x1581 PUSH1 0xD DUP4 PUSH2 0x12AE JUMP JUMPDEST SWAP2 POP PUSH2 0x158C DUP3 PUSH2 0x154D JUMP JUMPDEST PUSH1 0x20 DUP3 ADD SWAP1 POP SWAP2 SWAP1 POP JUMP JUMPDEST PUSH0 PUSH1 0x20 DUP3 ADD SWAP1 POP DUP2 DUP2 SUB PUSH0 DUP4 ADD MSTORE PUSH2 0x15AE DUP2 PUSH2 0x1575 JUMP JUMPDEST SWAP1 POP SWAP2 SWAP1 POP JUMP JUMPDEST PUSH0 PUSH2 0x15BF DUP3 PUSH2 0xFE9 JUMP JUMPDEST SWAP2 POP PUSH2 0x15CA DUP4 PUSH2 0xFE9 JUMP JUMPDEST SWAP3 POP DUP3 DUP3 ADD SWAP1 POP DUP1 DUP3 GT ISZERO PUSH2 0x15E2 JUMPI PUSH2 0x15E1 PUSH2 0x11E3 JUMP JUMPDEST JUMPDEST SWAP3 SWAP2 POP POP JUMP INVALID LOG2 PUSH5 0x6970667358 0x22 SLT KECCAK256 JUMP PUSH3 0x18C5AD PUSH21 0xE5DFC8027B62F7681DBE0000FE1DB6FC763077B6A LT OR MOD 0xA9 JUMPI PUSH5 0x736F6C6343 STOP ADDMOD NOT STOP CALLER "
				},
				"gasEstimates": {
					"creation": {
						"codeDepositCost": "1132400",
						"executionCost": "infinite",
						"totalCost": "infinite"
					},
					"external": {
						"addLiquidity(uint256,uint256)": "infinite",
						"balanceOf(address)": "2802",
						"removeLiquidity(uint256)": "infinite",
						"reserve0()": "2469",
						"reserve1()": "2492",
						"swap(address,uint256)": "infinite",
						"token0()": "infinite",
						"token1()": "infinite",
						"totalSupply()": "2448"
					},
					"internal": {
						"_burn(address,uint256)": "infinite",
						"_mint(address,uint256)": "infinite",
						"_sqrt(uint256)": "infinite",
						"_update(uint256,uint256)": "44240"
					}
				},
				"methodIdentifiers": {
					"addLiquidity(uint256,uint256)": "9cd441da",
					"balanceOf(address)": "70a08231",
					"removeLiquidity(uint256)": "9c8f9f23",
					"reserve0()": "443cb4bc",
					"reserve1()": "5a76f25e",
					"swap(address,uint256)": "d004f0f7",
					"token0()": "0dfe1681",
					"token1()": "d21220a7",
					"totalSupply()": "18160ddd"
				}
			},
			"storageLayout": {
				"storage": [
					{
						"astId": 10,
						"contract": "contracts/CPAMM.sol:CPAMM",
						"label": "reserve0",
						"offset": 0,
						"slot": "0",
						"type": "t_uint256"
					},
					{
						"astId": 12,
						"contract": "contracts/CPAMM.sol:CPAMM",
						"label": "reserve1",
						"offset": 0,
						"slot": "1",
						"type": "t_uint256"
					},
					{
						"astId": 14,
						"contract": "contracts/CPAMM.sol:CPAMM",
						"label": "totalSupply",
						"offset": 0,
						"slot": "2",
						"type": "t_uint256"
					},
					{
						"astId": 18,
						"contract": "contracts/CPAMM.sol:CPAMM",
						"label": "balanceOf",
						"offset": 0,
						"slot": "3",
						"type": "t_mapping(t_address,t_uint256)"
					}
				],
				"types": {
					"t_address": {
						"encoding": "inplace",
						"label": "address",
						"numberOfBytes": "20"
					},
					"t_mapping(t_address,t_uint256)": {
						"encoding": "mapping",
						"key": "t_address",
						"label": "mapping(address => uint256)",
						"numberOfBytes": "32",
						"value": "t_uint256"
					},
					"t_uint256": {
						"encoding": "inplace",
						"label": "uint256",
						"numberOfBytes": "32"
					}
				}
			},
			"userdoc": {
				"kind": "user",
				"methods": {},
				"version": 1
			}
		}
	}
}