{
	"contracts/Sign.sol": {
		"VerifySig": {
			"abi": [
				{
					"inputs": [
						{
							"internalType": "bytes32",
							"name": "_messageHash",
							"type": "bytes32"
						}
					],
					"name": "getEthSignedMessageHash",
					"outputs": [
						{
							"internalType": "bytes32",
							"name": "",
							"type": "bytes32"
						}
					],
					"stateMutability": "pure",
					"type": "function"
				},
				{
					"inputs": [
						{
							"internalType": "string",
							"name": "_message",
							"type": "string"
						}
					],
					"name": "getMessageHash",
					"outputs": [
						{
							"internalType": "bytes32",
							"name": "",
							"type": "bytes32"
						}
					],
					"stateMutability": "pure",
					"type": "function"
				},
				{
					"inputs": [
						{
							"internalType": "bytes32",
							"name": "_ethSignedMessageHash",
							"type": "bytes32"
						},
						{
							"internalType": "bytes",
							"name": "_sig",
							"type": "bytes"
						}
					],
					"name": "recover",
					"outputs": [
						{
							"internalType": "address",
							"name": "",
							"type": "address"
						}
					],
					"stateMutability": "pure",
					"type": "function"
				},
				{
					"inputs": [
						{
							"internalType": "address",
							"name": "_signer",
							"type": "address"
						},
						{
							"internalType": "string",
							"name": "_message",
							"type": "string"
						},
						{
							"internalType": "bytes",
							"name": "_sig",
							"type": "bytes"
						}
					],
					"name": "verify",
					"outputs": [
						{
							"internalType": "bool",
							"name": "",
							"type": "bool"
						}
					],
					"stateMutability": "pure",
					"type": "function"
				}
			],
			"devdoc": {
				"kind": "dev",
				"methods": {},
				"version": 1
			},
			"evm": {
				"assembly": "    /* \"contracts/Sign.sol\":205:1325  contract VerifySig {... */\n  mstore(0x40, 0x80)\n  callvalue\n  dup1\n  iszero\n  tag_1\n  jumpi\n  0x00\n  dup1\n  revert\ntag_1:\n  pop\n  dataSize(sub_0)\n  dup1\n  dataOffset(sub_0)\n  0x00\n  codecopy\n  0x00\n  return\nstop\n\nsub_0: assembly {\n        /* \"contracts/Sign.sol\":205:1325  contract VerifySig {... */\n      mstore(0x40, 0x80)\n      callvalue\n      dup1\n      iszero\n      tag_1\n      jumpi\n      0x00\n      dup1\n      revert\n    tag_1:\n      pop\n      jumpi(tag_2, lt(calldatasize, 0x04))\n      shr(0xe0, calldataload(0x00))\n      dup1\n      0x19045a25\n      eq\n      tag_3\n      jumpi\n      dup1\n      0x2dd34f0f\n      eq\n      tag_4\n      jumpi\n      dup1\n      0xb446f3b2\n      eq\n      tag_5\n      jumpi\n      dup1\n      0xfa540801\n      eq\n      tag_6\n      jumpi\n    tag_2:\n      0x00\n      dup1\n      revert\n        /* \"contracts/Sign.sol\":812:1020  function recover(bytes32 _ethSignedMessageHash, bytes memory _sig) public pure returns (address) {... */\n    tag_3:\n      tag_7\n      0x04\n      dup1\n      calldatasize\n      sub\n      dup2\n      add\n      swap1\n      tag_8\n      swap2\n      swap1\n      tag_9\n      jump\t// in\n    tag_8:\n      tag_10\n      jump\t// in\n    tag_7:\n      mload(0x40)\n      tag_11\n      swap2\n      swap1\n      tag_12\n      jump\t// in\n    tag_11:\n      mload(0x40)\n      dup1\n      swap2\n      sub\n      swap1\n      return\n        /* \"contracts/Sign.sol\":228:523  function verify(address _signer, string memory _message, bytes memory _sig) external pure returns (bool) {... */\n    tag_4:\n      tag_13\n      0x04\n      dup1\n      calldatasize\n      sub\n      dup2\n      add\n      swap1\n      tag_14\n      swap2\n      swap1\n      tag_15\n      jump\t// in\n    tag_14:\n      tag_16\n      jump\t// in\n    tag_13:\n      mload(0x40)\n      tag_17\n      swap2\n      swap1\n      tag_18\n      jump\t// in\n    tag_17:\n      mload(0x40)\n      dup1\n      swap2\n      sub\n      swap1\n      return\n        /* \"contracts/Sign.sol\":527:660  function getMessageHash(string memory _message) public pure returns (bytes32) {... */\n    tag_5:\n      tag_19\n      0x04\n      dup1\n      calldatasize\n      sub\n      dup2\n      add\n      swap1\n      tag_20\n      swap2\n      swap1\n      tag_21\n      jump\t// in\n    tag_20:\n      tag_22\n      jump\t// in\n    tag_19:\n      mload(0x40)\n      tag_23\n      swap2\n      swap1\n      tag_24\n      jump\t// in\n    tag_23:\n      mload(0x40)\n      dup1\n      swap2\n      sub\n      swap1\n      return\n        /* \"contracts/Sign.sol\":664:808  function getEthSignedMessageHash(bytes32 _messageHash) public pure returns (bytes32) {... */\n    tag_6:\n      tag_25\n      0x04\n      dup1\n      calldatasize\n      sub\n      dup2\n      add\n      swap1\n      tag_26\n      swap2\n      swap1\n      tag_27\n      jump\t// in\n    tag_26:\n      tag_28\n      jump\t// in\n    tag_25:\n      mload(0x40)\n      tag_29\n      swap2\n      swap1\n      tag_24\n      jump\t// in\n    tag_29:\n      mload(0x40)\n      dup1\n      swap2\n      sub\n      swap1\n      return\n        /* \"contracts/Sign.sol\":812:1020  function recover(bytes32 _ethSignedMessageHash, bytes memory _sig) public pure returns (address) {... */\n    tag_10:\n        /* \"contracts/Sign.sol\":900:907  address */\n      0x00\n        /* \"contracts/Sign.sol\":916:925  bytes32 r */\n      dup1\n        /* \"contracts/Sign.sol\":927:936  bytes32 s */\n      0x00\n        /* \"contracts/Sign.sol\":938:945  uint8 v */\n      dup1\n        /* \"contracts/Sign.sol\":949:961  _split(_sig) */\n      tag_31\n        /* \"contracts/Sign.sol\":956:960  _sig */\n      dup6\n        /* \"contracts/Sign.sol\":949:955  _split */\n      tag_32\n        /* \"contracts/Sign.sol\":949:961  _split(_sig) */\n      jump\t// in\n    tag_31:\n        /* \"contracts/Sign.sol\":915:961  (bytes32 r, bytes32 s, uint8 v) = _split(_sig) */\n      swap3\n      pop\n      swap3\n      pop\n      swap3\n      pop\n        /* \"contracts/Sign.sol\":974:1015  ecrecover(_ethSignedMessageHash, v, r, s) */\n      0x01\n        /* \"contracts/Sign.sol\":984:1005  _ethSignedMessageHash */\n      dup7\n        /* \"contracts/Sign.sol\":1007:1008  v */\n      dup3\n        /* \"contracts/Sign.sol\":1010:1011  r */\n      dup6\n        /* \"contracts/Sign.sol\":1013:1014  s */\n      dup6\n        /* \"contracts/Sign.sol\":974:1015  ecrecover(_ethSignedMessageHash, v, r, s) */\n      mload(0x40)\n      0x00\n      dup2\n      mstore\n      0x20\n      add\n      0x40\n      mstore\n      mload(0x40)\n      tag_33\n      swap5\n      swap4\n      swap3\n      swap2\n      swap1\n      tag_34\n      jump\t// in\n    tag_33:\n      0x20\n      mload(0x40)\n      0x20\n      dup2\n      sub\n      swap1\n      dup1\n      dup5\n      sub\n      swap1\n      dup6\n      gas\n      staticcall\n      iszero\n      dup1\n      iszero\n      tag_36\n      jumpi\n      returndatasize\n      0x00\n      dup1\n      returndatacopy\n      revert(0x00, returndatasize)\n    tag_36:\n      pop\n      pop\n      pop\n      mload(sub(mload(0x40), 0x20))\n        /* \"contracts/Sign.sol\":967:1015  return ecrecover(_ethSignedMessageHash, v, r, s) */\n      swap4\n      pop\n      pop\n      pop\n      pop\n        /* \"contracts/Sign.sol\":812:1020  function recover(bytes32 _ethSignedMessageHash, bytes memory _sig) public pure returns (address) {... */\n      swap3\n      swap2\n      pop\n      pop\n      jump\t// out\n        /* \"contracts/Sign.sol\":228:523  function verify(address _signer, string memory _message, bytes memory _sig) external pure returns (bool) {... */\n    tag_16:\n        /* \"contracts/Sign.sol\":327:331  bool */\n      0x00\n        /* \"contracts/Sign.sol\":339:358  bytes32 messageHash */\n      dup1\n        /* \"contracts/Sign.sol\":361:385  getMessageHash(_message) */\n      tag_38\n        /* \"contracts/Sign.sol\":376:384  _message */\n      dup5\n        /* \"contracts/Sign.sol\":361:375  getMessageHash */\n      tag_22\n        /* \"contracts/Sign.sol\":361:385  getMessageHash(_message) */\n      jump\t// in\n    tag_38:\n        /* \"contracts/Sign.sol\":339:385  bytes32 messageHash = getMessageHash(_message) */\n      swap1\n      pop\n        /* \"contracts/Sign.sol\":391:419  bytes32 ethSignedMessageHash */\n      0x00\n        /* \"contracts/Sign.sol\":422:458  getEthSignedMessageHash(messageHash) */\n      tag_39\n        /* \"contracts/Sign.sol\":446:457  messageHash */\n      dup3\n        /* \"contracts/Sign.sol\":422:445  getEthSignedMessageHash */\n      tag_28\n        /* \"contracts/Sign.sol\":422:458  getEthSignedMessageHash(messageHash) */\n      jump\t// in\n    tag_39:\n        /* \"contracts/Sign.sol\":391:458  bytes32 ethSignedMessageHash = getEthSignedMessageHash(messageHash) */\n      swap1\n      pop\n        /* \"contracts/Sign.sol\":511:518  _signer */\n      dup6\n        /* \"contracts/Sign.sol\":472:518  recover(ethSignedMessageHash, _sig) == _signer */\n      0xffffffffffffffffffffffffffffffffffffffff\n      and\n        /* \"contracts/Sign.sol\":472:507  recover(ethSignedMessageHash, _sig) */\n      tag_40\n        /* \"contracts/Sign.sol\":480:500  ethSignedMessageHash */\n      dup3\n        /* \"contracts/Sign.sol\":502:506  _sig */\n      dup7\n        /* \"contracts/Sign.sol\":472:479  recover */\n      tag_10\n        /* \"contracts/Sign.sol\":472:507  recover(ethSignedMessageHash, _sig) */\n      jump\t// in\n    tag_40:\n        /* \"contracts/Sign.sol\":472:518  recover(ethSignedMessageHash, _sig) == _signer */\n      0xffffffffffffffffffffffffffffffffffffffff\n      and\n      eq\n        /* \"contracts/Sign.sol\":465:518  return recover(ethSignedMessageHash, _sig) == _signer */\n      swap3\n      pop\n      pop\n      pop\n        /* \"contracts/Sign.sol\":228:523  function verify(address _signer, string memory _message, bytes memory _sig) external pure returns (bool) {... */\n      swap4\n      swap3\n      pop\n      pop\n      pop\n      jump\t// out\n        /* \"contracts/Sign.sol\":527:660  function getMessageHash(string memory _message) public pure returns (bytes32) {... */\n    tag_22:\n        /* \"contracts/Sign.sol\":596:603  bytes32 */\n      0x00\n        /* \"contracts/Sign.sol\":645:653  _message */\n      dup2\n        /* \"contracts/Sign.sol\":628:654  abi.encodePacked(_message) */\n      add(0x20, mload(0x40))\n      tag_42\n      swap2\n      swap1\n      tag_43\n      jump\t// in\n    tag_42:\n      mload(0x40)\n      0x20\n      dup2\n      dup4\n      sub\n      sub\n      dup2\n      mstore\n      swap1\n      0x40\n      mstore\n        /* \"contracts/Sign.sol\":618:655  keccak256(abi.encodePacked(_message)) */\n      dup1\n      mload\n      swap1\n      0x20\n      add\n      keccak256\n        /* \"contracts/Sign.sol\":611:655  return keccak256(abi.encodePacked(_message)) */\n      swap1\n      pop\n        /* \"contracts/Sign.sol\":527:660  function getMessageHash(string memory _message) public pure returns (bytes32) {... */\n      swap2\n      swap1\n      pop\n      jump\t// out\n        /* \"contracts/Sign.sol\":664:808  function getEthSignedMessageHash(bytes32 _messageHash) public pure returns (bytes32) {... */\n    tag_28:\n        /* \"contracts/Sign.sol\":740:747  bytes32 */\n      0x00\n        /* \"contracts/Sign.sol\":789:801  _messageHash */\n      dup2\n        /* \"contracts/Sign.sol\":772:802  abi.encodePacked(_messageHash) */\n      add(0x20, mload(0x40))\n      tag_45\n      swap2\n      swap1\n      tag_46\n      jump\t// in\n    tag_45:\n      mload(0x40)\n      0x20\n      dup2\n      dup4\n      sub\n      sub\n      dup2\n      mstore\n      swap1\n      0x40\n      mstore\n        /* \"contracts/Sign.sol\":762:803  keccak256(abi.encodePacked(_messageHash)) */\n      dup1\n      mload\n      swap1\n      0x20\n      add\n      keccak256\n        /* \"contracts/Sign.sol\":755:803  return keccak256(abi.encodePacked(_messageHash)) */\n      swap1\n      pop\n        /* \"contracts/Sign.sol\":664:808  function getEthSignedMessageHash(bytes32 _messageHash) public pure returns (bytes32) {... */\n      swap2\n      swap1\n      pop\n      jump\t// out\n        /* \"contracts/Sign.sol\":1024:1323  function _split(bytes memory _sig) internal pure returns (bytes32 r, bytes32 s, uint8 v) {... */\n    tag_32:\n        /* \"contracts/Sign.sol\":1082:1091  bytes32 r */\n      0x00\n        /* \"contracts/Sign.sol\":1093:1102  bytes32 s */\n      dup1\n        /* \"contracts/Sign.sol\":1104:1111  uint8 v */\n      0x00\n        /* \"contracts/Sign.sol\":1142:1144  65 */\n      0x41\n        /* \"contracts/Sign.sol\":1127:1131  _sig */\n      dup5\n        /* \"contracts/Sign.sol\":1127:1138  _sig.length */\n      mload\n        /* \"contracts/Sign.sol\":1127:1144  _sig.length == 65 */\n      eq\n        /* \"contracts/Sign.sol\":1119:1166  require(_sig.length == 65, \"Invalid signature\") */\n      tag_48\n      jumpi\n      mload(0x40)\n      0x08c379a000000000000000000000000000000000000000000000000000000000\n      dup2\n      mstore\n      0x04\n      add\n      tag_49\n      swap1\n      tag_50\n      jump\t// in\n    tag_49:\n      mload(0x40)\n      dup1\n      swap2\n      sub\n      swap1\n      revert\n    tag_48:\n        /* \"contracts/Sign.sol\":1211:1213  32 */\n      0x20\n        /* \"contracts/Sign.sol\":1205:1209  _sig */\n      dup5\n        /* \"contracts/Sign.sol\":1201:1214  add(_sig, 32) */\n      add\n        /* \"contracts/Sign.sol\":1195:1215  mload(add(_sig, 32)) */\n      mload\n        /* \"contracts/Sign.sol\":1190:1215  r := mload(add(_sig, 32)) */\n      swap3\n      pop\n        /* \"contracts/Sign.sol\":1243:1245  64 */\n      0x40\n        /* \"contracts/Sign.sol\":1237:1241  _sig */\n      dup5\n        /* \"contracts/Sign.sol\":1233:1246  add(_sig, 64) */\n      add\n        /* \"contracts/Sign.sol\":1227:1247  mload(add(_sig, 64)) */\n      mload\n        /* \"contracts/Sign.sol\":1222:1247  s := mload(add(_sig, 64)) */\n      swap2\n      pop\n        /* \"contracts/Sign.sol\":1283:1285  96 */\n      0x60\n        /* \"contracts/Sign.sol\":1277:1281  _sig */\n      dup5\n        /* \"contracts/Sign.sol\":1273:1286  add(_sig, 96) */\n      add\n        /* \"contracts/Sign.sol\":1267:1287  mload(add(_sig, 96)) */\n      mload\n        /* \"contracts/Sign.sol\":1264:1265  0 */\n      0x00\n        /* \"contracts/Sign.sol\":1259:1288  byte(0, mload(add(_sig, 96))) */\n      byte\n        /* \"contracts/Sign.sol\":1254:1288  v := byte(0, mload(add(_sig, 96))) */\n      swap1\n      pop\n        /* \"contracts/Sign.sol\":1024:1323  function _split(bytes memory _sig) internal pure returns (bytes32 r, bytes32 s, uint8 v) {... */\n      swap2\n      swap4\n      swap1\n      swap3\n      pop\n      jump\t// out\n        /* \"#utility.yul\":7:82   */\n    tag_51:\n        /* \"#utility.yul\":40:46   */\n      0x00\n        /* \"#utility.yul\":73:75   */\n      0x40\n        /* \"#utility.yul\":67:76   */\n      mload\n        /* \"#utility.yul\":57:76   */\n      swap1\n      pop\n        /* \"#utility.yul\":7:82   */\n      swap1\n      jump\t// out\n        /* \"#utility.yul\":88:205   */\n    tag_52:\n        /* \"#utility.yul\":197:198   */\n      0x00\n        /* \"#utility.yul\":194:195   */\n      dup1\n        /* \"#utility.yul\":187:199   */\n      revert\n        /* \"#utility.yul\":211:328   */\n    tag_53:\n        /* \"#utility.yul\":320:321   */\n      0x00\n        /* \"#utility.yul\":317:318   */\n      dup1\n        /* \"#utility.yul\":310:322   */\n      revert\n        /* \"#utility.yul\":334:411   */\n    tag_54:\n        /* \"#utility.yul\":371:378   */\n      0x00\n        /* \"#utility.yul\":400:405   */\n      dup2\n        /* \"#utility.yul\":389:405   */\n      swap1\n      pop\n        /* \"#utility.yul\":334:411   */\n      swap2\n      swap1\n      pop\n      jump\t// out\n        /* \"#utility.yul\":417:539   */\n    tag_55:\n        /* \"#utility.yul\":490:514   */\n      tag_95\n        /* \"#utility.yul\":508:513   */\n      dup2\n        /* \"#utility.yul\":490:514   */\n      tag_54\n      jump\t// in\n    tag_95:\n        /* \"#utility.yul\":483:488   */\n      dup2\n        /* \"#utility.yul\":480:515   */\n      eq\n        /* \"#utility.yul\":470:533   */\n      tag_96\n      jumpi\n        /* \"#utility.yul\":529:530   */\n      0x00\n        /* \"#utility.yul\":526:527   */\n      dup1\n        /* \"#utility.yul\":519:531   */\n      revert\n        /* \"#utility.yul\":470:533   */\n    tag_96:\n        /* \"#utility.yul\":417:539   */\n      pop\n      jump\t// out\n        /* \"#utility.yul\":545:684   */\n    tag_56:\n        /* \"#utility.yul\":591:596   */\n      0x00\n        /* \"#utility.yul\":629:635   */\n      dup2\n        /* \"#utility.yul\":616:636   */\n      calldataload\n        /* \"#utility.yul\":607:636   */\n      swap1\n      pop\n        /* \"#utility.yul\":645:678   */\n      tag_98\n        /* \"#utility.yul\":672:677   */\n      dup2\n        /* \"#utility.yul\":645:678   */\n      tag_55\n      jump\t// in\n    tag_98:\n        /* \"#utility.yul\":545:684   */\n      swap3\n      swap2\n      pop\n      pop\n      jump\t// out\n        /* \"#utility.yul\":690:807   */\n    tag_57:\n        /* \"#utility.yul\":799:800   */\n      0x00\n        /* \"#utility.yul\":796:797   */\n      dup1\n        /* \"#utility.yul\":789:801   */\n      revert\n        /* \"#utility.yul\":813:930   */\n    tag_58:\n        /* \"#utility.yul\":922:923   */\n      0x00\n        /* \"#utility.yul\":919:920   */\n      dup1\n        /* \"#utility.yul\":912:924   */\n      revert\n        /* \"#utility.yul\":936:1038   */\n    tag_59:\n        /* \"#utility.yul\":977:983   */\n      0x00\n        /* \"#utility.yul\":1028:1030   */\n      0x1f\n        /* \"#utility.yul\":1024:1031   */\n      not\n        /* \"#utility.yul\":1019:1021   */\n      0x1f\n        /* \"#utility.yul\":1012:1017   */\n      dup4\n        /* \"#utility.yul\":1008:1022   */\n      add\n        /* \"#utility.yul\":1004:1032   */\n      and\n        /* \"#utility.yul\":994:1032   */\n      swap1\n      pop\n        /* \"#utility.yul\":936:1038   */\n      swap2\n      swap1\n      pop\n      jump\t// out\n        /* \"#utility.yul\":1044:1224   */\n    tag_60:\n        /* \"#utility.yul\":1092:1169   */\n      0x4e487b7100000000000000000000000000000000000000000000000000000000\n        /* \"#utility.yul\":1089:1090   */\n      0x00\n        /* \"#utility.yul\":1082:1170   */\n      mstore\n        /* \"#utility.yul\":1189:1193   */\n      0x41\n        /* \"#utility.yul\":1186:1187   */\n      0x04\n        /* \"#utility.yul\":1179:1194   */\n      mstore\n        /* \"#utility.yul\":1213:1217   */\n      0x24\n        /* \"#utility.yul\":1210:1211   */\n      0x00\n        /* \"#utility.yul\":1203:1218   */\n      revert\n        /* \"#utility.yul\":1230:1511   */\n    tag_61:\n        /* \"#utility.yul\":1313:1340   */\n      tag_104\n        /* \"#utility.yul\":1335:1339   */\n      dup3\n        /* \"#utility.yul\":1313:1340   */\n      tag_59\n      jump\t// in\n    tag_104:\n        /* \"#utility.yul\":1305:1311   */\n      dup2\n        /* \"#utility.yul\":1301:1341   */\n      add\n        /* \"#utility.yul\":1443:1449   */\n      dup2\n        /* \"#utility.yul\":1431:1441   */\n      dup2\n        /* \"#utility.yul\":1428:1450   */\n      lt\n        /* \"#utility.yul\":1407:1425   */\n      0xffffffffffffffff\n        /* \"#utility.yul\":1395:1405   */\n      dup3\n        /* \"#utility.yul\":1392:1426   */\n      gt\n        /* \"#utility.yul\":1389:1451   */\n      or\n        /* \"#utility.yul\":1386:1474   */\n      iszero\n      tag_105\n      jumpi\n        /* \"#utility.yul\":1454:1472   */\n      tag_106\n      tag_60\n      jump\t// in\n    tag_106:\n        /* \"#utility.yul\":1386:1474   */\n    tag_105:\n        /* \"#utility.yul\":1494:1504   */\n      dup1\n        /* \"#utility.yul\":1490:1492   */\n      0x40\n        /* \"#utility.yul\":1483:1505   */\n      mstore\n        /* \"#utility.yul\":1273:1511   */\n      pop\n        /* \"#utility.yul\":1230:1511   */\n      pop\n      pop\n      jump\t// out\n        /* \"#utility.yul\":1517:1646   */\n    tag_62:\n        /* \"#utility.yul\":1551:1557   */\n      0x00\n        /* \"#utility.yul\":1578:1598   */\n      tag_108\n      tag_51\n      jump\t// in\n    tag_108:\n        /* \"#utility.yul\":1568:1598   */\n      swap1\n      pop\n        /* \"#utility.yul\":1607:1640   */\n      tag_109\n        /* \"#utility.yul\":1635:1639   */\n      dup3\n        /* \"#utility.yul\":1627:1633   */\n      dup3\n        /* \"#utility.yul\":1607:1640   */\n      tag_61\n      jump\t// in\n    tag_109:\n        /* \"#utility.yul\":1517:1646   */\n      swap2\n      swap1\n      pop\n      jump\t// out\n        /* \"#utility.yul\":1652:1959   */\n    tag_63:\n        /* \"#utility.yul\":1713:1717   */\n      0x00\n        /* \"#utility.yul\":1803:1821   */\n      0xffffffffffffffff\n        /* \"#utility.yul\":1795:1801   */\n      dup3\n        /* \"#utility.yul\":1792:1822   */\n      gt\n        /* \"#utility.yul\":1789:1845   */\n      iszero\n      tag_111\n      jumpi\n        /* \"#utility.yul\":1825:1843   */\n      tag_112\n      tag_60\n      jump\t// in\n    tag_112:\n        /* \"#utility.yul\":1789:1845   */\n    tag_111:\n        /* \"#utility.yul\":1863:1892   */\n      tag_113\n        /* \"#utility.yul\":1885:1891   */\n      dup3\n        /* \"#utility.yul\":1863:1892   */\n      tag_59\n      jump\t// in\n    tag_113:\n        /* \"#utility.yul\":1855:1892   */\n      swap1\n      pop\n        /* \"#utility.yul\":1947:1951   */\n      0x20\n        /* \"#utility.yul\":1941:1945   */\n      dup2\n        /* \"#utility.yul\":1937:1952   */\n      add\n        /* \"#utility.yul\":1929:1952   */\n      swap1\n      pop\n        /* \"#utility.yul\":1652:1959   */\n      swap2\n      swap1\n      pop\n      jump\t// out\n        /* \"#utility.yul\":1965:2113   */\n    tag_64:\n        /* \"#utility.yul\":2063:2069   */\n      dup3\n        /* \"#utility.yul\":2058:2061   */\n      dup2\n        /* \"#utility.yul\":2053:2056   */\n      dup4\n        /* \"#utility.yul\":2040:2070   */\n      calldatacopy\n        /* \"#utility.yul\":2104:2105   */\n      0x00\n        /* \"#utility.yul\":2095:2101   */\n      dup4\n        /* \"#utility.yul\":2090:2093   */\n      dup4\n        /* \"#utility.yul\":2086:2102   */\n      add\n        /* \"#utility.yul\":2079:2106   */\n      mstore\n        /* \"#utility.yul\":1965:2113   */\n      pop\n      pop\n      pop\n      jump\t// out\n        /* \"#utility.yul\":2119:2542   */\n    tag_65:\n        /* \"#utility.yul\":2196:2201   */\n      0x00\n        /* \"#utility.yul\":2221:2286   */\n      tag_116\n        /* \"#utility.yul\":2237:2285   */\n      tag_117\n        /* \"#utility.yul\":2278:2284   */\n      dup5\n        /* \"#utility.yul\":2237:2285   */\n      tag_63\n      jump\t// in\n    tag_117:\n        /* \"#utility.yul\":2221:2286   */\n      tag_62\n      jump\t// in\n    tag_116:\n        /* \"#utility.yul\":2212:2286   */\n      swap1\n      pop\n        /* \"#utility.yul\":2309:2315   */\n      dup3\n        /* \"#utility.yul\":2302:2307   */\n      dup2\n        /* \"#utility.yul\":2295:2316   */\n      mstore\n        /* \"#utility.yul\":2347:2351   */\n      0x20\n        /* \"#utility.yul\":2340:2345   */\n      dup2\n        /* \"#utility.yul\":2336:2352   */\n      add\n        /* \"#utility.yul\":2385:2388   */\n      dup5\n        /* \"#utility.yul\":2376:2382   */\n      dup5\n        /* \"#utility.yul\":2371:2374   */\n      dup5\n        /* \"#utility.yul\":2367:2383   */\n      add\n        /* \"#utility.yul\":2364:2389   */\n      gt\n        /* \"#utility.yul\":2361:2473   */\n      iszero\n      tag_118\n      jumpi\n        /* \"#utility.yul\":2392:2471   */\n      tag_119\n      tag_58\n      jump\t// in\n    tag_119:\n        /* \"#utility.yul\":2361:2473   */\n    tag_118:\n        /* \"#utility.yul\":2482:2536   */\n      tag_120\n        /* \"#utility.yul\":2529:2535   */\n      dup5\n        /* \"#utility.yul\":2524:2527   */\n      dup3\n        /* \"#utility.yul\":2519:2522   */\n      dup6\n        /* \"#utility.yul\":2482:2536   */\n      tag_64\n      jump\t// in\n    tag_120:\n        /* \"#utility.yul\":2202:2542   */\n      pop\n        /* \"#utility.yul\":2119:2542   */\n      swap4\n      swap3\n      pop\n      pop\n      pop\n      jump\t// out\n        /* \"#utility.yul\":2561:2899   */\n    tag_66:\n        /* \"#utility.yul\":2616:2621   */\n      0x00\n        /* \"#utility.yul\":2665:2668   */\n      dup3\n        /* \"#utility.yul\":2658:2662   */\n      0x1f\n        /* \"#utility.yul\":2650:2656   */\n      dup4\n        /* \"#utility.yul\":2646:2663   */\n      add\n        /* \"#utility.yul\":2642:2669   */\n      slt\n        /* \"#utility.yul\":2632:2754   */\n      tag_122\n      jumpi\n        /* \"#utility.yul\":2673:2752   */\n      tag_123\n      tag_57\n      jump\t// in\n    tag_123:\n        /* \"#utility.yul\":2632:2754   */\n    tag_122:\n        /* \"#utility.yul\":2790:2796   */\n      dup2\n        /* \"#utility.yul\":2777:2797   */\n      calldataload\n        /* \"#utility.yul\":2815:2893   */\n      tag_124\n        /* \"#utility.yul\":2889:2892   */\n      dup5\n        /* \"#utility.yul\":2881:2887   */\n      dup3\n        /* \"#utility.yul\":2874:2878   */\n      0x20\n        /* \"#utility.yul\":2866:2872   */\n      dup7\n        /* \"#utility.yul\":2862:2879   */\n      add\n        /* \"#utility.yul\":2815:2893   */\n      tag_65\n      jump\t// in\n    tag_124:\n        /* \"#utility.yul\":2806:2893   */\n      swap2\n      pop\n        /* \"#utility.yul\":2622:2899   */\n      pop\n        /* \"#utility.yul\":2561:2899   */\n      swap3\n      swap2\n      pop\n      pop\n      jump\t// out\n        /* \"#utility.yul\":2905:3557   */\n    tag_9:\n        /* \"#utility.yul\":2982:2988   */\n      0x00\n        /* \"#utility.yul\":2990:2996   */\n      dup1\n        /* \"#utility.yul\":3039:3041   */\n      0x40\n        /* \"#utility.yul\":3027:3036   */\n      dup4\n        /* \"#utility.yul\":3018:3025   */\n      dup6\n        /* \"#utility.yul\":3014:3037   */\n      sub\n        /* \"#utility.yul\":3010:3042   */\n      slt\n        /* \"#utility.yul\":3007:3126   */\n      iszero\n      tag_126\n      jumpi\n        /* \"#utility.yul\":3045:3124   */\n      tag_127\n      tag_52\n      jump\t// in\n    tag_127:\n        /* \"#utility.yul\":3007:3126   */\n    tag_126:\n        /* \"#utility.yul\":3165:3166   */\n      0x00\n        /* \"#utility.yul\":3190:3243   */\n      tag_128\n        /* \"#utility.yul\":3235:3242   */\n      dup6\n        /* \"#utility.yul\":3226:3232   */\n      dup3\n        /* \"#utility.yul\":3215:3224   */\n      dup7\n        /* \"#utility.yul\":3211:3233   */\n      add\n        /* \"#utility.yul\":3190:3243   */\n      tag_56\n      jump\t// in\n    tag_128:\n        /* \"#utility.yul\":3180:3243   */\n      swap3\n      pop\n        /* \"#utility.yul\":3136:3253   */\n      pop\n        /* \"#utility.yul\":3320:3322   */\n      0x20\n        /* \"#utility.yul\":3309:3318   */\n      dup4\n        /* \"#utility.yul\":3305:3323   */\n      add\n        /* \"#utility.yul\":3292:3324   */\n      calldataload\n        /* \"#utility.yul\":3351:3369   */\n      0xffffffffffffffff\n        /* \"#utility.yul\":3343:3349   */\n      dup2\n        /* \"#utility.yul\":3340:3370   */\n      gt\n        /* \"#utility.yul\":3337:3454   */\n      iszero\n      tag_129\n      jumpi\n        /* \"#utility.yul\":3373:3452   */\n      tag_130\n      tag_53\n      jump\t// in\n    tag_130:\n        /* \"#utility.yul\":3337:3454   */\n    tag_129:\n        /* \"#utility.yul\":3478:3540   */\n      tag_131\n        /* \"#utility.yul\":3532:3539   */\n      dup6\n        /* \"#utility.yul\":3523:3529   */\n      dup3\n        /* \"#utility.yul\":3512:3521   */\n      dup7\n        /* \"#utility.yul\":3508:3530   */\n      add\n        /* \"#utility.yul\":3478:3540   */\n      tag_66\n      jump\t// in\n    tag_131:\n        /* \"#utility.yul\":3468:3540   */\n      swap2\n      pop\n        /* \"#utility.yul\":3263:3550   */\n      pop\n        /* \"#utility.yul\":2905:3557   */\n      swap3\n      pop\n      swap3\n      swap1\n      pop\n      jump\t// out\n        /* \"#utility.yul\":3563:3689   */\n    tag_67:\n        /* \"#utility.yul\":3600:3607   */\n      0x00\n        /* \"#utility.yul\":3640:3682   */\n      0xffffffffffffffffffffffffffffffffffffffff\n        /* \"#utility.yul\":3633:3638   */\n      dup3\n        /* \"#utility.yul\":3629:3683   */\n      and\n        /* \"#utility.yul\":3618:3683   */\n      swap1\n      pop\n        /* \"#utility.yul\":3563:3689   */\n      swap2\n      swap1\n      pop\n      jump\t// out\n        /* \"#utility.yul\":3695:3791   */\n    tag_68:\n        /* \"#utility.yul\":3732:3739   */\n      0x00\n        /* \"#utility.yul\":3761:3785   */\n      tag_134\n        /* \"#utility.yul\":3779:3784   */\n      dup3\n        /* \"#utility.yul\":3761:3785   */\n      tag_67\n      jump\t// in\n    tag_134:\n        /* \"#utility.yul\":3750:3785   */\n      swap1\n      pop\n        /* \"#utility.yul\":3695:3791   */\n      swap2\n      swap1\n      pop\n      jump\t// out\n        /* \"#utility.yul\":3797:3915   */\n    tag_69:\n        /* \"#utility.yul\":3884:3908   */\n      tag_136\n        /* \"#utility.yul\":3902:3907   */\n      dup2\n        /* \"#utility.yul\":3884:3908   */\n      tag_68\n      jump\t// in\n    tag_136:\n        /* \"#utility.yul\":3879:3882   */\n      dup3\n        /* \"#utility.yul\":3872:3909   */\n      mstore\n        /* \"#utility.yul\":3797:3915   */\n      pop\n      pop\n      jump\t// out\n        /* \"#utility.yul\":3921:4143   */\n    tag_12:\n        /* \"#utility.yul\":4014:4018   */\n      0x00\n        /* \"#utility.yul\":4052:4054   */\n      0x20\n        /* \"#utility.yul\":4041:4050   */\n      dup3\n        /* \"#utility.yul\":4037:4055   */\n      add\n        /* \"#utility.yul\":4029:4055   */\n      swap1\n      pop\n        /* \"#utility.yul\":4065:4136   */\n      tag_138\n        /* \"#utility.yul\":4133:4134   */\n      0x00\n        /* \"#utility.yul\":4122:4131   */\n      dup4\n        /* \"#utility.yul\":4118:4135   */\n      add\n        /* \"#utility.yul\":4109:4115   */\n      dup5\n        /* \"#utility.yul\":4065:4136   */\n      tag_69\n      jump\t// in\n    tag_138:\n        /* \"#utility.yul\":3921:4143   */\n      swap3\n      swap2\n      pop\n      pop\n      jump\t// out\n        /* \"#utility.yul\":4149:4271   */\n    tag_70:\n        /* \"#utility.yul\":4222:4246   */\n      tag_140\n        /* \"#utility.yul\":4240:4245   */\n      dup2\n        /* \"#utility.yul\":4222:4246   */\n      tag_68\n      jump\t// in\n    tag_140:\n        /* \"#utility.yul\":4215:4220   */\n      dup2\n        /* \"#utility.yul\":4212:4247   */\n      eq\n        /* \"#utility.yul\":4202:4265   */\n      tag_141\n      jumpi\n        /* \"#utility.yul\":4261:4262   */\n      0x00\n        /* \"#utility.yul\":4258:4259   */\n      dup1\n        /* \"#utility.yul\":4251:4263   */\n      revert\n        /* \"#utility.yul\":4202:4265   */\n    tag_141:\n        /* \"#utility.yul\":4149:4271   */\n      pop\n      jump\t// out\n        /* \"#utility.yul\":4277:4416   */\n    tag_71:\n        /* \"#utility.yul\":4323:4328   */\n      0x00\n        /* \"#utility.yul\":4361:4367   */\n      dup2\n        /* \"#utility.yul\":4348:4368   */\n      calldataload\n        /* \"#utility.yul\":4339:4368   */\n      swap1\n      pop\n        /* \"#utility.yul\":4377:4410   */\n      tag_143\n        /* \"#utility.yul\":4404:4409   */\n      dup2\n        /* \"#utility.yul\":4377:4410   */\n      tag_70\n      jump\t// in\n    tag_143:\n        /* \"#utility.yul\":4277:4416   */\n      swap3\n      swap2\n      pop\n      pop\n      jump\t// out\n        /* \"#utility.yul\":4422:4730   */\n    tag_72:\n        /* \"#utility.yul\":4484:4488   */\n      0x00\n        /* \"#utility.yul\":4574:4592   */\n      0xffffffffffffffff\n        /* \"#utility.yul\":4566:4572   */\n      dup3\n        /* \"#utility.yul\":4563:4593   */\n      gt\n        /* \"#utility.yul\":4560:4616   */\n      iszero\n      tag_145\n      jumpi\n        /* \"#utility.yul\":4596:4614   */\n      tag_146\n      tag_60\n      jump\t// in\n    tag_146:\n        /* \"#utility.yul\":4560:4616   */\n    tag_145:\n        /* \"#utility.yul\":4634:4663   */\n      tag_147\n        /* \"#utility.yul\":4656:4662   */\n      dup3\n        /* \"#utility.yul\":4634:4663   */\n      tag_59\n      jump\t// in\n    tag_147:\n        /* \"#utility.yul\":4626:4663   */\n      swap1\n      pop\n        /* \"#utility.yul\":4718:4722   */\n      0x20\n        /* \"#utility.yul\":4712:4716   */\n      dup2\n        /* \"#utility.yul\":4708:4723   */\n      add\n        /* \"#utility.yul\":4700:4723   */\n      swap1\n      pop\n        /* \"#utility.yul\":4422:4730   */\n      swap2\n      swap1\n      pop\n      jump\t// out\n        /* \"#utility.yul\":4736:5161   */\n    tag_73:\n        /* \"#utility.yul\":4814:4819   */\n      0x00\n        /* \"#utility.yul\":4839:4905   */\n      tag_149\n        /* \"#utility.yul\":4855:4904   */\n      tag_150\n        /* \"#utility.yul\":4897:4903   */\n      dup5\n        /* \"#utility.yul\":4855:4904   */\n      tag_72\n      jump\t// in\n    tag_150:\n        /* \"#utility.yul\":4839:4905   */\n      tag_62\n      jump\t// in\n    tag_149:\n        /* \"#utility.yul\":4830:4905   */\n      swap1\n      pop\n        /* \"#utility.yul\":4928:4934   */\n      dup3\n        /* \"#utility.yul\":4921:4926   */\n      dup2\n        /* \"#utility.yul\":4914:4935   */\n      mstore\n        /* \"#utility.yul\":4966:4970   */\n      0x20\n        /* \"#utility.yul\":4959:4964   */\n      dup2\n        /* \"#utility.yul\":4955:4971   */\n      add\n        /* \"#utility.yul\":5004:5007   */\n      dup5\n        /* \"#utility.yul\":4995:5001   */\n      dup5\n        /* \"#utility.yul\":4990:4993   */\n      dup5\n        /* \"#utility.yul\":4986:5002   */\n      add\n        /* \"#utility.yul\":4983:5008   */\n      gt\n        /* \"#utility.yul\":4980:5092   */\n      iszero\n      tag_151\n      jumpi\n        /* \"#utility.yul\":5011:5090   */\n      tag_152\n      tag_58\n      jump\t// in\n    tag_152:\n        /* \"#utility.yul\":4980:5092   */\n    tag_151:\n        /* \"#utility.yul\":5101:5155   */\n      tag_153\n        /* \"#utility.yul\":5148:5154   */\n      dup5\n        /* \"#utility.yul\":5143:5146   */\n      dup3\n        /* \"#utility.yul\":5138:5141   */\n      dup6\n        /* \"#utility.yul\":5101:5155   */\n      tag_64\n      jump\t// in\n    tag_153:\n        /* \"#utility.yul\":4820:5161   */\n      pop\n        /* \"#utility.yul\":4736:5161   */\n      swap4\n      swap3\n      pop\n      pop\n      pop\n      jump\t// out\n        /* \"#utility.yul\":5181:5521   */\n    tag_74:\n        /* \"#utility.yul\":5237:5242   */\n      0x00\n        /* \"#utility.yul\":5286:5289   */\n      dup3\n        /* \"#utility.yul\":5279:5283   */\n      0x1f\n        /* \"#utility.yul\":5271:5277   */\n      dup4\n        /* \"#utility.yul\":5267:5284   */\n      add\n        /* \"#utility.yul\":5263:5290   */\n      slt\n        /* \"#utility.yul\":5253:5375   */\n      tag_155\n      jumpi\n        /* \"#utility.yul\":5294:5373   */\n      tag_156\n      tag_57\n      jump\t// in\n    tag_156:\n        /* \"#utility.yul\":5253:5375   */\n    tag_155:\n        /* \"#utility.yul\":5411:5417   */\n      dup2\n        /* \"#utility.yul\":5398:5418   */\n      calldataload\n        /* \"#utility.yul\":5436:5515   */\n      tag_157\n        /* \"#utility.yul\":5511:5514   */\n      dup5\n        /* \"#utility.yul\":5503:5509   */\n      dup3\n        /* \"#utility.yul\":5496:5500   */\n      0x20\n        /* \"#utility.yul\":5488:5494   */\n      dup7\n        /* \"#utility.yul\":5484:5501   */\n      add\n        /* \"#utility.yul\":5436:5515   */\n      tag_73\n      jump\t// in\n    tag_157:\n        /* \"#utility.yul\":5427:5515   */\n      swap2\n      pop\n        /* \"#utility.yul\":5243:5521   */\n      pop\n        /* \"#utility.yul\":5181:5521   */\n      swap3\n      swap2\n      pop\n      pop\n      jump\t// out\n        /* \"#utility.yul\":5527:6504   */\n    tag_15:\n        /* \"#utility.yul\":5623:5629   */\n      0x00\n        /* \"#utility.yul\":5631:5637   */\n      dup1\n        /* \"#utility.yul\":5639:5645   */\n      0x00\n        /* \"#utility.yul\":5688:5690   */\n      0x60\n        /* \"#utility.yul\":5676:5685   */\n      dup5\n        /* \"#utility.yul\":5667:5674   */\n      dup7\n        /* \"#utility.yul\":5663:5686   */\n      sub\n        /* \"#utility.yul\":5659:5691   */\n      slt\n        /* \"#utility.yul\":5656:5775   */\n      iszero\n      tag_159\n      jumpi\n        /* \"#utility.yul\":5694:5773   */\n      tag_160\n      tag_52\n      jump\t// in\n    tag_160:\n        /* \"#utility.yul\":5656:5775   */\n    tag_159:\n        /* \"#utility.yul\":5814:5815   */\n      0x00\n        /* \"#utility.yul\":5839:5892   */\n      tag_161\n        /* \"#utility.yul\":5884:5891   */\n      dup7\n        /* \"#utility.yul\":5875:5881   */\n      dup3\n        /* \"#utility.yul\":5864:5873   */\n      dup8\n        /* \"#utility.yul\":5860:5882   */\n      add\n        /* \"#utility.yul\":5839:5892   */\n      tag_71\n      jump\t// in\n    tag_161:\n        /* \"#utility.yul\":5829:5892   */\n      swap4\n      pop\n        /* \"#utility.yul\":5785:5902   */\n      pop\n        /* \"#utility.yul\":5969:5971   */\n      0x20\n        /* \"#utility.yul\":5958:5967   */\n      dup5\n        /* \"#utility.yul\":5954:5972   */\n      add\n        /* \"#utility.yul\":5941:5973   */\n      calldataload\n        /* \"#utility.yul\":6000:6018   */\n      0xffffffffffffffff\n        /* \"#utility.yul\":5992:5998   */\n      dup2\n        /* \"#utility.yul\":5989:6019   */\n      gt\n        /* \"#utility.yul\":5986:6103   */\n      iszero\n      tag_162\n      jumpi\n        /* \"#utility.yul\":6022:6101   */\n      tag_163\n      tag_53\n      jump\t// in\n    tag_163:\n        /* \"#utility.yul\":5986:6103   */\n    tag_162:\n        /* \"#utility.yul\":6127:6190   */\n      tag_164\n        /* \"#utility.yul\":6182:6189   */\n      dup7\n        /* \"#utility.yul\":6173:6179   */\n      dup3\n        /* \"#utility.yul\":6162:6171   */\n      dup8\n        /* \"#utility.yul\":6158:6180   */\n      add\n        /* \"#utility.yul\":6127:6190   */\n      tag_74\n      jump\t// in\n    tag_164:\n        /* \"#utility.yul\":6117:6190   */\n      swap3\n      pop\n        /* \"#utility.yul\":5912:6200   */\n      pop\n        /* \"#utility.yul\":6267:6269   */\n      0x40\n        /* \"#utility.yul\":6256:6265   */\n      dup5\n        /* \"#utility.yul\":6252:6270   */\n      add\n        /* \"#utility.yul\":6239:6271   */\n      calldataload\n        /* \"#utility.yul\":6298:6316   */\n      0xffffffffffffffff\n        /* \"#utility.yul\":6290:6296   */\n      dup2\n        /* \"#utility.yul\":6287:6317   */\n      gt\n        /* \"#utility.yul\":6284:6401   */\n      iszero\n      tag_165\n      jumpi\n        /* \"#utility.yul\":6320:6399   */\n      tag_166\n      tag_53\n      jump\t// in\n    tag_166:\n        /* \"#utility.yul\":6284:6401   */\n    tag_165:\n        /* \"#utility.yul\":6425:6487   */\n      tag_167\n        /* \"#utility.yul\":6479:6486   */\n      dup7\n        /* \"#utility.yul\":6470:6476   */\n      dup3\n        /* \"#utility.yul\":6459:6468   */\n      dup8\n        /* \"#utility.yul\":6455:6477   */\n      add\n        /* \"#utility.yul\":6425:6487   */\n      tag_66\n      jump\t// in\n    tag_167:\n        /* \"#utility.yul\":6415:6487   */\n      swap2\n      pop\n        /* \"#utility.yul\":6210:6497   */\n      pop\n        /* \"#utility.yul\":5527:6504   */\n      swap3\n      pop\n      swap3\n      pop\n      swap3\n      jump\t// out\n        /* \"#utility.yul\":6510:6600   */\n    tag_75:\n        /* \"#utility.yul\":6544:6551   */\n      0x00\n        /* \"#utility.yul\":6587:6592   */\n      dup2\n        /* \"#utility.yul\":6580:6593   */\n      iszero\n        /* \"#utility.yul\":6573:6594   */\n      iszero\n        /* \"#utility.yul\":6562:6594   */\n      swap1\n      pop\n        /* \"#utility.yul\":6510:6600   */\n      swap2\n      swap1\n      pop\n      jump\t// out\n        /* \"#utility.yul\":6606:6715   */\n    tag_76:\n        /* \"#utility.yul\":6687:6708   */\n      tag_170\n        /* \"#utility.yul\":6702:6707   */\n      dup2\n        /* \"#utility.yul\":6687:6708   */\n      tag_75\n      jump\t// in\n    tag_170:\n        /* \"#utility.yul\":6682:6685   */\n      dup3\n        /* \"#utility.yul\":6675:6709   */\n      mstore\n        /* \"#utility.yul\":6606:6715   */\n      pop\n      pop\n      jump\t// out\n        /* \"#utility.yul\":6721:6931   */\n    tag_18:\n        /* \"#utility.yul\":6808:6812   */\n      0x00\n        /* \"#utility.yul\":6846:6848   */\n      0x20\n        /* \"#utility.yul\":6835:6844   */\n      dup3\n        /* \"#utility.yul\":6831:6849   */\n      add\n        /* \"#utility.yul\":6823:6849   */\n      swap1\n      pop\n        /* \"#utility.yul\":6859:6924   */\n      tag_172\n        /* \"#utility.yul\":6921:6922   */\n      0x00\n        /* \"#utility.yul\":6910:6919   */\n      dup4\n        /* \"#utility.yul\":6906:6923   */\n      add\n        /* \"#utility.yul\":6897:6903   */\n      dup5\n        /* \"#utility.yul\":6859:6924   */\n      tag_76\n      jump\t// in\n    tag_172:\n        /* \"#utility.yul\":6721:6931   */\n      swap3\n      swap2\n      pop\n      pop\n      jump\t// out\n        /* \"#utility.yul\":6937:7446   */\n    tag_21:\n        /* \"#utility.yul\":7006:7012   */\n      0x00\n        /* \"#utility.yul\":7055:7057   */\n      0x20\n        /* \"#utility.yul\":7043:7052   */\n      dup3\n        /* \"#utility.yul\":7034:7041   */\n      dup5\n        /* \"#utility.yul\":7030:7053   */\n      sub\n        /* \"#utility.yul\":7026:7058   */\n      slt\n        /* \"#utility.yul\":7023:7142   */\n      iszero\n      tag_174\n      jumpi\n        /* \"#utility.yul\":7061:7140   */\n      tag_175\n      tag_52\n      jump\t// in\n    tag_175:\n        /* \"#utility.yul\":7023:7142   */\n    tag_174:\n        /* \"#utility.yul\":7209:7210   */\n      0x00\n        /* \"#utility.yul\":7198:7207   */\n      dup3\n        /* \"#utility.yul\":7194:7211   */\n      add\n        /* \"#utility.yul\":7181:7212   */\n      calldataload\n        /* \"#utility.yul\":7239:7257   */\n      0xffffffffffffffff\n        /* \"#utility.yul\":7231:7237   */\n      dup2\n        /* \"#utility.yul\":7228:7258   */\n      gt\n        /* \"#utility.yul\":7225:7342   */\n      iszero\n      tag_176\n      jumpi\n        /* \"#utility.yul\":7261:7340   */\n      tag_177\n      tag_53\n      jump\t// in\n    tag_177:\n        /* \"#utility.yul\":7225:7342   */\n    tag_176:\n        /* \"#utility.yul\":7366:7429   */\n      tag_178\n        /* \"#utility.yul\":7421:7428   */\n      dup5\n        /* \"#utility.yul\":7412:7418   */\n      dup3\n        /* \"#utility.yul\":7401:7410   */\n      dup6\n        /* \"#utility.yul\":7397:7419   */\n      add\n        /* \"#utility.yul\":7366:7429   */\n      tag_74\n      jump\t// in\n    tag_178:\n        /* \"#utility.yul\":7356:7429   */\n      swap2\n      pop\n        /* \"#utility.yul\":7152:7439   */\n      pop\n        /* \"#utility.yul\":6937:7446   */\n      swap3\n      swap2\n      pop\n      pop\n      jump\t// out\n        /* \"#utility.yul\":7452:7570   */\n    tag_77:\n        /* \"#utility.yul\":7539:7563   */\n      tag_180\n        /* \"#utility.yul\":7557:7562   */\n      dup2\n        /* \"#utility.yul\":7539:7563   */\n      tag_54\n      jump\t// in\n    tag_180:\n        /* \"#utility.yul\":7534:7537   */\n      dup3\n        /* \"#utility.yul\":7527:7564   */\n      mstore\n        /* \"#utility.yul\":7452:7570   */\n      pop\n      pop\n      jump\t// out\n        /* \"#utility.yul\":7576:7798   */\n    tag_24:\n        /* \"#utility.yul\":7669:7673   */\n      0x00\n        /* \"#utility.yul\":7707:7709   */\n      0x20\n        /* \"#utility.yul\":7696:7705   */\n      dup3\n        /* \"#utility.yul\":7692:7710   */\n      add\n        /* \"#utility.yul\":7684:7710   */\n      swap1\n      pop\n        /* \"#utility.yul\":7720:7791   */\n      tag_182\n        /* \"#utility.yul\":7788:7789   */\n      0x00\n        /* \"#utility.yul\":7777:7786   */\n      dup4\n        /* \"#utility.yul\":7773:7790   */\n      add\n        /* \"#utility.yul\":7764:7770   */\n      dup5\n        /* \"#utility.yul\":7720:7791   */\n      tag_77\n      jump\t// in\n    tag_182:\n        /* \"#utility.yul\":7576:7798   */\n      swap3\n      swap2\n      pop\n      pop\n      jump\t// out\n        /* \"#utility.yul\":7804:8133   */\n    tag_27:\n        /* \"#utility.yul\":7863:7869   */\n      0x00\n        /* \"#utility.yul\":7912:7914   */\n      0x20\n        /* \"#utility.yul\":7900:7909   */\n      dup3\n        /* \"#utility.yul\":7891:7898   */\n      dup5\n        /* \"#utility.yul\":7887:7910   */\n      sub\n        /* \"#utility.yul\":7883:7915   */\n      slt\n        /* \"#utility.yul\":7880:7999   */\n      iszero\n      tag_184\n      jumpi\n        /* \"#utility.yul\":7918:7997   */\n      tag_185\n      tag_52\n      jump\t// in\n    tag_185:\n        /* \"#utility.yul\":7880:7999   */\n    tag_184:\n        /* \"#utility.yul\":8038:8039   */\n      0x00\n        /* \"#utility.yul\":8063:8116   */\n      tag_186\n        /* \"#utility.yul\":8108:8115   */\n      dup5\n        /* \"#utility.yul\":8099:8105   */\n      dup3\n        /* \"#utility.yul\":8088:8097   */\n      dup6\n        /* \"#utility.yul\":8084:8106   */\n      add\n        /* \"#utility.yul\":8063:8116   */\n      tag_56\n      jump\t// in\n    tag_186:\n        /* \"#utility.yul\":8053:8116   */\n      swap2\n      pop\n        /* \"#utility.yul\":8009:8126   */\n      pop\n        /* \"#utility.yul\":7804:8133   */\n      swap3\n      swap2\n      pop\n      pop\n      jump\t// out\n        /* \"#utility.yul\":8139:8225   */\n    tag_78:\n        /* \"#utility.yul\":8174:8181   */\n      0x00\n        /* \"#utility.yul\":8214:8218   */\n      0xff\n        /* \"#utility.yul\":8207:8212   */\n      dup3\n        /* \"#utility.yul\":8203:8219   */\n      and\n        /* \"#utility.yul\":8192:8219   */\n      swap1\n      pop\n        /* \"#utility.yul\":8139:8225   */\n      swap2\n      swap1\n      pop\n      jump\t// out\n        /* \"#utility.yul\":8231:8343   */\n    tag_79:\n        /* \"#utility.yul\":8314:8336   */\n      tag_189\n        /* \"#utility.yul\":8330:8335   */\n      dup2\n        /* \"#utility.yul\":8314:8336   */\n      tag_78\n      jump\t// in\n    tag_189:\n        /* \"#utility.yul\":8309:8312   */\n      dup3\n        /* \"#utility.yul\":8302:8337   */\n      mstore\n        /* \"#utility.yul\":8231:8343   */\n      pop\n      pop\n      jump\t// out\n        /* \"#utility.yul\":8349:8894   */\n    tag_34:\n        /* \"#utility.yul\":8522:8526   */\n      0x00\n        /* \"#utility.yul\":8560:8563   */\n      0x80\n        /* \"#utility.yul\":8549:8558   */\n      dup3\n        /* \"#utility.yul\":8545:8564   */\n      add\n        /* \"#utility.yul\":8537:8564   */\n      swap1\n      pop\n        /* \"#utility.yul\":8574:8645   */\n      tag_191\n        /* \"#utility.yul\":8642:8643   */\n      0x00\n        /* \"#utility.yul\":8631:8640   */\n      dup4\n        /* \"#utility.yul\":8627:8644   */\n      add\n        /* \"#utility.yul\":8618:8624   */\n      dup8\n        /* \"#utility.yul\":8574:8645   */\n      tag_77\n      jump\t// in\n    tag_191:\n        /* \"#utility.yul\":8655:8723   */\n      tag_192\n        /* \"#utility.yul\":8719:8721   */\n      0x20\n        /* \"#utility.yul\":8708:8717   */\n      dup4\n        /* \"#utility.yul\":8704:8722   */\n      add\n        /* \"#utility.yul\":8695:8701   */\n      dup7\n        /* \"#utility.yul\":8655:8723   */\n      tag_79\n      jump\t// in\n    tag_192:\n        /* \"#utility.yul\":8733:8805   */\n      tag_193\n        /* \"#utility.yul\":8801:8803   */\n      0x40\n        /* \"#utility.yul\":8790:8799   */\n      dup4\n        /* \"#utility.yul\":8786:8804   */\n      add\n        /* \"#utility.yul\":8777:8783   */\n      dup6\n        /* \"#utility.yul\":8733:8805   */\n      tag_77\n      jump\t// in\n    tag_193:\n        /* \"#utility.yul\":8815:8887   */\n      tag_194\n        /* \"#utility.yul\":8883:8885   */\n      0x60\n        /* \"#utility.yul\":8872:8881   */\n      dup4\n        /* \"#utility.yul\":8868:8886   */\n      add\n        /* \"#utility.yul\":8859:8865   */\n      dup5\n        /* \"#utility.yul\":8815:8887   */\n      tag_77\n      jump\t// in\n    tag_194:\n        /* \"#utility.yul\":8349:8894   */\n      swap6\n      swap5\n      pop\n      pop\n      pop\n      pop\n      pop\n      jump\t// out\n        /* \"#utility.yul\":8900:8999   */\n    tag_80:\n        /* \"#utility.yul\":8952:8958   */\n      0x00\n        /* \"#utility.yul\":8986:8991   */\n      dup2\n        /* \"#utility.yul\":8980:8992   */\n      mload\n        /* \"#utility.yul\":8970:8992   */\n      swap1\n      pop\n        /* \"#utility.yul\":8900:8999   */\n      swap2\n      swap1\n      pop\n      jump\t// out\n        /* \"#utility.yul\":9005:9153   */\n    tag_81:\n        /* \"#utility.yul\":9107:9118   */\n      0x00\n        /* \"#utility.yul\":9144:9147   */\n      dup2\n        /* \"#utility.yul\":9129:9147   */\n      swap1\n      pop\n        /* \"#utility.yul\":9005:9153   */\n      swap3\n      swap2\n      pop\n      pop\n      jump\t// out\n        /* \"#utility.yul\":9159:9298   */\n    tag_82:\n        /* \"#utility.yul\":9248:9254   */\n      dup3\n        /* \"#utility.yul\":9243:9246   */\n      dup2\n        /* \"#utility.yul\":9238:9241   */\n      dup4\n        /* \"#utility.yul\":9232:9255   */\n      mcopy\n        /* \"#utility.yul\":9289:9290   */\n      0x00\n        /* \"#utility.yul\":9280:9286   */\n      dup4\n        /* \"#utility.yul\":9275:9278   */\n      dup4\n        /* \"#utility.yul\":9271:9287   */\n      add\n        /* \"#utility.yul\":9264:9291   */\n      mstore\n        /* \"#utility.yul\":9159:9298   */\n      pop\n      pop\n      pop\n      jump\t// out\n        /* \"#utility.yul\":9304:9694   */\n    tag_83:\n        /* \"#utility.yul\":9410:9413   */\n      0x00\n        /* \"#utility.yul\":9438:9477   */\n      tag_199\n        /* \"#utility.yul\":9471:9476   */\n      dup3\n        /* \"#utility.yul\":9438:9477   */\n      tag_80\n      jump\t// in\n    tag_199:\n        /* \"#utility.yul\":9493:9582   */\n      tag_200\n        /* \"#utility.yul\":9575:9581   */\n      dup2\n        /* \"#utility.yul\":9570:9573   */\n      dup6\n        /* \"#utility.yul\":9493:9582   */\n      tag_81\n      jump\t// in\n    tag_200:\n        /* \"#utility.yul\":9486:9582   */\n      swap4\n      pop\n        /* \"#utility.yul\":9591:9656   */\n      tag_201\n        /* \"#utility.yul\":9649:9655   */\n      dup2\n        /* \"#utility.yul\":9644:9647   */\n      dup6\n        /* \"#utility.yul\":9637:9641   */\n      0x20\n        /* \"#utility.yul\":9630:9635   */\n      dup7\n        /* \"#utility.yul\":9626:9642   */\n      add\n        /* \"#utility.yul\":9591:9656   */\n      tag_82\n      jump\t// in\n    tag_201:\n        /* \"#utility.yul\":9681:9687   */\n      dup1\n        /* \"#utility.yul\":9676:9679   */\n      dup5\n        /* \"#utility.yul\":9672:9688   */\n      add\n        /* \"#utility.yul\":9665:9688   */\n      swap2\n      pop\n        /* \"#utility.yul\":9414:9694   */\n      pop\n        /* \"#utility.yul\":9304:9694   */\n      swap3\n      swap2\n      pop\n      pop\n      jump\t// out\n        /* \"#utility.yul\":9700:9975   */\n    tag_43:\n        /* \"#utility.yul\":9832:9835   */\n      0x00\n        /* \"#utility.yul\":9854:9949   */\n      tag_203\n        /* \"#utility.yul\":9945:9948   */\n      dup3\n        /* \"#utility.yul\":9936:9942   */\n      dup5\n        /* \"#utility.yul\":9854:9949   */\n      tag_83\n      jump\t// in\n    tag_203:\n        /* \"#utility.yul\":9847:9949   */\n      swap2\n      pop\n        /* \"#utility.yul\":9966:9969   */\n      dup2\n        /* \"#utility.yul\":9959:9969   */\n      swap1\n      pop\n        /* \"#utility.yul\":9700:9975   */\n      swap3\n      swap2\n      pop\n      pop\n      jump\t// out\n        /* \"#utility.yul\":9981:10060   */\n    tag_84:\n        /* \"#utility.yul\":10020:10027   */\n      0x00\n        /* \"#utility.yul\":10049:10054   */\n      dup2\n        /* \"#utility.yul\":10038:10054   */\n      swap1\n      pop\n        /* \"#utility.yul\":9981:10060   */\n      swap2\n      swap1\n      pop\n      jump\t// out\n        /* \"#utility.yul\":10066:10223   */\n    tag_85:\n        /* \"#utility.yul\":10171:10216   */\n      tag_206\n        /* \"#utility.yul\":10191:10215   */\n      tag_207\n        /* \"#utility.yul\":10209:10214   */\n      dup3\n        /* \"#utility.yul\":10191:10215   */\n      tag_54\n      jump\t// in\n    tag_207:\n        /* \"#utility.yul\":10171:10216   */\n      tag_84\n      jump\t// in\n    tag_206:\n        /* \"#utility.yul\":10166:10169   */\n      dup3\n        /* \"#utility.yul\":10159:10217   */\n      mstore\n        /* \"#utility.yul\":10066:10223   */\n      pop\n      pop\n      jump\t// out\n        /* \"#utility.yul\":10229:10485   */\n    tag_46:\n        /* \"#utility.yul\":10341:10344   */\n      0x00\n        /* \"#utility.yul\":10356:10431   */\n      tag_209\n        /* \"#utility.yul\":10427:10430   */\n      dup3\n        /* \"#utility.yul\":10418:10424   */\n      dup5\n        /* \"#utility.yul\":10356:10431   */\n      tag_85\n      jump\t// in\n    tag_209:\n        /* \"#utility.yul\":10456:10458   */\n      0x20\n        /* \"#utility.yul\":10451:10454   */\n      dup3\n        /* \"#utility.yul\":10447:10459   */\n      add\n        /* \"#utility.yul\":10440:10459   */\n      swap2\n      pop\n        /* \"#utility.yul\":10476:10479   */\n      dup2\n        /* \"#utility.yul\":10469:10479   */\n      swap1\n      pop\n        /* \"#utility.yul\":10229:10485   */\n      swap3\n      swap2\n      pop\n      pop\n      jump\t// out\n        /* \"#utility.yul\":10491:10660   */\n    tag_86:\n        /* \"#utility.yul\":10575:10586   */\n      0x00\n        /* \"#utility.yul\":10609:10615   */\n      dup3\n        /* \"#utility.yul\":10604:10607   */\n      dup3\n        /* \"#utility.yul\":10597:10616   */\n      mstore\n        /* \"#utility.yul\":10649:10653   */\n      0x20\n        /* \"#utility.yul\":10644:10647   */\n      dup3\n        /* \"#utility.yul\":10640:10654   */\n      add\n        /* \"#utility.yul\":10625:10654   */\n      swap1\n      pop\n        /* \"#utility.yul\":10491:10660   */\n      swap3\n      swap2\n      pop\n      pop\n      jump\t// out\n        /* \"#utility.yul\":10666:10833   */\n    tag_87:\n        /* \"#utility.yul\":10806:10825   */\n      0x496e76616c6964207369676e6174757265000000000000000000000000000000\n        /* \"#utility.yul\":10802:10803   */\n      0x00\n        /* \"#utility.yul\":10794:10800   */\n      dup3\n        /* \"#utility.yul\":10790:10804   */\n      add\n        /* \"#utility.yul\":10783:10826   */\n      mstore\n        /* \"#utility.yul\":10666:10833   */\n      pop\n      jump\t// out\n        /* \"#utility.yul\":10839:11205   */\n    tag_88:\n        /* \"#utility.yul\":10981:10984   */\n      0x00\n        /* \"#utility.yul\":11002:11069   */\n      tag_213\n        /* \"#utility.yul\":11066:11068   */\n      0x11\n        /* \"#utility.yul\":11061:11064   */\n      dup4\n        /* \"#utility.yul\":11002:11069   */\n      tag_86\n      jump\t// in\n    tag_213:\n        /* \"#utility.yul\":10995:11069   */\n      swap2\n      pop\n        /* \"#utility.yul\":11078:11171   */\n      tag_214\n        /* \"#utility.yul\":11167:11170   */\n      dup3\n        /* \"#utility.yul\":11078:11171   */\n      tag_87\n      jump\t// in\n    tag_214:\n        /* \"#utility.yul\":11196:11198   */\n      0x20\n        /* \"#utility.yul\":11191:11194   */\n      dup3\n        /* \"#utility.yul\":11187:11199   */\n      add\n        /* \"#utility.yul\":11180:11199   */\n      swap1\n      pop\n        /* \"#utility.yul\":10839:11205   */\n      swap2\n      swap1\n      pop\n      jump\t// out\n        /* \"#utility.yul\":11211:11630   */\n    tag_50:\n        /* \"#utility.yul\":11377:11381   */\n      0x00\n        /* \"#utility.yul\":11415:11417   */\n      0x20\n        /* \"#utility.yul\":11404:11413   */\n      dup3\n        /* \"#utility.yul\":11400:11418   */\n      add\n        /* \"#utility.yul\":11392:11418   */\n      swap1\n      pop\n        /* \"#utility.yul\":11464:11473   */\n      dup2\n        /* \"#utility.yul\":11458:11462   */\n      dup2\n        /* \"#utility.yul\":11454:11474   */\n      sub\n        /* \"#utility.yul\":11450:11451   */\n      0x00\n        /* \"#utility.yul\":11439:11448   */\n      dup4\n        /* \"#utility.yul\":11435:11452   */\n      add\n        /* \"#utility.yul\":11428:11475   */\n      mstore\n        /* \"#utility.yul\":11492:11623   */\n      tag_216\n        /* \"#utility.yul\":11618:11622   */\n      dup2\n        /* \"#utility.yul\":11492:11623   */\n      tag_88\n      jump\t// in\n    tag_216:\n        /* \"#utility.yul\":11484:11623   */\n      swap1\n      pop\n        /* \"#utility.yul\":11211:11630   */\n      swap2\n      swap1\n      pop\n      jump\t// out\n\n    auxdata: 0xa264697066735822122008f6061330dccbf36be7c3a39c54240888d91e15710a7e18e2a28c7319c85f5064736f6c63430008190033\n}\n",
				"bytecode": {
					"linkReferences": {},
					"object": "6080604052348015600e575f80fd5b506108948061001c5f395ff3fe608060405234801561000f575f80fd5b506004361061004a575f3560e01c806319045a251461004e5780632dd34f0f1461007e578063b446f3b2146100ae578063fa540801146100de575b5f80fd5b61006860048036038101906100639190610417565b61010e565b60405161007591906104b0565b60405180910390f35b61009860048036038101906100939190610591565b610178565b6040516100a59190610633565b60405180910390f35b6100c860048036038101906100c3919061064c565b6101d4565b6040516100d591906106a2565b60405180910390f35b6100f860048036038101906100f391906106bb565b610203565b60405161010591906106a2565b60405180910390f35b5f805f8061011b85610232565b9250925092506001868285856040515f81526020016040526040516101439493929190610701565b6020604051602081039080840390855afa158015610163573d5f803e3d5ffd5b50505060206040510351935050505092915050565b5f80610183846101d4565b90505f61018f82610203565b90508573ffffffffffffffffffffffffffffffffffffffff166101b2828661010e565b73ffffffffffffffffffffffffffffffffffffffff1614925050509392505050565b5f816040516020016101e69190610796565b604051602081830303815290604052805190602001209050919050565b5f8160405160200161021591906107cc565b604051602081830303815290604052805190602001209050919050565b5f805f6041845114610279576040517f08c379a000000000000000000000000000000000000000000000000000000000815260040161027090610840565b60405180910390fd5b602084015192506040840151915060608401515f1a90509193909250565b5f604051905090565b5f80fd5b5f80fd5b5f819050919050565b6102ba816102a8565b81146102c4575f80fd5b50565b5f813590506102d5816102b1565b92915050565b5f80fd5b5f80fd5b5f601f19601f8301169050919050565b7f4e487b71000000000000000000000000000000000000000000000000000000005f52604160045260245ffd5b610329826102e3565b810181811067ffffffffffffffff82111715610348576103476102f3565b5b80604052505050565b5f61035a610297565b90506103668282610320565b919050565b5f67ffffffffffffffff821115610385576103846102f3565b5b61038e826102e3565b9050602081019050919050565b828183375f83830152505050565b5f6103bb6103b68461036b565b610351565b9050828152602081018484840111156103d7576103d66102df565b5b6103e284828561039b565b509392505050565b5f82601f8301126103fe576103fd6102db565b5b813561040e8482602086016103a9565b91505092915050565b5f806040838503121561042d5761042c6102a0565b5b5f61043a858286016102c7565b925050602083013567ffffffffffffffff81111561045b5761045a6102a4565b5b610467858286016103ea565b9150509250929050565b5f73ffffffffffffffffffffffffffffffffffffffff82169050919050565b5f61049a82610471565b9050919050565b6104aa81610490565b82525050565b5f6020820190506104c35f8301846104a1565b92915050565b6104d281610490565b81146104dc575f80fd5b50565b5f813590506104ed816104c9565b92915050565b5f67ffffffffffffffff82111561050d5761050c6102f3565b5b610516826102e3565b9050602081019050919050565b5f610535610530846104f3565b610351565b905082815260208101848484011115610551576105506102df565b5b61055c84828561039b565b509392505050565b5f82601f830112610578576105776102db565b5b8135610588848260208601610523565b91505092915050565b5f805f606084860312156105a8576105a76102a0565b5b5f6105b5868287016104df565b935050602084013567ffffffffffffffff8111156105d6576105d56102a4565b5b6105e286828701610564565b925050604084013567ffffffffffffffff811115610603576106026102a4565b5b61060f868287016103ea565b9150509250925092565b5f8115159050919050565b61062d81610619565b82525050565b5f6020820190506106465f830184610624565b92915050565b5f60208284031215610661576106606102a0565b5b5f82013567ffffffffffffffff81111561067e5761067d6102a4565b5b61068a84828501610564565b91505092915050565b61069c816102a8565b82525050565b5f6020820190506106b55f830184610693565b92915050565b5f602082840312156106d0576106cf6102a0565b5b5f6106dd848285016102c7565b91505092915050565b5f60ff82169050919050565b6106fb816106e6565b82525050565b5f6080820190506107145f830187610693565b61072160208301866106f2565b61072e6040830185610693565b61073b6060830184610693565b95945050505050565b5f81519050919050565b5f81905092915050565b8281835e5f83830152505050565b5f61077082610744565b61077a818561074e565b935061078a818560208601610758565b80840191505092915050565b5f6107a18284610766565b915081905092915050565b5f819050919050565b6107c66107c1826102a8565b6107ac565b82525050565b5f6107d782846107b5565b60208201915081905092915050565b5f82825260208201905092915050565b7f496e76616c6964207369676e61747572650000000000000000000000000000005f82015250565b5f61082a6011836107e6565b9150610835826107f6565b602082019050919050565b5f6020820190508181035f8301526108578161081e565b905091905056fea264697066735822122008f6061330dccbf36be7c3a39c54240888d91e15710a7e18e2a28c7319c85f5064736f6c63430008190033",
					"opcodes": "PUSH1 0x80 PUSH1 0x40 MSTORE CALLVALUE DUP1 ISZERO PUSH1 0xE JUMPI PUSH0 DUP1 REVERT JUMPDEST POP PUSH2 0x894 DUP1 PUSH2 0x1C PUSH0 CODECOPY PUSH0 RETURN INVALID PUSH1 0x80 PUSH1 0x40 MSTORE CALLVALUE DUP1 ISZERO PUSH2 0xF JUMPI PUSH0 DUP1 REVERT JUMPDEST POP PUSH1 0x4 CALLDATASIZE LT PUSH2 0x4A JUMPI PUSH0 CALLDATALOAD PUSH1 0xE0 SHR DUP1 PUSH4 0x19045A25 EQ PUSH2 0x4E JUMPI DUP1 PUSH4 0x2DD34F0F EQ PUSH2 0x7E JUMPI DUP1 PUSH4 0xB446F3B2 EQ PUSH2 0xAE JUMPI DUP1 PUSH4 0xFA540801 EQ PUSH2 0xDE JUMPI JUMPDEST PUSH0 DUP1 REVERT JUMPDEST PUSH2 0x68 PUSH1 0x4 DUP1 CALLDATASIZE SUB DUP2 ADD SWAP1 PUSH2 0x63 SWAP2 SWAP1 PUSH2 0x417 JUMP JUMPDEST PUSH2 0x10E JUMP JUMPDEST PUSH1 0x40 MLOAD PUSH2 0x75 SWAP2 SWAP1 PUSH2 0x4B0 JUMP JUMPDEST PUSH1 0x40 MLOAD DUP1 SWAP2 SUB SWAP1 RETURN JUMPDEST PUSH2 0x98 PUSH1 0x4 DUP1 CALLDATASIZE SUB DUP2 ADD SWAP1 PUSH2 0x93 SWAP2 SWAP1 PUSH2 0x591 JUMP JUMPDEST PUSH2 0x178 JUMP JUMPDEST PUSH1 0x40 MLOAD PUSH2 0xA5 SWAP2 SWAP1 PUSH2 0x633 JUMP JUMPDEST PUSH1 0x40 MLOAD DUP1 SWAP2 SUB SWAP1 RETURN JUMPDEST PUSH2 0xC8 PUSH1 0x4 DUP1 CALLDATASIZE SUB DUP2 ADD SWAP1 PUSH2 0xC3 SWAP2 SWAP1 PUSH2 0x64C JUMP JUMPDEST PUSH2 0x1D4 JUMP JUMPDEST PUSH1 0x40 MLOAD PUSH2 0xD5 SWAP2 SWAP1 PUSH2 0x6A2 JUMP JUMPDEST PUSH1 0x40 MLOAD DUP1 SWAP2 SUB SWAP1 RETURN JUMPDEST PUSH2 0xF8 PUSH1 0x4 DUP1 CALLDATASIZE SUB DUP2 ADD SWAP1 PUSH2 0xF3 SWAP2 SWAP1 PUSH2 0x6BB JUMP JUMPDEST PUSH2 0x203 JUMP JUMPDEST PUSH1 0x40 MLOAD PUSH2 0x105 SWAP2 SWAP1 PUSH2 0x6A2 JUMP JUMPDEST PUSH1 0x40 MLOAD DUP1 SWAP2 SUB SWAP1 RETURN JUMPDEST PUSH0 DUP1 PUSH0 DUP1 PUSH2 0x11B DUP6 PUSH2 0x232 JUMP JUMPDEST SWAP3 POP SWAP3 POP SWAP3 POP PUSH1 0x1 DUP7 DUP3 DUP6 DUP6 PUSH1 0x40 MLOAD PUSH0 DUP2 MSTORE PUSH1 0x20 ADD PUSH1 0x40 MSTORE PUSH1 0x40 MLOAD PUSH2 0x143 SWAP5 SWAP4 SWAP3 SWAP2 SWAP1 PUSH2 0x701 JUMP JUMPDEST PUSH1 0x20 PUSH1 0x40 MLOAD PUSH1 0x20 DUP2 SUB SWAP1 DUP1 DUP5 SUB SWAP1 DUP6 GAS STATICCALL ISZERO DUP1 ISZERO PUSH2 0x163 JUMPI RETURNDATASIZE PUSH0 DUP1 RETURNDATACOPY RETURNDATASIZE PUSH0 REVERT JUMPDEST POP POP POP PUSH1 0x20 PUSH1 0x40 MLOAD SUB MLOAD SWAP4 POP POP POP POP SWAP3 SWAP2 POP POP JUMP JUMPDEST PUSH0 DUP1 PUSH2 0x183 DUP5 PUSH2 0x1D4 JUMP JUMPDEST SWAP1 POP PUSH0 PUSH2 0x18F DUP3 PUSH2 0x203 JUMP JUMPDEST SWAP1 POP DUP6 PUSH20 0xFFFFFFFFFFFFFFFFFFFFFFFFFFFFFFFFFFFFFFFF AND PUSH2 0x1B2 DUP3 DUP7 PUSH2 0x10E JUMP JUMPDEST PUSH20 0xFFFFFFFFFFFFFFFFFFFFFFFFFFFFFFFFFFFFFFFF AND EQ SWAP3 POP POP POP SWAP4 SWAP3 POP POP POP JUMP JUMPDEST PUSH0 DUP2 PUSH1 0x40 MLOAD PUSH1 0x20 ADD PUSH2 0x1E6 SWAP2 SWAP1 PUSH2 0x796 JUMP JUMPDEST PUSH1 0x40 MLOAD PUSH1 0x20 DUP2 DUP4 SUB SUB DUP2 MSTORE SWAP1 PUSH1 0x40 MSTORE DUP1 MLOAD SWAP1 PUSH1 0x20 ADD KECCAK256 SWAP1 POP SWAP2 SWAP1 POP JUMP JUMPDEST PUSH0 DUP2 PUSH1 0x40 MLOAD PUSH1 0x20 ADD PUSH2 0x215 SWAP2 SWAP1 PUSH2 0x7CC JUMP JUMPDEST PUSH1 0x40 MLOAD PUSH1 0x20 DUP2 DUP4 SUB SUB DUP2 MSTORE SWAP1 PUSH1 0x40 MSTORE DUP1 MLOAD SWAP1 PUSH1 0x20 ADD KECCAK256 SWAP1 POP SWAP2 SWAP1 POP JUMP JUMPDEST PUSH0 DUP1 PUSH0 PUSH1 0x41 DUP5 MLOAD EQ PUSH2 0x279 JUMPI PUSH1 0x40 MLOAD PUSH32 0x8C379A000000000000000000000000000000000000000000000000000000000 DUP2 MSTORE PUSH1 0x4 ADD PUSH2 0x270 SWAP1 PUSH2 0x840 JUMP JUMPDEST PUSH1 0x40 MLOAD DUP1 SWAP2 SUB SWAP1 REVERT JUMPDEST PUSH1 0x20 DUP5 ADD MLOAD SWAP3 POP PUSH1 0x40 DUP5 ADD MLOAD SWAP2 POP PUSH1 0x60 DUP5 ADD MLOAD PUSH0 BYTE SWAP1 POP SWAP2 SWAP4 SWAP1 SWAP3 POP JUMP JUMPDEST PUSH0 PUSH1 0x40 MLOAD SWAP1 POP SWAP1 JUMP JUMPDEST PUSH0 DUP1 REVERT JUMPDEST PUSH0 DUP1 REVERT JUMPDEST PUSH0 DUP2 SWAP1 POP SWAP2 SWAP1 POP JUMP JUMPDEST PUSH2 0x2BA DUP2 PUSH2 0x2A8 JUMP JUMPDEST DUP2 EQ PUSH2 0x2C4 JUMPI PUSH0 DUP1 REVERT JUMPDEST POP JUMP JUMPDEST PUSH0 DUP2 CALLDATALOAD SWAP1 POP PUSH2 0x2D5 DUP2 PUSH2 0x2B1 JUMP JUMPDEST SWAP3 SWAP2 POP POP JUMP JUMPDEST PUSH0 DUP1 REVERT JUMPDEST PUSH0 DUP1 REVERT JUMPDEST PUSH0 PUSH1 0x1F NOT PUSH1 0x1F DUP4 ADD AND SWAP1 POP SWAP2 SWAP1 POP JUMP JUMPDEST PUSH32 0x4E487B7100000000000000000000000000000000000000000000000000000000 PUSH0 MSTORE PUSH1 0x41 PUSH1 0x4 MSTORE PUSH1 0x24 PUSH0 REVERT JUMPDEST PUSH2 0x329 DUP3 PUSH2 0x2E3 JUMP JUMPDEST DUP2 ADD DUP2 DUP2 LT PUSH8 0xFFFFFFFFFFFFFFFF DUP3 GT OR ISZERO PUSH2 0x348 JUMPI PUSH2 0x347 PUSH2 0x2F3 JUMP JUMPDEST JUMPDEST DUP1 PUSH1 0x40 MSTORE POP POP POP JUMP JUMPDEST PUSH0 PUSH2 0x35A PUSH2 0x297 JUMP JUMPDEST SWAP1 POP PUSH2 0x366 DUP3 DUP3 PUSH2 0x320 JUMP JUMPDEST SWAP2 SWAP1 POP JUMP JUMPDEST PUSH0 PUSH8 0xFFFFFFFFFFFFFFFF DUP3 GT ISZERO PUSH2 0x385 JUMPI PUSH2 0x384 PUSH2 0x2F3 JUMP JUMPDEST JUMPDEST PUSH2 0x38E DUP3 PUSH2 0x2E3 JUMP JUMPDEST SWAP1 POP PUSH1 0x20 DUP2 ADD SWAP1 POP SWAP2 SWAP1 POP JUMP JUMPDEST DUP3 DUP2 DUP4 CALLDATACOPY PUSH0 DUP4 DUP4 ADD MSTORE POP POP POP JUMP JUMPDEST PUSH0 PUSH2 0x3BB PUSH2 0x3B6 DUP5 PUSH2 0x36B JUMP JUMPDEST PUSH2 0x351 JUMP JUMPDEST SWAP1 POP DUP3 DUP2 MSTORE PUSH1 0x20 DUP2 ADD DUP5 DUP5 DUP5 ADD GT ISZERO PUSH2 0x3D7 JUMPI PUSH2 0x3D6 PUSH2 0x2DF JUMP JUMPDEST JUMPDEST PUSH2 0x3E2 DUP5 DUP3 DUP6 PUSH2 0x39B JUMP JUMPDEST POP SWAP4 SWAP3 POP POP POP JUMP JUMPDEST PUSH0 DUP3 PUSH1 0x1F DUP4 ADD SLT PUSH2 0x3FE JUMPI PUSH2 0x3FD PUSH2 0x2DB JUMP JUMPDEST JUMPDEST DUP2 CALLDATALOAD PUSH2 0x40E DUP5 DUP3 PUSH1 0x20 DUP7 ADD PUSH2 0x3A9 JUMP JUMPDEST SWAP2 POP POP SWAP3 SWAP2 POP POP JUMP JUMPDEST PUSH0 DUP1 PUSH1 0x40 DUP4 DUP6 SUB SLT ISZERO PUSH2 0x42D JUMPI PUSH2 0x42C PUSH2 0x2A0 JUMP JUMPDEST JUMPDEST PUSH0 PUSH2 0x43A DUP6 DUP3 DUP7 ADD PUSH2 0x2C7 JUMP JUMPDEST SWAP3 POP POP PUSH1 0x20 DUP4 ADD CALLDATALOAD PUSH8 0xFFFFFFFFFFFFFFFF DUP2 GT ISZERO PUSH2 0x45B JUMPI PUSH2 0x45A PUSH2 0x2A4 JUMP JUMPDEST JUMPDEST PUSH2 0x467 DUP6 DUP3 DUP7 ADD PUSH2 0x3EA JUMP JUMPDEST SWAP2 POP POP SWAP3 POP SWAP3 SWAP1 POP JUMP JUMPDEST PUSH0 PUSH20 0xFFFFFFFFFFFFFFFFFFFFFFFFFFFFFFFFFFFFFFFF DUP3 AND SWAP1 POP SWAP2 SWAP1 POP JUMP JUMPDEST PUSH0 PUSH2 0x49A DUP3 PUSH2 0x471 JUMP JUMPDEST SWAP1 POP SWAP2 SWAP1 POP JUMP JUMPDEST PUSH2 0x4AA DUP2 PUSH2 0x490 JUMP JUMPDEST DUP3 MSTORE POP POP JUMP JUMPDEST PUSH0 PUSH1 0x20 DUP3 ADD SWAP1 POP PUSH2 0x4C3 PUSH0 DUP4 ADD DUP5 PUSH2 0x4A1 JUMP JUMPDEST SWAP3 SWAP2 POP POP JUMP JUMPDEST PUSH2 0x4D2 DUP2 PUSH2 0x490 JUMP JUMPDEST DUP2 EQ PUSH2 0x4DC JUMPI PUSH0 DUP1 REVERT JUMPDEST POP JUMP JUMPDEST PUSH0 DUP2 CALLDATALOAD SWAP1 POP PUSH2 0x4ED DUP2 PUSH2 0x4C9 JUMP JUMPDEST SWAP3 SWAP2 POP POP JUMP JUMPDEST PUSH0 PUSH8 0xFFFFFFFFFFFFFFFF DUP3 GT ISZERO PUSH2 0x50D JUMPI PUSH2 0x50C PUSH2 0x2F3 JUMP JUMPDEST JUMPDEST PUSH2 0x516 DUP3 PUSH2 0x2E3 JUMP JUMPDEST SWAP1 POP PUSH1 0x20 DUP2 ADD SWAP1 POP SWAP2 SWAP1 POP JUMP JUMPDEST PUSH0 PUSH2 0x535 PUSH2 0x530 DUP5 PUSH2 0x4F3 JUMP JUMPDEST PUSH2 0x351 JUMP JUMPDEST SWAP1 POP DUP3 DUP2 MSTORE PUSH1 0x20 DUP2 ADD DUP5 DUP5 DUP5 ADD GT ISZERO PUSH2 0x551 JUMPI PUSH2 0x550 PUSH2 0x2DF JUMP JUMPDEST JUMPDEST PUSH2 0x55C DUP5 DUP3 DUP6 PUSH2 0x39B JUMP JUMPDEST POP SWAP4 SWAP3 POP POP POP JUMP JUMPDEST PUSH0 DUP3 PUSH1 0x1F DUP4 ADD SLT PUSH2 0x578 JUMPI PUSH2 0x577 PUSH2 0x2DB JUMP JUMPDEST JUMPDEST DUP2 CALLDATALOAD PUSH2 0x588 DUP5 DUP3 PUSH1 0x20 DUP7 ADD PUSH2 0x523 JUMP JUMPDEST SWAP2 POP POP SWAP3 SWAP2 POP POP JUMP JUMPDEST PUSH0 DUP1 PUSH0 PUSH1 0x60 DUP5 DUP7 SUB SLT ISZERO PUSH2 0x5A8 JUMPI PUSH2 0x5A7 PUSH2 0x2A0 JUMP JUMPDEST JUMPDEST PUSH0 PUSH2 0x5B5 DUP7 DUP3 DUP8 ADD PUSH2 0x4DF JUMP JUMPDEST SWAP4 POP POP PUSH1 0x20 DUP5 ADD CALLDATALOAD PUSH8 0xFFFFFFFFFFFFFFFF DUP2 GT ISZERO PUSH2 0x5D6 JUMPI PUSH2 0x5D5 PUSH2 0x2A4 JUMP JUMPDEST JUMPDEST PUSH2 0x5E2 DUP7 DUP3 DUP8 ADD PUSH2 0x564 JUMP JUMPDEST SWAP3 POP POP PUSH1 0x40 DUP5 ADD CALLDATALOAD PUSH8 0xFFFFFFFFFFFFFFFF DUP2 GT ISZERO PUSH2 0x603 JUMPI PUSH2 0x602 PUSH2 0x2A4 JUMP JUMPDEST JUMPDEST PUSH2 0x60F DUP7 DUP3 DUP8 ADD PUSH2 0x3EA JUMP JUMPDEST SWAP2 POP POP SWAP3 POP SWAP3 POP SWAP3 JUMP JUMPDEST PUSH0 DUP2 ISZERO ISZERO SWAP1 POP SWAP2 SWAP1 POP JUMP JUMPDEST PUSH2 0x62D DUP2 PUSH2 0x619 JUMP JUMPDEST DUP3 MSTORE POP POP JUMP JUMPDEST PUSH0 PUSH1 0x20 DUP3 ADD SWAP1 POP PUSH2 0x646 PUSH0 DUP4 ADD DUP5 PUSH2 0x624 JUMP JUMPDEST SWAP3 SWAP2 POP POP JUMP JUMPDEST PUSH0 PUSH1 0x20 DUP3 DUP5 SUB SLT ISZERO PUSH2 0x661 JUMPI PUSH2 0x660 PUSH2 0x2A0 JUMP JUMPDEST JUMPDEST PUSH0 DUP3 ADD CALLDATALOAD PUSH8 0xFFFFFFFFFFFFFFFF DUP2 GT ISZERO PUSH2 0x67E JUMPI PUSH2 0x67D PUSH2 0x2A4 JUMP JUMPDEST JUMPDEST PUSH2 0x68A DUP5 DUP3 DUP6 ADD PUSH2 0x564 JUMP JUMPDEST SWAP2 POP POP SWAP3 SWAP2 POP POP JUMP JUMPDEST PUSH2 0x69C DUP2 PUSH2 0x2A8 JUMP JUMPDEST DUP3 MSTORE POP POP JUMP JUMPDEST PUSH0 PUSH1 0x20 DUP3 ADD SWAP1 POP PUSH2 0x6B5 PUSH0 DUP4 ADD DUP5 PUSH2 0x693 JUMP JUMPDEST SWAP3 SWAP2 POP POP JUMP JUMPDEST PUSH0 PUSH1 0x20 DUP3 DUP5 SUB SLT ISZERO PUSH2 0x6D0 JUMPI PUSH2 0x6CF PUSH2 0x2A0 JUMP JUMPDEST JUMPDEST PUSH0 PUSH2 0x6DD DUP5 DUP3 DUP6 ADD PUSH2 0x2C7 JUMP JUMPDEST SWAP2 POP POP SWAP3 SWAP2 POP POP JUMP JUMPDEST PUSH0 PUSH1 0xFF DUP3 AND SWAP1 POP SWAP2 SWAP1 POP JUMP JUMPDEST PUSH2 0x6FB DUP2 PUSH2 0x6E6 JUMP JUMPDEST DUP3 MSTORE POP POP JUMP JUMPDEST PUSH0 PUSH1 0x80 DUP3 ADD SWAP1 POP PUSH2 0x714 PUSH0 DUP4 ADD DUP8 PUSH2 0x693 JUMP JUMPDEST PUSH2 0x721 PUSH1 0x20 DUP4 ADD DUP7 PUSH2 0x6F2 JUMP JUMPDEST PUSH2 0x72E PUSH1 0x40 DUP4 ADD DUP6 PUSH2 0x693 JUMP JUMPDEST PUSH2 0x73B PUSH1 0x60 DUP4 ADD DUP5 PUSH2 0x693 JUMP JUMPDEST SWAP6 SWAP5 POP POP POP POP POP JUMP JUMPDEST PUSH0 DUP2 MLOAD SWAP1 POP SWAP2 SWAP1 POP JUMP JUMPDEST PUSH0 DUP2 SWAP1 POP SWAP3 SWAP2 POP POP JUMP JUMPDEST DUP3 DUP2 DUP4 MCOPY PUSH0 DUP4 DUP4 ADD MSTORE POP POP POP JUMP JUMPDEST PUSH0 PUSH2 0x770 DUP3 PUSH2 0x744 JUMP JUMPDEST PUSH2 0x77A DUP2 DUP6 PUSH2 0x74E JUMP JUMPDEST SWAP4 POP PUSH2 0x78A DUP2 DUP6 PUSH1 0x20 DUP7 ADD PUSH2 0x758 JUMP JUMPDEST DUP1 DUP5 ADD SWAP2 POP POP SWAP3 SWAP2 POP POP JUMP JUMPDEST PUSH0 PUSH2 0x7A1 DUP3 DUP5 PUSH2 0x766 JUMP JUMPDEST SWAP2 POP DUP2 SWAP1 POP SWAP3 SWAP2 POP POP JUMP JUMPDEST PUSH0 DUP2 SWAP1 POP SWAP2 SWAP1 POP JUMP JUMPDEST PUSH2 0x7C6 PUSH2 0x7C1 DUP3 PUSH2 0x2A8 JUMP JUMPDEST PUSH2 0x7AC JUMP JUMPDEST DUP3 MSTORE POP POP JUMP JUMPDEST PUSH0 PUSH2 0x7D7 DUP3 DUP5 PUSH2 0x7B5 JUMP JUMPDEST PUSH1 0x20 DUP3 ADD SWAP2 POP DUP2 SWAP1 POP SWAP3 SWAP2 POP POP JUMP JUMPDEST PUSH0 DUP3 DUP3 MSTORE PUSH1 0x20 DUP3 ADD SWAP1 POP SWAP3 SWAP2 POP POP JUMP JUMPDEST PUSH32 0x496E76616C6964207369676E6174757265000000000000000000000000000000 PUSH0 DUP3 ADD MSTORE POP JUMP JUMPDEST PUSH0 PUSH2 0x82A PUSH1 0x11 DUP4 PUSH2 0x7E6 JUMP JUMPDEST SWAP2 POP PUSH2 0x835 DUP3 PUSH2 0x7F6 JUMP JUMPDEST PUSH1 0x20 DUP3 ADD SWAP1 POP SWAP2 SWAP1 POP JUMP JUMPDEST PUSH0 PUSH1 0x20 DUP3 ADD SWAP1 POP DUP2 DUP2 SUB PUSH0 DUP4 ADD MSTORE PUSH2 0x857 DUP2 PUSH2 0x81E JUMP JUMPDEST SWAP1 POP SWAP2 SWAP1 POP JUMP INVALID LOG2 PUSH5 0x6970667358 0x22 SLT KECCAK256 ADDMOD 0xF6 MOD SGT ADDRESS 0xDC 0xCB RETURN PUSH12 0xE7C3A39C54240888D91E1571 EXP PUSH31 0x18E2A28C7319C85F5064736F6C634300081900330000000000000000000000 "
				},
				"gasEstimates": {
					"creation": {
						"codeDepositCost": "439200",
						"executionCost": "472",
						"totalCost": "439672"
					},
					"external": {
						"getEthSignedMessageHash(bytes32)": "infinite",
						"getMessageHash(string)": "infinite",
						"recover(bytes32,bytes)": "infinite",
						"verify(address,string,bytes)": "infinite"
					},
					"internal": {
						"_split(bytes memory)": "infinite"
					}
				},
				"methodIdentifiers": {
					"getEthSignedMessageHash(bytes32)": "fa540801",
					"getMessageHash(string)": "b446f3b2",
					"recover(bytes32,bytes)": "19045a25",
					"verify(address,string,bytes)": "2dd34f0f"
				}
			},
			"storageLayout": {
				"storage": [],
				"types": null
			},
			"userdoc": {
				"kind": "user",
				"methods": {},
				"version": 1
			}
		}
	}
}