{
	"data": {
		"bytecode": {
			"linkReferences": {},
			"object": "6080604052348015600e575f80fd5b506105658061001c5f395ff3fe60806040526004361061003e575f3560e01c806337e2621b146100425780634a2ad99f1461007f5780637c94c8ca146100a7578063d32ce404146100e3575b5f80fd5b34801561004d575f80fd5b5061006860048036038101906100639190610323565b6100ff565b604051610076929190610366565b60405180910390f35b34801561008a575f80fd5b506100a560048036038101906100a091906103f2565b61017a565b005b3480156100b2575f80fd5b506100cd60048036038101906100c89190610430565b6101e4565b6040516100da919061045b565b60405180910390f35b6100fd60048036038101906100f89190610474565b610259565b005b5f808273ffffffffffffffffffffffffffffffffffffffff1663d6c7a3be6040518163ffffffff1660e01b81526004016040805180830381865afa158015610149573d5f803e3d5ffd5b505050506040513d601f19601f8201168201806040525081019061016d91906104c6565b8092508193505050915091565b8173ffffffffffffffffffffffffffffffffffffffff16634018d9aa826040518263ffffffff1660e01b81526004016101b3919061045b565b5f604051808303815f87803b1580156101ca575f80fd5b505af11580156101dc573d5f803e3d5ffd5b505050505050565b5f8173ffffffffffffffffffffffffffffffffffffffff16635197c7aa6040518163ffffffff1660e01b8152600401602060405180830381865afa15801561022e573d5f803e3d5ffd5b505050506040513d601f19601f820116820180604052508101906102529190610504565b9050919050565b8173ffffffffffffffffffffffffffffffffffffffff16630a2ff38f34836040518363ffffffff1660e01b8152600401610293919061045b565b5f604051808303818588803b1580156102aa575f80fd5b505af11580156102bc573d5f803e3d5ffd5b50505050505050565b5f80fd5b5f73ffffffffffffffffffffffffffffffffffffffff82169050919050565b5f6102f2826102c9565b9050919050565b610302816102e8565b811461030c575f80fd5b50565b5f8135905061031d816102f9565b92915050565b5f60208284031215610338576103376102c5565b5b5f6103458482850161030f565b91505092915050565b5f819050919050565b6103608161034e565b82525050565b5f6040820190506103795f830185610357565b6103866020830184610357565b9392505050565b5f610397826102e8565b9050919050565b6103a78161038d565b81146103b1575f80fd5b50565b5f813590506103c28161039e565b92915050565b6103d18161034e565b81146103db575f80fd5b50565b5f813590506103ec816103c8565b92915050565b5f8060408385031215610408576104076102c5565b5b5f610415858286016103b4565b9250506020610426858286016103de565b9150509250929050565b5f60208284031215610445576104446102c5565b5b5f610452848285016103b4565b91505092915050565b5f60208201905061046e5f830184610357565b92915050565b5f806040838503121561048a576104896102c5565b5b5f6104978582860161030f565b92505060206104a8858286016103de565b9150509250929050565b5f815190506104c0816103c8565b92915050565b5f80604083850312156104dc576104db6102c5565b5b5f6104e9858286016104b2565b92505060206104fa858286016104b2565b9150509250929050565b5f60208284031215610519576105186102c5565b5b5f610526848285016104b2565b9150509291505056fea26469706673582212200c20d20013ffe988ae89ba885e830759d90d76887825938cb870e5c40bee930964736f6c63430008190033",
			"opcodes": "PUSH1 0x80 PUSH1 0x40 MSTORE CALLVALUE DUP1 ISZERO PUSH1 0xE JUMPI PUSH0 DUP1 REVERT JUMPDEST POP PUSH2 0x565 DUP1 PUSH2 0x1C PUSH0 CODECOPY PUSH0 RETURN INVALID PUSH1 0x80 PUSH1 0x40 MSTORE PUSH1 0x4 CALLDATASIZE LT PUSH2 0x3E JUMPI PUSH0 CALLDATALOAD PUSH1 0xE0 SHR DUP1 PUSH4 0x37E2621B EQ PUSH2 0x42 JUMPI DUP1 PUSH4 0x4A2AD99F EQ PUSH2 0x7F JUMPI DUP1 PUSH4 0x7C94C8CA EQ PUSH2 0xA7 JUMPI DUP1 PUSH4 0xD32CE404 EQ PUSH2 0xE3 JUMPI JUMPDEST PUSH0 DUP1 REVERT JUMPDEST CALLVALUE DUP1 ISZERO PUSH2 0x4D JUMPI PUSH0 DUP1 REVERT JUMPDEST POP PUSH2 0x68 PUSH1 0x4 DUP1 CALLDATASIZE SUB DUP2 ADD SWAP1 PUSH2 0x63 SWAP2 SWAP1 PUSH2 0x323 JUMP JUMPDEST PUSH2 0xFF JUMP JUMPDEST PUSH1 0x40 MLOAD PUSH2 0x76 SWAP3 SWAP2 SWAP1 PUSH2 0x366 JUMP JUMPDEST PUSH1 0x40 MLOAD DUP1 SWAP2 SUB SWAP1 RETURN JUMPDEST CALLVALUE DUP1 ISZERO PUSH2 0x8A JUMPI PUSH0 DUP1 REVERT JUMPDEST POP PUSH2 0xA5 PUSH1 0x4 DUP1 CALLDATASIZE SUB DUP2 ADD SWAP1 PUSH2 0xA0 SWAP2 SWAP1 PUSH2 0x3F2 JUMP JUMPDEST PUSH2 0x17A JUMP JUMPDEST STOP JUMPDEST CALLVALUE DUP1 ISZERO PUSH2 0xB2 JUMPI PUSH0 DUP1 REVERT JUMPDEST POP PUSH2 0xCD PUSH1 0x4 DUP1 CALLDATASIZE SUB DUP2 ADD SWAP1 PUSH2 0xC8 SWAP2 SWAP1 PUSH2 0x430 JUMP JUMPDEST PUSH2 0x1E4 JUMP JUMPDEST PUSH1 0x40 MLOAD PUSH2 0xDA SWAP2 SWAP1 PUSH2 0x45B JUMP JUMPDEST PUSH1 0x40 MLOAD DUP1 SWAP2 SUB SWAP1 RETURN JUMPDEST PUSH2 0xFD PUSH1 0x4 DUP1 CALLDATASIZE SUB DUP2 ADD SWAP1 PUSH2 0xF8 SWAP2 SWAP1 PUSH2 0x474 JUMP JUMPDEST PUSH2 0x259 JUMP JUMPDEST STOP JUMPDEST PUSH0 DUP1 DUP3 PUSH20 0xFFFFFFFFFFFFFFFFFFFFFFFFFFFFFFFFFFFFFFFF AND PUSH4 0xD6C7A3BE PUSH1 0x40 MLOAD DUP2 PUSH4 0xFFFFFFFF AND PUSH1 0xE0 SHL DUP2 MSTORE PUSH1 0x4 ADD PUSH1 0x40 DUP1 MLOAD DUP1 DUP4 SUB DUP2 DUP7 GAS STATICCALL ISZERO DUP1 ISZERO PUSH2 0x149 JUMPI RETURNDATASIZE PUSH0 DUP1 RETURNDATACOPY RETURNDATASIZE PUSH0 REVERT JUMPDEST POP POP POP POP PUSH1 0x40 MLOAD RETURNDATASIZE PUSH1 0x1F NOT PUSH1 0x1F DUP3 ADD AND DUP3 ADD DUP1 PUSH1 0x40 MSTORE POP DUP2 ADD SWAP1 PUSH2 0x16D SWAP2 SWAP1 PUSH2 0x4C6 JUMP JUMPDEST DUP1 SWAP3 POP DUP2 SWAP4 POP POP POP SWAP2 POP SWAP2 JUMP JUMPDEST DUP2 PUSH20 0xFFFFFFFFFFFFFFFFFFFFFFFFFFFFFFFFFFFFFFFF AND PUSH4 0x4018D9AA DUP3 PUSH1 0x40 MLOAD DUP3 PUSH4 0xFFFFFFFF AND PUSH1 0xE0 SHL DUP2 MSTORE PUSH1 0x4 ADD PUSH2 0x1B3 SWAP2 SWAP1 PUSH2 0x45B JUMP JUMPDEST PUSH0 PUSH1 0x40 MLOAD DUP1 DUP4 SUB DUP2 PUSH0 DUP8 DUP1 EXTCODESIZE ISZERO DUP1 ISZERO PUSH2 0x1CA JUMPI PUSH0 DUP1 REVERT JUMPDEST POP GAS CALL ISZERO DUP1 ISZERO PUSH2 0x1DC JUMPI RETURNDATASIZE PUSH0 DUP1 RETURNDATACOPY RETURNDATASIZE PUSH0 REVERT JUMPDEST POP POP POP POP POP POP JUMP JUMPDEST PUSH0 DUP2 PUSH20 0xFFFFFFFFFFFFFFFFFFFFFFFFFFFFFFFFFFFFFFFF AND PUSH4 0x5197C7AA PUSH1 0x40 MLOAD DUP2 PUSH4 0xFFFFFFFF AND PUSH1 0xE0 SHL DUP2 MSTORE PUSH1 0x4 ADD PUSH1 0x20 PUSH1 0x40 MLOAD DUP1 DUP4 SUB DUP2 DUP7 GAS STATICCALL ISZERO DUP1 ISZERO PUSH2 0x22E JUMPI RETURNDATASIZE PUSH0 DUP1 RETURNDATACOPY RETURNDATASIZE PUSH0 REVERT JUMPDEST POP POP POP POP PUSH1 0x40 MLOAD RETURNDATASIZE PUSH1 0x1F NOT PUSH1 0x1F DUP3 ADD AND DUP3 ADD DUP1 PUSH1 0x40 MSTORE POP DUP2 ADD SWAP1 PUSH2 0x252 SWAP2 SWAP1 PUSH2 0x504 JUMP JUMPDEST SWAP1 POP SWAP2 SWAP1 POP JUMP JUMPDEST DUP2 PUSH20 0xFFFFFFFFFFFFFFFFFFFFFFFFFFFFFFFFFFFFFFFF AND PUSH4 0xA2FF38F CALLVALUE DUP4 PUSH1 0x40 MLOAD DUP4 PUSH4 0xFFFFFFFF AND PUSH1 0xE0 SHL DUP2 MSTORE PUSH1 0x4 ADD PUSH2 0x293 SWAP2 SWAP1 PUSH2 0x45B JUMP JUMPDEST PUSH0 PUSH1 0x40 MLOAD DUP1 DUP4 SUB DUP2 DUP6 DUP9 DUP1 EXTCODESIZE ISZERO DUP1 ISZERO PUSH2 0x2AA JUMPI PUSH0 DUP1 REVERT JUMPDEST POP GAS CALL ISZERO DUP1 ISZERO PUSH2 0x2BC JUMPI RETURNDATASIZE PUSH0 DUP1 RETURNDATACOPY RETURNDATASIZE PUSH0 REVERT JUMPDEST POP POP POP POP POP POP POP JUMP JUMPDEST PUSH0 DUP1 REVERT JUMPDEST PUSH0 PUSH20 0xFFFFFFFFFFFFFFFFFFFFFFFFFFFFFFFFFFFFFFFF DUP3 AND SWAP1 POP SWAP2 SWAP1 POP JUMP JUMPDEST PUSH0 PUSH2 0x2F2 DUP3 PUSH2 0x2C9 JUMP JUMPDEST SWAP1 POP SWAP2 SWAP1 POP JUMP JUMPDEST PUSH2 0x302 DUP2 PUSH2 0x2E8 JUMP JUMPDEST DUP2 EQ PUSH2 0x30C JUMPI PUSH0 DUP1 REVERT JUMPDEST POP JUMP JUMPDEST PUSH0 DUP2 CALLDATALOAD SWAP1 POP PUSH2 0x31D DUP2 PUSH2 0x2F9 JUMP JUMPDEST SWAP3 SWAP2 POP POP JUMP JUMPDEST PUSH0 PUSH1 0x20 DUP3 DUP5 SUB SLT ISZERO PUSH2 0x338 JUMPI PUSH2 0x337 PUSH2 0x2C5 JUMP JUMPDEST JUMPDEST PUSH0 PUSH2 0x345 DUP5 DUP3 DUP6 ADD PUSH2 0x30F JUMP JUMPDEST SWAP2 POP POP SWAP3 SWAP2 POP POP JUMP JUMPDEST PUSH0 DUP2 SWAP1 POP SWAP2 SWAP1 POP JUMP JUMPDEST PUSH2 0x360 DUP2 PUSH2 0x34E JUMP JUMPDEST DUP3 MSTORE POP POP JUMP JUMPDEST PUSH0 PUSH1 0x40 DUP3 ADD SWAP1 POP PUSH2 0x379 PUSH0 DUP4 ADD DUP6 PUSH2 0x357 JUMP JUMPDEST PUSH2 0x386 PUSH1 0x20 DUP4 ADD DUP5 PUSH2 0x357 JUMP JUMPDEST SWAP4 SWAP3 POP POP POP JUMP JUMPDEST PUSH0 PUSH2 0x397 DUP3 PUSH2 0x2E8 JUMP JUMPDEST SWAP1 POP SWAP2 SWAP1 POP JUMP JUMPDEST PUSH2 0x3A7 DUP2 PUSH2 0x38D JUMP JUMPDEST DUP2 EQ PUSH2 0x3B1 JUMPI PUSH0 DUP1 REVERT JUMPDEST POP JUMP JUMPDEST PUSH0 DUP2 CALLDATALOAD SWAP1 POP PUSH2 0x3C2 DUP2 PUSH2 0x39E JUMP JUMPDEST SWAP3 SWAP2 POP POP JUMP JUMPDEST PUSH2 0x3D1 DUP2 PUSH2 0x34E JUMP JUMPDEST DUP2 EQ PUSH2 0x3DB JUMPI PUSH0 DUP1 REVERT JUMPDEST POP JUMP JUMPDEST PUSH0 DUP2 CALLDATALOAD SWAP1 POP PUSH2 0x3EC DUP2 PUSH2 0x3C8 JUMP JUMPDEST SWAP3 SWAP2 POP POP JUMP JUMPDEST PUSH0 DUP1 PUSH1 0x40 DUP4 DUP6 SUB SLT ISZERO PUSH2 0x408 JUMPI PUSH2 0x407 PUSH2 0x2C5 JUMP JUMPDEST JUMPDEST PUSH0 PUSH2 0x415 DUP6 DUP3 DUP7 ADD PUSH2 0x3B4 JUMP JUMPDEST SWAP3 POP POP PUSH1 0x20 PUSH2 0x426 DUP6 DUP3 DUP7 ADD PUSH2 0x3DE JUMP JUMPDEST SWAP2 POP POP SWAP3 POP SWAP3 SWAP1 POP JUMP JUMPDEST PUSH0 PUSH1 0x20 DUP3 DUP5 SUB SLT ISZERO PUSH2 0x445 JUMPI PUSH2 0x444 PUSH2 0x2C5 JUMP JUMPDEST JUMPDEST PUSH0 PUSH2 0x452 DUP5 DUP3 DUP6 ADD PUSH2 0x3B4 JUMP JUMPDEST SWAP2 POP POP SWAP3 SWAP2 POP POP JUMP JUMPDEST PUSH0 PUSH1 0x20 DUP3 ADD SWAP1 POP PUSH2 0x46E PUSH0 DUP4 ADD DUP5 PUSH2 0x357 JUMP JUMPDEST SWAP3 SWAP2 POP POP JUMP JUMPDEST PUSH0 DUP1 PUSH1 0x40 DUP4 DUP6 SUB SLT ISZERO PUSH2 0x48A JUMPI PUSH2 0x489 PUSH2 0x2C5 JUMP JUMPDEST JUMPDEST PUSH0 PUSH2 0x497 DUP6 DUP3 DUP7 ADD PUSH2 0x30F JUMP JUMPDEST SWAP3 POP POP PUSH1 0x20 PUSH2 0x4A8 DUP6 DUP3 DUP7 ADD PUSH2 0x3DE JUMP JUMPDEST SWAP2 POP POP SWAP3 POP SWAP3 SWAP1 POP JUMP JUMPDEST PUSH0 DUP2 MLOAD SWAP1 POP PUSH2 0x4C0 DUP2 PUSH2 0x3C8 JUMP JUMPDEST SWAP3 SWAP2 POP POP JUMP JUMPDEST PUSH0 DUP1 PUSH1 0x40 DUP4 DUP6 SUB SLT ISZERO PUSH2 0x4DC JUMPI PUSH2 0x4DB PUSH2 0x2C5 JUMP JUMPDEST JUMPDEST PUSH0 PUSH2 0x4E9 DUP6 DUP3 DUP7 ADD PUSH2 0x4B2 JUMP JUMPDEST SWAP3 POP POP PUSH1 0x20 PUSH2 0x4FA DUP6 DUP3 DUP7 ADD PUSH2 0x4B2 JUMP JUMPDEST SWAP2 POP POP SWAP3 POP SWAP3 SWAP1 POP JUMP JUMPDEST PUSH0 PUSH1 0x20 DUP3 DUP5 SUB SLT ISZERO PUSH2 0x519 JUMPI PUSH2 0x518 PUSH2 0x2C5 JUMP JUMPDEST JUMPDEST PUSH0 PUSH2 0x526 DUP5 DUP3 DUP6 ADD PUSH2 0x4B2 JUMP JUMPDEST SWAP2 POP POP SWAP3 SWAP2 POP POP JUMP INVALID LOG2 PUSH5 0x6970667358 0x22 SLT KECCAK256 0xC KECCAK256 0xD2 STOP SGT SELFDESTRUCT 0xE9 DUP9 0xAE DUP10 0xBA DUP9 MCOPY DUP4 SMOD MSIZE 0xD9 0xD PUSH23 0x887825938CB870E5C40BEE930964736F6C634300081900 CALLER "
		},
		"gasEstimates": {
			"creation": {
				"codeDepositCost": "276200",
				"executionCost": "316",
				"totalCost": "276516"
			},
			"external": {
				"getX(address)": "infinite",
				"getXandValue(address)": "infinite",
				"setX(address,uint256)": "infinite",
				"setXandReceiverEther(address,uint256)": "infinite"
			}
		},
		"methodIdentifiers": {
			"getX(address)": "7c94c8ca",
			"getXandValue(address)": "37e2621b",
			"setX(address,uint256)": "4a2ad99f",
			"setXandReceiverEther(address,uint256)": "d32ce404"
		}
	},
	"abi": [
		{
			"inputs": [
				{
					"internalType": "contract TestContract",
					"name": "_test",
					"type": "address"
				}
			],
			"name": "getX",
			"outputs": [
				{
					"internalType": "uint256",
					"name": "",
					"type": "uint256"
				}
			],
			"stateMutability": "view",
			"type": "function"
		},
		{
			"inputs": [
				{
					"internalType": "address",
					"name": "_test",
					"type": "address"
				}
			],
			"name": "getXandValue",
			"outputs": [
				{
					"internalType": "uint256",
					"name": "x",
					"type": "uint256"
				},
				{
					"internalType": "uint256",
					"name": "value",
					"type": "uint256"
				}
			],
			"stateMutability": "view",
			"type": "function"
		},
		{
			"inputs": [
				{
					"internalType": "contract TestContract",
					"name": "_test",
					"type": "address"
				},
				{
					"internalType": "uint256",
					"name": "_x",
					"type": "uint256"
				}
			],
			"name": "setX",
			"outputs": [],
			"stateMutability": "nonpayable",
			"type": "function"
		},
		{
			"inputs": [
				{
					"internalType": "address",
					"name": "_test",
					"type": "address"
				},
				{
					"internalType": "uint256",
					"name": "_x",
					"type": "uint256"
				}
			],
			"name": "setXandReceiverEther",
			"outputs": [],
			"stateMutability": "payable",
			"type": "function"
		}
	]
}